{
  "_format": "hh-sol-artifact-1",
  "contractName": "TicketEx",
  "sourceName": "contracts/TicketEx.sol",
  "abi": [
    {
      "anonymous": false,
      "inputs": [
        {
          "indexed": true,
          "internalType": "address",
          "name": "account",
          "type": "address"
        },
        {
          "indexed": true,
          "internalType": "address",
          "name": "operator",
          "type": "address"
        },
        {
          "indexed": false,
          "internalType": "bool",
          "name": "approved",
          "type": "bool"
        }
      ],
      "name": "ApprovalForAll",
      "type": "event"
    },
    {
      "anonymous": false,
      "inputs": [
        {
          "indexed": false,
          "internalType": "address",
          "name": "attendee",
          "type": "address"
        },
        {
          "indexed": false,
          "internalType": "uint256[]",
          "name": "_tokenIds",
          "type": "uint256[]"
        },
        {
          "indexed": false,
          "internalType": "uint256[]",
          "name": "_qty",
          "type": "uint256[]"
        }
      ],
      "name": "CheckedIn",
      "type": "event"
    },
    {
      "anonymous": false,
      "inputs": [
        {
          "indexed": false,
          "internalType": "uint8",
          "name": "version",
          "type": "uint8"
        }
      ],
      "name": "Initialized",
      "type": "event"
    },
    {
      "anonymous": false,
      "inputs": [
        {
          "indexed": true,
          "internalType": "address",
          "name": "operator",
          "type": "address"
        },
        {
          "indexed": true,
          "internalType": "address",
          "name": "from",
          "type": "address"
        },
        {
          "indexed": true,
          "internalType": "address",
          "name": "to",
          "type": "address"
        },
        {
          "indexed": false,
          "internalType": "uint256[]",
          "name": "ids",
          "type": "uint256[]"
        },
        {
          "indexed": false,
          "internalType": "uint256[]",
          "name": "values",
          "type": "uint256[]"
        }
      ],
      "name": "TransferBatch",
      "type": "event"
    },
    {
      "anonymous": false,
      "inputs": [
        {
          "indexed": true,
          "internalType": "address",
          "name": "operator",
          "type": "address"
        },
        {
          "indexed": true,
          "internalType": "address",
          "name": "from",
          "type": "address"
        },
        {
          "indexed": true,
          "internalType": "address",
          "name": "to",
          "type": "address"
        },
        {
          "indexed": false,
          "internalType": "uint256",
          "name": "id",
          "type": "uint256"
        },
        {
          "indexed": false,
          "internalType": "uint256",
          "name": "value",
          "type": "uint256"
        }
      ],
      "name": "TransferSingle",
      "type": "event"
    },
    {
      "anonymous": false,
      "inputs": [
        {
          "indexed": false,
          "internalType": "string",
          "name": "value",
          "type": "string"
        },
        {
          "indexed": true,
          "internalType": "uint256",
          "name": "id",
          "type": "uint256"
        }
      ],
      "name": "URI",
      "type": "event"
    },
    {
      "inputs": [],
      "name": "accounting",
      "outputs": [
        {
          "internalType": "address",
          "name": "",
          "type": "address"
        }
      ],
      "stateMutability": "view",
      "type": "function"
    },
    {
      "inputs": [
        {
          "internalType": "uint256",
          "name": "",
          "type": "uint256"
        }
      ],
      "name": "attendees",
      "outputs": [
        {
          "internalType": "address",
          "name": "",
          "type": "address"
        }
      ],
      "stateMutability": "view",
      "type": "function"
    },
    {
      "inputs": [
        {
          "internalType": "address",
          "name": "account",
          "type": "address"
        },
        {
          "internalType": "uint256",
          "name": "id",
          "type": "uint256"
        }
      ],
      "name": "balanceOf",
      "outputs": [
        {
          "internalType": "uint256",
          "name": "",
          "type": "uint256"
        }
      ],
      "stateMutability": "view",
      "type": "function"
    },
    {
      "inputs": [
        {
          "internalType": "address[]",
          "name": "accounts",
          "type": "address[]"
        },
        {
          "internalType": "uint256[]",
          "name": "ids",
          "type": "uint256[]"
        }
      ],
      "name": "balanceOfBatch",
      "outputs": [
        {
          "internalType": "uint256[]",
          "name": "",
          "type": "uint256[]"
        }
      ],
      "stateMutability": "view",
      "type": "function"
    },
    {
      "inputs": [
        {
          "internalType": "uint256[]",
          "name": "_ticketIds",
          "type": "uint256[]"
        },
        {
          "internalType": "uint256[]",
          "name": "_qty",
          "type": "uint256[]"
        }
      ],
      "name": "buyTickets",
      "outputs": [],
      "stateMutability": "payable",
      "type": "function"
    },
    {
      "inputs": [
        {
          "internalType": "uint256[]",
          "name": "_ticketId",
          "type": "uint256[]"
        },
        {
          "internalType": "uint256[]",
          "name": "_qty",
          "type": "uint256[]"
        }
      ],
      "name": "checkIn",
      "outputs": [],
      "stateMutability": "nonpayable",
      "type": "function"
    },
    {
      "inputs": [],
      "name": "eventCheckInDeadline",
      "outputs": [
        {
          "internalType": "uint256",
          "name": "",
          "type": "uint256"
        }
      ],
      "stateMutability": "view",
      "type": "function"
    },
    {
      "inputs": [],
      "name": "getBaseTokenURI",
      "outputs": [
        {
          "internalType": "string",
          "name": "",
          "type": "string"
        }
      ],
      "stateMutability": "view",
      "type": "function"
    },
    {
      "inputs": [
        {
          "internalType": "uint256",
          "name": "tokenId",
          "type": "uint256"
        }
      ],
      "name": "getTokenURI",
      "outputs": [
        {
          "internalType": "string",
          "name": "",
          "type": "string"
        }
      ],
      "stateMutability": "view",
      "type": "function"
    },
    {
      "inputs": [
        {
          "internalType": "string[]",
          "name": "fungibleTokenURI_",
          "type": "string[]"
        },
        {
          "internalType": "uint256[]",
          "name": "prices_",
          "type": "uint256[]"
        },
        {
          "internalType": "uint256[]",
          "name": "maxQuantity_",
          "type": "uint256[]"
        },
        {
          "internalType": "uint256",
          "name": "eventCheckInDeadline_",
          "type": "uint256"
        },
        {
          "internalType": "address",
          "name": "_accounting",
          "type": "address"
        },
        {
          "internalType": "uint96",
          "name": "_royalty",
          "type": "uint96"
        }
      ],
      "name": "initialize",
      "outputs": [],
      "stateMutability": "nonpayable",
      "type": "function"
    },
    {
      "inputs": [
        {
          "internalType": "address",
          "name": "account",
          "type": "address"
        },
        {
          "internalType": "address",
          "name": "operator",
          "type": "address"
        }
      ],
      "name": "isApprovedForAll",
      "outputs": [
        {
          "internalType": "bool",
          "name": "",
          "type": "bool"
        }
      ],
      "stateMutability": "view",
      "type": "function"
    },
    {
      "inputs": [
        {
          "internalType": "uint256",
          "name": "_tokenId",
          "type": "uint256"
        },
        {
          "internalType": "uint256",
          "name": "_salePrice",
          "type": "uint256"
        }
      ],
      "name": "royaltyInfo",
      "outputs": [
        {
          "internalType": "address",
          "name": "",
          "type": "address"
        },
        {
          "internalType": "uint256",
          "name": "",
          "type": "uint256"
        }
      ],
      "stateMutability": "view",
      "type": "function"
    },
    {
      "inputs": [
        {
          "internalType": "address",
          "name": "from",
          "type": "address"
        },
        {
          "internalType": "address",
          "name": "to",
          "type": "address"
        },
        {
          "internalType": "uint256[]",
          "name": "ids",
          "type": "uint256[]"
        },
        {
          "internalType": "uint256[]",
          "name": "amounts",
          "type": "uint256[]"
        },
        {
          "internalType": "bytes",
          "name": "data",
          "type": "bytes"
        }
      ],
      "name": "safeBatchTransferFrom",
      "outputs": [],
      "stateMutability": "nonpayable",
      "type": "function"
    },
    {
      "inputs": [
        {
          "internalType": "address",
          "name": "from",
          "type": "address"
        },
        {
          "internalType": "address",
          "name": "to",
          "type": "address"
        },
        {
          "internalType": "uint256",
          "name": "id",
          "type": "uint256"
        },
        {
          "internalType": "uint256",
          "name": "amount",
          "type": "uint256"
        },
        {
          "internalType": "bytes",
          "name": "data",
          "type": "bytes"
        }
      ],
      "name": "safeTransferFrom",
      "outputs": [],
      "stateMutability": "nonpayable",
      "type": "function"
    },
    {
      "inputs": [
        {
          "internalType": "address",
          "name": "operator",
          "type": "address"
        },
        {
          "internalType": "bool",
          "name": "approved",
          "type": "bool"
        }
      ],
      "name": "setApprovalForAll",
      "outputs": [],
      "stateMutability": "nonpayable",
      "type": "function"
    },
    {
      "inputs": [
        {
          "internalType": "string",
          "name": "newuri",
          "type": "string"
        }
      ],
      "name": "setBaseTokenURI",
      "outputs": [],
      "stateMutability": "nonpayable",
      "type": "function"
    },
    {
      "inputs": [
        {
          "internalType": "uint256[]",
          "name": "newqty",
          "type": "uint256[]"
        }
      ],
      "name": "setNonFungibleTokenQty",
      "outputs": [],
      "stateMutability": "nonpayable",
      "type": "function"
    },
    {
      "inputs": [
        {
          "internalType": "string[]",
          "name": "newuri",
          "type": "string[]"
        }
      ],
      "name": "setNonFungibleTokenURI",
      "outputs": [],
      "stateMutability": "nonpayable",
      "type": "function"
    },
    {
      "inputs": [
        {
          "internalType": "address",
          "name": "receiver",
          "type": "address"
        },
        {
          "internalType": "uint96",
          "name": "feeBasisPoints",
          "type": "uint96"
        }
      ],
      "name": "setRoyaltyInfo",
      "outputs": [],
      "stateMutability": "nonpayable",
      "type": "function"
    },
    {
      "inputs": [
        {
          "internalType": "bytes4",
          "name": "interfaceId",
          "type": "bytes4"
        }
      ],
      "name": "supportsInterface",
      "outputs": [
        {
          "internalType": "bool",
          "name": "",
          "type": "bool"
        }
      ],
      "stateMutability": "view",
      "type": "function"
    },
    {
      "inputs": [
        {
          "internalType": "address",
          "name": "_newOwner",
          "type": "address"
        }
      ],
      "name": "transferOwnership",
      "outputs": [],
      "stateMutability": "nonpayable",
      "type": "function"
    },
    {
      "inputs": [],
      "name": "withdraw",
      "outputs": [],
      "stateMutability": "nonpayable",
      "type": "function"
    }
  ],
  "bytecode": "0x6080604052600060125534801561001557600080fd5b50614fcd806100256000396000f3fe6080604052600436106101345760003560e01c80634e1273f4116100ab578063bdc32be01161006f578063bdc32be014610434578063c05851441461045f578063e985e9c51461047b578063ec69e314146104b8578063f242432a146104e1578063f2fde38b1461050a57610134565b80634e1273f4146103515780635261325d1461038e578063842268ed146103b75780639624e83e146103e0578063a22cb4651461040b57610134565b80632a55205a116100fd5780632a55205a146102445780632eb2c2d61461028257806330176e13146102ab5780633bb3a24d146102d45780633ccfd60b1461031157806349aa48871461032857610134565b8062fdd58e1461013957806301ffc9a71461017657806302fa7c47146101b35780630e0c353d146101dc578063217d365314610219575b600080fd5b34801561014557600080fd5b50610160600480360381019061015b9190612f8a565b610533565b60405161016d9190612fd9565b60405180910390f35b34801561018257600080fd5b5061019d6004803603810190610198919061304c565b6105fc565b6040516101aa9190613094565b60405180910390f35b3480156101bf57600080fd5b506101da60048036038101906101d591906130f3565b610676565b005b3480156101e857600080fd5b5061020360048036038101906101fe9190613133565b61071b565b604051610210919061316f565b60405180910390f35b34801561022557600080fd5b5061022e61075a565b60405161023b9190612fd9565b60405180910390f35b34801561025057600080fd5b5061026b6004803603810190610266919061318a565b610760565b6040516102799291906131ca565b60405180910390f35b34801561028e57600080fd5b506102a960048036038101906102a49190613401565b61094a565b005b3480156102b757600080fd5b506102d260048036038101906102cd9190613571565b6109eb565b005b3480156102e057600080fd5b506102fb60048036038101906102f69190613133565b610a05565b6040516103089190613642565b60405180910390f35b34801561031d57600080fd5b50610326610b10565b005b34801561033457600080fd5b5061034f600480360381019061034a91906136bf565b610be1565b005b34801561035d57600080fd5b50610378600480360381019061037391906137cf565b610c4d565b6040516103859190613905565b60405180910390f35b34801561039a57600080fd5b506103b560048036038101906103b0919061397d565b610d66565b005b3480156103c357600080fd5b506103de60048036038101906103d99190613aab565b610dc8565b005b3480156103ec57600080fd5b506103f561102f565b604051610402919061316f565b60405180910390f35b34801561041757600080fd5b50610432600480360381019061042d9190613bb8565b611055565b005b34801561044057600080fd5b5061044961106b565b6040516104569190613642565b60405180910390f35b61047960048036038101906104749190613bf8565b6110fd565b005b34801561048757600080fd5b506104a2600480360381019061049d9190613c79565b61144e565b6040516104af9190613094565b60405180910390f35b3480156104c457600080fd5b506104df60048036038101906104da9190613bf8565b6114e2565b005b3480156104ed57600080fd5b5061050860048036038101906105039190613cb9565b6117d9565b005b34801561051657600080fd5b50610531600480360381019061052c9190613d50565b61187a565b005b60008073ffffffffffffffffffffffffffffffffffffffff168373ffffffffffffffffffffffffffffffffffffffff16036105a3576040517f08c379a000000000000000000000000000000000000000000000000000000000815260040161059a90613def565b60405180910390fd5b6003600083815260200190815260200160002060008473ffffffffffffffffffffffffffffffffffffffff1673ffffffffffffffffffffffffffffffffffffffff16815260200190815260200160002054905092915050565b60007fd9b67a26000000000000000000000000000000000000000000000000000000007bffffffffffffffffffffffffffffffffffffffffffffffffffffffff1916827bffffffffffffffffffffffffffffffffffffffffffffffffffffffff1916148061066f575061066e82611955565b5b9050919050565b601160009054906101000a900473ffffffffffffffffffffffffffffffffffffffff1673ffffffffffffffffffffffffffffffffffffffff166106b76119cf565b73ffffffffffffffffffffffffffffffffffffffff161461070d576040517f08c379a000000000000000000000000000000000000000000000000000000000815260040161070490613e5b565b60405180910390fd5b61071782826119d7565b5050565b6004818154811061072b57600080fd5b906000526020600020016000915054906101000a900473ffffffffffffffffffffffffffffffffffffffff1681565b600f5481565b6000806000600160008681526020019081526020016000206040518060400160405290816000820160009054906101000a900473ffffffffffffffffffffffffffffffffffffffff1673ffffffffffffffffffffffffffffffffffffffff1673ffffffffffffffffffffffffffffffffffffffff1681526020016000820160149054906101000a90046bffffffffffffffffffffffff166bffffffffffffffffffffffff166bffffffffffffffffffffffff16815250509050600073ffffffffffffffffffffffffffffffffffffffff16816000015173ffffffffffffffffffffffffffffffffffffffff16036108f55760006040518060400160405290816000820160009054906101000a900473ffffffffffffffffffffffffffffffffffffffff1673ffffffffffffffffffffffffffffffffffffffff1673ffffffffffffffffffffffffffffffffffffffff1681526020016000820160149054906101000a90046bffffffffffffffffffffffff166bffffffffffffffffffffffff166bffffffffffffffffffffffff168152505090505b60006108ff611b6b565b6bffffffffffffffffffffffff1682602001516bffffffffffffffffffffffff168661092b9190613eaa565b6109359190613f33565b90508160000151819350935050509250929050565b6109526119cf565b73ffffffffffffffffffffffffffffffffffffffff168573ffffffffffffffffffffffffffffffffffffffff1614806109985750610997856109926119cf565b61144e565b5b6109d7576040517f08c379a00000000000000000000000000000000000000000000000000000000081526004016109ce90613fd6565b60405180910390fd5b6109e48585858585611b75565b5050505050565b80600e9080519060200190610a01929190612d6c565b5050565b6060600f54421115610ad257600d600060058481548110610a2957610a28613ff6565b5b906000526020600020015481526020019081526020016000208054610a4d90614054565b80601f0160208091040260200160405190810160405280929190818152602001828054610a7990614054565b8015610ac65780601f10610a9b57610100808354040283529160200191610ac6565b820191906000526020600020905b815481529060010190602001808311610aa957829003601f168201915b50505050509050610b0b565b6040518060400160405280601681526020017f546f6b656e73206e6f742064726f70706564207965740000000000000000000081525090505b919050565b6000601060009054906101000a900473ffffffffffffffffffffffffffffffffffffffff1673ffffffffffffffffffffffffffffffffffffffff1647604051610b58906140b6565b60006040518083038185875af1925050503d8060008114610b95576040519150601f19603f3d011682016040523d82523d6000602084013e610b9a565b606091505b5050905080610bde576040517f08c379a0000000000000000000000000000000000000000000000000000000008152600401610bd590614117565b60405180910390fd5b50565b60005b82829050811015610c4857828282818110610c0257610c01613ff6565b5b9050602002810190610c149190614146565b600d60008481526020019081526020016000209190610c34929190612df2565b508080610c40906141a9565b915050610be4565b505050565b60608151835114610c93576040517f08c379a0000000000000000000000000000000000000000000000000000000008152600401610c8a90614263565b60405180910390fd5b6000835167ffffffffffffffff811115610cb057610caf613209565b5b604051908082528060200260200182016040528015610cde5781602001602082028036833780820191505090505b50905060005b8451811015610d5b57610d2b858281518110610d0357610d02613ff6565b5b6020026020010151858381518110610d1e57610d1d613ff6565b5b6020026020010151610533565b828281518110610d3e57610d3d613ff6565b5b60200260200101818152505080610d54906141a9565b9050610ce4565b508091505092915050565b60005b82829050811015610dc357828282818110610d8757610d86613ff6565b5b9050602002013560068281548110610da257610da1613ff6565b5b90600052602060002001819055508080610dbb906141a9565b915050610d69565b505050565b6000600260019054906101000a900460ff16159050808015610dfc57506001600260009054906101000a900460ff1660ff16105b80610e2b5750610e0b30611e99565b158015610e2a57506001600260009054906101000a900460ff1660ff16145b5b610e6a576040517f08c379a0000000000000000000000000000000000000000000000000000000008152600401610e61906142f5565b60405180910390fd5b6001600260006101000a81548160ff021916908360ff1602179055508015610ea8576001600260016101000a81548160ff0219169083151502179055505b60005b8751811015610f0957878181518110610ec757610ec6613ff6565b5b6020026020010151600c60008381526020019081526020016000209080519060200190610ef5929190612d6c565b508080610f01906141a9565b915050610eab565b5085600a9080519060200190610f20929190612e78565b508460089080519060200190610f37929190612e78565b508460099080519060200190610f4e929190612e78565b5082601060006101000a81548173ffffffffffffffffffffffffffffffffffffffff021916908373ffffffffffffffffffffffffffffffffffffffff16021790555083600f81905550610fc2601160009054906101000a900473ffffffffffffffffffffffffffffffffffffffff1661187a565b610fcc83836119d7565b8015611026576000600260016101000a81548160ff0219169083151502179055507f7f26b83ff96e1f2b6a682f133852f6798a09c465da95921460cefb3847402498600160405161101d9190614367565b60405180910390a15b50505050505050565b601060009054906101000a900473ffffffffffffffffffffffffffffffffffffffff1681565b6110676110606119cf565b8383611ebc565b5050565b6060600e805461107a90614054565b80601f01602080910402602001604051908101604052809291908181526020018280546110a690614054565b80156110f35780601f106110c8576101008083540402835291602001916110f3565b820191906000526020600020905b8154815290600101906020018083116110d657829003601f168201915b5050505050905090565b818190508484905014611145576040517f08c379a000000000000000000000000000000000000000000000000000000000815260040161113c906143ce565b60405180910390fd5b6000805b858590508110156112be576008818154811061116857611167613ff6565b5b906000526020600020015484848381811061118657611185613ff6565b5b90506020020135600360008989868181106111a4576111a3613ff6565b5b90506020020135815260200190815260200160002060003373ffffffffffffffffffffffffffffffffffffffff1673ffffffffffffffffffffffffffffffffffffffff1681526020019081526020016000205461120191906143ee565b1115611242576040517f08c379a000000000000000000000000000000000000000000000000000000000815260040161123990614490565b60405180910390fd5b83838281811061125557611254613ff6565b5b90506020020135600a87878481811061127157611270613ff6565b5b905060200201358154811061128957611288613ff6565b5b906000526020600020015461129e9190613eaa565b826112a991906143ee565b915080806112b6906141a9565b915050611149565b50803414611301576040517f08c379a00000000000000000000000000000000000000000000000000000000081526004016112f8906144fc565b60405180910390fd5b6113a561130c6119cf565b868680806020026020016040519081016040528093929190818152602001838360200280828437600081840152601f19601f82011690508083019250505050505050858580806020026020016040519081016040528093929190818152602001838360200280828437600081840152601f19601f8201169050808301925050505050505060405180602001604052806000815250612028565b60005b858590508110156114465783838787848181106113c8576113c7613ff6565b5b905060200201358181106113df576113de613ff6565b5b9050602002013560098787848181106113fb576113fa613ff6565b5b905060200201358154811061141357611412613ff6565b5b90600052602060002001600082825461142c91906143ee565b92505081905550808061143e906141a9565b9150506113a8565b505050505050565b6000600b60008473ffffffffffffffffffffffffffffffffffffffff1673ffffffffffffffffffffffffffffffffffffffff16815260200190815260200160002060008373ffffffffffffffffffffffffffffffffffffffff1673ffffffffffffffffffffffffffffffffffffffff16815260200190815260200160002060009054906101000a900460ff16905092915050565b600f544210611526576040517f08c379a000000000000000000000000000000000000000000000000000000000815260040161151d90614568565b60405180910390fd5b81819050848490501461156e576040517f08c379a0000000000000000000000000000000000000000000000000000000008152600401611565906143ce565b60405180910390fd5b60005b8484905081101561166057600083838381811061159157611590613ff6565b5b90506020020135600360008888868181106115af576115ae613ff6565b5b90506020020135815260200190815260200160002060003373ffffffffffffffffffffffffffffffffffffffff1673ffffffffffffffffffffffffffffffffffffffff1681526020019081526020016000205461160c9190614588565b101561164d576040517f08c379a000000000000000000000000000000000000000000000000000000000815260040161164490614608565b60405180910390fd5b8080611658906141a9565b915050611571565b506116f561166c6119cf565b858580806020026020016040519081016040528093929190818152602001838360200280828437600081840152601f19601f82011690508083019250505050505050848480806020026020016040519081016040528093929190818152602001838360200280828437600081840152601f19601f82011690508083019250505050505050612255565b60005b848490508110156117d25760005b838390508210156117be57600461171b6119cf565b9080600181540180825580915050600190039060005260206000200160009091909190916101000a81548173ffffffffffffffffffffffffffffffffffffffff021916908373ffffffffffffffffffffffffffffffffffffffff1602179055506005611785612525565b908060018154018082558091505060019003906000526020600020016000909190919091505580806117b6906141a9565b915050611706565b5080806117ca906141a9565b9150506116f8565b5050505050565b6117e16119cf565b73ffffffffffffffffffffffffffffffffffffffff168573ffffffffffffffffffffffffffffffffffffffff1614806118275750611826856118216119cf565b61144e565b5b611866576040517f08c379a000000000000000000000000000000000000000000000000000000000815260040161185d90613fd6565b60405180910390fd5b61187385858585856125ad565b5050505050565b601160009054906101000a900473ffffffffffffffffffffffffffffffffffffffff1673ffffffffffffffffffffffffffffffffffffffff166118bb6119cf565b73ffffffffffffffffffffffffffffffffffffffff1614611911576040517f08c379a000000000000000000000000000000000000000000000000000000000815260040161190890613e5b565b60405180910390fd5b80601160006101000a81548173ffffffffffffffffffffffffffffffffffffffff021916908373ffffffffffffffffffffffffffffffffffffffff16021790555050565b60007f2a55205a000000000000000000000000000000000000000000000000000000007bffffffffffffffffffffffffffffffffffffffffffffffffffffffff1916827bffffffffffffffffffffffffffffffffffffffffffffffffffffffff191614806119c857506119c78261284b565b5b9050919050565b600033905090565b6119df611b6b565b6bffffffffffffffffffffffff16816bffffffffffffffffffffffff161115611a3d576040517f08c379a0000000000000000000000000000000000000000000000000000000008152600401611a349061469a565b60405180910390fd5b600073ffffffffffffffffffffffffffffffffffffffff168273ffffffffffffffffffffffffffffffffffffffff1603611aac576040517f08c379a0000000000000000000000000000000000000000000000000000000008152600401611aa390614706565b60405180910390fd5b60405180604001604052808373ffffffffffffffffffffffffffffffffffffffff168152602001826bffffffffffffffffffffffff168152506000808201518160000160006101000a81548173ffffffffffffffffffffffffffffffffffffffff021916908373ffffffffffffffffffffffffffffffffffffffff16021790555060208201518160000160146101000a8154816bffffffffffffffffffffffff02191690836bffffffffffffffffffffffff1602179055509050505050565b6000612710905090565b8151835114611bb9576040517f08c379a0000000000000000000000000000000000000000000000000000000008152600401611bb090614798565b60405180910390fd5b600073ffffffffffffffffffffffffffffffffffffffff168473ffffffffffffffffffffffffffffffffffffffff1603611c28576040517f08c379a0000000000000000000000000000000000000000000000000000000008152600401611c1f9061482a565b60405180910390fd5b6000611c326119cf565b9050611c428187878787876128b5565b60005b8451811015611df6576000858281518110611c6357611c62613ff6565b5b602002602001015190506000858381518110611c8257611c81613ff6565b5b6020026020010151905060006003600084815260200190815260200160002060008b73ffffffffffffffffffffffffffffffffffffffff1673ffffffffffffffffffffffffffffffffffffffff16815260200190815260200160002054905081811015611d24576040517f08c379a0000000000000000000000000000000000000000000000000000000008152600401611d1b906148bc565b60405180910390fd5b8181036003600085815260200190815260200160002060008c73ffffffffffffffffffffffffffffffffffffffff1673ffffffffffffffffffffffffffffffffffffffff16815260200190815260200160002081905550816003600085815260200190815260200160002060008b73ffffffffffffffffffffffffffffffffffffffff1673ffffffffffffffffffffffffffffffffffffffff1681526020019081526020016000206000828254611ddb91906143ee565b9250508190555050505080611def906141a9565b9050611c45565b508473ffffffffffffffffffffffffffffffffffffffff168673ffffffffffffffffffffffffffffffffffffffff168273ffffffffffffffffffffffffffffffffffffffff167f4a39dc06d4c0dbc64b70af90fd698a233a518aa5d07e595d983b8c0526c8f7fb8787604051611e6d9291906148dc565b60405180910390a4611e838187878787876128bd565b611e918187878787876128c5565b505050505050565b6000808273ffffffffffffffffffffffffffffffffffffffff163b119050919050565b8173ffffffffffffffffffffffffffffffffffffffff168373ffffffffffffffffffffffffffffffffffffffff1603611f2a576040517f08c379a0000000000000000000000000000000000000000000000000000000008152600401611f2190614985565b60405180910390fd5b80600b60008573ffffffffffffffffffffffffffffffffffffffff1673ffffffffffffffffffffffffffffffffffffffff16815260200190815260200160002060008473ffffffffffffffffffffffffffffffffffffffff1673ffffffffffffffffffffffffffffffffffffffff16815260200190815260200160002060006101000a81548160ff0219169083151502179055508173ffffffffffffffffffffffffffffffffffffffff168373ffffffffffffffffffffffffffffffffffffffff167f17307eab39ab6107e8899845ad3d59bd9653f200f220920489ca2b5937696c318360405161201b9190613094565b60405180910390a3505050565b600073ffffffffffffffffffffffffffffffffffffffff168473ffffffffffffffffffffffffffffffffffffffff1603612097576040517f08c379a000000000000000000000000000000000000000000000000000000000815260040161208e90614a17565b60405180910390fd5b81518351146120db576040517f08c379a00000000000000000000000000000000000000000000000000000000081526004016120d290614798565b60405180910390fd5b60006120e56119cf565b90506120f6816000878787876128b5565b60005b84518110156121b05783818151811061211557612114613ff6565b5b60200260200101516003600087848151811061213457612133613ff6565b5b6020026020010151815260200190815260200160002060008873ffffffffffffffffffffffffffffffffffffffff1673ffffffffffffffffffffffffffffffffffffffff168152602001908152602001600020600082825461219691906143ee565b9250508190555080806121a8906141a9565b9150506120f9565b508473ffffffffffffffffffffffffffffffffffffffff16600073ffffffffffffffffffffffffffffffffffffffff168273ffffffffffffffffffffffffffffffffffffffff167f4a39dc06d4c0dbc64b70af90fd698a233a518aa5d07e595d983b8c0526c8f7fb87876040516122289291906148dc565b60405180910390a461223f816000878787876128bd565b61224e816000878787876128c5565b5050505050565b600073ffffffffffffffffffffffffffffffffffffffff168373ffffffffffffffffffffffffffffffffffffffff16036122c4576040517f08c379a00000000000000000000000000000000000000000000000000000000081526004016122bb90614aa9565b60405180910390fd5b8051825114612308576040517f08c379a00000000000000000000000000000000000000000000000000000000081526004016122ff90614798565b60405180910390fd5b60006123126119cf565b9050612332818560008686604051806020016040528060008152506128b5565b60005b835181101561248157600084828151811061235357612352613ff6565b5b60200260200101519050600084838151811061237257612371613ff6565b5b6020026020010151905060006003600084815260200190815260200160002060008973ffffffffffffffffffffffffffffffffffffffff1673ffffffffffffffffffffffffffffffffffffffff16815260200190815260200160002054905081811015612414576040517f08c379a000000000000000000000000000000000000000000000000000000000815260040161240b90614b3b565b60405180910390fd5b8181036003600085815260200190815260200160002060008a73ffffffffffffffffffffffffffffffffffffffff1673ffffffffffffffffffffffffffffffffffffffff168152602001908152602001600020819055505050508080612479906141a9565b915050612335565b50600073ffffffffffffffffffffffffffffffffffffffff168473ffffffffffffffffffffffffffffffffffffffff168273ffffffffffffffffffffffffffffffffffffffff167f4a39dc06d4c0dbc64b70af90fd698a233a518aa5d07e595d983b8c0526c8f7fb86866040516124f99291906148dc565b60405180910390a461251f818560008686604051806020016040528060008152506128bd565b50505050565b600080612536600680549050612a9c565b905060006006828154811061254e5761254d613ff6565b5b9060005260206000200154111561259e5760016006828154811061257557612574613ff6565b5b90600052602060002001600082825461258e9190614588565b92505081905550809150506125aa565b6125a6612525565b9150505b90565b600073ffffffffffffffffffffffffffffffffffffffff168473ffffffffffffffffffffffffffffffffffffffff160361261c576040517f08c379a00000000000000000000000000000000000000000000000000000000081526004016126139061482a565b60405180910390fd5b60006126266119cf565b9050600061263385612af8565b9050600061264085612af8565b90506126508389898585896128b5565b60006003600088815260200190815260200160002060008a73ffffffffffffffffffffffffffffffffffffffff1673ffffffffffffffffffffffffffffffffffffffff168152602001908152602001600020549050858110156126e8576040517f08c379a00000000000000000000000000000000000000000000000000000000081526004016126df906148bc565b60405180910390fd5b8581036003600089815260200190815260200160002060008b73ffffffffffffffffffffffffffffffffffffffff1673ffffffffffffffffffffffffffffffffffffffff16815260200190815260200160002081905550856003600089815260200190815260200160002060008a73ffffffffffffffffffffffffffffffffffffffff1673ffffffffffffffffffffffffffffffffffffffff168152602001908152602001600020600082825461279f91906143ee565b925050819055508773ffffffffffffffffffffffffffffffffffffffff168973ffffffffffffffffffffffffffffffffffffffff168573ffffffffffffffffffffffffffffffffffffffff167fc3d58168c5ae7397731d063d5bbf3d657854427343f4c083240f7aacaa2d0f628a8a60405161281c929190614b5b565b60405180910390a4612832848a8a86868a6128bd565b612840848a8a8a8a8a612b72565b505050505050505050565b60007f01ffc9a7000000000000000000000000000000000000000000000000000000007bffffffffffffffffffffffffffffffffffffffffffffffffffffffff1916827bffffffffffffffffffffffffffffffffffffffffffffffffffffffff1916149050919050565b505050505050565b505050505050565b6128e48473ffffffffffffffffffffffffffffffffffffffff16612d49565b15612a94578373ffffffffffffffffffffffffffffffffffffffff1663bc197c8187878686866040518663ffffffff1660e01b815260040161292a959493929190614bd9565b6020604051808303816000875af192505050801561296657506040513d601f19601f820116820180604052508101906129639190614c56565b60015b612a0b57612972614c90565b806308c379a0036129ce5750612986614cb2565b8061299157506129d0565b806040517f08c379a00000000000000000000000000000000000000000000000000000000081526004016129c59190613642565b60405180910390fd5b505b6040517f08c379a0000000000000000000000000000000000000000000000000000000008152600401612a0290614db4565b60405180910390fd5b63bc197c8160e01b7bffffffffffffffffffffffffffffffffffffffffffffffffffffffff1916817bffffffffffffffffffffffffffffffffffffffffffffffffffffffff191614612a92576040517f08c379a0000000000000000000000000000000000000000000000000000000008152600401612a8990614e46565b60405180910390fd5b505b505050505050565b600060126000815480929190612ab1906141a9565b9190505550814233601254604051602001612ace93929190614ecf565b6040516020818303038152906040528051906020012060001c612af19190614f0c565b9050919050565b60606000600167ffffffffffffffff811115612b1757612b16613209565b5b604051908082528060200260200182016040528015612b455781602001602082028036833780820191505090505b5090508281600081518110612b5d57612b5c613ff6565b5b60200260200101818152505080915050919050565b612b918473ffffffffffffffffffffffffffffffffffffffff16612d49565b15612d41578373ffffffffffffffffffffffffffffffffffffffff1663f23a6e6187878686866040518663ffffffff1660e01b8152600401612bd7959493929190614f3d565b6020604051808303816000875af1925050508015612c1357506040513d601f19601f82011682018060405250810190612c109190614c56565b60015b612cb857612c1f614c90565b806308c379a003612c7b5750612c33614cb2565b80612c3e5750612c7d565b806040517f08c379a0000000000000000000000000000000000000000000000000000000008152600401612c729190613642565b60405180910390fd5b505b6040517f08c379a0000000000000000000000000000000000000000000000000000000008152600401612caf90614db4565b60405180910390fd5b63f23a6e6160e01b7bffffffffffffffffffffffffffffffffffffffffffffffffffffffff1916817bffffffffffffffffffffffffffffffffffffffffffffffffffffffff191614612d3f576040517f08c379a0000000000000000000000000000000000000000000000000000000008152600401612d3690614e46565b60405180910390fd5b505b505050505050565b6000808273ffffffffffffffffffffffffffffffffffffffff163b119050919050565b828054612d7890614054565b90600052602060002090601f016020900481019282612d9a5760008555612de1565b82601f10612db357805160ff1916838001178555612de1565b82800160010185558215612de1579182015b82811115612de0578251825591602001919060010190612dc5565b5b509050612dee9190612ec5565b5090565b828054612dfe90614054565b90600052602060002090601f016020900481019282612e205760008555612e67565b82601f10612e3957803560ff1916838001178555612e67565b82800160010185558215612e67579182015b82811115612e66578235825591602001919060010190612e4b565b5b509050612e749190612ec5565b5090565b828054828255906000526020600020908101928215612eb4579160200282015b82811115612eb3578251825591602001919060010190612e98565b5b509050612ec19190612ec5565b5090565b5b80821115612ede576000816000905550600101612ec6565b5090565b6000604051905090565b600080fd5b600080fd5b600073ffffffffffffffffffffffffffffffffffffffff82169050919050565b6000612f2182612ef6565b9050919050565b612f3181612f16565b8114612f3c57600080fd5b50565b600081359050612f4e81612f28565b92915050565b6000819050919050565b612f6781612f54565b8114612f7257600080fd5b50565b600081359050612f8481612f5e565b92915050565b60008060408385031215612fa157612fa0612eec565b5b6000612faf85828601612f3f565b9250506020612fc085828601612f75565b9150509250929050565b612fd381612f54565b82525050565b6000602082019050612fee6000830184612fca565b92915050565b60007fffffffff0000000000000000000000000000000000000000000000000000000082169050919050565b61302981612ff4565b811461303457600080fd5b50565b60008135905061304681613020565b92915050565b60006020828403121561306257613061612eec565b5b600061307084828501613037565b91505092915050565b60008115159050919050565b61308e81613079565b82525050565b60006020820190506130a96000830184613085565b92915050565b60006bffffffffffffffffffffffff82169050919050565b6130d0816130af565b81146130db57600080fd5b50565b6000813590506130ed816130c7565b92915050565b6000806040838503121561310a57613109612eec565b5b600061311885828601612f3f565b9250506020613129858286016130de565b9150509250929050565b60006020828403121561314957613148612eec565b5b600061315784828501612f75565b91505092915050565b61316981612f16565b82525050565b60006020820190506131846000830184613160565b92915050565b600080604083850312156131a1576131a0612eec565b5b60006131af85828601612f75565b92505060206131c085828601612f75565b9150509250929050565b60006040820190506131df6000830185613160565b6131ec6020830184612fca565b9392505050565b600080fd5b6000601f19601f8301169050919050565b7f4e487b7100000000000000000000000000000000000000000000000000000000600052604160045260246000fd5b613241826131f8565b810181811067ffffffffffffffff821117156132605761325f613209565b5b80604052505050565b6000613273612ee2565b905061327f8282613238565b919050565b600067ffffffffffffffff82111561329f5761329e613209565b5b602082029050602081019050919050565b600080fd5b60006132c86132c384613284565b613269565b905080838252602082019050602084028301858111156132eb576132ea6132b0565b5b835b8181101561331457806133008882612f75565b8452602084019350506020810190506132ed565b5050509392505050565b600082601f830112613333576133326131f3565b5b81356133438482602086016132b5565b91505092915050565b600080fd5b600067ffffffffffffffff82111561336c5761336b613209565b5b613375826131f8565b9050602081019050919050565b82818337600083830152505050565b60006133a461339f84613351565b613269565b9050828152602081018484840111156133c0576133bf61334c565b5b6133cb848285613382565b509392505050565b600082601f8301126133e8576133e76131f3565b5b81356133f8848260208601613391565b91505092915050565b600080600080600060a0868803121561341d5761341c612eec565b5b600061342b88828901612f3f565b955050602061343c88828901612f3f565b945050604086013567ffffffffffffffff81111561345d5761345c612ef1565b5b6134698882890161331e565b935050606086013567ffffffffffffffff81111561348a57613489612ef1565b5b6134968882890161331e565b925050608086013567ffffffffffffffff8111156134b7576134b6612ef1565b5b6134c3888289016133d3565b9150509295509295909350565b600067ffffffffffffffff8211156134eb576134ea613209565b5b6134f4826131f8565b9050602081019050919050565b600061351461350f846134d0565b613269565b9050828152602081018484840111156135305761352f61334c565b5b61353b848285613382565b509392505050565b600082601f830112613558576135576131f3565b5b8135613568848260208601613501565b91505092915050565b60006020828403121561358757613586612eec565b5b600082013567ffffffffffffffff8111156135a5576135a4612ef1565b5b6135b184828501613543565b91505092915050565b600081519050919050565b600082825260208201905092915050565b60005b838110156135f45780820151818401526020810190506135d9565b83811115613603576000848401525b50505050565b6000613614826135ba565b61361e81856135c5565b935061362e8185602086016135d6565b613637816131f8565b840191505092915050565b6000602082019050818103600083015261365c8184613609565b905092915050565b600080fd5b60008083601f84011261367f5761367e6131f3565b5b8235905067ffffffffffffffff81111561369c5761369b613664565b5b6020830191508360208202830111156136b8576136b76132b0565b5b9250929050565b600080602083850312156136d6576136d5612eec565b5b600083013567ffffffffffffffff8111156136f4576136f3612ef1565b5b61370085828601613669565b92509250509250929050565b600067ffffffffffffffff82111561372757613726613209565b5b602082029050602081019050919050565b600061374b6137468461370c565b613269565b9050808382526020820190506020840283018581111561376e5761376d6132b0565b5b835b8181101561379757806137838882612f3f565b845260208401935050602081019050613770565b5050509392505050565b600082601f8301126137b6576137b56131f3565b5b81356137c6848260208601613738565b91505092915050565b600080604083850312156137e6576137e5612eec565b5b600083013567ffffffffffffffff81111561380457613803612ef1565b5b613810858286016137a1565b925050602083013567ffffffffffffffff81111561383157613830612ef1565b5b61383d8582860161331e565b9150509250929050565b600081519050919050565b600082825260208201905092915050565b6000819050602082019050919050565b61387c81612f54565b82525050565b600061388e8383613873565b60208301905092915050565b6000602082019050919050565b60006138b282613847565b6138bc8185613852565b93506138c783613863565b8060005b838110156138f85781516138df8882613882565b97506138ea8361389a565b9250506001810190506138cb565b5085935050505092915050565b6000602082019050818103600083015261391f81846138a7565b905092915050565b60008083601f84011261393d5761393c6131f3565b5b8235905067ffffffffffffffff81111561395a57613959613664565b5b602083019150836020820283011115613976576139756132b0565b5b9250929050565b6000806020838503121561399457613993612eec565b5b600083013567ffffffffffffffff8111156139b2576139b1612ef1565b5b6139be85828601613927565b92509250509250929050565b600067ffffffffffffffff8211156139e5576139e4613209565b5b602082029050602081019050919050565b6000613a09613a04846139ca565b613269565b90508083825260208201905060208402830185811115613a2c57613a2b6132b0565b5b835b81811015613a7357803567ffffffffffffffff811115613a5157613a506131f3565b5b808601613a5e8982613543565b85526020850194505050602081019050613a2e565b5050509392505050565b600082601f830112613a9257613a916131f3565b5b8135613aa28482602086016139f6565b91505092915050565b60008060008060008060c08789031215613ac857613ac7612eec565b5b600087013567ffffffffffffffff811115613ae657613ae5612ef1565b5b613af289828a01613a7d565b965050602087013567ffffffffffffffff811115613b1357613b12612ef1565b5b613b1f89828a0161331e565b955050604087013567ffffffffffffffff811115613b4057613b3f612ef1565b5b613b4c89828a0161331e565b9450506060613b5d89828a01612f75565b9350506080613b6e89828a01612f3f565b92505060a0613b7f89828a016130de565b9150509295509295509295565b613b9581613079565b8114613ba057600080fd5b50565b600081359050613bb281613b8c565b92915050565b60008060408385031215613bcf57613bce612eec565b5b6000613bdd85828601612f3f565b9250506020613bee85828601613ba3565b9150509250929050565b60008060008060408587031215613c1257613c11612eec565b5b600085013567ffffffffffffffff811115613c3057613c2f612ef1565b5b613c3c87828801613927565b9450945050602085013567ffffffffffffffff811115613c5f57613c5e612ef1565b5b613c6b87828801613927565b925092505092959194509250565b60008060408385031215613c9057613c8f612eec565b5b6000613c9e85828601612f3f565b9250506020613caf85828601612f3f565b9150509250929050565b600080600080600060a08688031215613cd557613cd4612eec565b5b6000613ce388828901612f3f565b9550506020613cf488828901612f3f565b9450506040613d0588828901612f75565b9350506060613d1688828901612f75565b925050608086013567ffffffffffffffff811115613d3757613d36612ef1565b5b613d43888289016133d3565b9150509295509295909350565b600060208284031215613d6657613d65612eec565b5b6000613d7484828501612f3f565b91505092915050565b7f455243313135353a2061646472657373207a65726f206973206e6f742061207660008201527f616c6964206f776e657200000000000000000000000000000000000000000000602082015250565b6000613dd9602a836135c5565b9150613de482613d7d565b604082019050919050565b60006020820190508181036000830152613e0881613dcc565b9050919050565b7f4e6f74206f776e65720000000000000000000000000000000000000000000000600082015250565b6000613e456009836135c5565b9150613e5082613e0f565b602082019050919050565b60006020820190508181036000830152613e7481613e38565b9050919050565b7f4e487b7100000000000000000000000000000000000000000000000000000000600052601160045260246000fd5b6000613eb582612f54565b9150613ec083612f54565b9250817fffffffffffffffffffffffffffffffffffffffffffffffffffffffffffffffff0483118215151615613ef957613ef8613e7b565b5b828202905092915050565b7f4e487b7100000000000000000000000000000000000000000000000000000000600052601260045260246000fd5b6000613f3e82612f54565b9150613f4983612f54565b925082613f5957613f58613f04565b5b828204905092915050565b7f455243313135353a2063616c6c6572206973206e6f7420746f6b656e206f776e60008201527f6572206f7220617070726f766564000000000000000000000000000000000000602082015250565b6000613fc0602e836135c5565b9150613fcb82613f64565b604082019050919050565b60006020820190508181036000830152613fef81613fb3565b9050919050565b7f4e487b7100000000000000000000000000000000000000000000000000000000600052603260045260246000fd5b7f4e487b7100000000000000000000000000000000000000000000000000000000600052602260045260246000fd5b6000600282049050600182168061406c57607f821691505b60208210810361407f5761407e614025565b5b50919050565b600081905092915050565b50565b60006140a0600083614085565b91506140ab82614090565b600082019050919050565b60006140c182614093565b9150819050919050565b7f4661696c656420746f2073656e6420746f2053696d6f6e6f2e00000000000000600082015250565b60006141016019836135c5565b915061410c826140cb565b602082019050919050565b60006020820190508181036000830152614130816140f4565b9050919050565b600080fd5b600080fd5b600080fd5b6000808335600160200384360303811261416357614162614137565b5b80840192508235915067ffffffffffffffff8211156141855761418461413c565b5b6020830192506001820236038313156141a1576141a0614141565b5b509250929050565b60006141b482612f54565b91507fffffffffffffffffffffffffffffffffffffffffffffffffffffffffffffffff82036141e6576141e5613e7b565b5b600182019050919050565b7f455243313135353a206163636f756e747320616e6420696473206c656e67746860008201527f206d69736d617463680000000000000000000000000000000000000000000000602082015250565b600061424d6029836135c5565b9150614258826141f1565b604082019050919050565b6000602082019050818103600083015261427c81614240565b9050919050565b7f496e697469616c697a61626c653a20636f6e747261637420697320616c72656160008201527f647920696e697469616c697a6564000000000000000000000000000000000000602082015250565b60006142df602e836135c5565b91506142ea82614283565b604082019050919050565b6000602082019050818103600083015261430e816142d2565b9050919050565b6000819050919050565b600060ff82169050919050565b6000819050919050565b600061435161434c61434784614315565b61432c565b61431f565b9050919050565b61436181614336565b82525050565b600060208201905061437c6000830184614358565b92915050565b7f496e76616c696420696e70757400000000000000000000000000000000000000600082015250565b60006143b8600d836135c5565b91506143c382614382565b602082019050919050565b600060208201905081810360008301526143e7816143ab565b9050919050565b60006143f982612f54565b915061440483612f54565b9250827fffffffffffffffffffffffffffffffffffffffffffffffffffffffffffffffff0382111561443957614438613e7b565b5b828201905092915050565b7f4e6f7420656e6f756768207469636b657473206c656674000000000000000000600082015250565b600061447a6017836135c5565b915061448582614444565b602082019050919050565b600060208201905081810360008301526144a98161446d565b9050919050565b7f496e76616c696420616d6f756e74000000000000000000000000000000000000600082015250565b60006144e6600e836135c5565b91506144f1826144b0565b602082019050919050565b60006020820190508181036000830152614515816144d9565b9050919050565b7f436865636b20696e20646561646c696e65206861732070617373656400000000600082015250565b6000614552601c836135c5565b915061455d8261451c565b602082019050919050565b6000602082019050818103600083015261458181614545565b9050919050565b600061459382612f54565b915061459e83612f54565b9250828210156145b1576145b0613e7b565b5b828203905092915050565b7f596f7520646f6e2774206861766520656e6f756768207469636b657473000000600082015250565b60006145f2601d836135c5565b91506145fd826145bc565b602082019050919050565b60006020820190508181036000830152614621816145e5565b9050919050565b7f455243323938313a20726f79616c7479206665652077696c6c2065786365656460008201527f2073616c65507269636500000000000000000000000000000000000000000000602082015250565b6000614684602a836135c5565b915061468f82614628565b604082019050919050565b600060208201905081810360008301526146b381614677565b9050919050565b7f455243323938313a20696e76616c696420726563656976657200000000000000600082015250565b60006146f06019836135c5565b91506146fb826146ba565b602082019050919050565b6000602082019050818103600083015261471f816146e3565b9050919050565b7f455243313135353a2069647320616e6420616d6f756e7473206c656e6774682060008201527f6d69736d61746368000000000000000000000000000000000000000000000000602082015250565b60006147826028836135c5565b915061478d82614726565b604082019050919050565b600060208201905081810360008301526147b181614775565b9050919050565b7f455243313135353a207472616e7366657220746f20746865207a65726f20616460008201527f6472657373000000000000000000000000000000000000000000000000000000602082015250565b60006148146025836135c5565b915061481f826147b8565b604082019050919050565b6000602082019050818103600083015261484381614807565b9050919050565b7f455243313135353a20696e73756666696369656e742062616c616e636520666f60008201527f72207472616e7366657200000000000000000000000000000000000000000000602082015250565b60006148a6602a836135c5565b91506148b18261484a565b604082019050919050565b600060208201905081810360008301526148d581614899565b9050919050565b600060408201905081810360008301526148f681856138a7565b9050818103602083015261490a81846138a7565b90509392505050565b7f455243313135353a2073657474696e6720617070726f76616c2073746174757360008201527f20666f722073656c660000000000000000000000000000000000000000000000602082015250565b600061496f6029836135c5565b915061497a82614913565b604082019050919050565b6000602082019050818103600083015261499e81614962565b9050919050565b7f455243313135353a206d696e7420746f20746865207a65726f2061646472657360008201527f7300000000000000000000000000000000000000000000000000000000000000602082015250565b6000614a016021836135c5565b9150614a0c826149a5565b604082019050919050565b60006020820190508181036000830152614a30816149f4565b9050919050565b7f455243313135353a206275726e2066726f6d20746865207a65726f206164647260008201527f6573730000000000000000000000000000000000000000000000000000000000602082015250565b6000614a936023836135c5565b9150614a9e82614a37565b604082019050919050565b60006020820190508181036000830152614ac281614a86565b9050919050565b7f455243313135353a206275726e20616d6f756e7420657863656564732062616c60008201527f616e636500000000000000000000000000000000000000000000000000000000602082015250565b6000614b256024836135c5565b9150614b3082614ac9565b604082019050919050565b60006020820190508181036000830152614b5481614b18565b9050919050565b6000604082019050614b706000830185612fca565b614b7d6020830184612fca565b9392505050565b600081519050919050565b600082825260208201905092915050565b6000614bab82614b84565b614bb58185614b8f565b9350614bc58185602086016135d6565b614bce816131f8565b840191505092915050565b600060a082019050614bee6000830188613160565b614bfb6020830187613160565b8181036040830152614c0d81866138a7565b90508181036060830152614c2181856138a7565b90508181036080830152614c358184614ba0565b90509695505050505050565b600081519050614c5081613020565b92915050565b600060208284031215614c6c57614c6b612eec565b5b6000614c7a84828501614c41565b91505092915050565b60008160e01c9050919050565b600060033d1115614caf5760046000803e614cac600051614c83565b90505b90565b600060443d10614d3f57614cc4612ee2565b60043d036004823e80513d602482011167ffffffffffffffff82111715614cec575050614d3f565b808201805167ffffffffffffffff811115614d0a5750505050614d3f565b80602083010160043d038501811115614d27575050505050614d3f565b614d3682602001850186613238565b82955050505050505b90565b7f455243313135353a207472616e7366657220746f206e6f6e2d4552433131353560008201527f526563656976657220696d706c656d656e746572000000000000000000000000602082015250565b6000614d9e6034836135c5565b9150614da982614d42565b604082019050919050565b60006020820190508181036000830152614dcd81614d91565b9050919050565b7f455243313135353a204552433131353552656365697665722072656a6563746560008201527f6420746f6b656e73000000000000000000000000000000000000000000000000602082015250565b6000614e306028836135c5565b9150614e3b82614dd4565b604082019050919050565b60006020820190508181036000830152614e5f81614e23565b9050919050565b6000819050919050565b614e81614e7c82612f54565b614e66565b82525050565b60008160601b9050919050565b6000614e9f82614e87565b9050919050565b6000614eb182614e94565b9050919050565b614ec9614ec482612f16565b614ea6565b82525050565b6000614edb8286614e70565b602082019150614eeb8285614eb8565b601482019150614efb8284614e70565b602082019150819050949350505050565b6000614f1782612f54565b9150614f2283612f54565b925082614f3257614f31613f04565b5b828206905092915050565b600060a082019050614f526000830188613160565b614f5f6020830187613160565b614f6c6040830186612fca565b614f796060830185612fca565b8181036080830152614f8b8184614ba0565b9050969550505050505056fea2646970667358221220d3b5eb796daa15b4fe9991a2fff850ed33a4dd8809c90ea4a77c2d9adc1a203564736f6c634300080d0033",
  "linkReferences": {},
  "deployedLinkReferences": {}
}