{
  "_format": "hh-sol-artifact-1",
  "contractName": "ERC1155",
  "sourceName": "contracts/ERC1155.sol",
  "abi": [
    {
      "inputs": [
        {
          "internalType": "string[]",
          "name": "tokenURIs_",
          "type": "string[]"
        },
        {
          "internalType": "uint256[]",
          "name": "prices_",
          "type": "uint256[]"
        },
        {
          "internalType": "uint256",
          "name": "eventCheckInDeadline_",
          "type": "uint256"
        }
      ],
      "stateMutability": "nonpayable",
      "type": "constructor"
    },
    {
      "anonymous": false,
      "inputs": [
        {
          "indexed": true,
          "internalType": "address",
          "name": "account",
          "type": "address"
        },
        {
          "indexed": true,
          "internalType": "address",
          "name": "operator",
          "type": "address"
        },
        {
          "indexed": false,
          "internalType": "bool",
          "name": "approved",
          "type": "bool"
        }
      ],
      "name": "ApprovalForAll",
      "type": "event"
    },
    {
      "anonymous": false,
      "inputs": [
        {
          "indexed": true,
          "internalType": "address",
          "name": "operator",
          "type": "address"
        },
        {
          "indexed": true,
          "internalType": "address",
          "name": "from",
          "type": "address"
        },
        {
          "indexed": true,
          "internalType": "address",
          "name": "to",
          "type": "address"
        },
        {
          "indexed": false,
          "internalType": "uint256[]",
          "name": "ids",
          "type": "uint256[]"
        },
        {
          "indexed": false,
          "internalType": "uint256[]",
          "name": "values",
          "type": "uint256[]"
        }
      ],
      "name": "TransferBatch",
      "type": "event"
    },
    {
      "anonymous": false,
      "inputs": [
        {
          "indexed": true,
          "internalType": "address",
          "name": "operator",
          "type": "address"
        },
        {
          "indexed": true,
          "internalType": "address",
          "name": "from",
          "type": "address"
        },
        {
          "indexed": true,
          "internalType": "address",
          "name": "to",
          "type": "address"
        },
        {
          "indexed": false,
          "internalType": "uint256",
          "name": "id",
          "type": "uint256"
        },
        {
          "indexed": false,
          "internalType": "uint256",
          "name": "value",
          "type": "uint256"
        }
      ],
      "name": "TransferSingle",
      "type": "event"
    },
    {
      "anonymous": false,
      "inputs": [
        {
          "indexed": false,
          "internalType": "string",
          "name": "value",
          "type": "string"
        },
        {
          "indexed": true,
          "internalType": "uint256",
          "name": "id",
          "type": "uint256"
        }
      ],
      "name": "URI",
      "type": "event"
    },
    {
      "inputs": [
        {
          "internalType": "address",
          "name": "account",
          "type": "address"
        },
        {
          "internalType": "uint256",
          "name": "id",
          "type": "uint256"
        }
      ],
      "name": "balanceOf",
      "outputs": [
        {
          "internalType": "uint256",
          "name": "",
          "type": "uint256"
        }
      ],
      "stateMutability": "view",
      "type": "function"
    },
    {
      "inputs": [
        {
          "internalType": "address[]",
          "name": "accounts",
          "type": "address[]"
        },
        {
          "internalType": "uint256[]",
          "name": "ids",
          "type": "uint256[]"
        }
      ],
      "name": "balanceOfBatch",
      "outputs": [
        {
          "internalType": "uint256[]",
          "name": "",
          "type": "uint256[]"
        }
      ],
      "stateMutability": "view",
      "type": "function"
    },
    {
      "inputs": [],
      "name": "eventCheckInDeadline",
      "outputs": [
        {
          "internalType": "uint256",
          "name": "",
          "type": "uint256"
        }
      ],
      "stateMutability": "view",
      "type": "function"
    },
    {
      "inputs": [
        {
          "internalType": "address",
          "name": "account",
          "type": "address"
        },
        {
          "internalType": "address",
          "name": "operator",
          "type": "address"
        }
      ],
      "name": "isApprovedForAll",
      "outputs": [
        {
          "internalType": "bool",
          "name": "",
          "type": "bool"
        }
      ],
      "stateMutability": "view",
      "type": "function"
    },
    {
      "inputs": [
        {
          "internalType": "address",
          "name": "from",
          "type": "address"
        },
        {
          "internalType": "address",
          "name": "to",
          "type": "address"
        },
        {
          "internalType": "uint256[]",
          "name": "ids",
          "type": "uint256[]"
        },
        {
          "internalType": "uint256[]",
          "name": "amounts",
          "type": "uint256[]"
        },
        {
          "internalType": "bytes",
          "name": "data",
          "type": "bytes"
        }
      ],
      "name": "safeBatchTransferFrom",
      "outputs": [],
      "stateMutability": "nonpayable",
      "type": "function"
    },
    {
      "inputs": [
        {
          "internalType": "address",
          "name": "from",
          "type": "address"
        },
        {
          "internalType": "address",
          "name": "to",
          "type": "address"
        },
        {
          "internalType": "uint256",
          "name": "id",
          "type": "uint256"
        },
        {
          "internalType": "uint256",
          "name": "amount",
          "type": "uint256"
        },
        {
          "internalType": "bytes",
          "name": "data",
          "type": "bytes"
        }
      ],
      "name": "safeTransferFrom",
      "outputs": [],
      "stateMutability": "nonpayable",
      "type": "function"
    },
    {
      "inputs": [
        {
          "internalType": "address",
          "name": "operator",
          "type": "address"
        },
        {
          "internalType": "bool",
          "name": "approved",
          "type": "bool"
        }
      ],
      "name": "setApprovalForAll",
      "outputs": [],
      "stateMutability": "nonpayable",
      "type": "function"
    },
    {
      "inputs": [
        {
          "internalType": "bytes4",
          "name": "interfaceId",
          "type": "bytes4"
        }
      ],
      "name": "supportsInterface",
      "outputs": [
        {
          "internalType": "bool",
          "name": "",
          "type": "bool"
        }
      ],
      "stateMutability": "view",
      "type": "function"
    }
  ],
  "bytecode": "0x60806040523480156200001157600080fd5b5060405162002a9538038062002a958339818101604052810190620000379190620005fa565b82600590805190602001906200004f92919062000079565b50816002908051906020019062000068929190620000e0565b5080600681905550505050620006f8565b828054828255906000526020600020908101928215620000cd579160200282015b82811115620000cc578251829080519060200190620000bb92919062000132565b50916020019190600101906200009a565b5b509050620000dc9190620001c3565b5090565b8280548282559060005260206000209081019282156200011f579160200282015b828111156200011e57825182559160200191906001019062000101565b5b5090506200012e9190620001eb565b5090565b8280546200014090620006c3565b90600052602060002090601f016020900481019282620001645760008555620001b0565b82601f106200017f57805160ff1916838001178555620001b0565b82800160010185558215620001b0579182015b82811115620001af57825182559160200191906001019062000192565b5b509050620001bf9190620001eb565b5090565b5b80821115620001e75760008181620001dd91906200020a565b50600101620001c4565b5090565b5b8082111562000206576000816000905550600101620001ec565b5090565b5080546200021890620006c3565b6000825580601f106200022c57506200024d565b601f0160209004906000526020600020908101906200024c9190620001eb565b5b50565b6000604051905090565b600080fd5b600080fd5b600080fd5b6000601f19601f8301169050919050565b7f4e487b7100000000000000000000000000000000000000000000000000000000600052604160045260246000fd5b620002b48262000269565b810181811067ffffffffffffffff82111715620002d657620002d56200027a565b5b80604052505050565b6000620002eb62000250565b9050620002f98282620002a9565b919050565b600067ffffffffffffffff8211156200031c576200031b6200027a565b5b602082029050602081019050919050565b600080fd5b600080fd5b600067ffffffffffffffff8211156200035557620003546200027a565b5b620003608262000269565b9050602081019050919050565b60005b838110156200038d57808201518184015260208101905062000370565b838111156200039d576000848401525b50505050565b6000620003ba620003b48462000337565b620002df565b905082815260208101848484011115620003d957620003d862000332565b5b620003e68482856200036d565b509392505050565b600082601f83011262000406576200040562000264565b5b815162000418848260208601620003a3565b91505092915050565b6000620004386200043284620002fe565b620002df565b905080838252602082019050602084028301858111156200045e576200045d6200032d565b5b835b81811015620004ac57805167ffffffffffffffff81111562000487576200048662000264565b5b808601620004968982620003ee565b8552602085019450505060208101905062000460565b5050509392505050565b600082601f830112620004ce57620004cd62000264565b5b8151620004e084826020860162000421565b91505092915050565b600067ffffffffffffffff8211156200050757620005066200027a565b5b602082029050602081019050919050565b6000819050919050565b6200052d8162000518565b81146200053957600080fd5b50565b6000815190506200054d8162000522565b92915050565b60006200056a6200056484620004e9565b620002df565b9050808382526020820190506020840283018581111562000590576200058f6200032d565b5b835b81811015620005bd5780620005a888826200053c565b84526020840193505060208101905062000592565b5050509392505050565b600082601f830112620005df57620005de62000264565b5b8151620005f184826020860162000553565b91505092915050565b6000806000606084860312156200061657620006156200025a565b5b600084015167ffffffffffffffff8111156200063757620006366200025f565b5b6200064586828701620004b6565b935050602084015167ffffffffffffffff8111156200066957620006686200025f565b5b6200067786828701620005c7565b92505060406200068a868287016200053c565b9150509250925092565b7f4e487b7100000000000000000000000000000000000000000000000000000000600052602260045260246000fd5b60006002820490506001821680620006dc57607f821691505b602082108103620006f257620006f162000694565b5b50919050565b61238d80620007086000396000f3fe608060405234801561001057600080fd5b50600436106100875760003560e01c80634e1273f41161005b5780634e1273f414610126578063a22cb46514610156578063e985e9c514610172578063f242432a146101a257610087565b8062fdd58e1461008c57806301ffc9a7146100bc578063217d3653146100ec5780632eb2c2d61461010a575b600080fd5b6100a660048036038101906100a191906112a8565b6101be565b6040516100b391906112f7565b60405180910390f35b6100d660048036038101906100d1919061136a565b610286565b6040516100e391906113b2565b60405180910390f35b6100f4610300565b60405161010191906112f7565b60405180910390f35b610124600480360381019061011f91906115db565b610306565b005b610140600480360381019061013b919061176d565b6103a7565b60405161014d91906118a3565b60405180910390f35b610170600480360381019061016b91906118f1565b6104c0565b005b61018c60048036038101906101879190611931565b6104d6565b60405161019991906113b2565b60405180910390f35b6101bc60048036038101906101b79190611971565b61056a565b005b60008073ffffffffffffffffffffffffffffffffffffffff168373ffffffffffffffffffffffffffffffffffffffff160361022e576040517f08c379a000000000000000000000000000000000000000000000000000000000815260040161022590611a8b565b60405180910390fd5b60008083815260200190815260200160002060008473ffffffffffffffffffffffffffffffffffffffff1673ffffffffffffffffffffffffffffffffffffffff16815260200190815260200160002054905092915050565b60007fd9b67a26000000000000000000000000000000000000000000000000000000007bffffffffffffffffffffffffffffffffffffffffffffffffffffffff1916827bffffffffffffffffffffffffffffffffffffffffffffffffffffffff191614806102f957506102f88261060b565b5b9050919050565b60065481565b61030e610675565b73ffffffffffffffffffffffffffffffffffffffff168573ffffffffffffffffffffffffffffffffffffffff16148061035457506103538561034e610675565b6104d6565b5b610393576040517f08c379a000000000000000000000000000000000000000000000000000000000815260040161038a90611b1d565b60405180910390fd5b6103a0858585858561067d565b5050505050565b606081518351146103ed576040517f08c379a00000000000000000000000000000000000000000000000000000000081526004016103e490611baf565b60405180910390fd5b6000835167ffffffffffffffff81111561040a576104096113e3565b5b6040519080825280602002602001820160405280156104385781602001602082028036833780820191505090505b50905060005b84518110156104b55761048585828151811061045d5761045c611bcf565b5b602002602001015185838151811061047857610477611bcf565b5b60200260200101516101be565b82828151811061049857610497611bcf565b5b602002602001018181525050806104ae90611c2d565b905061043e565b508091505092915050565b6104d26104cb610675565b838361099e565b5050565b6000600460008473ffffffffffffffffffffffffffffffffffffffff1673ffffffffffffffffffffffffffffffffffffffff16815260200190815260200160002060008373ffffffffffffffffffffffffffffffffffffffff1673ffffffffffffffffffffffffffffffffffffffff16815260200190815260200160002060009054906101000a900460ff16905092915050565b610572610675565b73ffffffffffffffffffffffffffffffffffffffff168573ffffffffffffffffffffffffffffffffffffffff1614806105b857506105b7856105b2610675565b6104d6565b5b6105f7576040517f08c379a00000000000000000000000000000000000000000000000000000000081526004016105ee90611b1d565b60405180910390fd5b6106048585858585610b0a565b5050505050565b60007f01ffc9a7000000000000000000000000000000000000000000000000000000007bffffffffffffffffffffffffffffffffffffffffffffffffffffffff1916827bffffffffffffffffffffffffffffffffffffffffffffffffffffffff1916149050919050565b600033905090565b81518351146106c1576040517f08c379a00000000000000000000000000000000000000000000000000000000081526004016106b890611ce7565b60405180910390fd5b600073ffffffffffffffffffffffffffffffffffffffff168473ffffffffffffffffffffffffffffffffffffffff1603610730576040517f08c379a000000000000000000000000000000000000000000000000000000000815260040161072790611d79565b60405180910390fd5b600061073a610675565b905061074a818787878787610da5565b60005b84518110156108fb57600085828151811061076b5761076a611bcf565b5b60200260200101519050600085838151811061078a57610789611bcf565b5b60200260200101519050600080600084815260200190815260200160002060008b73ffffffffffffffffffffffffffffffffffffffff1673ffffffffffffffffffffffffffffffffffffffff1681526020019081526020016000205490508181101561082b576040517f08c379a000000000000000000000000000000000000000000000000000000000815260040161082290611e0b565b60405180910390fd5b81810360008085815260200190815260200160002060008c73ffffffffffffffffffffffffffffffffffffffff1673ffffffffffffffffffffffffffffffffffffffff168152602001908152602001600020819055508160008085815260200190815260200160002060008b73ffffffffffffffffffffffffffffffffffffffff1673ffffffffffffffffffffffffffffffffffffffff16815260200190815260200160002060008282546108e09190611e2b565b92505081905550505050806108f490611c2d565b905061074d565b508473ffffffffffffffffffffffffffffffffffffffff168673ffffffffffffffffffffffffffffffffffffffff168273ffffffffffffffffffffffffffffffffffffffff167f4a39dc06d4c0dbc64b70af90fd698a233a518aa5d07e595d983b8c0526c8f7fb8787604051610972929190611e81565b60405180910390a4610988818787878787610dad565b610996818787878787610db5565b505050505050565b8173ffffffffffffffffffffffffffffffffffffffff168373ffffffffffffffffffffffffffffffffffffffff1603610a0c576040517f08c379a0000000000000000000000000000000000000000000000000000000008152600401610a0390611f2a565b60405180910390fd5b80600460008573ffffffffffffffffffffffffffffffffffffffff1673ffffffffffffffffffffffffffffffffffffffff16815260200190815260200160002060008473ffffffffffffffffffffffffffffffffffffffff1673ffffffffffffffffffffffffffffffffffffffff16815260200190815260200160002060006101000a81548160ff0219169083151502179055508173ffffffffffffffffffffffffffffffffffffffff168373ffffffffffffffffffffffffffffffffffffffff167f17307eab39ab6107e8899845ad3d59bd9653f200f220920489ca2b5937696c3183604051610afd91906113b2565b60405180910390a3505050565b600073ffffffffffffffffffffffffffffffffffffffff168473ffffffffffffffffffffffffffffffffffffffff1603610b79576040517f08c379a0000000000000000000000000000000000000000000000000000000008152600401610b7090611d79565b60405180910390fd5b6000610b83610675565b90506000610b9085610f8c565b90506000610b9d85610f8c565b9050610bad838989858589610da5565b600080600088815260200190815260200160002060008a73ffffffffffffffffffffffffffffffffffffffff1673ffffffffffffffffffffffffffffffffffffffff16815260200190815260200160002054905085811015610c44576040517f08c379a0000000000000000000000000000000000000000000000000000000008152600401610c3b90611e0b565b60405180910390fd5b85810360008089815260200190815260200160002060008b73ffffffffffffffffffffffffffffffffffffffff1673ffffffffffffffffffffffffffffffffffffffff168152602001908152602001600020819055508560008089815260200190815260200160002060008a73ffffffffffffffffffffffffffffffffffffffff1673ffffffffffffffffffffffffffffffffffffffff1681526020019081526020016000206000828254610cf99190611e2b565b925050819055508773ffffffffffffffffffffffffffffffffffffffff168973ffffffffffffffffffffffffffffffffffffffff168573ffffffffffffffffffffffffffffffffffffffff167fc3d58168c5ae7397731d063d5bbf3d657854427343f4c083240f7aacaa2d0f628a8a604051610d76929190611f4a565b60405180910390a4610d8c848a8a86868a610dad565b610d9a848a8a8a8a8a611006565b505050505050505050565b505050505050565b505050505050565b610dd48473ffffffffffffffffffffffffffffffffffffffff166111dd565b15610f84578373ffffffffffffffffffffffffffffffffffffffff1663bc197c8187878686866040518663ffffffff1660e01b8152600401610e1a95949392919061200a565b6020604051808303816000875af1925050508015610e5657506040513d601f19601f82011682018060405250810190610e539190612087565b60015b610efb57610e626120c1565b806308c379a003610ebe5750610e766120e3565b80610e815750610ec0565b806040517f08c379a0000000000000000000000000000000000000000000000000000000008152600401610eb591906121b7565b60405180910390fd5b505b6040517f08c379a0000000000000000000000000000000000000000000000000000000008152600401610ef29061224b565b60405180910390fd5b63bc197c8160e01b7bffffffffffffffffffffffffffffffffffffffffffffffffffffffff1916817bffffffffffffffffffffffffffffffffffffffffffffffffffffffff191614610f82576040517f08c379a0000000000000000000000000000000000000000000000000000000008152600401610f79906122dd565b60405180910390fd5b505b505050505050565b60606000600167ffffffffffffffff811115610fab57610faa6113e3565b5b604051908082528060200260200182016040528015610fd95781602001602082028036833780820191505090505b5090508281600081518110610ff157610ff0611bcf565b5b60200260200101818152505080915050919050565b6110258473ffffffffffffffffffffffffffffffffffffffff166111dd565b156111d5578373ffffffffffffffffffffffffffffffffffffffff1663f23a6e6187878686866040518663ffffffff1660e01b815260040161106b9594939291906122fd565b6020604051808303816000875af19250505080156110a757506040513d601f19601f820116820180604052508101906110a49190612087565b60015b61114c576110b36120c1565b806308c379a00361110f57506110c76120e3565b806110d25750611111565b806040517f08c379a000000000000000000000000000000000000000000000000000000000815260040161110691906121b7565b60405180910390fd5b505b6040517f08c379a00000000000000000000000000000000000000000000000000000000081526004016111439061224b565b60405180910390fd5b63f23a6e6160e01b7bffffffffffffffffffffffffffffffffffffffffffffffffffffffff1916817bffffffffffffffffffffffffffffffffffffffffffffffffffffffff1916146111d3576040517f08c379a00000000000000000000000000000000000000000000000000000000081526004016111ca906122dd565b60405180910390fd5b505b505050505050565b6000808273ffffffffffffffffffffffffffffffffffffffff163b119050919050565b6000604051905090565b600080fd5b600080fd5b600073ffffffffffffffffffffffffffffffffffffffff82169050919050565b600061123f82611214565b9050919050565b61124f81611234565b811461125a57600080fd5b50565b60008135905061126c81611246565b92915050565b6000819050919050565b61128581611272565b811461129057600080fd5b50565b6000813590506112a28161127c565b92915050565b600080604083850312156112bf576112be61120a565b5b60006112cd8582860161125d565b92505060206112de85828601611293565b9150509250929050565b6112f181611272565b82525050565b600060208201905061130c60008301846112e8565b92915050565b60007fffffffff0000000000000000000000000000000000000000000000000000000082169050919050565b61134781611312565b811461135257600080fd5b50565b6000813590506113648161133e565b92915050565b6000602082840312156113805761137f61120a565b5b600061138e84828501611355565b91505092915050565b60008115159050919050565b6113ac81611397565b82525050565b60006020820190506113c760008301846113a3565b92915050565b600080fd5b6000601f19601f8301169050919050565b7f4e487b7100000000000000000000000000000000000000000000000000000000600052604160045260246000fd5b61141b826113d2565b810181811067ffffffffffffffff8211171561143a576114396113e3565b5b80604052505050565b600061144d611200565b90506114598282611412565b919050565b600067ffffffffffffffff821115611479576114786113e3565b5b602082029050602081019050919050565b600080fd5b60006114a261149d8461145e565b611443565b905080838252602082019050602084028301858111156114c5576114c461148a565b5b835b818110156114ee57806114da8882611293565b8452602084019350506020810190506114c7565b5050509392505050565b600082601f83011261150d5761150c6113cd565b5b813561151d84826020860161148f565b91505092915050565b600080fd5b600067ffffffffffffffff821115611546576115456113e3565b5b61154f826113d2565b9050602081019050919050565b82818337600083830152505050565b600061157e6115798461152b565b611443565b90508281526020810184848401111561159a57611599611526565b5b6115a584828561155c565b509392505050565b600082601f8301126115c2576115c16113cd565b5b81356115d284826020860161156b565b91505092915050565b600080600080600060a086880312156115f7576115f661120a565b5b60006116058882890161125d565b95505060206116168882890161125d565b945050604086013567ffffffffffffffff8111156116375761163661120f565b5b611643888289016114f8565b935050606086013567ffffffffffffffff8111156116645761166361120f565b5b611670888289016114f8565b925050608086013567ffffffffffffffff8111156116915761169061120f565b5b61169d888289016115ad565b9150509295509295909350565b600067ffffffffffffffff8211156116c5576116c46113e3565b5b602082029050602081019050919050565b60006116e96116e4846116aa565b611443565b9050808382526020820190506020840283018581111561170c5761170b61148a565b5b835b818110156117355780611721888261125d565b84526020840193505060208101905061170e565b5050509392505050565b600082601f830112611754576117536113cd565b5b81356117648482602086016116d6565b91505092915050565b600080604083850312156117845761178361120a565b5b600083013567ffffffffffffffff8111156117a2576117a161120f565b5b6117ae8582860161173f565b925050602083013567ffffffffffffffff8111156117cf576117ce61120f565b5b6117db858286016114f8565b9150509250929050565b600081519050919050565b600082825260208201905092915050565b6000819050602082019050919050565b61181a81611272565b82525050565b600061182c8383611811565b60208301905092915050565b6000602082019050919050565b6000611850826117e5565b61185a81856117f0565b935061186583611801565b8060005b8381101561189657815161187d8882611820565b975061188883611838565b925050600181019050611869565b5085935050505092915050565b600060208201905081810360008301526118bd8184611845565b905092915050565b6118ce81611397565b81146118d957600080fd5b50565b6000813590506118eb816118c5565b92915050565b600080604083850312156119085761190761120a565b5b60006119168582860161125d565b9250506020611927858286016118dc565b9150509250929050565b600080604083850312156119485761194761120a565b5b60006119568582860161125d565b92505060206119678582860161125d565b9150509250929050565b600080600080600060a0868803121561198d5761198c61120a565b5b600061199b8882890161125d565b95505060206119ac8882890161125d565b94505060406119bd88828901611293565b93505060606119ce88828901611293565b925050608086013567ffffffffffffffff8111156119ef576119ee61120f565b5b6119fb888289016115ad565b9150509295509295909350565b600082825260208201905092915050565b7f455243313135353a2061646472657373207a65726f206973206e6f742061207660008201527f616c6964206f776e657200000000000000000000000000000000000000000000602082015250565b6000611a75602a83611a08565b9150611a8082611a19565b604082019050919050565b60006020820190508181036000830152611aa481611a68565b9050919050565b7f455243313135353a2063616c6c6572206973206e6f7420746f6b656e206f776e60008201527f6572206f7220617070726f766564000000000000000000000000000000000000602082015250565b6000611b07602e83611a08565b9150611b1282611aab565b604082019050919050565b60006020820190508181036000830152611b3681611afa565b9050919050565b7f455243313135353a206163636f756e747320616e6420696473206c656e67746860008201527f206d69736d617463680000000000000000000000000000000000000000000000602082015250565b6000611b99602983611a08565b9150611ba482611b3d565b604082019050919050565b60006020820190508181036000830152611bc881611b8c565b9050919050565b7f4e487b7100000000000000000000000000000000000000000000000000000000600052603260045260246000fd5b7f4e487b7100000000000000000000000000000000000000000000000000000000600052601160045260246000fd5b6000611c3882611272565b91507fffffffffffffffffffffffffffffffffffffffffffffffffffffffffffffffff8203611c6a57611c69611bfe565b5b600182019050919050565b7f455243313135353a2069647320616e6420616d6f756e7473206c656e6774682060008201527f6d69736d61746368000000000000000000000000000000000000000000000000602082015250565b6000611cd1602883611a08565b9150611cdc82611c75565b604082019050919050565b60006020820190508181036000830152611d0081611cc4565b9050919050565b7f455243313135353a207472616e7366657220746f20746865207a65726f20616460008201527f6472657373000000000000000000000000000000000000000000000000000000602082015250565b6000611d63602583611a08565b9150611d6e82611d07565b604082019050919050565b60006020820190508181036000830152611d9281611d56565b9050919050565b7f455243313135353a20696e73756666696369656e742062616c616e636520666f60008201527f72207472616e7366657200000000000000000000000000000000000000000000602082015250565b6000611df5602a83611a08565b9150611e0082611d99565b604082019050919050565b60006020820190508181036000830152611e2481611de8565b9050919050565b6000611e3682611272565b9150611e4183611272565b9250827fffffffffffffffffffffffffffffffffffffffffffffffffffffffffffffffff03821115611e7657611e75611bfe565b5b828201905092915050565b60006040820190508181036000830152611e9b8185611845565b90508181036020830152611eaf8184611845565b90509392505050565b7f455243313135353a2073657474696e6720617070726f76616c2073746174757360008201527f20666f722073656c660000000000000000000000000000000000000000000000602082015250565b6000611f14602983611a08565b9150611f1f82611eb8565b604082019050919050565b60006020820190508181036000830152611f4381611f07565b9050919050565b6000604082019050611f5f60008301856112e8565b611f6c60208301846112e8565b9392505050565b611f7c81611234565b82525050565b600081519050919050565b600082825260208201905092915050565b60005b83811015611fbc578082015181840152602081019050611fa1565b83811115611fcb576000848401525b50505050565b6000611fdc82611f82565b611fe68185611f8d565b9350611ff6818560208601611f9e565b611fff816113d2565b840191505092915050565b600060a08201905061201f6000830188611f73565b61202c6020830187611f73565b818103604083015261203e8186611845565b905081810360608301526120528185611845565b905081810360808301526120668184611fd1565b90509695505050505050565b6000815190506120818161133e565b92915050565b60006020828403121561209d5761209c61120a565b5b60006120ab84828501612072565b91505092915050565b60008160e01c9050919050565b600060033d11156120e05760046000803e6120dd6000516120b4565b90505b90565b600060443d10612170576120f5611200565b60043d036004823e80513d602482011167ffffffffffffffff8211171561211d575050612170565b808201805167ffffffffffffffff81111561213b5750505050612170565b80602083010160043d038501811115612158575050505050612170565b61216782602001850186611412565b82955050505050505b90565b600081519050919050565b600061218982612173565b6121938185611a08565b93506121a3818560208601611f9e565b6121ac816113d2565b840191505092915050565b600060208201905081810360008301526121d1818461217e565b905092915050565b7f455243313135353a207472616e7366657220746f206e6f6e2d4552433131353560008201527f526563656976657220696d706c656d656e746572000000000000000000000000602082015250565b6000612235603483611a08565b9150612240826121d9565b604082019050919050565b6000602082019050818103600083015261226481612228565b9050919050565b7f455243313135353a204552433131353552656365697665722072656a6563746560008201527f6420746f6b656e73000000000000000000000000000000000000000000000000602082015250565b60006122c7602883611a08565b91506122d28261226b565b604082019050919050565b600060208201905081810360008301526122f6816122ba565b9050919050565b600060a0820190506123126000830188611f73565b61231f6020830187611f73565b61232c60408301866112e8565b61233960608301856112e8565b818103608083015261234b8184611fd1565b9050969550505050505056fea2646970667358221220c8c188e9b93b94af2a4199865b833f649831fc224bfb69aa095a6da767e6534d64736f6c634300080d0033",
  "linkReferences": {},
  "deployedLinkReferences": {}
}