{
  "_format": "hh-sol-artifact-1",
  "contractName": "ERC1155",
  "sourceName": "contracts/ERC1155.sol",
  "abi": [
    {
      "inputs": [
        {
          "internalType": "string[]",
          "name": "tokenURIs_",
          "type": "string[]"
        },
        {
          "internalType": "uint256[]",
          "name": "prices_",
          "type": "uint256[]"
        },
        {
          "internalType": "uint256",
          "name": "eventCheckInDeadline_",
          "type": "uint256"
        }
      ],
      "stateMutability": "nonpayable",
      "type": "constructor"
    },
    {
      "anonymous": false,
      "inputs": [
        {
          "indexed": true,
          "internalType": "address",
          "name": "account",
          "type": "address"
        },
        {
          "indexed": true,
          "internalType": "address",
          "name": "operator",
          "type": "address"
        },
        {
          "indexed": false,
          "internalType": "bool",
          "name": "approved",
          "type": "bool"
        }
      ],
      "name": "ApprovalForAll",
      "type": "event"
    },
    {
      "anonymous": false,
      "inputs": [
        {
          "indexed": false,
          "internalType": "address",
          "name": "attendee",
          "type": "address"
        },
        {
          "indexed": false,
          "internalType": "uint256[]",
          "name": "_tokenIds",
          "type": "uint256[]"
        },
        {
          "indexed": false,
          "internalType": "uint256[]",
          "name": "_qty",
          "type": "uint256[]"
        }
      ],
      "name": "CheckedIn",
      "type": "event"
    },
    {
      "anonymous": false,
      "inputs": [
        {
          "indexed": true,
          "internalType": "address",
          "name": "operator",
          "type": "address"
        },
        {
          "indexed": true,
          "internalType": "address",
          "name": "from",
          "type": "address"
        },
        {
          "indexed": true,
          "internalType": "address",
          "name": "to",
          "type": "address"
        },
        {
          "indexed": false,
          "internalType": "uint256[]",
          "name": "ids",
          "type": "uint256[]"
        },
        {
          "indexed": false,
          "internalType": "uint256[]",
          "name": "values",
          "type": "uint256[]"
        }
      ],
      "name": "TransferBatch",
      "type": "event"
    },
    {
      "anonymous": false,
      "inputs": [
        {
          "indexed": true,
          "internalType": "address",
          "name": "operator",
          "type": "address"
        },
        {
          "indexed": true,
          "internalType": "address",
          "name": "from",
          "type": "address"
        },
        {
          "indexed": true,
          "internalType": "address",
          "name": "to",
          "type": "address"
        },
        {
          "indexed": false,
          "internalType": "uint256",
          "name": "id",
          "type": "uint256"
        },
        {
          "indexed": false,
          "internalType": "uint256",
          "name": "value",
          "type": "uint256"
        }
      ],
      "name": "TransferSingle",
      "type": "event"
    },
    {
      "anonymous": false,
      "inputs": [
        {
          "indexed": false,
          "internalType": "string",
          "name": "value",
          "type": "string"
        },
        {
          "indexed": true,
          "internalType": "uint256",
          "name": "id",
          "type": "uint256"
        }
      ],
      "name": "URI",
      "type": "event"
    },
    {
      "inputs": [
        {
          "internalType": "uint256",
          "name": "",
          "type": "uint256"
        }
      ],
      "name": "attendees",
      "outputs": [
        {
          "internalType": "address",
          "name": "",
          "type": "address"
        }
      ],
      "stateMutability": "view",
      "type": "function"
    },
    {
      "inputs": [
        {
          "internalType": "address",
          "name": "account",
          "type": "address"
        },
        {
          "internalType": "uint256",
          "name": "id",
          "type": "uint256"
        }
      ],
      "name": "balanceOf",
      "outputs": [
        {
          "internalType": "uint256",
          "name": "",
          "type": "uint256"
        }
      ],
      "stateMutability": "view",
      "type": "function"
    },
    {
      "inputs": [
        {
          "internalType": "address[]",
          "name": "accounts",
          "type": "address[]"
        },
        {
          "internalType": "uint256[]",
          "name": "ids",
          "type": "uint256[]"
        }
      ],
      "name": "balanceOfBatch",
      "outputs": [
        {
          "internalType": "uint256[]",
          "name": "",
          "type": "uint256[]"
        }
      ],
      "stateMutability": "view",
      "type": "function"
    },
    {
      "inputs": [
        {
          "internalType": "uint256[]",
          "name": "_ticketIds",
          "type": "uint256[]"
        },
        {
          "internalType": "uint256[]",
          "name": "_qty",
          "type": "uint256[]"
        }
      ],
      "name": "buyTickets",
      "outputs": [],
      "stateMutability": "payable",
      "type": "function"
    },
    {
      "inputs": [],
      "name": "eventCheckInDeadline",
      "outputs": [
        {
          "internalType": "uint256",
          "name": "",
          "type": "uint256"
        }
      ],
      "stateMutability": "view",
      "type": "function"
    },
    {
      "inputs": [
        {
          "internalType": "address",
          "name": "account",
          "type": "address"
        },
        {
          "internalType": "address",
          "name": "operator",
          "type": "address"
        }
      ],
      "name": "isApprovedForAll",
      "outputs": [
        {
          "internalType": "bool",
          "name": "",
          "type": "bool"
        }
      ],
      "stateMutability": "view",
      "type": "function"
    },
    {
      "inputs": [
        {
          "internalType": "address",
          "name": "from",
          "type": "address"
        },
        {
          "internalType": "address",
          "name": "to",
          "type": "address"
        },
        {
          "internalType": "uint256[]",
          "name": "ids",
          "type": "uint256[]"
        },
        {
          "internalType": "uint256[]",
          "name": "amounts",
          "type": "uint256[]"
        },
        {
          "internalType": "bytes",
          "name": "data",
          "type": "bytes"
        }
      ],
      "name": "safeBatchTransferFrom",
      "outputs": [],
      "stateMutability": "nonpayable",
      "type": "function"
    },
    {
      "inputs": [
        {
          "internalType": "address",
          "name": "from",
          "type": "address"
        },
        {
          "internalType": "address",
          "name": "to",
          "type": "address"
        },
        {
          "internalType": "uint256",
          "name": "id",
          "type": "uint256"
        },
        {
          "internalType": "uint256",
          "name": "amount",
          "type": "uint256"
        },
        {
          "internalType": "bytes",
          "name": "data",
          "type": "bytes"
        }
      ],
      "name": "safeTransferFrom",
      "outputs": [],
      "stateMutability": "nonpayable",
      "type": "function"
    },
    {
      "inputs": [
        {
          "internalType": "address",
          "name": "operator",
          "type": "address"
        },
        {
          "internalType": "bool",
          "name": "approved",
          "type": "bool"
        }
      ],
      "name": "setApprovalForAll",
      "outputs": [],
      "stateMutability": "nonpayable",
      "type": "function"
    },
    {
      "inputs": [
        {
          "internalType": "bytes4",
          "name": "interfaceId",
          "type": "bytes4"
        }
      ],
      "name": "supportsInterface",
      "outputs": [
        {
          "internalType": "bool",
          "name": "",
          "type": "bool"
        }
      ],
      "stateMutability": "view",
      "type": "function"
    }
  ],
  "bytecode": "0x60806040523480156200001157600080fd5b50604051620033cc380380620033cc8339818101604052810190620000379190620005fa565b82600890805190602001906200004f92919062000079565b50816006908051906020019062000068929190620000e0565b5080600981905550505050620006f8565b828054828255906000526020600020908101928215620000cd579160200282015b82811115620000cc578251829080519060200190620000bb92919062000132565b50916020019190600101906200009a565b5b509050620000dc9190620001c3565b5090565b8280548282559060005260206000209081019282156200011f579160200282015b828111156200011e57825182559160200191906001019062000101565b5b5090506200012e9190620001eb565b5090565b8280546200014090620006c3565b90600052602060002090601f016020900481019282620001645760008555620001b0565b82601f106200017f57805160ff1916838001178555620001b0565b82800160010185558215620001b0579182015b82811115620001af57825182559160200191906001019062000192565b5b509050620001bf9190620001eb565b5090565b5b80821115620001e75760008181620001dd91906200020a565b50600101620001c4565b5090565b5b8082111562000206576000816000905550600101620001ec565b5090565b5080546200021890620006c3565b6000825580601f106200022c57506200024d565b601f0160209004906000526020600020908101906200024c9190620001eb565b5b50565b6000604051905090565b600080fd5b600080fd5b600080fd5b6000601f19601f8301169050919050565b7f4e487b7100000000000000000000000000000000000000000000000000000000600052604160045260246000fd5b620002b48262000269565b810181811067ffffffffffffffff82111715620002d657620002d56200027a565b5b80604052505050565b6000620002eb62000250565b9050620002f98282620002a9565b919050565b600067ffffffffffffffff8211156200031c576200031b6200027a565b5b602082029050602081019050919050565b600080fd5b600080fd5b600067ffffffffffffffff8211156200035557620003546200027a565b5b620003608262000269565b9050602081019050919050565b60005b838110156200038d57808201518184015260208101905062000370565b838111156200039d576000848401525b50505050565b6000620003ba620003b48462000337565b620002df565b905082815260208101848484011115620003d957620003d862000332565b5b620003e68482856200036d565b509392505050565b600082601f83011262000406576200040562000264565b5b815162000418848260208601620003a3565b91505092915050565b6000620004386200043284620002fe565b620002df565b905080838252602082019050602084028301858111156200045e576200045d6200032d565b5b835b81811015620004ac57805167ffffffffffffffff81111562000487576200048662000264565b5b808601620004968982620003ee565b8552602085019450505060208101905062000460565b5050509392505050565b600082601f830112620004ce57620004cd62000264565b5b8151620004e084826020860162000421565b91505092915050565b600067ffffffffffffffff8211156200050757620005066200027a565b5b602082029050602081019050919050565b6000819050919050565b6200052d8162000518565b81146200053957600080fd5b50565b6000815190506200054d8162000522565b92915050565b60006200056a6200056484620004e9565b620002df565b9050808382526020820190506020840283018581111562000590576200058f6200032d565b5b835b81811015620005bd5780620005a888826200053c565b84526020840193505060208101905062000592565b5050509392505050565b600082601f830112620005df57620005de62000264565b5b8151620005f184826020860162000553565b91505092915050565b6000806000606084860312156200061657620006156200025a565b5b600084015167ffffffffffffffff8111156200063757620006366200025f565b5b6200064586828701620004b6565b935050602084015167ffffffffffffffff8111156200066957620006686200025f565b5b6200067786828701620005c7565b92505060406200068a868287016200053c565b9150509250925092565b7f4e487b7100000000000000000000000000000000000000000000000000000000600052602260045260246000fd5b60006002820490506001821680620006dc57607f821691505b602082108103620006f257620006f162000694565b5b50919050565b612cc480620007086000396000f3fe6080604052600436106100905760003560e01c80634e1273f4116100595780634e1273f4146101a0578063a22cb465146101dd578063c058514414610206578063e985e9c514610222578063f242432a1461025f57610090565b8062fdd58e1461009557806301ffc9a7146100d25780630e0c353d1461010f578063217d36531461014c5780632eb2c2d614610177575b600080fd5b3480156100a157600080fd5b506100bc60048036038101906100b7919061188b565b610288565b6040516100c991906118da565b60405180910390f35b3480156100de57600080fd5b506100f960048036038101906100f4919061194d565b610350565b6040516101069190611995565b60405180910390f35b34801561011b57600080fd5b50610136600480360381019061013191906119b0565b6103ca565b60405161014391906119ec565b60405180910390f35b34801561015857600080fd5b50610161610409565b60405161016e91906118da565b60405180910390f35b34801561018357600080fd5b5061019e60048036038101906101999190611c15565b61040f565b005b3480156101ac57600080fd5b506101c760048036038101906101c29190611da7565b6104b0565b6040516101d49190611edd565b60405180910390f35b3480156101e957600080fd5b5061020460048036038101906101ff9190611f2b565b6105c9565b005b610220600480360381019061021b9190611fc6565b6105df565b005b34801561022e57600080fd5b5061024960048036038101906102449190612047565b61088d565b6040516102569190611995565b60405180910390f35b34801561026b57600080fd5b5061028660048036038101906102819190612087565b610921565b005b60008073ffffffffffffffffffffffffffffffffffffffff168373ffffffffffffffffffffffffffffffffffffffff16036102f8576040517f08c379a00000000000000000000000000000000000000000000000000000000081526004016102ef906121a1565b60405180910390fd5b60008083815260200190815260200160002060008473ffffffffffffffffffffffffffffffffffffffff1673ffffffffffffffffffffffffffffffffffffffff16815260200190815260200160002054905092915050565b60007fd9b67a26000000000000000000000000000000000000000000000000000000007bffffffffffffffffffffffffffffffffffffffffffffffffffffffff1916827bffffffffffffffffffffffffffffffffffffffffffffffffffffffff191614806103c357506103c2826109c2565b5b9050919050565b600181815481106103da57600080fd5b906000526020600020016000915054906101000a900473ffffffffffffffffffffffffffffffffffffffff1681565b60095481565b610417610a2c565b73ffffffffffffffffffffffffffffffffffffffff168573ffffffffffffffffffffffffffffffffffffffff16148061045d575061045c85610457610a2c565b61088d565b5b61049c576040517f08c379a000000000000000000000000000000000000000000000000000000000815260040161049390612233565b60405180910390fd5b6104a98585858585610a34565b5050505050565b606081518351146104f6576040517f08c379a00000000000000000000000000000000000000000000000000000000081526004016104ed906122c5565b60405180910390fd5b6000835167ffffffffffffffff81111561051357610512611a1d565b5b6040519080825280602002602001820160405280156105415781602001602082028036833780820191505090505b50905060005b84518110156105be5761058e858281518110610566576105656122e5565b5b6020026020010151858381518110610581576105806122e5565b5b6020026020010151610288565b8282815181106105a1576105a06122e5565b5b602002602001018181525050806105b790612343565b9050610547565b508091505092915050565b6105db6105d4610a2c565b8383610d55565b5050565b818190508484905014610627576040517f08c379a000000000000000000000000000000000000000000000000000000000815260040161061e906123d7565b60405180910390fd5b6000805b8585905081101561079f576005818154811061064a576106496122e5565b5b9060005260206000200154848483818110610668576106676122e5565b5b90506020020135600080898986818110610685576106846122e5565b5b90506020020135815260200190815260200160002060003373ffffffffffffffffffffffffffffffffffffffff1673ffffffffffffffffffffffffffffffffffffffff168152602001908152602001600020546106e291906123f7565b1115610723576040517f08c379a000000000000000000000000000000000000000000000000000000000815260040161071a90612499565b60405180910390fd5b838382818110610736576107356122e5565b5b905060200201356006878784818110610752576107516122e5565b5b905060200201358154811061076a576107696122e5565b5b906000526020600020015461077f91906124b9565b8261078a91906123f7565b9150808061079790612343565b91505061062b565b508034146107e2576040517f08c379a00000000000000000000000000000000000000000000000000000000081526004016107d99061255f565b60405180910390fd5b6108866107ed610a2c565b868680806020026020016040519081016040528093929190818152602001838360200280828437600081840152601f19601f82011690508083019250505050505050858580806020026020016040519081016040528093929190818152602001838360200280828437600081840152601f19601f8201169050808301925050505050505060405180602001604052806000815250610ec1565b5050505050565b6000600760008473ffffffffffffffffffffffffffffffffffffffff1673ffffffffffffffffffffffffffffffffffffffff16815260200190815260200160002060008373ffffffffffffffffffffffffffffffffffffffff1673ffffffffffffffffffffffffffffffffffffffff16815260200190815260200160002060009054906101000a900460ff16905092915050565b610929610a2c565b73ffffffffffffffffffffffffffffffffffffffff168573ffffffffffffffffffffffffffffffffffffffff16148061096f575061096e85610969610a2c565b61088d565b5b6109ae576040517f08c379a00000000000000000000000000000000000000000000000000000000081526004016109a590612233565b60405180910390fd5b6109bb85858585856110ed565b5050505050565b60007f01ffc9a7000000000000000000000000000000000000000000000000000000007bffffffffffffffffffffffffffffffffffffffffffffffffffffffff1916827bffffffffffffffffffffffffffffffffffffffffffffffffffffffff1916149050919050565b600033905090565b8151835114610a78576040517f08c379a0000000000000000000000000000000000000000000000000000000008152600401610a6f906125f1565b60405180910390fd5b600073ffffffffffffffffffffffffffffffffffffffff168473ffffffffffffffffffffffffffffffffffffffff1603610ae7576040517f08c379a0000000000000000000000000000000000000000000000000000000008152600401610ade90612683565b60405180910390fd5b6000610af1610a2c565b9050610b01818787878787611388565b60005b8451811015610cb2576000858281518110610b2257610b216122e5565b5b602002602001015190506000858381518110610b4157610b406122e5565b5b60200260200101519050600080600084815260200190815260200160002060008b73ffffffffffffffffffffffffffffffffffffffff1673ffffffffffffffffffffffffffffffffffffffff16815260200190815260200160002054905081811015610be2576040517f08c379a0000000000000000000000000000000000000000000000000000000008152600401610bd990612715565b60405180910390fd5b81810360008085815260200190815260200160002060008c73ffffffffffffffffffffffffffffffffffffffff1673ffffffffffffffffffffffffffffffffffffffff168152602001908152602001600020819055508160008085815260200190815260200160002060008b73ffffffffffffffffffffffffffffffffffffffff1673ffffffffffffffffffffffffffffffffffffffff1681526020019081526020016000206000828254610c9791906123f7565b9250508190555050505080610cab90612343565b9050610b04565b508473ffffffffffffffffffffffffffffffffffffffff168673ffffffffffffffffffffffffffffffffffffffff168273ffffffffffffffffffffffffffffffffffffffff167f4a39dc06d4c0dbc64b70af90fd698a233a518aa5d07e595d983b8c0526c8f7fb8787604051610d29929190612735565b60405180910390a4610d3f818787878787611390565b610d4d818787878787611398565b505050505050565b8173ffffffffffffffffffffffffffffffffffffffff168373ffffffffffffffffffffffffffffffffffffffff1603610dc3576040517f08c379a0000000000000000000000000000000000000000000000000000000008152600401610dba906127de565b60405180910390fd5b80600760008573ffffffffffffffffffffffffffffffffffffffff1673ffffffffffffffffffffffffffffffffffffffff16815260200190815260200160002060008473ffffffffffffffffffffffffffffffffffffffff1673ffffffffffffffffffffffffffffffffffffffff16815260200190815260200160002060006101000a81548160ff0219169083151502179055508173ffffffffffffffffffffffffffffffffffffffff168373ffffffffffffffffffffffffffffffffffffffff167f17307eab39ab6107e8899845ad3d59bd9653f200f220920489ca2b5937696c3183604051610eb49190611995565b60405180910390a3505050565b600073ffffffffffffffffffffffffffffffffffffffff168473ffffffffffffffffffffffffffffffffffffffff1603610f30576040517f08c379a0000000000000000000000000000000000000000000000000000000008152600401610f2790612870565b60405180910390fd5b8151835114610f74576040517f08c379a0000000000000000000000000000000000000000000000000000000008152600401610f6b906125f1565b60405180910390fd5b6000610f7e610a2c565b9050610f8f81600087878787611388565b60005b845181101561104857838181518110610fae57610fad6122e5565b5b6020026020010151600080878481518110610fcc57610fcb6122e5565b5b6020026020010151815260200190815260200160002060008873ffffffffffffffffffffffffffffffffffffffff1673ffffffffffffffffffffffffffffffffffffffff168152602001908152602001600020600082825461102e91906123f7565b92505081905550808061104090612343565b915050610f92565b508473ffffffffffffffffffffffffffffffffffffffff16600073ffffffffffffffffffffffffffffffffffffffff168273ffffffffffffffffffffffffffffffffffffffff167f4a39dc06d4c0dbc64b70af90fd698a233a518aa5d07e595d983b8c0526c8f7fb87876040516110c0929190612735565b60405180910390a46110d781600087878787611390565b6110e681600087878787611398565b5050505050565b600073ffffffffffffffffffffffffffffffffffffffff168473ffffffffffffffffffffffffffffffffffffffff160361115c576040517f08c379a000000000000000000000000000000000000000000000000000000000815260040161115390612683565b60405180910390fd5b6000611166610a2c565b905060006111738561156f565b905060006111808561156f565b9050611190838989858589611388565b600080600088815260200190815260200160002060008a73ffffffffffffffffffffffffffffffffffffffff1673ffffffffffffffffffffffffffffffffffffffff16815260200190815260200160002054905085811015611227576040517f08c379a000000000000000000000000000000000000000000000000000000000815260040161121e90612715565b60405180910390fd5b85810360008089815260200190815260200160002060008b73ffffffffffffffffffffffffffffffffffffffff1673ffffffffffffffffffffffffffffffffffffffff168152602001908152602001600020819055508560008089815260200190815260200160002060008a73ffffffffffffffffffffffffffffffffffffffff1673ffffffffffffffffffffffffffffffffffffffff16815260200190815260200160002060008282546112dc91906123f7565b925050819055508773ffffffffffffffffffffffffffffffffffffffff168973ffffffffffffffffffffffffffffffffffffffff168573ffffffffffffffffffffffffffffffffffffffff167fc3d58168c5ae7397731d063d5bbf3d657854427343f4c083240f7aacaa2d0f628a8a604051611359929190612890565b60405180910390a461136f848a8a86868a611390565b61137d848a8a8a8a8a6115e9565b505050505050505050565b505050505050565b505050505050565b6113b78473ffffffffffffffffffffffffffffffffffffffff166117c0565b15611567578373ffffffffffffffffffffffffffffffffffffffff1663bc197c8187878686866040518663ffffffff1660e01b81526004016113fd959493929190612941565b6020604051808303816000875af192505050801561143957506040513d601f19601f8201168201806040525081019061143691906129be565b60015b6114de576114456129f8565b806308c379a0036114a15750611459612a1a565b8061146457506114a3565b806040517f08c379a00000000000000000000000000000000000000000000000000000000081526004016114989190612aee565b60405180910390fd5b505b6040517f08c379a00000000000000000000000000000000000000000000000000000000081526004016114d590612b82565b60405180910390fd5b63bc197c8160e01b7bffffffffffffffffffffffffffffffffffffffffffffffffffffffff1916817bffffffffffffffffffffffffffffffffffffffffffffffffffffffff191614611565576040517f08c379a000000000000000000000000000000000000000000000000000000000815260040161155c90612c14565b60405180910390fd5b505b505050505050565b60606000600167ffffffffffffffff81111561158e5761158d611a1d565b5b6040519080825280602002602001820160405280156115bc5781602001602082028036833780820191505090505b50905082816000815181106115d4576115d36122e5565b5b60200260200101818152505080915050919050565b6116088473ffffffffffffffffffffffffffffffffffffffff166117c0565b156117b8578373ffffffffffffffffffffffffffffffffffffffff1663f23a6e6187878686866040518663ffffffff1660e01b815260040161164e959493929190612c34565b6020604051808303816000875af192505050801561168a57506040513d601f19601f8201168201806040525081019061168791906129be565b60015b61172f576116966129f8565b806308c379a0036116f257506116aa612a1a565b806116b557506116f4565b806040517f08c379a00000000000000000000000000000000000000000000000000000000081526004016116e99190612aee565b60405180910390fd5b505b6040517f08c379a000000000000000000000000000000000000000000000000000000000815260040161172690612b82565b60405180910390fd5b63f23a6e6160e01b7bffffffffffffffffffffffffffffffffffffffffffffffffffffffff1916817bffffffffffffffffffffffffffffffffffffffffffffffffffffffff1916146117b6576040517f08c379a00000000000000000000000000000000000000000000000000000000081526004016117ad90612c14565b60405180910390fd5b505b505050505050565b6000808273ffffffffffffffffffffffffffffffffffffffff163b119050919050565b6000604051905090565b600080fd5b600080fd5b600073ffffffffffffffffffffffffffffffffffffffff82169050919050565b6000611822826117f7565b9050919050565b61183281611817565b811461183d57600080fd5b50565b60008135905061184f81611829565b92915050565b6000819050919050565b61186881611855565b811461187357600080fd5b50565b6000813590506118858161185f565b92915050565b600080604083850312156118a2576118a16117ed565b5b60006118b085828601611840565b92505060206118c185828601611876565b9150509250929050565b6118d481611855565b82525050565b60006020820190506118ef60008301846118cb565b92915050565b60007fffffffff0000000000000000000000000000000000000000000000000000000082169050919050565b61192a816118f5565b811461193557600080fd5b50565b60008135905061194781611921565b92915050565b600060208284031215611963576119626117ed565b5b600061197184828501611938565b91505092915050565b60008115159050919050565b61198f8161197a565b82525050565b60006020820190506119aa6000830184611986565b92915050565b6000602082840312156119c6576119c56117ed565b5b60006119d484828501611876565b91505092915050565b6119e681611817565b82525050565b6000602082019050611a0160008301846119dd565b92915050565b600080fd5b6000601f19601f8301169050919050565b7f4e487b7100000000000000000000000000000000000000000000000000000000600052604160045260246000fd5b611a5582611a0c565b810181811067ffffffffffffffff82111715611a7457611a73611a1d565b5b80604052505050565b6000611a876117e3565b9050611a938282611a4c565b919050565b600067ffffffffffffffff821115611ab357611ab2611a1d565b5b602082029050602081019050919050565b600080fd5b6000611adc611ad784611a98565b611a7d565b90508083825260208201905060208402830185811115611aff57611afe611ac4565b5b835b81811015611b285780611b148882611876565b845260208401935050602081019050611b01565b5050509392505050565b600082601f830112611b4757611b46611a07565b5b8135611b57848260208601611ac9565b91505092915050565b600080fd5b600067ffffffffffffffff821115611b8057611b7f611a1d565b5b611b8982611a0c565b9050602081019050919050565b82818337600083830152505050565b6000611bb8611bb384611b65565b611a7d565b905082815260208101848484011115611bd457611bd3611b60565b5b611bdf848285611b96565b509392505050565b600082601f830112611bfc57611bfb611a07565b5b8135611c0c848260208601611ba5565b91505092915050565b600080600080600060a08688031215611c3157611c306117ed565b5b6000611c3f88828901611840565b9550506020611c5088828901611840565b945050604086013567ffffffffffffffff811115611c7157611c706117f2565b5b611c7d88828901611b32565b935050606086013567ffffffffffffffff811115611c9e57611c9d6117f2565b5b611caa88828901611b32565b925050608086013567ffffffffffffffff811115611ccb57611cca6117f2565b5b611cd788828901611be7565b9150509295509295909350565b600067ffffffffffffffff821115611cff57611cfe611a1d565b5b602082029050602081019050919050565b6000611d23611d1e84611ce4565b611a7d565b90508083825260208201905060208402830185811115611d4657611d45611ac4565b5b835b81811015611d6f5780611d5b8882611840565b845260208401935050602081019050611d48565b5050509392505050565b600082601f830112611d8e57611d8d611a07565b5b8135611d9e848260208601611d10565b91505092915050565b60008060408385031215611dbe57611dbd6117ed565b5b600083013567ffffffffffffffff811115611ddc57611ddb6117f2565b5b611de885828601611d79565b925050602083013567ffffffffffffffff811115611e0957611e086117f2565b5b611e1585828601611b32565b9150509250929050565b600081519050919050565b600082825260208201905092915050565b6000819050602082019050919050565b611e5481611855565b82525050565b6000611e668383611e4b565b60208301905092915050565b6000602082019050919050565b6000611e8a82611e1f565b611e948185611e2a565b9350611e9f83611e3b565b8060005b83811015611ed0578151611eb78882611e5a565b9750611ec283611e72565b925050600181019050611ea3565b5085935050505092915050565b60006020820190508181036000830152611ef78184611e7f565b905092915050565b611f088161197a565b8114611f1357600080fd5b50565b600081359050611f2581611eff565b92915050565b60008060408385031215611f4257611f416117ed565b5b6000611f5085828601611840565b9250506020611f6185828601611f16565b9150509250929050565b600080fd5b60008083601f840112611f8657611f85611a07565b5b8235905067ffffffffffffffff811115611fa357611fa2611f6b565b5b602083019150836020820283011115611fbf57611fbe611ac4565b5b9250929050565b60008060008060408587031215611fe057611fdf6117ed565b5b600085013567ffffffffffffffff811115611ffe57611ffd6117f2565b5b61200a87828801611f70565b9450945050602085013567ffffffffffffffff81111561202d5761202c6117f2565b5b61203987828801611f70565b925092505092959194509250565b6000806040838503121561205e5761205d6117ed565b5b600061206c85828601611840565b925050602061207d85828601611840565b9150509250929050565b600080600080600060a086880312156120a3576120a26117ed565b5b60006120b188828901611840565b95505060206120c288828901611840565b94505060406120d388828901611876565b93505060606120e488828901611876565b925050608086013567ffffffffffffffff811115612105576121046117f2565b5b61211188828901611be7565b9150509295509295909350565b600082825260208201905092915050565b7f455243313135353a2061646472657373207a65726f206973206e6f742061207660008201527f616c6964206f776e657200000000000000000000000000000000000000000000602082015250565b600061218b602a8361211e565b91506121968261212f565b604082019050919050565b600060208201905081810360008301526121ba8161217e565b9050919050565b7f455243313135353a2063616c6c6572206973206e6f7420746f6b656e206f776e60008201527f6572206f7220617070726f766564000000000000000000000000000000000000602082015250565b600061221d602e8361211e565b9150612228826121c1565b604082019050919050565b6000602082019050818103600083015261224c81612210565b9050919050565b7f455243313135353a206163636f756e747320616e6420696473206c656e67746860008201527f206d69736d617463680000000000000000000000000000000000000000000000602082015250565b60006122af60298361211e565b91506122ba82612253565b604082019050919050565b600060208201905081810360008301526122de816122a2565b9050919050565b7f4e487b7100000000000000000000000000000000000000000000000000000000600052603260045260246000fd5b7f4e487b7100000000000000000000000000000000000000000000000000000000600052601160045260246000fd5b600061234e82611855565b91507fffffffffffffffffffffffffffffffffffffffffffffffffffffffffffffffff82036123805761237f612314565b5b600182019050919050565b7f496e76616c696420696e70757400000000000000000000000000000000000000600082015250565b60006123c1600d8361211e565b91506123cc8261238b565b602082019050919050565b600060208201905081810360008301526123f0816123b4565b9050919050565b600061240282611855565b915061240d83611855565b9250827fffffffffffffffffffffffffffffffffffffffffffffffffffffffffffffffff0382111561244257612441612314565b5b828201905092915050565b7f4e6f7420656e6f756768207469636b657473206c656674000000000000000000600082015250565b600061248360178361211e565b915061248e8261244d565b602082019050919050565b600060208201905081810360008301526124b281612476565b9050919050565b60006124c482611855565b91506124cf83611855565b9250817fffffffffffffffffffffffffffffffffffffffffffffffffffffffffffffffff048311821515161561250857612507612314565b5b828202905092915050565b7f496e76616c696420616d6f756e74000000000000000000000000000000000000600082015250565b6000612549600e8361211e565b915061255482612513565b602082019050919050565b600060208201905081810360008301526125788161253c565b9050919050565b7f455243313135353a2069647320616e6420616d6f756e7473206c656e6774682060008201527f6d69736d61746368000000000000000000000000000000000000000000000000602082015250565b60006125db60288361211e565b91506125e68261257f565b604082019050919050565b6000602082019050818103600083015261260a816125ce565b9050919050565b7f455243313135353a207472616e7366657220746f20746865207a65726f20616460008201527f6472657373000000000000000000000000000000000000000000000000000000602082015250565b600061266d60258361211e565b915061267882612611565b604082019050919050565b6000602082019050818103600083015261269c81612660565b9050919050565b7f455243313135353a20696e73756666696369656e742062616c616e636520666f60008201527f72207472616e7366657200000000000000000000000000000000000000000000602082015250565b60006126ff602a8361211e565b915061270a826126a3565b604082019050919050565b6000602082019050818103600083015261272e816126f2565b9050919050565b6000604082019050818103600083015261274f8185611e7f565b905081810360208301526127638184611e7f565b90509392505050565b7f455243313135353a2073657474696e6720617070726f76616c2073746174757360008201527f20666f722073656c660000000000000000000000000000000000000000000000602082015250565b60006127c860298361211e565b91506127d38261276c565b604082019050919050565b600060208201905081810360008301526127f7816127bb565b9050919050565b7f455243313135353a206d696e7420746f20746865207a65726f2061646472657360008201527f7300000000000000000000000000000000000000000000000000000000000000602082015250565b600061285a60218361211e565b9150612865826127fe565b604082019050919050565b600060208201905081810360008301526128898161284d565b9050919050565b60006040820190506128a560008301856118cb565b6128b260208301846118cb565b9392505050565b600081519050919050565b600082825260208201905092915050565b60005b838110156128f35780820151818401526020810190506128d8565b83811115612902576000848401525b50505050565b6000612913826128b9565b61291d81856128c4565b935061292d8185602086016128d5565b61293681611a0c565b840191505092915050565b600060a08201905061295660008301886119dd565b61296360208301876119dd565b81810360408301526129758186611e7f565b905081810360608301526129898185611e7f565b9050818103608083015261299d8184612908565b90509695505050505050565b6000815190506129b881611921565b92915050565b6000602082840312156129d4576129d36117ed565b5b60006129e2848285016129a9565b91505092915050565b60008160e01c9050919050565b600060033d1115612a175760046000803e612a146000516129eb565b90505b90565b600060443d10612aa757612a2c6117e3565b60043d036004823e80513d602482011167ffffffffffffffff82111715612a54575050612aa7565b808201805167ffffffffffffffff811115612a725750505050612aa7565b80602083010160043d038501811115612a8f575050505050612aa7565b612a9e82602001850186611a4c565b82955050505050505b90565b600081519050919050565b6000612ac082612aaa565b612aca818561211e565b9350612ada8185602086016128d5565b612ae381611a0c565b840191505092915050565b60006020820190508181036000830152612b088184612ab5565b905092915050565b7f455243313135353a207472616e7366657220746f206e6f6e2d4552433131353560008201527f526563656976657220696d706c656d656e746572000000000000000000000000602082015250565b6000612b6c60348361211e565b9150612b7782612b10565b604082019050919050565b60006020820190508181036000830152612b9b81612b5f565b9050919050565b7f455243313135353a204552433131353552656365697665722072656a6563746560008201527f6420746f6b656e73000000000000000000000000000000000000000000000000602082015250565b6000612bfe60288361211e565b9150612c0982612ba2565b604082019050919050565b60006020820190508181036000830152612c2d81612bf1565b9050919050565b600060a082019050612c4960008301886119dd565b612c5660208301876119dd565b612c6360408301866118cb565b612c7060608301856118cb565b8181036080830152612c828184612908565b9050969550505050505056fea264697066735822122056a020d661dbfcd2afdf2b64434df711348ea2558752d2ba0707e8b57d50493964736f6c634300080d0033",
  "linkReferences": {},
  "deployedLinkReferences": {}
}