{"contracts/TicketEx.sol":{"TicketEx":{"abi":[{"anonymous":false,"inputs":[{"indexed":true,"internalType":"address","name":"account","type":"address"},{"indexed":true,"internalType":"address","name":"operator","type":"address"},{"indexed":false,"internalType":"bool","name":"approved","type":"bool"}],"name":"ApprovalForAll","type":"event"},{"anonymous":false,"inputs":[{"indexed":false,"internalType":"address","name":"attendee","type":"address"},{"indexed":false,"internalType":"uint256[]","name":"_tokenIds","type":"uint256[]"},{"indexed":false,"internalType":"uint256[]","name":"_qty","type":"uint256[]"}],"name":"CheckedIn","type":"event"},{"anonymous":false,"inputs":[{"indexed":false,"internalType":"uint8","name":"version","type":"uint8"}],"name":"Initialized","type":"event"},{"anonymous":false,"inputs":[{"indexed":true,"internalType":"address","name":"operator","type":"address"},{"indexed":true,"internalType":"address","name":"from","type":"address"},{"indexed":true,"internalType":"address","name":"to","type":"address"},{"indexed":false,"internalType":"uint256[]","name":"ids","type":"uint256[]"},{"indexed":false,"internalType":"uint256[]","name":"values","type":"uint256[]"}],"name":"TransferBatch","type":"event"},{"anonymous":false,"inputs":[{"indexed":true,"internalType":"address","name":"operator","type":"address"},{"indexed":true,"internalType":"address","name":"from","type":"address"},{"indexed":true,"internalType":"address","name":"to","type":"address"},{"indexed":false,"internalType":"uint256","name":"id","type":"uint256"},{"indexed":false,"internalType":"uint256","name":"value","type":"uint256"}],"name":"TransferSingle","type":"event"},{"anonymous":false,"inputs":[{"indexed":false,"internalType":"string","name":"value","type":"string"},{"indexed":true,"internalType":"uint256","name":"id","type":"uint256"}],"name":"URI","type":"event"},{"inputs":[],"name":"accounting","outputs":[{"internalType":"address","name":"","type":"address"}],"stateMutability":"view","type":"function"},{"inputs":[{"internalType":"uint256","name":"","type":"uint256"}],"name":"attendees","outputs":[{"internalType":"address","name":"","type":"address"}],"stateMutability":"view","type":"function"},{"inputs":[{"internalType":"address","name":"account","type":"address"},{"internalType":"uint256","name":"id","type":"uint256"}],"name":"balanceOf","outputs":[{"internalType":"uint256","name":"","type":"uint256"}],"stateMutability":"view","type":"function"},{"inputs":[{"internalType":"address[]","name":"accounts","type":"address[]"},{"internalType":"uint256[]","name":"ids","type":"uint256[]"}],"name":"balanceOfBatch","outputs":[{"internalType":"uint256[]","name":"","type":"uint256[]"}],"stateMutability":"view","type":"function"},{"inputs":[{"internalType":"uint256[]","name":"_ticketIds","type":"uint256[]"},{"internalType":"uint256[]","name":"_qty","type":"uint256[]"}],"name":"buyTickets","outputs":[],"stateMutability":"payable","type":"function"},{"inputs":[{"internalType":"uint256[]","name":"_ticketId","type":"uint256[]"},{"internalType":"uint256[]","name":"_qty","type":"uint256[]"}],"name":"checkIn","outputs":[],"stateMutability":"nonpayable","type":"function"},{"inputs":[],"name":"eventCheckInDeadline","outputs":[{"internalType":"uint256","name":"","type":"uint256"}],"stateMutability":"view","type":"function"},{"inputs":[],"name":"getBaseURI","outputs":[{"internalType":"string","name":"","type":"string"}],"stateMutability":"view","type":"function"},{"inputs":[],"name":"getOwner","outputs":[{"internalType":"address","name":"","type":"address"}],"stateMutability":"view","type":"function"},{"inputs":[{"internalType":"uint256","name":"tokenId","type":"uint256"}],"name":"getTokenURI","outputs":[{"internalType":"string","name":"","type":"string"}],"stateMutability":"view","type":"function"},{"inputs":[{"internalType":"string[]","name":"fungibleTokenURI_","type":"string[]"},{"internalType":"uint256[]","name":"prices_","type":"uint256[]"},{"internalType":"uint256[]","name":"maxQuantity_","type":"uint256[]"},{"internalType":"string","name":"uri_","type":"string"},{"internalType":"uint256","name":"eventCheckInDeadline_","type":"uint256"},{"internalType":"address","name":"_accounting","type":"address"},{"internalType":"uint96","name":"_royalty","type":"uint96"}],"name":"initialize","outputs":[],"stateMutability":"nonpayable","type":"function"},{"inputs":[{"internalType":"address","name":"account","type":"address"},{"internalType":"address","name":"operator","type":"address"}],"name":"isApprovedForAll","outputs":[{"internalType":"bool","name":"","type":"bool"}],"stateMutability":"view","type":"function"},{"inputs":[{"internalType":"uint256","name":"","type":"uint256"}],"name":"maxQuantity","outputs":[{"internalType":"uint256","name":"","type":"uint256"}],"stateMutability":"view","type":"function"},{"inputs":[{"internalType":"uint256","name":"_tokenId","type":"uint256"},{"internalType":"uint256","name":"_salePrice","type":"uint256"}],"name":"royaltyInfo","outputs":[{"internalType":"address","name":"","type":"address"},{"internalType":"uint256","name":"","type":"uint256"}],"stateMutability":"view","type":"function"},{"inputs":[{"internalType":"address","name":"from","type":"address"},{"internalType":"address","name":"to","type":"address"},{"internalType":"uint256[]","name":"ids","type":"uint256[]"},{"internalType":"uint256[]","name":"amounts","type":"uint256[]"},{"internalType":"bytes","name":"data","type":"bytes"}],"name":"safeBatchTransferFrom","outputs":[],"stateMutability":"nonpayable","type":"function"},{"inputs":[{"internalType":"address","name":"from","type":"address"},{"internalType":"address","name":"to","type":"address"},{"internalType":"uint256","name":"id","type":"uint256"},{"internalType":"uint256","name":"amount","type":"uint256"},{"internalType":"bytes","name":"data","type":"bytes"}],"name":"safeTransferFrom","outputs":[],"stateMutability":"nonpayable","type":"function"},{"inputs":[{"internalType":"address","name":"operator","type":"address"},{"internalType":"bool","name":"approved","type":"bool"}],"name":"setApprovalForAll","outputs":[],"stateMutability":"nonpayable","type":"function"},{"inputs":[{"internalType":"string","name":"newuri","type":"string"}],"name":"setBaseURI","outputs":[],"stateMutability":"nonpayable","type":"function"},{"inputs":[{"internalType":"uint256[]","name":"newqty","type":"uint256[]"}],"name":"setNonFungibleTokenQty","outputs":[],"stateMutability":"nonpayable","type":"function"},{"inputs":[{"internalType":"string[]","name":"newuri","type":"string[]"}],"name":"setNonFungibleTokenURI","outputs":[],"stateMutability":"nonpayable","type":"function"},{"inputs":[{"internalType":"address","name":"receiver","type":"address"},{"internalType":"uint96","name":"feeBasisPoints","type":"uint96"}],"name":"setRoyaltyInfo","outputs":[],"stateMutability":"nonpayable","type":"function"},{"inputs":[{"internalType":"uint256","name":"","type":"uint256"}],"name":"supply","outputs":[{"internalType":"uint256","name":"","type":"uint256"}],"stateMutability":"view","type":"function"},{"inputs":[{"internalType":"bytes4","name":"interfaceId","type":"bytes4"}],"name":"supportsInterface","outputs":[{"internalType":"bool","name":"","type":"bool"}],"stateMutability":"view","type":"function"},{"inputs":[{"internalType":"address","name":"_newOwner","type":"address"}],"name":"transferOwnership","outputs":[],"stateMutability":"nonpayable","type":"function"},{"inputs":[],"name":"withdraw","outputs":[],"stateMutability":"nonpayable","type":"function"}],"evm":{"bytecode":{"linkReferences":{},"object":"6080604052600060125534801561001557600080fd5b50613463806100256000396000f3fe6080604052600436106101955760003560e01c80634e1273f4116100e1578063a22cb4651161008a578063e985e9c511610064578063e985e9c514610465578063ec69e314146104ae578063f242432a146104ce578063f2fde38b146104ee57600080fd5b8063a22cb46514610412578063c058514414610432578063c0b497bb1461044557600080fd5b8063714c5398116100bb578063714c5398146103bf578063893d20e8146103d45780639624e83e146103f257600080fd5b80634e1273f4146103525780635261325d1461037f57806355f804b31461039f57600080fd5b80632eb2c2d6116101435780633ccfd60b1161011d5780633ccfd60b146102fd578063474b00021461031257806349aa48871461033257600080fd5b80632eb2c2d61461029057806335403023146102b05780633bb3a24d146102d057600080fd5b80630e0c353d116101745780630e0c353d1461021f578063217d36531461024c5780632a55205a1461026257600080fd5b8062fdd58e1461019a57806301ffc9a7146101d057806302fa7c47146101fd575b600080fd5b3480156101a657600080fd5b506101ba6101b5366004611f01565b61050e565b6040516101c79190611f46565b60405180910390f35b3480156101dc57600080fd5b506101f06101eb366004611f87565b61056a565b6040516101c79190611fb8565b34801561020957600080fd5b5061021d610218366004611fe5565b6105c0565b005b34801561022b57600080fd5b5061023f61023a366004612018565b610601565b6040516101c79190612042565b34801561025857600080fd5b506101ba600f5481565b34801561026e57600080fd5b5061028261027d366004612050565b61062b565b6040516101c7929190612072565b34801561029c57600080fd5b5061021d6102ab366004612223565b61070a565b3480156102bc57600080fd5b506101ba6102cb366004612018565b610756565b3480156102dc57600080fd5b506102f06102eb366004612018565b610777565b6040516101c7919061234a565b34801561030957600080fd5b5061021d610881565b34801561031e57600080fd5b5061021d61032d3660046123eb565b6108f7565b34801561033e57600080fd5b5061021d61034d366004612540565b610acb565b34801561035e57600080fd5b5061037261036d3660046125fb565b610b2b565b6040516101c791906126c1565b34801561038b57600080fd5b5061021d61039a366004612540565b610c13565b3480156103ab57600080fd5b5061021d6103ba3660046126d2565b610c68565b3480156103cb57600080fd5b506102f0610c7b565b3480156103e057600080fd5b506011546001600160a01b031661023f565b3480156103fe57600080fd5b5060105461023f906001600160a01b031681565b34801561041e57600080fd5b5061021d61042d366004612720565b610d0d565b61021d610440366004612753565b610d18565b34801561045157600080fd5b506101ba610460366004612018565b610f6f565b34801561047157600080fd5b506101f06104803660046127cc565b6001600160a01b039182166000908152600b6020908152604080832093909416825291909152205460ff1690565b3480156104ba57600080fd5b5061021d6104c9366004612753565b610f7f565b3480156104da57600080fd5b5061021d6104e93660046127ff565b6111a6565b3480156104fa57600080fd5b5061021d610509366004612859565b6111eb565b60006001600160a01b03831661053f5760405162461bcd60e51b8152600401610536906128d4565b60405180910390fd5b5060008181526003602090815260408083206001600160a01b03861684529091529020545b92915050565b60007fffffffff0000000000000000000000000000000000000000000000000000000082167fd9b67a2600000000000000000000000000000000000000000000000000000000148061056457506105648261124d565b6011546001600160a01b0316336001600160a01b0316146105f35760405162461bcd60e51b815260040161053690612916565b6105fd82826112e4565b5050565b6004818154811061061157600080fd5b6000918252602090912001546001600160a01b0316905081565b60008281526001602090815260408083208151808301909252546001600160a01b038116808352740100000000000000000000000000000000000000009091046bffffffffffffffffffffffff169282019290925282916106cc5750604080518082019091526000546001600160a01b03811682527401000000000000000000000000000000000000000090046bffffffffffffffffffffffff1660208201525b6020810151600090612710906106f0906bffffffffffffffffffffffff168761293c565b6106fa9190612971565b91519350909150505b9250929050565b6001600160a01b03851633148061072657506107268533610480565b6107425760405162461bcd60e51b8152600401610536906129dd565b61074f8585858585611389565b5050505050565b6009818154811061076657600080fd5b600091825260209091200154905081565b6060600f5442111561084357600d60006005848154811061079a5761079a6129ed565b9060005260206000200154815260200190815260200160002080546107be90612a19565b80601f01602080910402602001604051908101604052809291908181526020018280546107ea90612a19565b80156108375780601f1061080c57610100808354040283529160200191610837565b820191906000526020600020905b81548152906001019060200180831161081a57829003601f168201915b50505050509050919050565b505060408051808201909152601681527f546f6b656e73206e6f742064726f707065642079657400000000000000000000602082015290565b919050565b6010546040516000916001600160a01b03169047908381818185875af1925050503d80600081146108ce576040519150601f19603f3d011682016040523d82523d6000602084013e6108d3565b606091505b50509050806108f45760405162461bcd60e51b815260040161053690612a78565b50565b600254610100900460ff16158080156109175750600254600160ff909116105b806109315750303b158015610931575060025460ff166001145b61094d5760405162461bcd60e51b815260040161053690612ae0565b6002805460ff191660011790558015610970576002805461ff0019166101001790555b60005b88518110156109cf5788818151811061098e5761098e6129ed565b6020026020010151600c600083815260200190815260200160002090805190602001906109bc929190611d7d565b50806109c781612af0565b915050610973565b5084516109e390600e906020880190611d7d565b506011805473ffffffffffffffffffffffffffffffffffffffff1916331790558651610a1690600a9060208a0190611dfd565b508551610a2a906008906020890190611dfd565b508551610a3e906009906020890190611dfd565b506010805473ffffffffffffffffffffffffffffffffffffffff19166001600160a01b038516179055600f849055610a7683836112e4565b8015610ac1576002805461ff00191690556040517f7f26b83ff96e1f2b6a682f133852f6798a09c465da95921460cefb384740249890610ab890600190612b28565b60405180910390a15b5050505050505050565b60005b81811015610b2657828282818110610ae857610ae86129ed565b9050602002810190610afa9190612b36565b6000838152600d60205260409020610b13929091611e37565b5080610b1e81612af0565b915050610ace565b505050565b60608151835114610b4e5760405162461bcd60e51b815260040161053690612c01565b6000835167ffffffffffffffff811115610b6a57610b6a612094565b604051908082528060200260200182016040528015610b93578160200160208202803683370190505b50905060005b8451811015610c0b57610bde858281518110610bb757610bb76129ed565b6020026020010151858381518110610bd157610bd16129ed565b602002602001015161050e565b828281518110610bf057610bf06129ed565b6020908102919091010152610c0481612af0565b9050610b99565b509392505050565b60005b81811015610b2657828282818110610c3057610c306129ed565b9050602002013560068281548110610c4a57610c4a6129ed565b60009182526020909120015580610c6081612af0565b915050610c16565b80516105fd90600e906020840190611d7d565b6060600e8054610c8a90612a19565b80601f0160208091040260200160405190810160405280929190818152602001828054610cb690612a19565b8015610d035780601f10610cd857610100808354040283529160200191610d03565b820191906000526020600020905b815481529060010190602001808311610ce657829003601f168201915b5050505050905090565b6105fd338383611520565b828114610d375760405162461bcd60e51b815260040161053690612c43565b6000805b84811015610e33576000848483818110610d5757610d576129ed565b905060200201356009888885818110610d7257610d726129ed565b9050602002013581548110610d8957610d896129ed565b9060005260206000200154610d9e9190612c53565b1015610dbc5760405162461bcd60e51b815260040161053690612c9c565b838382818110610dce57610dce6129ed565b90506020020135600a878784818110610de957610de96129ed565b9050602002013581548110610e0057610e006129ed565b9060005260206000200154610e15919061293c565b610e1f9083612cac565b915080610e2b81612af0565b915050610d3b565b50803414610e535760405162461bcd60e51b815260040161053690612cf6565b610ecf3386868080602002602001604051908101604052809392919081815260200183836020028082843760009201919091525050604080516020808a028281018201909352898252909350899250889182918501908490808284376000920182905250604080516020810190915290815292506115c3915050565b60005b84811015610f67578383878784818110610eee57610eee6129ed565b90506020020135818110610f0457610f046129ed565b905060200201356009878784818110610f1f57610f1f6129ed565b9050602002013581548110610f3657610f366129ed565b906000526020600020016000828254610f4f9190612cac565b90915550819050610f5f81612af0565b915050610ed2565b505050505050565b6008818154811061076657600080fd5b600f544210610fa05760405162461bcd60e51b815260040161053690612d38565b828114610fbf5760405162461bcd60e51b815260040161053690612c43565b600654610fde5760405162461bcd60e51b815260040161053690612d7a565b60005b8381101561108d576000838383818110610ffd57610ffd6129ed565b905060200201356003600088888681811061101a5761101a6129ed565b9050602002013581526020019081526020016000206000336001600160a01b03166001600160a01b031681526020019081526020016000205461105d9190612c53565b101561107b5760405162461bcd60e51b815260040161053690612dbc565b8061108581612af0565b915050610fe1565b506110fc338585808060200260200160405190810160405280939291908181526020018383602002808284376000920191909152505060408051602080890282810182019093528882529093508892508791829185019084908082843760009201919091525061170f92505050565b60005b8381101561074f5760005b8282101561119357600480546001810182556000919091527f8a35acfbc15ff81a39ae7d344fd709f28e8600b4aa8c65c6b64bfe7fe36bd19b01805473ffffffffffffffffffffffffffffffffffffffff191633179055600561116b61189e565b815460018101835560009283526020909220909101558061118b81612af0565b91505061110a565b508061119e81612af0565b9150506110ff565b6001600160a01b0385163314806111c257506111c28533610480565b6111de5760405162461bcd60e51b8152600401610536906129dd565b61074f8585858585611922565b6011546001600160a01b0316336001600160a01b03161461121e5760405162461bcd60e51b815260040161053690612916565b6011805473ffffffffffffffffffffffffffffffffffffffff19166001600160a01b0392909216919091179055565b60007fffffffff0000000000000000000000000000000000000000000000000000000082167f2a55205a00000000000000000000000000000000000000000000000000000000148061056457507f01ffc9a7000000000000000000000000000000000000000000000000000000007fffffffff00000000000000000000000000000000000000000000000000000000831614610564565b6127106bffffffffffffffffffffffff821611156113145760405162461bcd60e51b815260040161053690612e24565b6001600160a01b03821661133a5760405162461bcd60e51b815260040161053690612e66565b604080518082019091526001600160a01b039092168083526bffffffffffffffffffffffff90911660209092018290527401000000000000000000000000000000000000000090910217600055565b81518351146113aa5760405162461bcd60e51b815260040161053690612ece565b6001600160a01b0384166113d05760405162461bcd60e51b815260040161053690612f36565b3360005b84518110156114ba5760008582815181106113f1576113f16129ed565b60200260200101519050600085838151811061140f5761140f6129ed565b60209081029190910181015160008481526003835260408082206001600160a01b038e1683529093529190912054909150818110156114605760405162461bcd60e51b815260040161053690612f9e565b60008381526003602090815260408083206001600160a01b038e8116855292528083208585039055908b1682528120805484929061149f908490612cac565b92505081905550505050806114b390612af0565b90506113d4565b50846001600160a01b0316866001600160a01b0316826001600160a01b03167f4a39dc06d4c0dbc64b70af90fd698a233a518aa5d07e595d983b8c0526c8f7fb878760405161150a929190612fae565b60405180910390a4610f67818787878787611a5c565b816001600160a01b0316836001600160a01b031614156115525760405162461bcd60e51b81526004016105369061302b565b6001600160a01b038381166000818152600b602090815260408083209487168084529490915290819020805460ff1916851515179055517f17307eab39ab6107e8899845ad3d59bd9653f200f220920489ca2b5937696c31906115b6908590611fb8565b60405180910390a3505050565b6001600160a01b0384166115e95760405162461bcd60e51b815260040161053690613093565b815183511461160a5760405162461bcd60e51b815260040161053690612ece565b3360005b84518110156116a757838181518110611629576116296129ed565b602002602001015160036000878481518110611647576116476129ed565b602002602001015181526020019081526020016000206000886001600160a01b03166001600160a01b03168152602001908152602001600020600082825461168f9190612cac565b9091555081905061169f81612af0565b91505061160e565b50846001600160a01b031660006001600160a01b0316826001600160a01b03167f4a39dc06d4c0dbc64b70af90fd698a233a518aa5d07e595d983b8c0526c8f7fb87876040516116f8929190612fae565b60405180910390a461074f81600087878787611a5c565b6001600160a01b0383166117355760405162461bcd60e51b8152600401610536906130fb565b80518251146117565760405162461bcd60e51b815260040161053690612ece565b604080516020810190915260009081905233905b835181101561182f576000848281518110611787576117876129ed565b6020026020010151905060008483815181106117a5576117a56129ed565b60209081029190910181015160008481526003835260408082206001600160a01b038c1683529093529190912054909150818110156117f65760405162461bcd60e51b815260040161053690613163565b60009283526003602090815260408085206001600160a01b038b168652909152909220910390558061182781612af0565b91505061176a565b5060006001600160a01b0316846001600160a01b0316826001600160a01b03167f4a39dc06d4c0dbc64b70af90fd698a233a518aa5d07e595d983b8c0526c8f7fb8686604051611880929190612fae565b60405180910390a46040805160208101909152600090525b50505050565b6000806118af600680549050611bcd565b90506000600682815481106118c6576118c66129ed565b90600052602060002001541115611910576001600682815481106118ec576118ec6129ed565b9060005260206000200160008282546119059190612c53565b909155509092915050565b61191861189e565b91505090565b5090565b6001600160a01b0384166119485760405162461bcd60e51b815260040161053690612f36565b33600061195485611c1e565b9050600061196185611c1e565b905060008681526003602090815260408083206001600160a01b038c168452909152902054858110156119a65760405162461bcd60e51b815260040161053690612f9e565b60008781526003602090815260408083206001600160a01b038d8116855292528083208985039055908a168252812080548892906119e5908490612cac565b92505081905550876001600160a01b0316896001600160a01b0316856001600160a01b03167fc3d58168c5ae7397731d063d5bbf3d657854427343f4c083240f7aacaa2d0f628a8a604051611a3b929190613173565b60405180910390a4611a51848a8a8a8a8a611c69565b505050505050505050565b6001600160a01b0384163b15610f67576040517fbc197c810000000000000000000000000000000000000000000000000000000081526001600160a01b0385169063bc197c8190611ab99089908990889088908890600401613181565b602060405180830381600087803b158015611ad357600080fd5b505af1925050508015611b03575060408051601f3d908101601f19168201909252611b00918101906131ec565b60015b611b6357611b0f61320d565b806308c379a01415611b495750611b24613228565b80611b2f5750611b4b565b8060405162461bcd60e51b8152600401610536919061234a565b505b60405162461bcd60e51b8152600401610536906132fe565b7fffffffff0000000000000000000000000000000000000000000000000000000081167fbc197c810000000000000000000000000000000000000000000000000000000014611bc45760405162461bcd60e51b815260040161053690613366565b50505050505050565b6012805460009182611bde83612af0565b9190505550814233601254604051602001611bfb939291906133a4565b6040516020818303038152906040528051906020012060001c61056491906133d2565b60408051600180825281830190925260609160009190602080830190803683370190505090508281600081518110611c5857611c586129ed565b602090810291909101015292915050565b6001600160a01b0384163b15610f67576040517ff23a6e610000000000000000000000000000000000000000000000000000000081526001600160a01b0385169063f23a6e6190611cc690899089908890889088906004016133e6565b602060405180830381600087803b158015611ce057600080fd5b505af1925050508015611d10575060408051601f3d908101601f19168201909252611d0d918101906131ec565b60015b611d1c57611b0f61320d565b7fffffffff0000000000000000000000000000000000000000000000000000000081167ff23a6e610000000000000000000000000000000000000000000000000000000014611bc45760405162461bcd60e51b815260040161053690613366565b828054611d8990612a19565b90600052602060002090601f016020900481019282611dab5760008555611df1565b82601f10611dc457805160ff1916838001178555611df1565b82800160010185558215611df1579182015b82811115611df1578251825591602001919060010190611dd6565b5061191e929150611eab565b828054828255906000526020600020908101928215611df15791602002820182811115611df1578251825591602001919060010190611dd6565b828054611e4390612a19565b90600052602060002090601f016020900481019282611e655760008555611df1565b82601f10611e7e5782800160ff19823516178555611df1565b82800160010185558215611df1579182015b82811115611df1578235825591602001919060010190611e90565b5b8082111561191e5760008155600101611eac565b60006001600160a01b038216610564565b611eda81611ec0565b81146108f457600080fd5b803561056481611ed1565b80611eda565b803561056481611ef0565b60008060408385031215611f1757611f17600080fd5b6000611f238585611ee5565b9250506020611f3485828601611ef6565b9150509250929050565b805b82525050565b602081016105648284611f3e565b7fffffffff000000000000000000000000000000000000000000000000000000008116611eda565b803561056481611f54565b600060208284031215611f9c57611f9c600080fd5b6000611fa88484611f7c565b949350505050565b801515611f40565b602081016105648284611fb0565b6bffffffffffffffffffffffff8116611eda565b803561056481611fc6565b60008060408385031215611ffb57611ffb600080fd5b60006120078585611ee5565b9250506020611f3485828601611fda565b60006020828403121561202d5761202d600080fd5b6000611fa88484611ef6565b611f4081611ec0565b602081016105648284612039565b6000806040838503121561206657612066600080fd5b6000611f238585611ef6565b604081016120808285612039565b61208d6020830184611f3e565b9392505050565b634e487b7160e01b600052604160045260246000fd5b601f19601f830116810181811067ffffffffffffffff821117156120d0576120d0612094565b6040525050565b60006120e260405190565b905061087c82826120aa565b600067ffffffffffffffff82111561210857612108612094565b5060209081020190565b6000612125612120846120ee565b6120d7565b8381529050602080820190840283018581111561214457612144600080fd5b835b81811015612166576121588782611ef6565b835260209283019201612146565b5050509392505050565b600082601f83011261218457612184600080fd5b8135611fa8848260208601612112565b600067ffffffffffffffff8211156121ae576121ae612094565b601f19601f83011660200192915050565b82818337506000910152565b60006121d961212084612194565b9050828152602081018484840111156121f4576121f4600080fd5b610c0b8482856121bf565b600082601f83011261221357612213600080fd5b8135611fa88482602086016121cb565b600080600080600060a0868803121561223e5761223e600080fd5b600061224a8888611ee5565b955050602061225b88828901611ee5565b945050604086013567ffffffffffffffff81111561227b5761227b600080fd5b61228788828901612170565b935050606086013567ffffffffffffffff8111156122a7576122a7600080fd5b6122b388828901612170565b925050608086013567ffffffffffffffff8111156122d3576122d3600080fd5b6122df888289016121ff565b9150509295509295909350565b60005b838110156123075781810151838201526020016122ef565b838111156118985750506000910152565b6000612322825190565b8084526020840193506123398185602086016122ec565b601f01601f19169290920192915050565b6020808252810161208d8184612318565b6000612369612120846120ee565b8381529050602080820190840283018581111561238857612388600080fd5b835b8181101561216657803567ffffffffffffffff8111156123ac576123ac600080fd5b85016123b888826121ff565b8452506020928301920161238a565b600082601f8301126123db576123db600080fd5b8135611fa884826020860161235b565b600080600080600080600060e0888a03121561240957612409600080fd5b873567ffffffffffffffff81111561242357612423600080fd5b61242f8a828b016123c7565b975050602088013567ffffffffffffffff81111561244f5761244f600080fd5b61245b8a828b01612170565b965050604088013567ffffffffffffffff81111561247b5761247b600080fd5b6124878a828b01612170565b955050606088013567ffffffffffffffff8111156124a7576124a7600080fd5b6124b38a828b016121ff565b94505060806124c48a828b01611ef6565b93505060a06124d58a828b01611ee5565b92505060c06124e68a828b01611fda565b91505092959891949750929550565b60008083601f84011261250a5761250a600080fd5b50813567ffffffffffffffff81111561252557612525600080fd5b60208301915083602082028301111561070357610703600080fd5b6000806020838503121561255657612556600080fd5b823567ffffffffffffffff81111561257057612570600080fd5b61257c858286016124f5565b92509250509250929050565b6000612596612120846120ee565b838152905060208082019084028301858111156125b5576125b5600080fd5b835b81811015612166576125c98782611ee5565b8352602092830192016125b7565b600082601f8301126125eb576125eb600080fd5b8135611fa8848260208601612588565b6000806040838503121561261157612611600080fd5b823567ffffffffffffffff81111561262b5761262b600080fd5b612637858286016125d7565b925050602083013567ffffffffffffffff81111561265757612657600080fd5b611f3485828601612170565b61266d8282611f3e565b5060200190565b60200190565b6000612684825190565b808452602093840193830160005b828110156126b75781516126a68782612663565b965050602082019150600101612692565b5093949350505050565b6020808252810161208d818461267a565b6000602082840312156126e7576126e7600080fd5b813567ffffffffffffffff81111561270157612701600080fd5b611fa8848285016121ff565b801515611eda565b80356105648161270d565b6000806040838503121561273657612736600080fd5b60006127428585611ee5565b9250506020611f3485828601612715565b6000806000806040858703121561276c5761276c600080fd5b843567ffffffffffffffff81111561278657612786600080fd5b612792878288016124f5565b9450945050602085013567ffffffffffffffff8111156127b4576127b4600080fd5b6127c0878288016124f5565b95989497509550505050565b600080604083850312156127e2576127e2600080fd5b60006127ee8585611ee5565b9250506020611f3485828601611ee5565b600080600080600060a0868803121561281a5761281a600080fd5b60006128268888611ee5565b955050602061283788828901611ee5565b945050604061284888828901611ef6565b93505060606122b388828901611ef6565b60006020828403121561286e5761286e600080fd5b6000611fa88484611ee5565b602a8152602081017f455243313135353a2061646472657373207a65726f206973206e6f742061207681527f616c6964206f776e657200000000000000000000000000000000000000000000602082015290505b60400190565b602080825281016105648161287a565b60098152602081017f4e6f74206f776e6572000000000000000000000000000000000000000000000081529050612674565b60208082528101610564816128e4565b634e487b7160e01b600052601160045260246000fd5b600081600019048311821515161561295657612956612926565b500290565b634e487b7160e01b600052601260045260246000fd5b6000826129805761298061295b565b500490565b602e8152602081017f455243313135353a2063616c6c6572206973206e6f7420746f6b656e206f776e81527f6572206f7220617070726f766564000000000000000000000000000000000000602082015290506128ce565b6020808252810161056481612985565b634e487b7160e01b600052603260045260246000fd5b634e487b7160e01b600052602260045260246000fd5b600281046001821680612a2d57607f821691505b60208210811415612a4057612a40612a03565b50919050565b60198152602081017f4661696c656420746f2073656e6420746f2053696d6f6e6f2e0000000000000081529050612674565b6020808252810161056481612a46565b602e8152602081017f496e697469616c697a61626c653a20636f6e747261637420697320616c72656181527f647920696e697469616c697a6564000000000000000000000000000000000000602082015290506128ce565b6020808252810161056481612a88565b6000600019821415612b0457612b04612926565b5060010190565b600061056482612b19565b90565b60ff1690565b611f4081612b0b565b602081016105648284612b1f565b60008083357fffffffffffffffffffffffffffffffffffffffffffffffffffffffffffffffe136859003018112612b6f57612b6f600080fd5b8301915050803567ffffffffffffffff811115612b8e57612b8e600080fd5b60208201915060018102360382131561070357610703600080fd5b60298152602081017f455243313135353a206163636f756e747320616e6420696473206c656e67746881527f206d69736d617463680000000000000000000000000000000000000000000000602082015290506128ce565b6020808252810161056481612ba9565b600d8152602081017f496e76616c696420696e7075740000000000000000000000000000000000000081529050612674565b6020808252810161056481612c11565b600082821015612c6557612c65612926565b500390565b60178152602081017f4e6f7420656e6f756768207469636b657473206c65667400000000000000000081529050612674565b6020808252810161056481612c6a565b60008219821115612cbf57612cbf612926565b500190565b600e8152602081017f496e76616c696420616d6f756e7400000000000000000000000000000000000081529050612674565b6020808252810161056481612cc4565b601c8152602081017f436865636b20696e20646561646c696e6520686173207061737365640000000081529050612674565b6020808252810161056481612d06565b60188152602081017f436865636b696e206e6f7420737461727465642079657421000000000000000081529050612674565b6020808252810161056481612d48565b601d8152602081017f596f7520646f6e2774206861766520656e6f756768207469636b65747300000081529050612674565b6020808252810161056481612d8a565b602a8152602081017f455243323938313a20726f79616c7479206665652077696c6c2065786365656481527f2073616c65507269636500000000000000000000000000000000000000000000602082015290506128ce565b6020808252810161056481612dcc565b60198152602081017f455243323938313a20696e76616c69642072656365697665720000000000000081529050612674565b6020808252810161056481612e34565b60288152602081017f455243313135353a2069647320616e6420616d6f756e7473206c656e6774682081527f6d69736d61746368000000000000000000000000000000000000000000000000602082015290506128ce565b6020808252810161056481612e76565b60258152602081017f455243313135353a207472616e7366657220746f20746865207a65726f20616481527f6472657373000000000000000000000000000000000000000000000000000000602082015290506128ce565b6020808252810161056481612ede565b602a8152602081017f455243313135353a20696e73756666696369656e742062616c616e636520666f81527f72207472616e7366657200000000000000000000000000000000000000000000602082015290506128ce565b6020808252810161056481612f46565b60408082528101612fbf818561267a565b90508181036020830152611fa8818461267a565b60298152602081017f455243313135353a2073657474696e6720617070726f76616c2073746174757381527f20666f722073656c660000000000000000000000000000000000000000000000602082015290506128ce565b6020808252810161056481612fd3565b60218152602081017f455243313135353a206d696e7420746f20746865207a65726f2061646472657381527f7300000000000000000000000000000000000000000000000000000000000000602082015290506128ce565b602080825281016105648161303b565b60238152602081017f455243313135353a206275726e2066726f6d20746865207a65726f206164647281527f6573730000000000000000000000000000000000000000000000000000000000602082015290506128ce565b60208082528101610564816130a3565b60248152602081017f455243313135353a206275726e20616d6f756e7420657863656564732062616c81527f616e636500000000000000000000000000000000000000000000000000000000602082015290506128ce565b602080825281016105648161310b565b604081016120808285611f3e565b60a0810161318f8288612039565b61319c6020830187612039565b81810360408301526131ae818661267a565b905081810360608301526131c2818561267a565b905081810360808301526131d68184612318565b979650505050505050565b805161056481611f54565b60006020828403121561320157613201600080fd5b6000611fa884846131e1565b600060033d1115612b165760046000803e5060005160e01c90565b600060443d10156132365790565b60405160043d036004823e80513d602482011167ffffffffffffffff8211171561325f57505090565b808201805167ffffffffffffffff81111561327b575050505090565b80602083010160043d03850181111561329657505050505090565b50610c0b816020018401856120aa565b60348152602081017f455243313135353a207472616e7366657220746f206e6f6e2d4552433131353581527f526563656976657220696d706c656d656e746572000000000000000000000000602082015290506128ce565b60208082528101610564816132a6565b60288152602081017f455243313135353a204552433131353552656365697665722072656a6563746581527f6420746f6b656e73000000000000000000000000000000000000000000000000602082015290506128ce565b602080825281016105648161330e565b80611f40565b60006105648260601b90565b60006105648261337c565b611f4061339f82611ec0565b613388565b6133ae8185613376565b6020016133bb8184613393565b6014016133c88183613376565b6020019392505050565b6000826133e1576133e161295b565b500690565b60a081016133f48288612039565b6134016020830187612039565b61340e6040830186611f3e565b61341b6060830185611f3e565b81810360808301526131d6818461231856fea26469706673582212209306a0ee918b3b7d2b9b7d9933dad5d1ec78a1a30749d1e5c8752affa956e29264736f6c63430008090033","opcodes":"PUSH1 0x80 PUSH1 0x40 MSTORE PUSH1 0x0 PUSH1 0x12 SSTORE CALLVALUE DUP1 ISZERO PUSH2 0x15 JUMPI PUSH1 0x0 DUP1 REVERT JUMPDEST POP PUSH2 0x3463 DUP1 PUSH2 0x25 PUSH1 0x0 CODECOPY PUSH1 0x0 RETURN INVALID PUSH1 0x80 PUSH1 0x40 MSTORE PUSH1 0x4 CALLDATASIZE LT PUSH2 0x195 JUMPI PUSH1 0x0 CALLDATALOAD PUSH1 0xE0 SHR DUP1 PUSH4 0x4E1273F4 GT PUSH2 0xE1 JUMPI DUP1 PUSH4 0xA22CB465 GT PUSH2 0x8A JUMPI DUP1 PUSH4 0xE985E9C5 GT PUSH2 0x64 JUMPI DUP1 PUSH4 0xE985E9C5 EQ PUSH2 0x465 JUMPI DUP1 PUSH4 0xEC69E314 EQ PUSH2 0x4AE JUMPI DUP1 PUSH4 0xF242432A EQ PUSH2 0x4CE JUMPI DUP1 PUSH4 0xF2FDE38B EQ PUSH2 0x4EE JUMPI PUSH1 0x0 DUP1 REVERT JUMPDEST DUP1 PUSH4 0xA22CB465 EQ PUSH2 0x412 JUMPI DUP1 PUSH4 0xC0585144 EQ PUSH2 0x432 JUMPI DUP1 PUSH4 0xC0B497BB EQ PUSH2 0x445 JUMPI PUSH1 0x0 DUP1 REVERT JUMPDEST DUP1 PUSH4 0x714C5398 GT PUSH2 0xBB JUMPI DUP1 PUSH4 0x714C5398 EQ PUSH2 0x3BF JUMPI DUP1 PUSH4 0x893D20E8 EQ PUSH2 0x3D4 JUMPI DUP1 PUSH4 0x9624E83E EQ PUSH2 0x3F2 JUMPI PUSH1 0x0 DUP1 REVERT JUMPDEST DUP1 PUSH4 0x4E1273F4 EQ PUSH2 0x352 JUMPI DUP1 PUSH4 0x5261325D EQ PUSH2 0x37F JUMPI DUP1 PUSH4 0x55F804B3 EQ PUSH2 0x39F JUMPI PUSH1 0x0 DUP1 REVERT JUMPDEST DUP1 PUSH4 0x2EB2C2D6 GT PUSH2 0x143 JUMPI DUP1 PUSH4 0x3CCFD60B GT PUSH2 0x11D JUMPI DUP1 PUSH4 0x3CCFD60B EQ PUSH2 0x2FD JUMPI DUP1 PUSH4 0x474B0002 EQ PUSH2 0x312 JUMPI DUP1 PUSH4 0x49AA4887 EQ PUSH2 0x332 JUMPI PUSH1 0x0 DUP1 REVERT JUMPDEST DUP1 PUSH4 0x2EB2C2D6 EQ PUSH2 0x290 JUMPI DUP1 PUSH4 0x35403023 EQ PUSH2 0x2B0 JUMPI DUP1 PUSH4 0x3BB3A24D EQ PUSH2 0x2D0 JUMPI PUSH1 0x0 DUP1 REVERT JUMPDEST DUP1 PUSH4 0xE0C353D GT PUSH2 0x174 JUMPI DUP1 PUSH4 0xE0C353D EQ PUSH2 0x21F JUMPI DUP1 PUSH4 0x217D3653 EQ PUSH2 0x24C JUMPI DUP1 PUSH4 0x2A55205A EQ PUSH2 0x262 JUMPI PUSH1 0x0 DUP1 REVERT JUMPDEST DUP1 PUSH3 0xFDD58E EQ PUSH2 0x19A JUMPI DUP1 PUSH4 0x1FFC9A7 EQ PUSH2 0x1D0 JUMPI DUP1 PUSH4 0x2FA7C47 EQ PUSH2 0x1FD JUMPI JUMPDEST PUSH1 0x0 DUP1 REVERT JUMPDEST CALLVALUE DUP1 ISZERO PUSH2 0x1A6 JUMPI PUSH1 0x0 DUP1 REVERT JUMPDEST POP PUSH2 0x1BA PUSH2 0x1B5 CALLDATASIZE PUSH1 0x4 PUSH2 0x1F01 JUMP JUMPDEST PUSH2 0x50E JUMP JUMPDEST PUSH1 0x40 MLOAD PUSH2 0x1C7 SWAP2 SWAP1 PUSH2 0x1F46 JUMP JUMPDEST PUSH1 0x40 MLOAD DUP1 SWAP2 SUB SWAP1 RETURN JUMPDEST CALLVALUE DUP1 ISZERO PUSH2 0x1DC JUMPI PUSH1 0x0 DUP1 REVERT JUMPDEST POP PUSH2 0x1F0 PUSH2 0x1EB CALLDATASIZE PUSH1 0x4 PUSH2 0x1F87 JUMP JUMPDEST PUSH2 0x56A JUMP JUMPDEST PUSH1 0x40 MLOAD PUSH2 0x1C7 SWAP2 SWAP1 PUSH2 0x1FB8 JUMP JUMPDEST CALLVALUE DUP1 ISZERO PUSH2 0x209 JUMPI PUSH1 0x0 DUP1 REVERT JUMPDEST POP PUSH2 0x21D PUSH2 0x218 CALLDATASIZE PUSH1 0x4 PUSH2 0x1FE5 JUMP JUMPDEST PUSH2 0x5C0 JUMP JUMPDEST STOP JUMPDEST CALLVALUE DUP1 ISZERO PUSH2 0x22B JUMPI PUSH1 0x0 DUP1 REVERT JUMPDEST POP PUSH2 0x23F PUSH2 0x23A CALLDATASIZE PUSH1 0x4 PUSH2 0x2018 JUMP JUMPDEST PUSH2 0x601 JUMP JUMPDEST PUSH1 0x40 MLOAD PUSH2 0x1C7 SWAP2 SWAP1 PUSH2 0x2042 JUMP JUMPDEST CALLVALUE DUP1 ISZERO PUSH2 0x258 JUMPI PUSH1 0x0 DUP1 REVERT JUMPDEST POP PUSH2 0x1BA PUSH1 0xF SLOAD DUP2 JUMP JUMPDEST CALLVALUE DUP1 ISZERO PUSH2 0x26E JUMPI PUSH1 0x0 DUP1 REVERT JUMPDEST POP PUSH2 0x282 PUSH2 0x27D CALLDATASIZE PUSH1 0x4 PUSH2 0x2050 JUMP JUMPDEST PUSH2 0x62B JUMP JUMPDEST PUSH1 0x40 MLOAD PUSH2 0x1C7 SWAP3 SWAP2 SWAP1 PUSH2 0x2072 JUMP JUMPDEST CALLVALUE DUP1 ISZERO PUSH2 0x29C JUMPI PUSH1 0x0 DUP1 REVERT JUMPDEST POP PUSH2 0x21D PUSH2 0x2AB CALLDATASIZE PUSH1 0x4 PUSH2 0x2223 JUMP JUMPDEST PUSH2 0x70A JUMP JUMPDEST CALLVALUE DUP1 ISZERO PUSH2 0x2BC JUMPI PUSH1 0x0 DUP1 REVERT JUMPDEST POP PUSH2 0x1BA PUSH2 0x2CB CALLDATASIZE PUSH1 0x4 PUSH2 0x2018 JUMP JUMPDEST PUSH2 0x756 JUMP JUMPDEST CALLVALUE DUP1 ISZERO PUSH2 0x2DC JUMPI PUSH1 0x0 DUP1 REVERT JUMPDEST POP PUSH2 0x2F0 PUSH2 0x2EB CALLDATASIZE PUSH1 0x4 PUSH2 0x2018 JUMP JUMPDEST PUSH2 0x777 JUMP JUMPDEST PUSH1 0x40 MLOAD PUSH2 0x1C7 SWAP2 SWAP1 PUSH2 0x234A JUMP JUMPDEST CALLVALUE DUP1 ISZERO PUSH2 0x309 JUMPI PUSH1 0x0 DUP1 REVERT JUMPDEST POP PUSH2 0x21D PUSH2 0x881 JUMP JUMPDEST CALLVALUE DUP1 ISZERO PUSH2 0x31E JUMPI PUSH1 0x0 DUP1 REVERT JUMPDEST POP PUSH2 0x21D PUSH2 0x32D CALLDATASIZE PUSH1 0x4 PUSH2 0x23EB JUMP JUMPDEST PUSH2 0x8F7 JUMP JUMPDEST CALLVALUE DUP1 ISZERO PUSH2 0x33E JUMPI PUSH1 0x0 DUP1 REVERT JUMPDEST POP PUSH2 0x21D PUSH2 0x34D CALLDATASIZE PUSH1 0x4 PUSH2 0x2540 JUMP JUMPDEST PUSH2 0xACB JUMP JUMPDEST CALLVALUE DUP1 ISZERO PUSH2 0x35E JUMPI PUSH1 0x0 DUP1 REVERT JUMPDEST POP PUSH2 0x372 PUSH2 0x36D CALLDATASIZE PUSH1 0x4 PUSH2 0x25FB JUMP JUMPDEST PUSH2 0xB2B JUMP JUMPDEST PUSH1 0x40 MLOAD PUSH2 0x1C7 SWAP2 SWAP1 PUSH2 0x26C1 JUMP JUMPDEST CALLVALUE DUP1 ISZERO PUSH2 0x38B JUMPI PUSH1 0x0 DUP1 REVERT JUMPDEST POP PUSH2 0x21D PUSH2 0x39A CALLDATASIZE PUSH1 0x4 PUSH2 0x2540 JUMP JUMPDEST PUSH2 0xC13 JUMP JUMPDEST CALLVALUE DUP1 ISZERO PUSH2 0x3AB JUMPI PUSH1 0x0 DUP1 REVERT JUMPDEST POP PUSH2 0x21D PUSH2 0x3BA CALLDATASIZE PUSH1 0x4 PUSH2 0x26D2 JUMP JUMPDEST PUSH2 0xC68 JUMP JUMPDEST CALLVALUE DUP1 ISZERO PUSH2 0x3CB JUMPI PUSH1 0x0 DUP1 REVERT JUMPDEST POP PUSH2 0x2F0 PUSH2 0xC7B JUMP JUMPDEST CALLVALUE DUP1 ISZERO PUSH2 0x3E0 JUMPI PUSH1 0x0 DUP1 REVERT JUMPDEST POP PUSH1 0x11 SLOAD PUSH1 0x1 PUSH1 0x1 PUSH1 0xA0 SHL SUB AND PUSH2 0x23F JUMP JUMPDEST CALLVALUE DUP1 ISZERO PUSH2 0x3FE JUMPI PUSH1 0x0 DUP1 REVERT JUMPDEST POP PUSH1 0x10 SLOAD PUSH2 0x23F SWAP1 PUSH1 0x1 PUSH1 0x1 PUSH1 0xA0 SHL SUB AND DUP2 JUMP JUMPDEST CALLVALUE DUP1 ISZERO PUSH2 0x41E JUMPI PUSH1 0x0 DUP1 REVERT JUMPDEST POP PUSH2 0x21D PUSH2 0x42D CALLDATASIZE PUSH1 0x4 PUSH2 0x2720 JUMP JUMPDEST PUSH2 0xD0D JUMP JUMPDEST PUSH2 0x21D PUSH2 0x440 CALLDATASIZE PUSH1 0x4 PUSH2 0x2753 JUMP JUMPDEST PUSH2 0xD18 JUMP JUMPDEST CALLVALUE DUP1 ISZERO PUSH2 0x451 JUMPI PUSH1 0x0 DUP1 REVERT JUMPDEST POP PUSH2 0x1BA PUSH2 0x460 CALLDATASIZE PUSH1 0x4 PUSH2 0x2018 JUMP JUMPDEST PUSH2 0xF6F JUMP JUMPDEST CALLVALUE DUP1 ISZERO PUSH2 0x471 JUMPI PUSH1 0x0 DUP1 REVERT JUMPDEST POP PUSH2 0x1F0 PUSH2 0x480 CALLDATASIZE PUSH1 0x4 PUSH2 0x27CC JUMP JUMPDEST PUSH1 0x1 PUSH1 0x1 PUSH1 0xA0 SHL SUB SWAP2 DUP3 AND PUSH1 0x0 SWAP1 DUP2 MSTORE PUSH1 0xB PUSH1 0x20 SWAP1 DUP2 MSTORE PUSH1 0x40 DUP1 DUP4 KECCAK256 SWAP4 SWAP1 SWAP5 AND DUP3 MSTORE SWAP2 SWAP1 SWAP2 MSTORE KECCAK256 SLOAD PUSH1 0xFF AND SWAP1 JUMP JUMPDEST CALLVALUE DUP1 ISZERO PUSH2 0x4BA JUMPI PUSH1 0x0 DUP1 REVERT JUMPDEST POP PUSH2 0x21D PUSH2 0x4C9 CALLDATASIZE PUSH1 0x4 PUSH2 0x2753 JUMP JUMPDEST PUSH2 0xF7F JUMP JUMPDEST CALLVALUE DUP1 ISZERO PUSH2 0x4DA JUMPI PUSH1 0x0 DUP1 REVERT JUMPDEST POP PUSH2 0x21D PUSH2 0x4E9 CALLDATASIZE PUSH1 0x4 PUSH2 0x27FF JUMP JUMPDEST PUSH2 0x11A6 JUMP JUMPDEST CALLVALUE DUP1 ISZERO PUSH2 0x4FA JUMPI PUSH1 0x0 DUP1 REVERT JUMPDEST POP PUSH2 0x21D PUSH2 0x509 CALLDATASIZE PUSH1 0x4 PUSH2 0x2859 JUMP JUMPDEST PUSH2 0x11EB JUMP JUMPDEST PUSH1 0x0 PUSH1 0x1 PUSH1 0x1 PUSH1 0xA0 SHL SUB DUP4 AND PUSH2 0x53F JUMPI PUSH1 0x40 MLOAD PUSH3 0x461BCD PUSH1 0xE5 SHL DUP2 MSTORE PUSH1 0x4 ADD PUSH2 0x536 SWAP1 PUSH2 0x28D4 JUMP JUMPDEST PUSH1 0x40 MLOAD DUP1 SWAP2 SUB SWAP1 REVERT JUMPDEST POP PUSH1 0x0 DUP2 DUP2 MSTORE PUSH1 0x3 PUSH1 0x20 SWAP1 DUP2 MSTORE PUSH1 0x40 DUP1 DUP4 KECCAK256 PUSH1 0x1 PUSH1 0x1 PUSH1 0xA0 SHL SUB DUP7 AND DUP5 MSTORE SWAP1 SWAP2 MSTORE SWAP1 KECCAK256 SLOAD JUMPDEST SWAP3 SWAP2 POP POP JUMP JUMPDEST PUSH1 0x0 PUSH32 0xFFFFFFFF00000000000000000000000000000000000000000000000000000000 DUP3 AND PUSH32 0xD9B67A2600000000000000000000000000000000000000000000000000000000 EQ DUP1 PUSH2 0x564 JUMPI POP PUSH2 0x564 DUP3 PUSH2 0x124D JUMP JUMPDEST PUSH1 0x11 SLOAD PUSH1 0x1 PUSH1 0x1 PUSH1 0xA0 SHL SUB AND CALLER PUSH1 0x1 PUSH1 0x1 PUSH1 0xA0 SHL SUB AND EQ PUSH2 0x5F3 JUMPI PUSH1 0x40 MLOAD PUSH3 0x461BCD PUSH1 0xE5 SHL DUP2 MSTORE PUSH1 0x4 ADD PUSH2 0x536 SWAP1 PUSH2 0x2916 JUMP JUMPDEST PUSH2 0x5FD DUP3 DUP3 PUSH2 0x12E4 JUMP JUMPDEST POP POP JUMP JUMPDEST PUSH1 0x4 DUP2 DUP2 SLOAD DUP2 LT PUSH2 0x611 JUMPI PUSH1 0x0 DUP1 REVERT JUMPDEST PUSH1 0x0 SWAP2 DUP3 MSTORE PUSH1 0x20 SWAP1 SWAP2 KECCAK256 ADD SLOAD PUSH1 0x1 PUSH1 0x1 PUSH1 0xA0 SHL SUB AND SWAP1 POP DUP2 JUMP JUMPDEST PUSH1 0x0 DUP3 DUP2 MSTORE PUSH1 0x1 PUSH1 0x20 SWAP1 DUP2 MSTORE PUSH1 0x40 DUP1 DUP4 KECCAK256 DUP2 MLOAD DUP1 DUP4 ADD SWAP1 SWAP3 MSTORE SLOAD PUSH1 0x1 PUSH1 0x1 PUSH1 0xA0 SHL SUB DUP2 AND DUP1 DUP4 MSTORE PUSH21 0x10000000000000000000000000000000000000000 SWAP1 SWAP2 DIV PUSH12 0xFFFFFFFFFFFFFFFFFFFFFFFF AND SWAP3 DUP3 ADD SWAP3 SWAP1 SWAP3 MSTORE DUP3 SWAP2 PUSH2 0x6CC JUMPI POP PUSH1 0x40 DUP1 MLOAD DUP1 DUP3 ADD SWAP1 SWAP2 MSTORE PUSH1 0x0 SLOAD PUSH1 0x1 PUSH1 0x1 PUSH1 0xA0 SHL SUB DUP2 AND DUP3 MSTORE PUSH21 0x10000000000000000000000000000000000000000 SWAP1 DIV PUSH12 0xFFFFFFFFFFFFFFFFFFFFFFFF AND PUSH1 0x20 DUP3 ADD MSTORE JUMPDEST PUSH1 0x20 DUP2 ADD MLOAD PUSH1 0x0 SWAP1 PUSH2 0x2710 SWAP1 PUSH2 0x6F0 SWAP1 PUSH12 0xFFFFFFFFFFFFFFFFFFFFFFFF AND DUP8 PUSH2 0x293C JUMP JUMPDEST PUSH2 0x6FA SWAP2 SWAP1 PUSH2 0x2971 JUMP JUMPDEST SWAP2 MLOAD SWAP4 POP SWAP1 SWAP2 POP POP JUMPDEST SWAP3 POP SWAP3 SWAP1 POP JUMP JUMPDEST PUSH1 0x1 PUSH1 0x1 PUSH1 0xA0 SHL SUB DUP6 AND CALLER EQ DUP1 PUSH2 0x726 JUMPI POP PUSH2 0x726 DUP6 CALLER PUSH2 0x480 JUMP JUMPDEST PUSH2 0x742 JUMPI PUSH1 0x40 MLOAD PUSH3 0x461BCD PUSH1 0xE5 SHL DUP2 MSTORE PUSH1 0x4 ADD PUSH2 0x536 SWAP1 PUSH2 0x29DD JUMP JUMPDEST PUSH2 0x74F DUP6 DUP6 DUP6 DUP6 DUP6 PUSH2 0x1389 JUMP JUMPDEST POP POP POP POP POP JUMP JUMPDEST PUSH1 0x9 DUP2 DUP2 SLOAD DUP2 LT PUSH2 0x766 JUMPI PUSH1 0x0 DUP1 REVERT JUMPDEST PUSH1 0x0 SWAP2 DUP3 MSTORE PUSH1 0x20 SWAP1 SWAP2 KECCAK256 ADD SLOAD SWAP1 POP DUP2 JUMP JUMPDEST PUSH1 0x60 PUSH1 0xF SLOAD TIMESTAMP GT ISZERO PUSH2 0x843 JUMPI PUSH1 0xD PUSH1 0x0 PUSH1 0x5 DUP5 DUP2 SLOAD DUP2 LT PUSH2 0x79A JUMPI PUSH2 0x79A PUSH2 0x29ED JUMP JUMPDEST SWAP1 PUSH1 0x0 MSTORE PUSH1 0x20 PUSH1 0x0 KECCAK256 ADD SLOAD DUP2 MSTORE PUSH1 0x20 ADD SWAP1 DUP2 MSTORE PUSH1 0x20 ADD PUSH1 0x0 KECCAK256 DUP1 SLOAD PUSH2 0x7BE SWAP1 PUSH2 0x2A19 JUMP JUMPDEST DUP1 PUSH1 0x1F ADD PUSH1 0x20 DUP1 SWAP2 DIV MUL PUSH1 0x20 ADD PUSH1 0x40 MLOAD SWAP1 DUP2 ADD PUSH1 0x40 MSTORE DUP1 SWAP3 SWAP2 SWAP1 DUP2 DUP2 MSTORE PUSH1 0x20 ADD DUP3 DUP1 SLOAD PUSH2 0x7EA SWAP1 PUSH2 0x2A19 JUMP JUMPDEST DUP1 ISZERO PUSH2 0x837 JUMPI DUP1 PUSH1 0x1F LT PUSH2 0x80C JUMPI PUSH2 0x100 DUP1 DUP4 SLOAD DIV MUL DUP4 MSTORE SWAP2 PUSH1 0x20 ADD SWAP2 PUSH2 0x837 JUMP JUMPDEST DUP3 ADD SWAP2 SWAP1 PUSH1 0x0 MSTORE PUSH1 0x20 PUSH1 0x0 KECCAK256 SWAP1 JUMPDEST DUP2 SLOAD DUP2 MSTORE SWAP1 PUSH1 0x1 ADD SWAP1 PUSH1 0x20 ADD DUP1 DUP4 GT PUSH2 0x81A JUMPI DUP3 SWAP1 SUB PUSH1 0x1F AND DUP3 ADD SWAP2 JUMPDEST POP POP POP POP POP SWAP1 POP SWAP2 SWAP1 POP JUMP JUMPDEST POP POP PUSH1 0x40 DUP1 MLOAD DUP1 DUP3 ADD SWAP1 SWAP2 MSTORE PUSH1 0x16 DUP2 MSTORE PUSH32 0x546F6B656E73206E6F742064726F707065642079657400000000000000000000 PUSH1 0x20 DUP3 ADD MSTORE SWAP1 JUMP JUMPDEST SWAP2 SWAP1 POP JUMP JUMPDEST PUSH1 0x10 SLOAD PUSH1 0x40 MLOAD PUSH1 0x0 SWAP2 PUSH1 0x1 PUSH1 0x1 PUSH1 0xA0 SHL SUB AND SWAP1 SELFBALANCE SWAP1 DUP4 DUP2 DUP2 DUP2 DUP6 DUP8 GAS CALL SWAP3 POP POP POP RETURNDATASIZE DUP1 PUSH1 0x0 DUP2 EQ PUSH2 0x8CE JUMPI PUSH1 0x40 MLOAD SWAP2 POP PUSH1 0x1F NOT PUSH1 0x3F RETURNDATASIZE ADD AND DUP3 ADD PUSH1 0x40 MSTORE RETURNDATASIZE DUP3 MSTORE RETURNDATASIZE PUSH1 0x0 PUSH1 0x20 DUP5 ADD RETURNDATACOPY PUSH2 0x8D3 JUMP JUMPDEST PUSH1 0x60 SWAP2 POP JUMPDEST POP POP SWAP1 POP DUP1 PUSH2 0x8F4 JUMPI PUSH1 0x40 MLOAD PUSH3 0x461BCD PUSH1 0xE5 SHL DUP2 MSTORE PUSH1 0x4 ADD PUSH2 0x536 SWAP1 PUSH2 0x2A78 JUMP JUMPDEST POP JUMP JUMPDEST PUSH1 0x2 SLOAD PUSH2 0x100 SWAP1 DIV PUSH1 0xFF AND ISZERO DUP1 DUP1 ISZERO PUSH2 0x917 JUMPI POP PUSH1 0x2 SLOAD PUSH1 0x1 PUSH1 0xFF SWAP1 SWAP2 AND LT JUMPDEST DUP1 PUSH2 0x931 JUMPI POP ADDRESS EXTCODESIZE ISZERO DUP1 ISZERO PUSH2 0x931 JUMPI POP PUSH1 0x2 SLOAD PUSH1 0xFF AND PUSH1 0x1 EQ JUMPDEST PUSH2 0x94D JUMPI PUSH1 0x40 MLOAD PUSH3 0x461BCD PUSH1 0xE5 SHL DUP2 MSTORE PUSH1 0x4 ADD PUSH2 0x536 SWAP1 PUSH2 0x2AE0 JUMP JUMPDEST PUSH1 0x2 DUP1 SLOAD PUSH1 0xFF NOT AND PUSH1 0x1 OR SWAP1 SSTORE DUP1 ISZERO PUSH2 0x970 JUMPI PUSH1 0x2 DUP1 SLOAD PUSH2 0xFF00 NOT AND PUSH2 0x100 OR SWAP1 SSTORE JUMPDEST PUSH1 0x0 JUMPDEST DUP9 MLOAD DUP2 LT ISZERO PUSH2 0x9CF JUMPI DUP9 DUP2 DUP2 MLOAD DUP2 LT PUSH2 0x98E JUMPI PUSH2 0x98E PUSH2 0x29ED JUMP JUMPDEST PUSH1 0x20 MUL PUSH1 0x20 ADD ADD MLOAD PUSH1 0xC PUSH1 0x0 DUP4 DUP2 MSTORE PUSH1 0x20 ADD SWAP1 DUP2 MSTORE PUSH1 0x20 ADD PUSH1 0x0 KECCAK256 SWAP1 DUP1 MLOAD SWAP1 PUSH1 0x20 ADD SWAP1 PUSH2 0x9BC SWAP3 SWAP2 SWAP1 PUSH2 0x1D7D JUMP JUMPDEST POP DUP1 PUSH2 0x9C7 DUP2 PUSH2 0x2AF0 JUMP JUMPDEST SWAP2 POP POP PUSH2 0x973 JUMP JUMPDEST POP DUP5 MLOAD PUSH2 0x9E3 SWAP1 PUSH1 0xE SWAP1 PUSH1 0x20 DUP9 ADD SWAP1 PUSH2 0x1D7D JUMP JUMPDEST POP PUSH1 0x11 DUP1 SLOAD PUSH20 0xFFFFFFFFFFFFFFFFFFFFFFFFFFFFFFFFFFFFFFFF NOT AND CALLER OR SWAP1 SSTORE DUP7 MLOAD PUSH2 0xA16 SWAP1 PUSH1 0xA SWAP1 PUSH1 0x20 DUP11 ADD SWAP1 PUSH2 0x1DFD JUMP JUMPDEST POP DUP6 MLOAD PUSH2 0xA2A SWAP1 PUSH1 0x8 SWAP1 PUSH1 0x20 DUP10 ADD SWAP1 PUSH2 0x1DFD JUMP JUMPDEST POP DUP6 MLOAD PUSH2 0xA3E SWAP1 PUSH1 0x9 SWAP1 PUSH1 0x20 DUP10 ADD SWAP1 PUSH2 0x1DFD JUMP JUMPDEST POP PUSH1 0x10 DUP1 SLOAD PUSH20 0xFFFFFFFFFFFFFFFFFFFFFFFFFFFFFFFFFFFFFFFF NOT AND PUSH1 0x1 PUSH1 0x1 PUSH1 0xA0 SHL SUB DUP6 AND OR SWAP1 SSTORE PUSH1 0xF DUP5 SWAP1 SSTORE PUSH2 0xA76 DUP4 DUP4 PUSH2 0x12E4 JUMP JUMPDEST DUP1 ISZERO PUSH2 0xAC1 JUMPI PUSH1 0x2 DUP1 SLOAD PUSH2 0xFF00 NOT AND SWAP1 SSTORE PUSH1 0x40 MLOAD PUSH32 0x7F26B83FF96E1F2B6A682F133852F6798A09C465DA95921460CEFB3847402498 SWAP1 PUSH2 0xAB8 SWAP1 PUSH1 0x1 SWAP1 PUSH2 0x2B28 JUMP JUMPDEST PUSH1 0x40 MLOAD DUP1 SWAP2 SUB SWAP1 LOG1 JUMPDEST POP POP POP POP POP POP POP POP JUMP JUMPDEST PUSH1 0x0 JUMPDEST DUP2 DUP2 LT ISZERO PUSH2 0xB26 JUMPI DUP3 DUP3 DUP3 DUP2 DUP2 LT PUSH2 0xAE8 JUMPI PUSH2 0xAE8 PUSH2 0x29ED JUMP JUMPDEST SWAP1 POP PUSH1 0x20 MUL DUP2 ADD SWAP1 PUSH2 0xAFA SWAP2 SWAP1 PUSH2 0x2B36 JUMP JUMPDEST PUSH1 0x0 DUP4 DUP2 MSTORE PUSH1 0xD PUSH1 0x20 MSTORE PUSH1 0x40 SWAP1 KECCAK256 PUSH2 0xB13 SWAP3 SWAP1 SWAP2 PUSH2 0x1E37 JUMP JUMPDEST POP DUP1 PUSH2 0xB1E DUP2 PUSH2 0x2AF0 JUMP JUMPDEST SWAP2 POP POP PUSH2 0xACE JUMP JUMPDEST POP POP POP JUMP JUMPDEST PUSH1 0x60 DUP2 MLOAD DUP4 MLOAD EQ PUSH2 0xB4E JUMPI PUSH1 0x40 MLOAD PUSH3 0x461BCD PUSH1 0xE5 SHL DUP2 MSTORE PUSH1 0x4 ADD PUSH2 0x536 SWAP1 PUSH2 0x2C01 JUMP JUMPDEST PUSH1 0x0 DUP4 MLOAD PUSH8 0xFFFFFFFFFFFFFFFF DUP2 GT ISZERO PUSH2 0xB6A JUMPI PUSH2 0xB6A PUSH2 0x2094 JUMP JUMPDEST PUSH1 0x40 MLOAD SWAP1 DUP1 DUP3 MSTORE DUP1 PUSH1 0x20 MUL PUSH1 0x20 ADD DUP3 ADD PUSH1 0x40 MSTORE DUP1 ISZERO PUSH2 0xB93 JUMPI DUP2 PUSH1 0x20 ADD PUSH1 0x20 DUP3 MUL DUP1 CALLDATASIZE DUP4 CALLDATACOPY ADD SWAP1 POP JUMPDEST POP SWAP1 POP PUSH1 0x0 JUMPDEST DUP5 MLOAD DUP2 LT ISZERO PUSH2 0xC0B JUMPI PUSH2 0xBDE DUP6 DUP3 DUP2 MLOAD DUP2 LT PUSH2 0xBB7 JUMPI PUSH2 0xBB7 PUSH2 0x29ED JUMP JUMPDEST PUSH1 0x20 MUL PUSH1 0x20 ADD ADD MLOAD DUP6 DUP4 DUP2 MLOAD DUP2 LT PUSH2 0xBD1 JUMPI PUSH2 0xBD1 PUSH2 0x29ED JUMP JUMPDEST PUSH1 0x20 MUL PUSH1 0x20 ADD ADD MLOAD PUSH2 0x50E JUMP JUMPDEST DUP3 DUP3 DUP2 MLOAD DUP2 LT PUSH2 0xBF0 JUMPI PUSH2 0xBF0 PUSH2 0x29ED JUMP JUMPDEST PUSH1 0x20 SWAP1 DUP2 MUL SWAP2 SWAP1 SWAP2 ADD ADD MSTORE PUSH2 0xC04 DUP2 PUSH2 0x2AF0 JUMP JUMPDEST SWAP1 POP PUSH2 0xB99 JUMP JUMPDEST POP SWAP4 SWAP3 POP POP POP JUMP JUMPDEST PUSH1 0x0 JUMPDEST DUP2 DUP2 LT ISZERO PUSH2 0xB26 JUMPI DUP3 DUP3 DUP3 DUP2 DUP2 LT PUSH2 0xC30 JUMPI PUSH2 0xC30 PUSH2 0x29ED JUMP JUMPDEST SWAP1 POP PUSH1 0x20 MUL ADD CALLDATALOAD PUSH1 0x6 DUP3 DUP2 SLOAD DUP2 LT PUSH2 0xC4A JUMPI PUSH2 0xC4A PUSH2 0x29ED JUMP JUMPDEST PUSH1 0x0 SWAP2 DUP3 MSTORE PUSH1 0x20 SWAP1 SWAP2 KECCAK256 ADD SSTORE DUP1 PUSH2 0xC60 DUP2 PUSH2 0x2AF0 JUMP JUMPDEST SWAP2 POP POP PUSH2 0xC16 JUMP JUMPDEST DUP1 MLOAD PUSH2 0x5FD SWAP1 PUSH1 0xE SWAP1 PUSH1 0x20 DUP5 ADD SWAP1 PUSH2 0x1D7D JUMP JUMPDEST PUSH1 0x60 PUSH1 0xE DUP1 SLOAD PUSH2 0xC8A SWAP1 PUSH2 0x2A19 JUMP JUMPDEST DUP1 PUSH1 0x1F ADD PUSH1 0x20 DUP1 SWAP2 DIV MUL PUSH1 0x20 ADD PUSH1 0x40 MLOAD SWAP1 DUP2 ADD PUSH1 0x40 MSTORE DUP1 SWAP3 SWAP2 SWAP1 DUP2 DUP2 MSTORE PUSH1 0x20 ADD DUP3 DUP1 SLOAD PUSH2 0xCB6 SWAP1 PUSH2 0x2A19 JUMP JUMPDEST DUP1 ISZERO PUSH2 0xD03 JUMPI DUP1 PUSH1 0x1F LT PUSH2 0xCD8 JUMPI PUSH2 0x100 DUP1 DUP4 SLOAD DIV MUL DUP4 MSTORE SWAP2 PUSH1 0x20 ADD SWAP2 PUSH2 0xD03 JUMP JUMPDEST DUP3 ADD SWAP2 SWAP1 PUSH1 0x0 MSTORE PUSH1 0x20 PUSH1 0x0 KECCAK256 SWAP1 JUMPDEST DUP2 SLOAD DUP2 MSTORE SWAP1 PUSH1 0x1 ADD SWAP1 PUSH1 0x20 ADD DUP1 DUP4 GT PUSH2 0xCE6 JUMPI DUP3 SWAP1 SUB PUSH1 0x1F AND DUP3 ADD SWAP2 JUMPDEST POP POP POP POP POP SWAP1 POP SWAP1 JUMP JUMPDEST PUSH2 0x5FD CALLER DUP4 DUP4 PUSH2 0x1520 JUMP JUMPDEST DUP3 DUP2 EQ PUSH2 0xD37 JUMPI PUSH1 0x40 MLOAD PUSH3 0x461BCD PUSH1 0xE5 SHL DUP2 MSTORE PUSH1 0x4 ADD PUSH2 0x536 SWAP1 PUSH2 0x2C43 JUMP JUMPDEST PUSH1 0x0 DUP1 JUMPDEST DUP5 DUP2 LT ISZERO PUSH2 0xE33 JUMPI PUSH1 0x0 DUP5 DUP5 DUP4 DUP2 DUP2 LT PUSH2 0xD57 JUMPI PUSH2 0xD57 PUSH2 0x29ED JUMP JUMPDEST SWAP1 POP PUSH1 0x20 MUL ADD CALLDATALOAD PUSH1 0x9 DUP9 DUP9 DUP6 DUP2 DUP2 LT PUSH2 0xD72 JUMPI PUSH2 0xD72 PUSH2 0x29ED JUMP JUMPDEST SWAP1 POP PUSH1 0x20 MUL ADD CALLDATALOAD DUP2 SLOAD DUP2 LT PUSH2 0xD89 JUMPI PUSH2 0xD89 PUSH2 0x29ED JUMP JUMPDEST SWAP1 PUSH1 0x0 MSTORE PUSH1 0x20 PUSH1 0x0 KECCAK256 ADD SLOAD PUSH2 0xD9E SWAP2 SWAP1 PUSH2 0x2C53 JUMP JUMPDEST LT ISZERO PUSH2 0xDBC JUMPI PUSH1 0x40 MLOAD PUSH3 0x461BCD PUSH1 0xE5 SHL DUP2 MSTORE PUSH1 0x4 ADD PUSH2 0x536 SWAP1 PUSH2 0x2C9C JUMP JUMPDEST DUP4 DUP4 DUP3 DUP2 DUP2 LT PUSH2 0xDCE JUMPI PUSH2 0xDCE PUSH2 0x29ED JUMP JUMPDEST SWAP1 POP PUSH1 0x20 MUL ADD CALLDATALOAD PUSH1 0xA DUP8 DUP8 DUP5 DUP2 DUP2 LT PUSH2 0xDE9 JUMPI PUSH2 0xDE9 PUSH2 0x29ED JUMP JUMPDEST SWAP1 POP PUSH1 0x20 MUL ADD CALLDATALOAD DUP2 SLOAD DUP2 LT PUSH2 0xE00 JUMPI PUSH2 0xE00 PUSH2 0x29ED JUMP JUMPDEST SWAP1 PUSH1 0x0 MSTORE PUSH1 0x20 PUSH1 0x0 KECCAK256 ADD SLOAD PUSH2 0xE15 SWAP2 SWAP1 PUSH2 0x293C JUMP JUMPDEST PUSH2 0xE1F SWAP1 DUP4 PUSH2 0x2CAC JUMP JUMPDEST SWAP2 POP DUP1 PUSH2 0xE2B DUP2 PUSH2 0x2AF0 JUMP JUMPDEST SWAP2 POP POP PUSH2 0xD3B JUMP JUMPDEST POP DUP1 CALLVALUE EQ PUSH2 0xE53 JUMPI PUSH1 0x40 MLOAD PUSH3 0x461BCD PUSH1 0xE5 SHL DUP2 MSTORE PUSH1 0x4 ADD PUSH2 0x536 SWAP1 PUSH2 0x2CF6 JUMP JUMPDEST PUSH2 0xECF CALLER DUP7 DUP7 DUP1 DUP1 PUSH1 0x20 MUL PUSH1 0x20 ADD PUSH1 0x40 MLOAD SWAP1 DUP2 ADD PUSH1 0x40 MSTORE DUP1 SWAP4 SWAP3 SWAP2 SWAP1 DUP2 DUP2 MSTORE PUSH1 0x20 ADD DUP4 DUP4 PUSH1 0x20 MUL DUP1 DUP3 DUP5 CALLDATACOPY PUSH1 0x0 SWAP3 ADD SWAP2 SWAP1 SWAP2 MSTORE POP POP PUSH1 0x40 DUP1 MLOAD PUSH1 0x20 DUP1 DUP11 MUL DUP3 DUP2 ADD DUP3 ADD SWAP1 SWAP4 MSTORE DUP10 DUP3 MSTORE SWAP1 SWAP4 POP DUP10 SWAP3 POP DUP9 SWAP2 DUP3 SWAP2 DUP6 ADD SWAP1 DUP5 SWAP1 DUP1 DUP3 DUP5 CALLDATACOPY PUSH1 0x0 SWAP3 ADD DUP3 SWAP1 MSTORE POP PUSH1 0x40 DUP1 MLOAD PUSH1 0x20 DUP2 ADD SWAP1 SWAP2 MSTORE SWAP1 DUP2 MSTORE SWAP3 POP PUSH2 0x15C3 SWAP2 POP POP JUMP JUMPDEST PUSH1 0x0 JUMPDEST DUP5 DUP2 LT ISZERO PUSH2 0xF67 JUMPI DUP4 DUP4 DUP8 DUP8 DUP5 DUP2 DUP2 LT PUSH2 0xEEE JUMPI PUSH2 0xEEE PUSH2 0x29ED JUMP JUMPDEST SWAP1 POP PUSH1 0x20 MUL ADD CALLDATALOAD DUP2 DUP2 LT PUSH2 0xF04 JUMPI PUSH2 0xF04 PUSH2 0x29ED JUMP JUMPDEST SWAP1 POP PUSH1 0x20 MUL ADD CALLDATALOAD PUSH1 0x9 DUP8 DUP8 DUP5 DUP2 DUP2 LT PUSH2 0xF1F JUMPI PUSH2 0xF1F PUSH2 0x29ED JUMP JUMPDEST SWAP1 POP PUSH1 0x20 MUL ADD CALLDATALOAD DUP2 SLOAD DUP2 LT PUSH2 0xF36 JUMPI PUSH2 0xF36 PUSH2 0x29ED JUMP JUMPDEST SWAP1 PUSH1 0x0 MSTORE PUSH1 0x20 PUSH1 0x0 KECCAK256 ADD PUSH1 0x0 DUP3 DUP3 SLOAD PUSH2 0xF4F SWAP2 SWAP1 PUSH2 0x2CAC JUMP JUMPDEST SWAP1 SWAP2 SSTORE POP DUP2 SWAP1 POP PUSH2 0xF5F DUP2 PUSH2 0x2AF0 JUMP JUMPDEST SWAP2 POP POP PUSH2 0xED2 JUMP JUMPDEST POP POP POP POP POP POP JUMP JUMPDEST PUSH1 0x8 DUP2 DUP2 SLOAD DUP2 LT PUSH2 0x766 JUMPI PUSH1 0x0 DUP1 REVERT JUMPDEST PUSH1 0xF SLOAD TIMESTAMP LT PUSH2 0xFA0 JUMPI PUSH1 0x40 MLOAD PUSH3 0x461BCD PUSH1 0xE5 SHL DUP2 MSTORE PUSH1 0x4 ADD PUSH2 0x536 SWAP1 PUSH2 0x2D38 JUMP JUMPDEST DUP3 DUP2 EQ PUSH2 0xFBF JUMPI PUSH1 0x40 MLOAD PUSH3 0x461BCD PUSH1 0xE5 SHL DUP2 MSTORE PUSH1 0x4 ADD PUSH2 0x536 SWAP1 PUSH2 0x2C43 JUMP JUMPDEST PUSH1 0x6 SLOAD PUSH2 0xFDE JUMPI PUSH1 0x40 MLOAD PUSH3 0x461BCD PUSH1 0xE5 SHL DUP2 MSTORE PUSH1 0x4 ADD PUSH2 0x536 SWAP1 PUSH2 0x2D7A JUMP JUMPDEST PUSH1 0x0 JUMPDEST DUP4 DUP2 LT ISZERO PUSH2 0x108D JUMPI PUSH1 0x0 DUP4 DUP4 DUP4 DUP2 DUP2 LT PUSH2 0xFFD JUMPI PUSH2 0xFFD PUSH2 0x29ED JUMP JUMPDEST SWAP1 POP PUSH1 0x20 MUL ADD CALLDATALOAD PUSH1 0x3 PUSH1 0x0 DUP9 DUP9 DUP7 DUP2 DUP2 LT PUSH2 0x101A JUMPI PUSH2 0x101A PUSH2 0x29ED JUMP JUMPDEST SWAP1 POP PUSH1 0x20 MUL ADD CALLDATALOAD DUP2 MSTORE PUSH1 0x20 ADD SWAP1 DUP2 MSTORE PUSH1 0x20 ADD PUSH1 0x0 KECCAK256 PUSH1 0x0 CALLER PUSH1 0x1 PUSH1 0x1 PUSH1 0xA0 SHL SUB AND PUSH1 0x1 PUSH1 0x1 PUSH1 0xA0 SHL SUB AND DUP2 MSTORE PUSH1 0x20 ADD SWAP1 DUP2 MSTORE PUSH1 0x20 ADD PUSH1 0x0 KECCAK256 SLOAD PUSH2 0x105D SWAP2 SWAP1 PUSH2 0x2C53 JUMP JUMPDEST LT ISZERO PUSH2 0x107B JUMPI PUSH1 0x40 MLOAD PUSH3 0x461BCD PUSH1 0xE5 SHL DUP2 MSTORE PUSH1 0x4 ADD PUSH2 0x536 SWAP1 PUSH2 0x2DBC JUMP JUMPDEST DUP1 PUSH2 0x1085 DUP2 PUSH2 0x2AF0 JUMP JUMPDEST SWAP2 POP POP PUSH2 0xFE1 JUMP JUMPDEST POP PUSH2 0x10FC CALLER DUP6 DUP6 DUP1 DUP1 PUSH1 0x20 MUL PUSH1 0x20 ADD PUSH1 0x40 MLOAD SWAP1 DUP2 ADD PUSH1 0x40 MSTORE DUP1 SWAP4 SWAP3 SWAP2 SWAP1 DUP2 DUP2 MSTORE PUSH1 0x20 ADD DUP4 DUP4 PUSH1 0x20 MUL DUP1 DUP3 DUP5 CALLDATACOPY PUSH1 0x0 SWAP3 ADD SWAP2 SWAP1 SWAP2 MSTORE POP POP PUSH1 0x40 DUP1 MLOAD PUSH1 0x20 DUP1 DUP10 MUL DUP3 DUP2 ADD DUP3 ADD SWAP1 SWAP4 MSTORE DUP9 DUP3 MSTORE SWAP1 SWAP4 POP DUP9 SWAP3 POP DUP8 SWAP2 DUP3 SWAP2 DUP6 ADD SWAP1 DUP5 SWAP1 DUP1 DUP3 DUP5 CALLDATACOPY PUSH1 0x0 SWAP3 ADD SWAP2 SWAP1 SWAP2 MSTORE POP PUSH2 0x170F SWAP3 POP POP POP JUMP JUMPDEST PUSH1 0x0 JUMPDEST DUP4 DUP2 LT ISZERO PUSH2 0x74F JUMPI PUSH1 0x0 JUMPDEST DUP3 DUP3 LT ISZERO PUSH2 0x1193 JUMPI PUSH1 0x4 DUP1 SLOAD PUSH1 0x1 DUP2 ADD DUP3 SSTORE PUSH1 0x0 SWAP2 SWAP1 SWAP2 MSTORE PUSH32 0x8A35ACFBC15FF81A39AE7D344FD709F28E8600B4AA8C65C6B64BFE7FE36BD19B ADD DUP1 SLOAD PUSH20 0xFFFFFFFFFFFFFFFFFFFFFFFFFFFFFFFFFFFFFFFF NOT AND CALLER OR SWAP1 SSTORE PUSH1 0x5 PUSH2 0x116B PUSH2 0x189E JUMP JUMPDEST DUP2 SLOAD PUSH1 0x1 DUP2 ADD DUP4 SSTORE PUSH1 0x0 SWAP3 DUP4 MSTORE PUSH1 0x20 SWAP1 SWAP3 KECCAK256 SWAP1 SWAP2 ADD SSTORE DUP1 PUSH2 0x118B DUP2 PUSH2 0x2AF0 JUMP JUMPDEST SWAP2 POP POP PUSH2 0x110A JUMP JUMPDEST POP DUP1 PUSH2 0x119E DUP2 PUSH2 0x2AF0 JUMP JUMPDEST SWAP2 POP POP PUSH2 0x10FF JUMP JUMPDEST PUSH1 0x1 PUSH1 0x1 PUSH1 0xA0 SHL SUB DUP6 AND CALLER EQ DUP1 PUSH2 0x11C2 JUMPI POP PUSH2 0x11C2 DUP6 CALLER PUSH2 0x480 JUMP JUMPDEST PUSH2 0x11DE JUMPI PUSH1 0x40 MLOAD PUSH3 0x461BCD PUSH1 0xE5 SHL DUP2 MSTORE PUSH1 0x4 ADD PUSH2 0x536 SWAP1 PUSH2 0x29DD JUMP JUMPDEST PUSH2 0x74F DUP6 DUP6 DUP6 DUP6 DUP6 PUSH2 0x1922 JUMP JUMPDEST PUSH1 0x11 SLOAD PUSH1 0x1 PUSH1 0x1 PUSH1 0xA0 SHL SUB AND CALLER PUSH1 0x1 PUSH1 0x1 PUSH1 0xA0 SHL SUB AND EQ PUSH2 0x121E JUMPI PUSH1 0x40 MLOAD PUSH3 0x461BCD PUSH1 0xE5 SHL DUP2 MSTORE PUSH1 0x4 ADD PUSH2 0x536 SWAP1 PUSH2 0x2916 JUMP JUMPDEST PUSH1 0x11 DUP1 SLOAD PUSH20 0xFFFFFFFFFFFFFFFFFFFFFFFFFFFFFFFFFFFFFFFF NOT AND PUSH1 0x1 PUSH1 0x1 PUSH1 0xA0 SHL SUB SWAP3 SWAP1 SWAP3 AND SWAP2 SWAP1 SWAP2 OR SWAP1 SSTORE JUMP JUMPDEST PUSH1 0x0 PUSH32 0xFFFFFFFF00000000000000000000000000000000000000000000000000000000 DUP3 AND PUSH32 0x2A55205A00000000000000000000000000000000000000000000000000000000 EQ DUP1 PUSH2 0x564 JUMPI POP PUSH32 0x1FFC9A700000000000000000000000000000000000000000000000000000000 PUSH32 0xFFFFFFFF00000000000000000000000000000000000000000000000000000000 DUP4 AND EQ PUSH2 0x564 JUMP JUMPDEST PUSH2 0x2710 PUSH12 0xFFFFFFFFFFFFFFFFFFFFFFFF DUP3 AND GT ISZERO PUSH2 0x1314 JUMPI PUSH1 0x40 MLOAD PUSH3 0x461BCD PUSH1 0xE5 SHL DUP2 MSTORE PUSH1 0x4 ADD PUSH2 0x536 SWAP1 PUSH2 0x2E24 JUMP JUMPDEST PUSH1 0x1 PUSH1 0x1 PUSH1 0xA0 SHL SUB DUP3 AND PUSH2 0x133A JUMPI PUSH1 0x40 MLOAD PUSH3 0x461BCD PUSH1 0xE5 SHL DUP2 MSTORE PUSH1 0x4 ADD PUSH2 0x536 SWAP1 PUSH2 0x2E66 JUMP JUMPDEST PUSH1 0x40 DUP1 MLOAD DUP1 DUP3 ADD SWAP1 SWAP2 MSTORE PUSH1 0x1 PUSH1 0x1 PUSH1 0xA0 SHL SUB SWAP1 SWAP3 AND DUP1 DUP4 MSTORE PUSH12 0xFFFFFFFFFFFFFFFFFFFFFFFF SWAP1 SWAP2 AND PUSH1 0x20 SWAP1 SWAP3 ADD DUP3 SWAP1 MSTORE PUSH21 0x10000000000000000000000000000000000000000 SWAP1 SWAP2 MUL OR PUSH1 0x0 SSTORE JUMP JUMPDEST DUP2 MLOAD DUP4 MLOAD EQ PUSH2 0x13AA JUMPI PUSH1 0x40 MLOAD PUSH3 0x461BCD PUSH1 0xE5 SHL DUP2 MSTORE PUSH1 0x4 ADD PUSH2 0x536 SWAP1 PUSH2 0x2ECE JUMP JUMPDEST PUSH1 0x1 PUSH1 0x1 PUSH1 0xA0 SHL SUB DUP5 AND PUSH2 0x13D0 JUMPI PUSH1 0x40 MLOAD PUSH3 0x461BCD PUSH1 0xE5 SHL DUP2 MSTORE PUSH1 0x4 ADD PUSH2 0x536 SWAP1 PUSH2 0x2F36 JUMP JUMPDEST CALLER PUSH1 0x0 JUMPDEST DUP5 MLOAD DUP2 LT ISZERO PUSH2 0x14BA JUMPI PUSH1 0x0 DUP6 DUP3 DUP2 MLOAD DUP2 LT PUSH2 0x13F1 JUMPI PUSH2 0x13F1 PUSH2 0x29ED JUMP JUMPDEST PUSH1 0x20 MUL PUSH1 0x20 ADD ADD MLOAD SWAP1 POP PUSH1 0x0 DUP6 DUP4 DUP2 MLOAD DUP2 LT PUSH2 0x140F JUMPI PUSH2 0x140F PUSH2 0x29ED JUMP JUMPDEST PUSH1 0x20 SWAP1 DUP2 MUL SWAP2 SWAP1 SWAP2 ADD DUP2 ADD MLOAD PUSH1 0x0 DUP5 DUP2 MSTORE PUSH1 0x3 DUP4 MSTORE PUSH1 0x40 DUP1 DUP3 KECCAK256 PUSH1 0x1 PUSH1 0x1 PUSH1 0xA0 SHL SUB DUP15 AND DUP4 MSTORE SWAP1 SWAP4 MSTORE SWAP2 SWAP1 SWAP2 KECCAK256 SLOAD SWAP1 SWAP2 POP DUP2 DUP2 LT ISZERO PUSH2 0x1460 JUMPI PUSH1 0x40 MLOAD PUSH3 0x461BCD PUSH1 0xE5 SHL DUP2 MSTORE PUSH1 0x4 ADD PUSH2 0x536 SWAP1 PUSH2 0x2F9E JUMP JUMPDEST PUSH1 0x0 DUP4 DUP2 MSTORE PUSH1 0x3 PUSH1 0x20 SWAP1 DUP2 MSTORE PUSH1 0x40 DUP1 DUP4 KECCAK256 PUSH1 0x1 PUSH1 0x1 PUSH1 0xA0 SHL SUB DUP15 DUP2 AND DUP6 MSTORE SWAP3 MSTORE DUP1 DUP4 KECCAK256 DUP6 DUP6 SUB SWAP1 SSTORE SWAP1 DUP12 AND DUP3 MSTORE DUP2 KECCAK256 DUP1 SLOAD DUP5 SWAP3 SWAP1 PUSH2 0x149F SWAP1 DUP5 SWAP1 PUSH2 0x2CAC JUMP JUMPDEST SWAP3 POP POP DUP2 SWAP1 SSTORE POP POP POP POP DUP1 PUSH2 0x14B3 SWAP1 PUSH2 0x2AF0 JUMP JUMPDEST SWAP1 POP PUSH2 0x13D4 JUMP JUMPDEST POP DUP5 PUSH1 0x1 PUSH1 0x1 PUSH1 0xA0 SHL SUB AND DUP7 PUSH1 0x1 PUSH1 0x1 PUSH1 0xA0 SHL SUB AND DUP3 PUSH1 0x1 PUSH1 0x1 PUSH1 0xA0 SHL SUB AND PUSH32 0x4A39DC06D4C0DBC64B70AF90FD698A233A518AA5D07E595D983B8C0526C8F7FB DUP8 DUP8 PUSH1 0x40 MLOAD PUSH2 0x150A SWAP3 SWAP2 SWAP1 PUSH2 0x2FAE JUMP JUMPDEST PUSH1 0x40 MLOAD DUP1 SWAP2 SUB SWAP1 LOG4 PUSH2 0xF67 DUP2 DUP8 DUP8 DUP8 DUP8 DUP8 PUSH2 0x1A5C JUMP JUMPDEST DUP2 PUSH1 0x1 PUSH1 0x1 PUSH1 0xA0 SHL SUB AND DUP4 PUSH1 0x1 PUSH1 0x1 PUSH1 0xA0 SHL SUB AND EQ ISZERO PUSH2 0x1552 JUMPI PUSH1 0x40 MLOAD PUSH3 0x461BCD PUSH1 0xE5 SHL DUP2 MSTORE PUSH1 0x4 ADD PUSH2 0x536 SWAP1 PUSH2 0x302B JUMP JUMPDEST PUSH1 0x1 PUSH1 0x1 PUSH1 0xA0 SHL SUB DUP4 DUP2 AND PUSH1 0x0 DUP2 DUP2 MSTORE PUSH1 0xB PUSH1 0x20 SWAP1 DUP2 MSTORE PUSH1 0x40 DUP1 DUP4 KECCAK256 SWAP5 DUP8 AND DUP1 DUP5 MSTORE SWAP5 SWAP1 SWAP2 MSTORE SWAP1 DUP2 SWAP1 KECCAK256 DUP1 SLOAD PUSH1 0xFF NOT AND DUP6 ISZERO ISZERO OR SWAP1 SSTORE MLOAD PUSH32 0x17307EAB39AB6107E8899845AD3D59BD9653F200F220920489CA2B5937696C31 SWAP1 PUSH2 0x15B6 SWAP1 DUP6 SWAP1 PUSH2 0x1FB8 JUMP JUMPDEST PUSH1 0x40 MLOAD DUP1 SWAP2 SUB SWAP1 LOG3 POP POP POP JUMP JUMPDEST PUSH1 0x1 PUSH1 0x1 PUSH1 0xA0 SHL SUB DUP5 AND PUSH2 0x15E9 JUMPI PUSH1 0x40 MLOAD PUSH3 0x461BCD PUSH1 0xE5 SHL DUP2 MSTORE PUSH1 0x4 ADD PUSH2 0x536 SWAP1 PUSH2 0x3093 JUMP JUMPDEST DUP2 MLOAD DUP4 MLOAD EQ PUSH2 0x160A JUMPI PUSH1 0x40 MLOAD PUSH3 0x461BCD PUSH1 0xE5 SHL DUP2 MSTORE PUSH1 0x4 ADD PUSH2 0x536 SWAP1 PUSH2 0x2ECE JUMP JUMPDEST CALLER PUSH1 0x0 JUMPDEST DUP5 MLOAD DUP2 LT ISZERO PUSH2 0x16A7 JUMPI DUP4 DUP2 DUP2 MLOAD DUP2 LT PUSH2 0x1629 JUMPI PUSH2 0x1629 PUSH2 0x29ED JUMP JUMPDEST PUSH1 0x20 MUL PUSH1 0x20 ADD ADD MLOAD PUSH1 0x3 PUSH1 0x0 DUP8 DUP5 DUP2 MLOAD DUP2 LT PUSH2 0x1647 JUMPI PUSH2 0x1647 PUSH2 0x29ED JUMP JUMPDEST PUSH1 0x20 MUL PUSH1 0x20 ADD ADD MLOAD DUP2 MSTORE PUSH1 0x20 ADD SWAP1 DUP2 MSTORE PUSH1 0x20 ADD PUSH1 0x0 KECCAK256 PUSH1 0x0 DUP9 PUSH1 0x1 PUSH1 0x1 PUSH1 0xA0 SHL SUB AND PUSH1 0x1 PUSH1 0x1 PUSH1 0xA0 SHL SUB AND DUP2 MSTORE PUSH1 0x20 ADD SWAP1 DUP2 MSTORE PUSH1 0x20 ADD PUSH1 0x0 KECCAK256 PUSH1 0x0 DUP3 DUP3 SLOAD PUSH2 0x168F SWAP2 SWAP1 PUSH2 0x2CAC JUMP JUMPDEST SWAP1 SWAP2 SSTORE POP DUP2 SWAP1 POP PUSH2 0x169F DUP2 PUSH2 0x2AF0 JUMP JUMPDEST SWAP2 POP POP PUSH2 0x160E JUMP JUMPDEST POP DUP5 PUSH1 0x1 PUSH1 0x1 PUSH1 0xA0 SHL SUB AND PUSH1 0x0 PUSH1 0x1 PUSH1 0x1 PUSH1 0xA0 SHL SUB AND DUP3 PUSH1 0x1 PUSH1 0x1 PUSH1 0xA0 SHL SUB AND PUSH32 0x4A39DC06D4C0DBC64B70AF90FD698A233A518AA5D07E595D983B8C0526C8F7FB DUP8 DUP8 PUSH1 0x40 MLOAD PUSH2 0x16F8 SWAP3 SWAP2 SWAP1 PUSH2 0x2FAE JUMP JUMPDEST PUSH1 0x40 MLOAD DUP1 SWAP2 SUB SWAP1 LOG4 PUSH2 0x74F DUP2 PUSH1 0x0 DUP8 DUP8 DUP8 DUP8 PUSH2 0x1A5C JUMP JUMPDEST PUSH1 0x1 PUSH1 0x1 PUSH1 0xA0 SHL SUB DUP4 AND PUSH2 0x1735 JUMPI PUSH1 0x40 MLOAD PUSH3 0x461BCD PUSH1 0xE5 SHL DUP2 MSTORE PUSH1 0x4 ADD PUSH2 0x536 SWAP1 PUSH2 0x30FB JUMP JUMPDEST DUP1 MLOAD DUP3 MLOAD EQ PUSH2 0x1756 JUMPI PUSH1 0x40 MLOAD PUSH3 0x461BCD PUSH1 0xE5 SHL DUP2 MSTORE PUSH1 0x4 ADD PUSH2 0x536 SWAP1 PUSH2 0x2ECE JUMP JUMPDEST PUSH1 0x40 DUP1 MLOAD PUSH1 0x20 DUP2 ADD SWAP1 SWAP2 MSTORE PUSH1 0x0 SWAP1 DUP2 SWAP1 MSTORE CALLER SWAP1 JUMPDEST DUP4 MLOAD DUP2 LT ISZERO PUSH2 0x182F JUMPI PUSH1 0x0 DUP5 DUP3 DUP2 MLOAD DUP2 LT PUSH2 0x1787 JUMPI PUSH2 0x1787 PUSH2 0x29ED JUMP JUMPDEST PUSH1 0x20 MUL PUSH1 0x20 ADD ADD MLOAD SWAP1 POP PUSH1 0x0 DUP5 DUP4 DUP2 MLOAD DUP2 LT PUSH2 0x17A5 JUMPI PUSH2 0x17A5 PUSH2 0x29ED JUMP JUMPDEST PUSH1 0x20 SWAP1 DUP2 MUL SWAP2 SWAP1 SWAP2 ADD DUP2 ADD MLOAD PUSH1 0x0 DUP5 DUP2 MSTORE PUSH1 0x3 DUP4 MSTORE PUSH1 0x40 DUP1 DUP3 KECCAK256 PUSH1 0x1 PUSH1 0x1 PUSH1 0xA0 SHL SUB DUP13 AND DUP4 MSTORE SWAP1 SWAP4 MSTORE SWAP2 SWAP1 SWAP2 KECCAK256 SLOAD SWAP1 SWAP2 POP DUP2 DUP2 LT ISZERO PUSH2 0x17F6 JUMPI PUSH1 0x40 MLOAD PUSH3 0x461BCD PUSH1 0xE5 SHL DUP2 MSTORE PUSH1 0x4 ADD PUSH2 0x536 SWAP1 PUSH2 0x3163 JUMP JUMPDEST PUSH1 0x0 SWAP3 DUP4 MSTORE PUSH1 0x3 PUSH1 0x20 SWAP1 DUP2 MSTORE PUSH1 0x40 DUP1 DUP6 KECCAK256 PUSH1 0x1 PUSH1 0x1 PUSH1 0xA0 SHL SUB DUP12 AND DUP7 MSTORE SWAP1 SWAP2 MSTORE SWAP1 SWAP3 KECCAK256 SWAP2 SUB SWAP1 SSTORE DUP1 PUSH2 0x1827 DUP2 PUSH2 0x2AF0 JUMP JUMPDEST SWAP2 POP POP PUSH2 0x176A JUMP JUMPDEST POP PUSH1 0x0 PUSH1 0x1 PUSH1 0x1 PUSH1 0xA0 SHL SUB AND DUP5 PUSH1 0x1 PUSH1 0x1 PUSH1 0xA0 SHL SUB AND DUP3 PUSH1 0x1 PUSH1 0x1 PUSH1 0xA0 SHL SUB AND PUSH32 0x4A39DC06D4C0DBC64B70AF90FD698A233A518AA5D07E595D983B8C0526C8F7FB DUP7 DUP7 PUSH1 0x40 MLOAD PUSH2 0x1880 SWAP3 SWAP2 SWAP1 PUSH2 0x2FAE JUMP JUMPDEST PUSH1 0x40 MLOAD DUP1 SWAP2 SUB SWAP1 LOG4 PUSH1 0x40 DUP1 MLOAD PUSH1 0x20 DUP2 ADD SWAP1 SWAP2 MSTORE PUSH1 0x0 SWAP1 MSTORE JUMPDEST POP POP POP POP JUMP JUMPDEST PUSH1 0x0 DUP1 PUSH2 0x18AF PUSH1 0x6 DUP1 SLOAD SWAP1 POP PUSH2 0x1BCD JUMP JUMPDEST SWAP1 POP PUSH1 0x0 PUSH1 0x6 DUP3 DUP2 SLOAD DUP2 LT PUSH2 0x18C6 JUMPI PUSH2 0x18C6 PUSH2 0x29ED JUMP JUMPDEST SWAP1 PUSH1 0x0 MSTORE PUSH1 0x20 PUSH1 0x0 KECCAK256 ADD SLOAD GT ISZERO PUSH2 0x1910 JUMPI PUSH1 0x1 PUSH1 0x6 DUP3 DUP2 SLOAD DUP2 LT PUSH2 0x18EC JUMPI PUSH2 0x18EC PUSH2 0x29ED JUMP JUMPDEST SWAP1 PUSH1 0x0 MSTORE PUSH1 0x20 PUSH1 0x0 KECCAK256 ADD PUSH1 0x0 DUP3 DUP3 SLOAD PUSH2 0x1905 SWAP2 SWAP1 PUSH2 0x2C53 JUMP JUMPDEST SWAP1 SWAP2 SSTORE POP SWAP1 SWAP3 SWAP2 POP POP JUMP JUMPDEST PUSH2 0x1918 PUSH2 0x189E JUMP JUMPDEST SWAP2 POP POP SWAP1 JUMP JUMPDEST POP SWAP1 JUMP JUMPDEST PUSH1 0x1 PUSH1 0x1 PUSH1 0xA0 SHL SUB DUP5 AND PUSH2 0x1948 JUMPI PUSH1 0x40 MLOAD PUSH3 0x461BCD PUSH1 0xE5 SHL DUP2 MSTORE PUSH1 0x4 ADD PUSH2 0x536 SWAP1 PUSH2 0x2F36 JUMP JUMPDEST CALLER PUSH1 0x0 PUSH2 0x1954 DUP6 PUSH2 0x1C1E JUMP JUMPDEST SWAP1 POP PUSH1 0x0 PUSH2 0x1961 DUP6 PUSH2 0x1C1E JUMP JUMPDEST SWAP1 POP PUSH1 0x0 DUP7 DUP2 MSTORE PUSH1 0x3 PUSH1 0x20 SWAP1 DUP2 MSTORE PUSH1 0x40 DUP1 DUP4 KECCAK256 PUSH1 0x1 PUSH1 0x1 PUSH1 0xA0 SHL SUB DUP13 AND DUP5 MSTORE SWAP1 SWAP2 MSTORE SWAP1 KECCAK256 SLOAD DUP6 DUP2 LT ISZERO PUSH2 0x19A6 JUMPI PUSH1 0x40 MLOAD PUSH3 0x461BCD PUSH1 0xE5 SHL DUP2 MSTORE PUSH1 0x4 ADD PUSH2 0x536 SWAP1 PUSH2 0x2F9E JUMP JUMPDEST PUSH1 0x0 DUP8 DUP2 MSTORE PUSH1 0x3 PUSH1 0x20 SWAP1 DUP2 MSTORE PUSH1 0x40 DUP1 DUP4 KECCAK256 PUSH1 0x1 PUSH1 0x1 PUSH1 0xA0 SHL SUB DUP14 DUP2 AND DUP6 MSTORE SWAP3 MSTORE DUP1 DUP4 KECCAK256 DUP10 DUP6 SUB SWAP1 SSTORE SWAP1 DUP11 AND DUP3 MSTORE DUP2 KECCAK256 DUP1 SLOAD DUP9 SWAP3 SWAP1 PUSH2 0x19E5 SWAP1 DUP5 SWAP1 PUSH2 0x2CAC JUMP JUMPDEST SWAP3 POP POP DUP2 SWAP1 SSTORE POP DUP8 PUSH1 0x1 PUSH1 0x1 PUSH1 0xA0 SHL SUB AND DUP10 PUSH1 0x1 PUSH1 0x1 PUSH1 0xA0 SHL SUB AND DUP6 PUSH1 0x1 PUSH1 0x1 PUSH1 0xA0 SHL SUB AND PUSH32 0xC3D58168C5AE7397731D063D5BBF3D657854427343F4C083240F7AACAA2D0F62 DUP11 DUP11 PUSH1 0x40 MLOAD PUSH2 0x1A3B SWAP3 SWAP2 SWAP1 PUSH2 0x3173 JUMP JUMPDEST PUSH1 0x40 MLOAD DUP1 SWAP2 SUB SWAP1 LOG4 PUSH2 0x1A51 DUP5 DUP11 DUP11 DUP11 DUP11 DUP11 PUSH2 0x1C69 JUMP JUMPDEST POP POP POP POP POP POP POP POP POP JUMP JUMPDEST PUSH1 0x1 PUSH1 0x1 PUSH1 0xA0 SHL SUB DUP5 AND EXTCODESIZE ISZERO PUSH2 0xF67 JUMPI PUSH1 0x40 MLOAD PUSH32 0xBC197C8100000000000000000000000000000000000000000000000000000000 DUP2 MSTORE PUSH1 0x1 PUSH1 0x1 PUSH1 0xA0 SHL SUB DUP6 AND SWAP1 PUSH4 0xBC197C81 SWAP1 PUSH2 0x1AB9 SWAP1 DUP10 SWAP1 DUP10 SWAP1 DUP9 SWAP1 DUP9 SWAP1 DUP9 SWAP1 PUSH1 0x4 ADD PUSH2 0x3181 JUMP JUMPDEST PUSH1 0x20 PUSH1 0x40 MLOAD DUP1 DUP4 SUB DUP2 PUSH1 0x0 DUP8 DUP1 EXTCODESIZE ISZERO DUP1 ISZERO PUSH2 0x1AD3 JUMPI PUSH1 0x0 DUP1 REVERT JUMPDEST POP GAS CALL SWAP3 POP POP POP DUP1 ISZERO PUSH2 0x1B03 JUMPI POP PUSH1 0x40 DUP1 MLOAD PUSH1 0x1F RETURNDATASIZE SWAP1 DUP2 ADD PUSH1 0x1F NOT AND DUP3 ADD SWAP1 SWAP3 MSTORE PUSH2 0x1B00 SWAP2 DUP2 ADD SWAP1 PUSH2 0x31EC JUMP JUMPDEST PUSH1 0x1 JUMPDEST PUSH2 0x1B63 JUMPI PUSH2 0x1B0F PUSH2 0x320D JUMP JUMPDEST DUP1 PUSH4 0x8C379A0 EQ ISZERO PUSH2 0x1B49 JUMPI POP PUSH2 0x1B24 PUSH2 0x3228 JUMP JUMPDEST DUP1 PUSH2 0x1B2F JUMPI POP PUSH2 0x1B4B JUMP JUMPDEST DUP1 PUSH1 0x40 MLOAD PUSH3 0x461BCD PUSH1 0xE5 SHL DUP2 MSTORE PUSH1 0x4 ADD PUSH2 0x536 SWAP2 SWAP1 PUSH2 0x234A JUMP JUMPDEST POP JUMPDEST PUSH1 0x40 MLOAD PUSH3 0x461BCD PUSH1 0xE5 SHL DUP2 MSTORE PUSH1 0x4 ADD PUSH2 0x536 SWAP1 PUSH2 0x32FE JUMP JUMPDEST PUSH32 0xFFFFFFFF00000000000000000000000000000000000000000000000000000000 DUP2 AND PUSH32 0xBC197C8100000000000000000000000000000000000000000000000000000000 EQ PUSH2 0x1BC4 JUMPI PUSH1 0x40 MLOAD PUSH3 0x461BCD PUSH1 0xE5 SHL DUP2 MSTORE PUSH1 0x4 ADD PUSH2 0x536 SWAP1 PUSH2 0x3366 JUMP JUMPDEST POP POP POP POP POP POP POP JUMP JUMPDEST PUSH1 0x12 DUP1 SLOAD PUSH1 0x0 SWAP2 DUP3 PUSH2 0x1BDE DUP4 PUSH2 0x2AF0 JUMP JUMPDEST SWAP2 SWAP1 POP SSTORE POP DUP2 TIMESTAMP CALLER PUSH1 0x12 SLOAD PUSH1 0x40 MLOAD PUSH1 0x20 ADD PUSH2 0x1BFB SWAP4 SWAP3 SWAP2 SWAP1 PUSH2 0x33A4 JUMP JUMPDEST PUSH1 0x40 MLOAD PUSH1 0x20 DUP2 DUP4 SUB SUB DUP2 MSTORE SWAP1 PUSH1 0x40 MSTORE DUP1 MLOAD SWAP1 PUSH1 0x20 ADD KECCAK256 PUSH1 0x0 SHR PUSH2 0x564 SWAP2 SWAP1 PUSH2 0x33D2 JUMP JUMPDEST PUSH1 0x40 DUP1 MLOAD PUSH1 0x1 DUP1 DUP3 MSTORE DUP2 DUP4 ADD SWAP1 SWAP3 MSTORE PUSH1 0x60 SWAP2 PUSH1 0x0 SWAP2 SWAP1 PUSH1 0x20 DUP1 DUP4 ADD SWAP1 DUP1 CALLDATASIZE DUP4 CALLDATACOPY ADD SWAP1 POP POP SWAP1 POP DUP3 DUP2 PUSH1 0x0 DUP2 MLOAD DUP2 LT PUSH2 0x1C58 JUMPI PUSH2 0x1C58 PUSH2 0x29ED JUMP JUMPDEST PUSH1 0x20 SWAP1 DUP2 MUL SWAP2 SWAP1 SWAP2 ADD ADD MSTORE SWAP3 SWAP2 POP POP JUMP JUMPDEST PUSH1 0x1 PUSH1 0x1 PUSH1 0xA0 SHL SUB DUP5 AND EXTCODESIZE ISZERO PUSH2 0xF67 JUMPI PUSH1 0x40 MLOAD PUSH32 0xF23A6E6100000000000000000000000000000000000000000000000000000000 DUP2 MSTORE PUSH1 0x1 PUSH1 0x1 PUSH1 0xA0 SHL SUB DUP6 AND SWAP1 PUSH4 0xF23A6E61 SWAP1 PUSH2 0x1CC6 SWAP1 DUP10 SWAP1 DUP10 SWAP1 DUP9 SWAP1 DUP9 SWAP1 DUP9 SWAP1 PUSH1 0x4 ADD PUSH2 0x33E6 JUMP JUMPDEST PUSH1 0x20 PUSH1 0x40 MLOAD DUP1 DUP4 SUB DUP2 PUSH1 0x0 DUP8 DUP1 EXTCODESIZE ISZERO DUP1 ISZERO PUSH2 0x1CE0 JUMPI PUSH1 0x0 DUP1 REVERT JUMPDEST POP GAS CALL SWAP3 POP POP POP DUP1 ISZERO PUSH2 0x1D10 JUMPI POP PUSH1 0x40 DUP1 MLOAD PUSH1 0x1F RETURNDATASIZE SWAP1 DUP2 ADD PUSH1 0x1F NOT AND DUP3 ADD SWAP1 SWAP3 MSTORE PUSH2 0x1D0D SWAP2 DUP2 ADD SWAP1 PUSH2 0x31EC JUMP JUMPDEST PUSH1 0x1 JUMPDEST PUSH2 0x1D1C JUMPI PUSH2 0x1B0F PUSH2 0x320D JUMP JUMPDEST PUSH32 0xFFFFFFFF00000000000000000000000000000000000000000000000000000000 DUP2 AND PUSH32 0xF23A6E6100000000000000000000000000000000000000000000000000000000 EQ PUSH2 0x1BC4 JUMPI PUSH1 0x40 MLOAD PUSH3 0x461BCD PUSH1 0xE5 SHL DUP2 MSTORE PUSH1 0x4 ADD PUSH2 0x536 SWAP1 PUSH2 0x3366 JUMP JUMPDEST DUP3 DUP1 SLOAD PUSH2 0x1D89 SWAP1 PUSH2 0x2A19 JUMP JUMPDEST SWAP1 PUSH1 0x0 MSTORE PUSH1 0x20 PUSH1 0x0 KECCAK256 SWAP1 PUSH1 0x1F ADD PUSH1 0x20 SWAP1 DIV DUP2 ADD SWAP3 DUP3 PUSH2 0x1DAB JUMPI PUSH1 0x0 DUP6 SSTORE PUSH2 0x1DF1 JUMP JUMPDEST DUP3 PUSH1 0x1F LT PUSH2 0x1DC4 JUMPI DUP1 MLOAD PUSH1 0xFF NOT AND DUP4 DUP1 ADD OR DUP6 SSTORE PUSH2 0x1DF1 JUMP JUMPDEST DUP3 DUP1 ADD PUSH1 0x1 ADD DUP6 SSTORE DUP3 ISZERO PUSH2 0x1DF1 JUMPI SWAP2 DUP3 ADD JUMPDEST DUP3 DUP2 GT ISZERO PUSH2 0x1DF1 JUMPI DUP3 MLOAD DUP3 SSTORE SWAP2 PUSH1 0x20 ADD SWAP2 SWAP1 PUSH1 0x1 ADD SWAP1 PUSH2 0x1DD6 JUMP JUMPDEST POP PUSH2 0x191E SWAP3 SWAP2 POP PUSH2 0x1EAB JUMP JUMPDEST DUP3 DUP1 SLOAD DUP3 DUP3 SSTORE SWAP1 PUSH1 0x0 MSTORE PUSH1 0x20 PUSH1 0x0 KECCAK256 SWAP1 DUP2 ADD SWAP3 DUP3 ISZERO PUSH2 0x1DF1 JUMPI SWAP2 PUSH1 0x20 MUL DUP3 ADD DUP3 DUP2 GT ISZERO PUSH2 0x1DF1 JUMPI DUP3 MLOAD DUP3 SSTORE SWAP2 PUSH1 0x20 ADD SWAP2 SWAP1 PUSH1 0x1 ADD SWAP1 PUSH2 0x1DD6 JUMP JUMPDEST DUP3 DUP1 SLOAD PUSH2 0x1E43 SWAP1 PUSH2 0x2A19 JUMP JUMPDEST SWAP1 PUSH1 0x0 MSTORE PUSH1 0x20 PUSH1 0x0 KECCAK256 SWAP1 PUSH1 0x1F ADD PUSH1 0x20 SWAP1 DIV DUP2 ADD SWAP3 DUP3 PUSH2 0x1E65 JUMPI PUSH1 0x0 DUP6 SSTORE PUSH2 0x1DF1 JUMP JUMPDEST DUP3 PUSH1 0x1F LT PUSH2 0x1E7E JUMPI DUP3 DUP1 ADD PUSH1 0xFF NOT DUP3 CALLDATALOAD AND OR DUP6 SSTORE PUSH2 0x1DF1 JUMP JUMPDEST DUP3 DUP1 ADD PUSH1 0x1 ADD DUP6 SSTORE DUP3 ISZERO PUSH2 0x1DF1 JUMPI SWAP2 DUP3 ADD JUMPDEST DUP3 DUP2 GT ISZERO PUSH2 0x1DF1 JUMPI DUP3 CALLDATALOAD DUP3 SSTORE SWAP2 PUSH1 0x20 ADD SWAP2 SWAP1 PUSH1 0x1 ADD SWAP1 PUSH2 0x1E90 JUMP JUMPDEST JUMPDEST DUP1 DUP3 GT ISZERO PUSH2 0x191E JUMPI PUSH1 0x0 DUP2 SSTORE PUSH1 0x1 ADD PUSH2 0x1EAC JUMP JUMPDEST PUSH1 0x0 PUSH1 0x1 PUSH1 0x1 PUSH1 0xA0 SHL SUB DUP3 AND PUSH2 0x564 JUMP JUMPDEST PUSH2 0x1EDA DUP2 PUSH2 0x1EC0 JUMP JUMPDEST DUP2 EQ PUSH2 0x8F4 JUMPI PUSH1 0x0 DUP1 REVERT JUMPDEST DUP1 CALLDATALOAD PUSH2 0x564 DUP2 PUSH2 0x1ED1 JUMP JUMPDEST DUP1 PUSH2 0x1EDA JUMP JUMPDEST DUP1 CALLDATALOAD PUSH2 0x564 DUP2 PUSH2 0x1EF0 JUMP JUMPDEST PUSH1 0x0 DUP1 PUSH1 0x40 DUP4 DUP6 SUB SLT ISZERO PUSH2 0x1F17 JUMPI PUSH2 0x1F17 PUSH1 0x0 DUP1 REVERT JUMPDEST PUSH1 0x0 PUSH2 0x1F23 DUP6 DUP6 PUSH2 0x1EE5 JUMP JUMPDEST SWAP3 POP POP PUSH1 0x20 PUSH2 0x1F34 DUP6 DUP3 DUP7 ADD PUSH2 0x1EF6 JUMP JUMPDEST SWAP2 POP POP SWAP3 POP SWAP3 SWAP1 POP JUMP JUMPDEST DUP1 JUMPDEST DUP3 MSTORE POP POP JUMP JUMPDEST PUSH1 0x20 DUP2 ADD PUSH2 0x564 DUP3 DUP5 PUSH2 0x1F3E JUMP JUMPDEST PUSH32 0xFFFFFFFF00000000000000000000000000000000000000000000000000000000 DUP2 AND PUSH2 0x1EDA JUMP JUMPDEST DUP1 CALLDATALOAD PUSH2 0x564 DUP2 PUSH2 0x1F54 JUMP JUMPDEST PUSH1 0x0 PUSH1 0x20 DUP3 DUP5 SUB SLT ISZERO PUSH2 0x1F9C JUMPI PUSH2 0x1F9C PUSH1 0x0 DUP1 REVERT JUMPDEST PUSH1 0x0 PUSH2 0x1FA8 DUP5 DUP5 PUSH2 0x1F7C JUMP JUMPDEST SWAP5 SWAP4 POP POP POP POP JUMP JUMPDEST DUP1 ISZERO ISZERO PUSH2 0x1F40 JUMP JUMPDEST PUSH1 0x20 DUP2 ADD PUSH2 0x564 DUP3 DUP5 PUSH2 0x1FB0 JUMP JUMPDEST PUSH12 0xFFFFFFFFFFFFFFFFFFFFFFFF DUP2 AND PUSH2 0x1EDA JUMP JUMPDEST DUP1 CALLDATALOAD PUSH2 0x564 DUP2 PUSH2 0x1FC6 JUMP JUMPDEST PUSH1 0x0 DUP1 PUSH1 0x40 DUP4 DUP6 SUB SLT ISZERO PUSH2 0x1FFB JUMPI PUSH2 0x1FFB PUSH1 0x0 DUP1 REVERT JUMPDEST PUSH1 0x0 PUSH2 0x2007 DUP6 DUP6 PUSH2 0x1EE5 JUMP JUMPDEST SWAP3 POP POP PUSH1 0x20 PUSH2 0x1F34 DUP6 DUP3 DUP7 ADD PUSH2 0x1FDA JUMP JUMPDEST PUSH1 0x0 PUSH1 0x20 DUP3 DUP5 SUB SLT ISZERO PUSH2 0x202D JUMPI PUSH2 0x202D PUSH1 0x0 DUP1 REVERT JUMPDEST PUSH1 0x0 PUSH2 0x1FA8 DUP5 DUP5 PUSH2 0x1EF6 JUMP JUMPDEST PUSH2 0x1F40 DUP2 PUSH2 0x1EC0 JUMP JUMPDEST PUSH1 0x20 DUP2 ADD PUSH2 0x564 DUP3 DUP5 PUSH2 0x2039 JUMP JUMPDEST PUSH1 0x0 DUP1 PUSH1 0x40 DUP4 DUP6 SUB SLT ISZERO PUSH2 0x2066 JUMPI PUSH2 0x2066 PUSH1 0x0 DUP1 REVERT JUMPDEST PUSH1 0x0 PUSH2 0x1F23 DUP6 DUP6 PUSH2 0x1EF6 JUMP JUMPDEST PUSH1 0x40 DUP2 ADD PUSH2 0x2080 DUP3 DUP6 PUSH2 0x2039 JUMP JUMPDEST PUSH2 0x208D PUSH1 0x20 DUP4 ADD DUP5 PUSH2 0x1F3E JUMP JUMPDEST SWAP4 SWAP3 POP POP POP JUMP JUMPDEST PUSH4 0x4E487B71 PUSH1 0xE0 SHL PUSH1 0x0 MSTORE PUSH1 0x41 PUSH1 0x4 MSTORE PUSH1 0x24 PUSH1 0x0 REVERT JUMPDEST PUSH1 0x1F NOT PUSH1 0x1F DUP4 ADD AND DUP2 ADD DUP2 DUP2 LT PUSH8 0xFFFFFFFFFFFFFFFF DUP3 GT OR ISZERO PUSH2 0x20D0 JUMPI PUSH2 0x20D0 PUSH2 0x2094 JUMP JUMPDEST PUSH1 0x40 MSTORE POP POP JUMP JUMPDEST PUSH1 0x0 PUSH2 0x20E2 PUSH1 0x40 MLOAD SWAP1 JUMP JUMPDEST SWAP1 POP PUSH2 0x87C DUP3 DUP3 PUSH2 0x20AA JUMP JUMPDEST PUSH1 0x0 PUSH8 0xFFFFFFFFFFFFFFFF DUP3 GT ISZERO PUSH2 0x2108 JUMPI PUSH2 0x2108 PUSH2 0x2094 JUMP JUMPDEST POP PUSH1 0x20 SWAP1 DUP2 MUL ADD SWAP1 JUMP JUMPDEST PUSH1 0x0 PUSH2 0x2125 PUSH2 0x2120 DUP5 PUSH2 0x20EE JUMP JUMPDEST PUSH2 0x20D7 JUMP JUMPDEST DUP4 DUP2 MSTORE SWAP1 POP PUSH1 0x20 DUP1 DUP3 ADD SWAP1 DUP5 MUL DUP4 ADD DUP6 DUP2 GT ISZERO PUSH2 0x2144 JUMPI PUSH2 0x2144 PUSH1 0x0 DUP1 REVERT JUMPDEST DUP4 JUMPDEST DUP2 DUP2 LT ISZERO PUSH2 0x2166 JUMPI PUSH2 0x2158 DUP8 DUP3 PUSH2 0x1EF6 JUMP JUMPDEST DUP4 MSTORE PUSH1 0x20 SWAP3 DUP4 ADD SWAP3 ADD PUSH2 0x2146 JUMP JUMPDEST POP POP POP SWAP4 SWAP3 POP POP POP JUMP JUMPDEST PUSH1 0x0 DUP3 PUSH1 0x1F DUP4 ADD SLT PUSH2 0x2184 JUMPI PUSH2 0x2184 PUSH1 0x0 DUP1 REVERT JUMPDEST DUP2 CALLDATALOAD PUSH2 0x1FA8 DUP5 DUP3 PUSH1 0x20 DUP7 ADD PUSH2 0x2112 JUMP JUMPDEST PUSH1 0x0 PUSH8 0xFFFFFFFFFFFFFFFF DUP3 GT ISZERO PUSH2 0x21AE JUMPI PUSH2 0x21AE PUSH2 0x2094 JUMP JUMPDEST PUSH1 0x1F NOT PUSH1 0x1F DUP4 ADD AND PUSH1 0x20 ADD SWAP3 SWAP2 POP POP JUMP JUMPDEST DUP3 DUP2 DUP4 CALLDATACOPY POP PUSH1 0x0 SWAP2 ADD MSTORE JUMP JUMPDEST PUSH1 0x0 PUSH2 0x21D9 PUSH2 0x2120 DUP5 PUSH2 0x2194 JUMP JUMPDEST SWAP1 POP DUP3 DUP2 MSTORE PUSH1 0x20 DUP2 ADD DUP5 DUP5 DUP5 ADD GT ISZERO PUSH2 0x21F4 JUMPI PUSH2 0x21F4 PUSH1 0x0 DUP1 REVERT JUMPDEST PUSH2 0xC0B DUP5 DUP3 DUP6 PUSH2 0x21BF JUMP JUMPDEST PUSH1 0x0 DUP3 PUSH1 0x1F DUP4 ADD SLT PUSH2 0x2213 JUMPI PUSH2 0x2213 PUSH1 0x0 DUP1 REVERT JUMPDEST DUP2 CALLDATALOAD PUSH2 0x1FA8 DUP5 DUP3 PUSH1 0x20 DUP7 ADD PUSH2 0x21CB JUMP JUMPDEST PUSH1 0x0 DUP1 PUSH1 0x0 DUP1 PUSH1 0x0 PUSH1 0xA0 DUP7 DUP9 SUB SLT ISZERO PUSH2 0x223E JUMPI PUSH2 0x223E PUSH1 0x0 DUP1 REVERT JUMPDEST PUSH1 0x0 PUSH2 0x224A DUP9 DUP9 PUSH2 0x1EE5 JUMP JUMPDEST SWAP6 POP POP PUSH1 0x20 PUSH2 0x225B DUP9 DUP3 DUP10 ADD PUSH2 0x1EE5 JUMP JUMPDEST SWAP5 POP POP PUSH1 0x40 DUP7 ADD CALLDATALOAD PUSH8 0xFFFFFFFFFFFFFFFF DUP2 GT ISZERO PUSH2 0x227B JUMPI PUSH2 0x227B PUSH1 0x0 DUP1 REVERT JUMPDEST PUSH2 0x2287 DUP9 DUP3 DUP10 ADD PUSH2 0x2170 JUMP JUMPDEST SWAP4 POP POP PUSH1 0x60 DUP7 ADD CALLDATALOAD PUSH8 0xFFFFFFFFFFFFFFFF DUP2 GT ISZERO PUSH2 0x22A7 JUMPI PUSH2 0x22A7 PUSH1 0x0 DUP1 REVERT JUMPDEST PUSH2 0x22B3 DUP9 DUP3 DUP10 ADD PUSH2 0x2170 JUMP JUMPDEST SWAP3 POP POP PUSH1 0x80 DUP7 ADD CALLDATALOAD PUSH8 0xFFFFFFFFFFFFFFFF DUP2 GT ISZERO PUSH2 0x22D3 JUMPI PUSH2 0x22D3 PUSH1 0x0 DUP1 REVERT JUMPDEST PUSH2 0x22DF DUP9 DUP3 DUP10 ADD PUSH2 0x21FF JUMP JUMPDEST SWAP2 POP POP SWAP3 SWAP6 POP SWAP3 SWAP6 SWAP1 SWAP4 POP JUMP JUMPDEST PUSH1 0x0 JUMPDEST DUP4 DUP2 LT ISZERO PUSH2 0x2307 JUMPI DUP2 DUP2 ADD MLOAD DUP4 DUP3 ADD MSTORE PUSH1 0x20 ADD PUSH2 0x22EF JUMP JUMPDEST DUP4 DUP2 GT ISZERO PUSH2 0x1898 JUMPI POP POP PUSH1 0x0 SWAP2 ADD MSTORE JUMP JUMPDEST PUSH1 0x0 PUSH2 0x2322 DUP3 MLOAD SWAP1 JUMP JUMPDEST DUP1 DUP5 MSTORE PUSH1 0x20 DUP5 ADD SWAP4 POP PUSH2 0x2339 DUP2 DUP6 PUSH1 0x20 DUP7 ADD PUSH2 0x22EC JUMP JUMPDEST PUSH1 0x1F ADD PUSH1 0x1F NOT AND SWAP3 SWAP1 SWAP3 ADD SWAP3 SWAP2 POP POP JUMP JUMPDEST PUSH1 0x20 DUP1 DUP3 MSTORE DUP2 ADD PUSH2 0x208D DUP2 DUP5 PUSH2 0x2318 JUMP JUMPDEST PUSH1 0x0 PUSH2 0x2369 PUSH2 0x2120 DUP5 PUSH2 0x20EE JUMP JUMPDEST DUP4 DUP2 MSTORE SWAP1 POP PUSH1 0x20 DUP1 DUP3 ADD SWAP1 DUP5 MUL DUP4 ADD DUP6 DUP2 GT ISZERO PUSH2 0x2388 JUMPI PUSH2 0x2388 PUSH1 0x0 DUP1 REVERT JUMPDEST DUP4 JUMPDEST DUP2 DUP2 LT ISZERO PUSH2 0x2166 JUMPI DUP1 CALLDATALOAD PUSH8 0xFFFFFFFFFFFFFFFF DUP2 GT ISZERO PUSH2 0x23AC JUMPI PUSH2 0x23AC PUSH1 0x0 DUP1 REVERT JUMPDEST DUP6 ADD PUSH2 0x23B8 DUP9 DUP3 PUSH2 0x21FF JUMP JUMPDEST DUP5 MSTORE POP PUSH1 0x20 SWAP3 DUP4 ADD SWAP3 ADD PUSH2 0x238A JUMP JUMPDEST PUSH1 0x0 DUP3 PUSH1 0x1F DUP4 ADD SLT PUSH2 0x23DB JUMPI PUSH2 0x23DB PUSH1 0x0 DUP1 REVERT JUMPDEST DUP2 CALLDATALOAD PUSH2 0x1FA8 DUP5 DUP3 PUSH1 0x20 DUP7 ADD PUSH2 0x235B JUMP JUMPDEST PUSH1 0x0 DUP1 PUSH1 0x0 DUP1 PUSH1 0x0 DUP1 PUSH1 0x0 PUSH1 0xE0 DUP9 DUP11 SUB SLT ISZERO PUSH2 0x2409 JUMPI PUSH2 0x2409 PUSH1 0x0 DUP1 REVERT JUMPDEST DUP8 CALLDATALOAD PUSH8 0xFFFFFFFFFFFFFFFF DUP2 GT ISZERO PUSH2 0x2423 JUMPI PUSH2 0x2423 PUSH1 0x0 DUP1 REVERT JUMPDEST PUSH2 0x242F DUP11 DUP3 DUP12 ADD PUSH2 0x23C7 JUMP JUMPDEST SWAP8 POP POP PUSH1 0x20 DUP9 ADD CALLDATALOAD PUSH8 0xFFFFFFFFFFFFFFFF DUP2 GT ISZERO PUSH2 0x244F JUMPI PUSH2 0x244F PUSH1 0x0 DUP1 REVERT JUMPDEST PUSH2 0x245B DUP11 DUP3 DUP12 ADD PUSH2 0x2170 JUMP JUMPDEST SWAP7 POP POP PUSH1 0x40 DUP9 ADD CALLDATALOAD PUSH8 0xFFFFFFFFFFFFFFFF DUP2 GT ISZERO PUSH2 0x247B JUMPI PUSH2 0x247B PUSH1 0x0 DUP1 REVERT JUMPDEST PUSH2 0x2487 DUP11 DUP3 DUP12 ADD PUSH2 0x2170 JUMP JUMPDEST SWAP6 POP POP PUSH1 0x60 DUP9 ADD CALLDATALOAD PUSH8 0xFFFFFFFFFFFFFFFF DUP2 GT ISZERO PUSH2 0x24A7 JUMPI PUSH2 0x24A7 PUSH1 0x0 DUP1 REVERT JUMPDEST PUSH2 0x24B3 DUP11 DUP3 DUP12 ADD PUSH2 0x21FF JUMP JUMPDEST SWAP5 POP POP PUSH1 0x80 PUSH2 0x24C4 DUP11 DUP3 DUP12 ADD PUSH2 0x1EF6 JUMP JUMPDEST SWAP4 POP POP PUSH1 0xA0 PUSH2 0x24D5 DUP11 DUP3 DUP12 ADD PUSH2 0x1EE5 JUMP JUMPDEST SWAP3 POP POP PUSH1 0xC0 PUSH2 0x24E6 DUP11 DUP3 DUP12 ADD PUSH2 0x1FDA JUMP JUMPDEST SWAP2 POP POP SWAP3 SWAP6 SWAP9 SWAP2 SWAP5 SWAP8 POP SWAP3 SWAP6 POP JUMP JUMPDEST PUSH1 0x0 DUP1 DUP4 PUSH1 0x1F DUP5 ADD SLT PUSH2 0x250A JUMPI PUSH2 0x250A PUSH1 0x0 DUP1 REVERT JUMPDEST POP DUP2 CALLDATALOAD PUSH8 0xFFFFFFFFFFFFFFFF DUP2 GT ISZERO PUSH2 0x2525 JUMPI PUSH2 0x2525 PUSH1 0x0 DUP1 REVERT JUMPDEST PUSH1 0x20 DUP4 ADD SWAP2 POP DUP4 PUSH1 0x20 DUP3 MUL DUP4 ADD GT ISZERO PUSH2 0x703 JUMPI PUSH2 0x703 PUSH1 0x0 DUP1 REVERT JUMPDEST PUSH1 0x0 DUP1 PUSH1 0x20 DUP4 DUP6 SUB SLT ISZERO PUSH2 0x2556 JUMPI PUSH2 0x2556 PUSH1 0x0 DUP1 REVERT JUMPDEST DUP3 CALLDATALOAD PUSH8 0xFFFFFFFFFFFFFFFF DUP2 GT ISZERO PUSH2 0x2570 JUMPI PUSH2 0x2570 PUSH1 0x0 DUP1 REVERT JUMPDEST PUSH2 0x257C DUP6 DUP3 DUP7 ADD PUSH2 0x24F5 JUMP JUMPDEST SWAP3 POP SWAP3 POP POP SWAP3 POP SWAP3 SWAP1 POP JUMP JUMPDEST PUSH1 0x0 PUSH2 0x2596 PUSH2 0x2120 DUP5 PUSH2 0x20EE JUMP JUMPDEST DUP4 DUP2 MSTORE SWAP1 POP PUSH1 0x20 DUP1 DUP3 ADD SWAP1 DUP5 MUL DUP4 ADD DUP6 DUP2 GT ISZERO PUSH2 0x25B5 JUMPI PUSH2 0x25B5 PUSH1 0x0 DUP1 REVERT JUMPDEST DUP4 JUMPDEST DUP2 DUP2 LT ISZERO PUSH2 0x2166 JUMPI PUSH2 0x25C9 DUP8 DUP3 PUSH2 0x1EE5 JUMP JUMPDEST DUP4 MSTORE PUSH1 0x20 SWAP3 DUP4 ADD SWAP3 ADD PUSH2 0x25B7 JUMP JUMPDEST PUSH1 0x0 DUP3 PUSH1 0x1F DUP4 ADD SLT PUSH2 0x25EB JUMPI PUSH2 0x25EB PUSH1 0x0 DUP1 REVERT JUMPDEST DUP2 CALLDATALOAD PUSH2 0x1FA8 DUP5 DUP3 PUSH1 0x20 DUP7 ADD PUSH2 0x2588 JUMP JUMPDEST PUSH1 0x0 DUP1 PUSH1 0x40 DUP4 DUP6 SUB SLT ISZERO PUSH2 0x2611 JUMPI PUSH2 0x2611 PUSH1 0x0 DUP1 REVERT JUMPDEST DUP3 CALLDATALOAD PUSH8 0xFFFFFFFFFFFFFFFF DUP2 GT ISZERO PUSH2 0x262B JUMPI PUSH2 0x262B PUSH1 0x0 DUP1 REVERT JUMPDEST PUSH2 0x2637 DUP6 DUP3 DUP7 ADD PUSH2 0x25D7 JUMP JUMPDEST SWAP3 POP POP PUSH1 0x20 DUP4 ADD CALLDATALOAD PUSH8 0xFFFFFFFFFFFFFFFF DUP2 GT ISZERO PUSH2 0x2657 JUMPI PUSH2 0x2657 PUSH1 0x0 DUP1 REVERT JUMPDEST PUSH2 0x1F34 DUP6 DUP3 DUP7 ADD PUSH2 0x2170 JUMP JUMPDEST PUSH2 0x266D DUP3 DUP3 PUSH2 0x1F3E JUMP JUMPDEST POP PUSH1 0x20 ADD SWAP1 JUMP JUMPDEST PUSH1 0x20 ADD SWAP1 JUMP JUMPDEST PUSH1 0x0 PUSH2 0x2684 DUP3 MLOAD SWAP1 JUMP JUMPDEST DUP1 DUP5 MSTORE PUSH1 0x20 SWAP4 DUP5 ADD SWAP4 DUP4 ADD PUSH1 0x0 JUMPDEST DUP3 DUP2 LT ISZERO PUSH2 0x26B7 JUMPI DUP2 MLOAD PUSH2 0x26A6 DUP8 DUP3 PUSH2 0x2663 JUMP JUMPDEST SWAP7 POP POP PUSH1 0x20 DUP3 ADD SWAP2 POP PUSH1 0x1 ADD PUSH2 0x2692 JUMP JUMPDEST POP SWAP4 SWAP5 SWAP4 POP POP POP POP JUMP JUMPDEST PUSH1 0x20 DUP1 DUP3 MSTORE DUP2 ADD PUSH2 0x208D DUP2 DUP5 PUSH2 0x267A JUMP JUMPDEST PUSH1 0x0 PUSH1 0x20 DUP3 DUP5 SUB SLT ISZERO PUSH2 0x26E7 JUMPI PUSH2 0x26E7 PUSH1 0x0 DUP1 REVERT JUMPDEST DUP2 CALLDATALOAD PUSH8 0xFFFFFFFFFFFFFFFF DUP2 GT ISZERO PUSH2 0x2701 JUMPI PUSH2 0x2701 PUSH1 0x0 DUP1 REVERT JUMPDEST PUSH2 0x1FA8 DUP5 DUP3 DUP6 ADD PUSH2 0x21FF JUMP JUMPDEST DUP1 ISZERO ISZERO PUSH2 0x1EDA JUMP JUMPDEST DUP1 CALLDATALOAD PUSH2 0x564 DUP2 PUSH2 0x270D JUMP JUMPDEST PUSH1 0x0 DUP1 PUSH1 0x40 DUP4 DUP6 SUB SLT ISZERO PUSH2 0x2736 JUMPI PUSH2 0x2736 PUSH1 0x0 DUP1 REVERT JUMPDEST PUSH1 0x0 PUSH2 0x2742 DUP6 DUP6 PUSH2 0x1EE5 JUMP JUMPDEST SWAP3 POP POP PUSH1 0x20 PUSH2 0x1F34 DUP6 DUP3 DUP7 ADD PUSH2 0x2715 JUMP JUMPDEST PUSH1 0x0 DUP1 PUSH1 0x0 DUP1 PUSH1 0x40 DUP6 DUP8 SUB SLT ISZERO PUSH2 0x276C JUMPI PUSH2 0x276C PUSH1 0x0 DUP1 REVERT JUMPDEST DUP5 CALLDATALOAD PUSH8 0xFFFFFFFFFFFFFFFF DUP2 GT ISZERO PUSH2 0x2786 JUMPI PUSH2 0x2786 PUSH1 0x0 DUP1 REVERT JUMPDEST PUSH2 0x2792 DUP8 DUP3 DUP9 ADD PUSH2 0x24F5 JUMP JUMPDEST SWAP5 POP SWAP5 POP POP PUSH1 0x20 DUP6 ADD CALLDATALOAD PUSH8 0xFFFFFFFFFFFFFFFF DUP2 GT ISZERO PUSH2 0x27B4 JUMPI PUSH2 0x27B4 PUSH1 0x0 DUP1 REVERT JUMPDEST PUSH2 0x27C0 DUP8 DUP3 DUP9 ADD PUSH2 0x24F5 JUMP JUMPDEST SWAP6 SWAP9 SWAP5 SWAP8 POP SWAP6 POP POP POP POP JUMP JUMPDEST PUSH1 0x0 DUP1 PUSH1 0x40 DUP4 DUP6 SUB SLT ISZERO PUSH2 0x27E2 JUMPI PUSH2 0x27E2 PUSH1 0x0 DUP1 REVERT JUMPDEST PUSH1 0x0 PUSH2 0x27EE DUP6 DUP6 PUSH2 0x1EE5 JUMP JUMPDEST SWAP3 POP POP PUSH1 0x20 PUSH2 0x1F34 DUP6 DUP3 DUP7 ADD PUSH2 0x1EE5 JUMP JUMPDEST PUSH1 0x0 DUP1 PUSH1 0x0 DUP1 PUSH1 0x0 PUSH1 0xA0 DUP7 DUP9 SUB SLT ISZERO PUSH2 0x281A JUMPI PUSH2 0x281A PUSH1 0x0 DUP1 REVERT JUMPDEST PUSH1 0x0 PUSH2 0x2826 DUP9 DUP9 PUSH2 0x1EE5 JUMP JUMPDEST SWAP6 POP POP PUSH1 0x20 PUSH2 0x2837 DUP9 DUP3 DUP10 ADD PUSH2 0x1EE5 JUMP JUMPDEST SWAP5 POP POP PUSH1 0x40 PUSH2 0x2848 DUP9 DUP3 DUP10 ADD PUSH2 0x1EF6 JUMP JUMPDEST SWAP4 POP POP PUSH1 0x60 PUSH2 0x22B3 DUP9 DUP3 DUP10 ADD PUSH2 0x1EF6 JUMP JUMPDEST PUSH1 0x0 PUSH1 0x20 DUP3 DUP5 SUB SLT ISZERO PUSH2 0x286E JUMPI PUSH2 0x286E PUSH1 0x0 DUP1 REVERT JUMPDEST PUSH1 0x0 PUSH2 0x1FA8 DUP5 DUP5 PUSH2 0x1EE5 JUMP JUMPDEST PUSH1 0x2A DUP2 MSTORE PUSH1 0x20 DUP2 ADD PUSH32 0x455243313135353A2061646472657373207A65726F206973206E6F7420612076 DUP2 MSTORE PUSH32 0x616C6964206F776E657200000000000000000000000000000000000000000000 PUSH1 0x20 DUP3 ADD MSTORE SWAP1 POP JUMPDEST PUSH1 0x40 ADD SWAP1 JUMP JUMPDEST PUSH1 0x20 DUP1 DUP3 MSTORE DUP2 ADD PUSH2 0x564 DUP2 PUSH2 0x287A JUMP JUMPDEST PUSH1 0x9 DUP2 MSTORE PUSH1 0x20 DUP2 ADD PUSH32 0x4E6F74206F776E65720000000000000000000000000000000000000000000000 DUP2 MSTORE SWAP1 POP PUSH2 0x2674 JUMP JUMPDEST PUSH1 0x20 DUP1 DUP3 MSTORE DUP2 ADD PUSH2 0x564 DUP2 PUSH2 0x28E4 JUMP JUMPDEST PUSH4 0x4E487B71 PUSH1 0xE0 SHL PUSH1 0x0 MSTORE PUSH1 0x11 PUSH1 0x4 MSTORE PUSH1 0x24 PUSH1 0x0 REVERT JUMPDEST PUSH1 0x0 DUP2 PUSH1 0x0 NOT DIV DUP4 GT DUP3 ISZERO ISZERO AND ISZERO PUSH2 0x2956 JUMPI PUSH2 0x2956 PUSH2 0x2926 JUMP JUMPDEST POP MUL SWAP1 JUMP JUMPDEST PUSH4 0x4E487B71 PUSH1 0xE0 SHL PUSH1 0x0 MSTORE PUSH1 0x12 PUSH1 0x4 MSTORE PUSH1 0x24 PUSH1 0x0 REVERT JUMPDEST PUSH1 0x0 DUP3 PUSH2 0x2980 JUMPI PUSH2 0x2980 PUSH2 0x295B JUMP JUMPDEST POP DIV SWAP1 JUMP JUMPDEST PUSH1 0x2E DUP2 MSTORE PUSH1 0x20 DUP2 ADD PUSH32 0x455243313135353A2063616C6C6572206973206E6F7420746F6B656E206F776E DUP2 MSTORE PUSH32 0x6572206F7220617070726F766564000000000000000000000000000000000000 PUSH1 0x20 DUP3 ADD MSTORE SWAP1 POP PUSH2 0x28CE JUMP JUMPDEST PUSH1 0x20 DUP1 DUP3 MSTORE DUP2 ADD PUSH2 0x564 DUP2 PUSH2 0x2985 JUMP JUMPDEST PUSH4 0x4E487B71 PUSH1 0xE0 SHL PUSH1 0x0 MSTORE PUSH1 0x32 PUSH1 0x4 MSTORE PUSH1 0x24 PUSH1 0x0 REVERT JUMPDEST PUSH4 0x4E487B71 PUSH1 0xE0 SHL PUSH1 0x0 MSTORE PUSH1 0x22 PUSH1 0x4 MSTORE PUSH1 0x24 PUSH1 0x0 REVERT JUMPDEST PUSH1 0x2 DUP2 DIV PUSH1 0x1 DUP3 AND DUP1 PUSH2 0x2A2D JUMPI PUSH1 0x7F DUP3 AND SWAP2 POP JUMPDEST PUSH1 0x20 DUP3 LT DUP2 EQ ISZERO PUSH2 0x2A40 JUMPI PUSH2 0x2A40 PUSH2 0x2A03 JUMP JUMPDEST POP SWAP2 SWAP1 POP JUMP JUMPDEST PUSH1 0x19 DUP2 MSTORE PUSH1 0x20 DUP2 ADD PUSH32 0x4661696C656420746F2073656E6420746F2053696D6F6E6F2E00000000000000 DUP2 MSTORE SWAP1 POP PUSH2 0x2674 JUMP JUMPDEST PUSH1 0x20 DUP1 DUP3 MSTORE DUP2 ADD PUSH2 0x564 DUP2 PUSH2 0x2A46 JUMP JUMPDEST PUSH1 0x2E DUP2 MSTORE PUSH1 0x20 DUP2 ADD PUSH32 0x496E697469616C697A61626C653A20636F6E747261637420697320616C726561 DUP2 MSTORE PUSH32 0x647920696E697469616C697A6564000000000000000000000000000000000000 PUSH1 0x20 DUP3 ADD MSTORE SWAP1 POP PUSH2 0x28CE JUMP JUMPDEST PUSH1 0x20 DUP1 DUP3 MSTORE DUP2 ADD PUSH2 0x564 DUP2 PUSH2 0x2A88 JUMP JUMPDEST PUSH1 0x0 PUSH1 0x0 NOT DUP3 EQ ISZERO PUSH2 0x2B04 JUMPI PUSH2 0x2B04 PUSH2 0x2926 JUMP JUMPDEST POP PUSH1 0x1 ADD SWAP1 JUMP JUMPDEST PUSH1 0x0 PUSH2 0x564 DUP3 PUSH2 0x2B19 JUMP JUMPDEST SWAP1 JUMP JUMPDEST PUSH1 0xFF AND SWAP1 JUMP JUMPDEST PUSH2 0x1F40 DUP2 PUSH2 0x2B0B JUMP JUMPDEST PUSH1 0x20 DUP2 ADD PUSH2 0x564 DUP3 DUP5 PUSH2 0x2B1F JUMP JUMPDEST PUSH1 0x0 DUP1 DUP4 CALLDATALOAD PUSH32 0xFFFFFFFFFFFFFFFFFFFFFFFFFFFFFFFFFFFFFFFFFFFFFFFFFFFFFFFFFFFFFFE1 CALLDATASIZE DUP6 SWAP1 SUB ADD DUP2 SLT PUSH2 0x2B6F JUMPI PUSH2 0x2B6F PUSH1 0x0 DUP1 REVERT JUMPDEST DUP4 ADD SWAP2 POP POP DUP1 CALLDATALOAD PUSH8 0xFFFFFFFFFFFFFFFF DUP2 GT ISZERO PUSH2 0x2B8E JUMPI PUSH2 0x2B8E PUSH1 0x0 DUP1 REVERT JUMPDEST PUSH1 0x20 DUP3 ADD SWAP2 POP PUSH1 0x1 DUP2 MUL CALLDATASIZE SUB DUP3 SGT ISZERO PUSH2 0x703 JUMPI PUSH2 0x703 PUSH1 0x0 DUP1 REVERT JUMPDEST PUSH1 0x29 DUP2 MSTORE PUSH1 0x20 DUP2 ADD PUSH32 0x455243313135353A206163636F756E747320616E6420696473206C656E677468 DUP2 MSTORE PUSH32 0x206D69736D617463680000000000000000000000000000000000000000000000 PUSH1 0x20 DUP3 ADD MSTORE SWAP1 POP PUSH2 0x28CE JUMP JUMPDEST PUSH1 0x20 DUP1 DUP3 MSTORE DUP2 ADD PUSH2 0x564 DUP2 PUSH2 0x2BA9 JUMP JUMPDEST PUSH1 0xD DUP2 MSTORE PUSH1 0x20 DUP2 ADD PUSH32 0x496E76616C696420696E70757400000000000000000000000000000000000000 DUP2 MSTORE SWAP1 POP PUSH2 0x2674 JUMP JUMPDEST PUSH1 0x20 DUP1 DUP3 MSTORE DUP2 ADD PUSH2 0x564 DUP2 PUSH2 0x2C11 JUMP JUMPDEST PUSH1 0x0 DUP3 DUP3 LT ISZERO PUSH2 0x2C65 JUMPI PUSH2 0x2C65 PUSH2 0x2926 JUMP JUMPDEST POP SUB SWAP1 JUMP JUMPDEST PUSH1 0x17 DUP2 MSTORE PUSH1 0x20 DUP2 ADD PUSH32 0x4E6F7420656E6F756768207469636B657473206C656674000000000000000000 DUP2 MSTORE SWAP1 POP PUSH2 0x2674 JUMP JUMPDEST PUSH1 0x20 DUP1 DUP3 MSTORE DUP2 ADD PUSH2 0x564 DUP2 PUSH2 0x2C6A JUMP JUMPDEST PUSH1 0x0 DUP3 NOT DUP3 GT ISZERO PUSH2 0x2CBF JUMPI PUSH2 0x2CBF PUSH2 0x2926 JUMP JUMPDEST POP ADD SWAP1 JUMP JUMPDEST PUSH1 0xE DUP2 MSTORE PUSH1 0x20 DUP2 ADD PUSH32 0x496E76616C696420616D6F756E74000000000000000000000000000000000000 DUP2 MSTORE SWAP1 POP PUSH2 0x2674 JUMP JUMPDEST PUSH1 0x20 DUP1 DUP3 MSTORE DUP2 ADD PUSH2 0x564 DUP2 PUSH2 0x2CC4 JUMP JUMPDEST PUSH1 0x1C DUP2 MSTORE PUSH1 0x20 DUP2 ADD PUSH32 0x436865636B20696E20646561646C696E65206861732070617373656400000000 DUP2 MSTORE SWAP1 POP PUSH2 0x2674 JUMP JUMPDEST PUSH1 0x20 DUP1 DUP3 MSTORE DUP2 ADD PUSH2 0x564 DUP2 PUSH2 0x2D06 JUMP JUMPDEST PUSH1 0x18 DUP2 MSTORE PUSH1 0x20 DUP2 ADD PUSH32 0x436865636B696E206E6F74207374617274656420796574210000000000000000 DUP2 MSTORE SWAP1 POP PUSH2 0x2674 JUMP JUMPDEST PUSH1 0x20 DUP1 DUP3 MSTORE DUP2 ADD PUSH2 0x564 DUP2 PUSH2 0x2D48 JUMP JUMPDEST PUSH1 0x1D DUP2 MSTORE PUSH1 0x20 DUP2 ADD PUSH32 0x596F7520646F6E2774206861766520656E6F756768207469636B657473000000 DUP2 MSTORE SWAP1 POP PUSH2 0x2674 JUMP JUMPDEST PUSH1 0x20 DUP1 DUP3 MSTORE DUP2 ADD PUSH2 0x564 DUP2 PUSH2 0x2D8A JUMP JUMPDEST PUSH1 0x2A DUP2 MSTORE PUSH1 0x20 DUP2 ADD PUSH32 0x455243323938313A20726F79616C7479206665652077696C6C20657863656564 DUP2 MSTORE PUSH32 0x2073616C65507269636500000000000000000000000000000000000000000000 PUSH1 0x20 DUP3 ADD MSTORE SWAP1 POP PUSH2 0x28CE JUMP JUMPDEST PUSH1 0x20 DUP1 DUP3 MSTORE DUP2 ADD PUSH2 0x564 DUP2 PUSH2 0x2DCC JUMP JUMPDEST PUSH1 0x19 DUP2 MSTORE PUSH1 0x20 DUP2 ADD PUSH32 0x455243323938313A20696E76616C696420726563656976657200000000000000 DUP2 MSTORE SWAP1 POP PUSH2 0x2674 JUMP JUMPDEST PUSH1 0x20 DUP1 DUP3 MSTORE DUP2 ADD PUSH2 0x564 DUP2 PUSH2 0x2E34 JUMP JUMPDEST PUSH1 0x28 DUP2 MSTORE PUSH1 0x20 DUP2 ADD PUSH32 0x455243313135353A2069647320616E6420616D6F756E7473206C656E67746820 DUP2 MSTORE PUSH32 0x6D69736D61746368000000000000000000000000000000000000000000000000 PUSH1 0x20 DUP3 ADD MSTORE SWAP1 POP PUSH2 0x28CE JUMP JUMPDEST PUSH1 0x20 DUP1 DUP3 MSTORE DUP2 ADD PUSH2 0x564 DUP2 PUSH2 0x2E76 JUMP JUMPDEST PUSH1 0x25 DUP2 MSTORE PUSH1 0x20 DUP2 ADD PUSH32 0x455243313135353A207472616E7366657220746F20746865207A65726F206164 DUP2 MSTORE PUSH32 0x6472657373000000000000000000000000000000000000000000000000000000 PUSH1 0x20 DUP3 ADD MSTORE SWAP1 POP PUSH2 0x28CE JUMP JUMPDEST PUSH1 0x20 DUP1 DUP3 MSTORE DUP2 ADD PUSH2 0x564 DUP2 PUSH2 0x2EDE JUMP JUMPDEST PUSH1 0x2A DUP2 MSTORE PUSH1 0x20 DUP2 ADD PUSH32 0x455243313135353A20696E73756666696369656E742062616C616E636520666F DUP2 MSTORE PUSH32 0x72207472616E7366657200000000000000000000000000000000000000000000 PUSH1 0x20 DUP3 ADD MSTORE SWAP1 POP PUSH2 0x28CE JUMP JUMPDEST PUSH1 0x20 DUP1 DUP3 MSTORE DUP2 ADD PUSH2 0x564 DUP2 PUSH2 0x2F46 JUMP JUMPDEST PUSH1 0x40 DUP1 DUP3 MSTORE DUP2 ADD PUSH2 0x2FBF DUP2 DUP6 PUSH2 0x267A JUMP JUMPDEST SWAP1 POP DUP2 DUP2 SUB PUSH1 0x20 DUP4 ADD MSTORE PUSH2 0x1FA8 DUP2 DUP5 PUSH2 0x267A JUMP JUMPDEST PUSH1 0x29 DUP2 MSTORE PUSH1 0x20 DUP2 ADD PUSH32 0x455243313135353A2073657474696E6720617070726F76616C20737461747573 DUP2 MSTORE PUSH32 0x20666F722073656C660000000000000000000000000000000000000000000000 PUSH1 0x20 DUP3 ADD MSTORE SWAP1 POP PUSH2 0x28CE JUMP JUMPDEST PUSH1 0x20 DUP1 DUP3 MSTORE DUP2 ADD PUSH2 0x564 DUP2 PUSH2 0x2FD3 JUMP JUMPDEST PUSH1 0x21 DUP2 MSTORE PUSH1 0x20 DUP2 ADD PUSH32 0x455243313135353A206D696E7420746F20746865207A65726F20616464726573 DUP2 MSTORE PUSH32 0x7300000000000000000000000000000000000000000000000000000000000000 PUSH1 0x20 DUP3 ADD MSTORE SWAP1 POP PUSH2 0x28CE JUMP JUMPDEST PUSH1 0x20 DUP1 DUP3 MSTORE DUP2 ADD PUSH2 0x564 DUP2 PUSH2 0x303B JUMP JUMPDEST PUSH1 0x23 DUP2 MSTORE PUSH1 0x20 DUP2 ADD PUSH32 0x455243313135353A206275726E2066726F6D20746865207A65726F2061646472 DUP2 MSTORE PUSH32 0x6573730000000000000000000000000000000000000000000000000000000000 PUSH1 0x20 DUP3 ADD MSTORE SWAP1 POP PUSH2 0x28CE JUMP JUMPDEST PUSH1 0x20 DUP1 DUP3 MSTORE DUP2 ADD PUSH2 0x564 DUP2 PUSH2 0x30A3 JUMP JUMPDEST PUSH1 0x24 DUP2 MSTORE PUSH1 0x20 DUP2 ADD PUSH32 0x455243313135353A206275726E20616D6F756E7420657863656564732062616C DUP2 MSTORE PUSH32 0x616E636500000000000000000000000000000000000000000000000000000000 PUSH1 0x20 DUP3 ADD MSTORE SWAP1 POP PUSH2 0x28CE JUMP JUMPDEST PUSH1 0x20 DUP1 DUP3 MSTORE DUP2 ADD PUSH2 0x564 DUP2 PUSH2 0x310B JUMP JUMPDEST PUSH1 0x40 DUP2 ADD PUSH2 0x2080 DUP3 DUP6 PUSH2 0x1F3E JUMP JUMPDEST PUSH1 0xA0 DUP2 ADD PUSH2 0x318F DUP3 DUP9 PUSH2 0x2039 JUMP JUMPDEST PUSH2 0x319C PUSH1 0x20 DUP4 ADD DUP8 PUSH2 0x2039 JUMP JUMPDEST DUP2 DUP2 SUB PUSH1 0x40 DUP4 ADD MSTORE PUSH2 0x31AE DUP2 DUP7 PUSH2 0x267A JUMP JUMPDEST SWAP1 POP DUP2 DUP2 SUB PUSH1 0x60 DUP4 ADD MSTORE PUSH2 0x31C2 DUP2 DUP6 PUSH2 0x267A JUMP JUMPDEST SWAP1 POP DUP2 DUP2 SUB PUSH1 0x80 DUP4 ADD MSTORE PUSH2 0x31D6 DUP2 DUP5 PUSH2 0x2318 JUMP JUMPDEST SWAP8 SWAP7 POP POP POP POP POP POP POP JUMP JUMPDEST DUP1 MLOAD PUSH2 0x564 DUP2 PUSH2 0x1F54 JUMP JUMPDEST PUSH1 0x0 PUSH1 0x20 DUP3 DUP5 SUB SLT ISZERO PUSH2 0x3201 JUMPI PUSH2 0x3201 PUSH1 0x0 DUP1 REVERT JUMPDEST PUSH1 0x0 PUSH2 0x1FA8 DUP5 DUP5 PUSH2 0x31E1 JUMP JUMPDEST PUSH1 0x0 PUSH1 0x3 RETURNDATASIZE GT ISZERO PUSH2 0x2B16 JUMPI PUSH1 0x4 PUSH1 0x0 DUP1 RETURNDATACOPY POP PUSH1 0x0 MLOAD PUSH1 0xE0 SHR SWAP1 JUMP JUMPDEST PUSH1 0x0 PUSH1 0x44 RETURNDATASIZE LT ISZERO PUSH2 0x3236 JUMPI SWAP1 JUMP JUMPDEST PUSH1 0x40 MLOAD PUSH1 0x4 RETURNDATASIZE SUB PUSH1 0x4 DUP3 RETURNDATACOPY DUP1 MLOAD RETURNDATASIZE PUSH1 0x24 DUP3 ADD GT PUSH8 0xFFFFFFFFFFFFFFFF DUP3 GT OR ISZERO PUSH2 0x325F JUMPI POP POP SWAP1 JUMP JUMPDEST DUP1 DUP3 ADD DUP1 MLOAD PUSH8 0xFFFFFFFFFFFFFFFF DUP2 GT ISZERO PUSH2 0x327B JUMPI POP POP POP POP SWAP1 JUMP JUMPDEST DUP1 PUSH1 0x20 DUP4 ADD ADD PUSH1 0x4 RETURNDATASIZE SUB DUP6 ADD DUP2 GT ISZERO PUSH2 0x3296 JUMPI POP POP POP POP POP SWAP1 JUMP JUMPDEST POP PUSH2 0xC0B DUP2 PUSH1 0x20 ADD DUP5 ADD DUP6 PUSH2 0x20AA JUMP JUMPDEST PUSH1 0x34 DUP2 MSTORE PUSH1 0x20 DUP2 ADD PUSH32 0x455243313135353A207472616E7366657220746F206E6F6E2D45524331313535 DUP2 MSTORE PUSH32 0x526563656976657220696D706C656D656E746572000000000000000000000000 PUSH1 0x20 DUP3 ADD MSTORE SWAP1 POP PUSH2 0x28CE JUMP JUMPDEST PUSH1 0x20 DUP1 DUP3 MSTORE DUP2 ADD PUSH2 0x564 DUP2 PUSH2 0x32A6 JUMP JUMPDEST PUSH1 0x28 DUP2 MSTORE PUSH1 0x20 DUP2 ADD PUSH32 0x455243313135353A204552433131353552656365697665722072656A65637465 DUP2 MSTORE PUSH32 0x6420746F6B656E73000000000000000000000000000000000000000000000000 PUSH1 0x20 DUP3 ADD MSTORE SWAP1 POP PUSH2 0x28CE JUMP JUMPDEST PUSH1 0x20 DUP1 DUP3 MSTORE DUP2 ADD PUSH2 0x564 DUP2 PUSH2 0x330E JUMP JUMPDEST DUP1 PUSH2 0x1F40 JUMP JUMPDEST PUSH1 0x0 PUSH2 0x564 DUP3 PUSH1 0x60 SHL SWAP1 JUMP JUMPDEST PUSH1 0x0 PUSH2 0x564 DUP3 PUSH2 0x337C JUMP JUMPDEST PUSH2 0x1F40 PUSH2 0x339F DUP3 PUSH2 0x1EC0 JUMP JUMPDEST PUSH2 0x3388 JUMP JUMPDEST PUSH2 0x33AE DUP2 DUP6 PUSH2 0x3376 JUMP JUMPDEST PUSH1 0x20 ADD PUSH2 0x33BB DUP2 DUP5 PUSH2 0x3393 JUMP JUMPDEST PUSH1 0x14 ADD PUSH2 0x33C8 DUP2 DUP4 PUSH2 0x3376 JUMP JUMPDEST PUSH1 0x20 ADD SWAP4 SWAP3 POP POP POP JUMP JUMPDEST PUSH1 0x0 DUP3 PUSH2 0x33E1 JUMPI PUSH2 0x33E1 PUSH2 0x295B JUMP JUMPDEST POP MOD SWAP1 JUMP JUMPDEST PUSH1 0xA0 DUP2 ADD PUSH2 0x33F4 DUP3 DUP9 PUSH2 0x2039 JUMP JUMPDEST PUSH2 0x3401 PUSH1 0x20 DUP4 ADD DUP8 PUSH2 0x2039 JUMP JUMPDEST PUSH2 0x340E PUSH1 0x40 DUP4 ADD DUP7 PUSH2 0x1F3E JUMP JUMPDEST PUSH2 0x341B PUSH1 0x60 DUP4 ADD DUP6 PUSH2 0x1F3E JUMP JUMPDEST DUP2 DUP2 SUB PUSH1 0x80 DUP4 ADD MSTORE PUSH2 0x31D6 DUP2 DUP5 PUSH2 0x2318 JUMP INVALID LOG2 PUSH5 0x6970667358 0x22 SLT KECCAK256 SWAP4 MOD LOG0 0xEE SWAP2 DUP12 EXTCODESIZE PUSH30 0x2B9B7D9933DAD5D1EC78A1A30749D1E5C8752AFFA956E29264736F6C6343 STOP ADDMOD MULMOD STOP CALLER "},"methodIdentifiers":{"accounting()":"9624e83e","attendees(uint256)":"0e0c353d","balanceOf(address,uint256)":"00fdd58e","balanceOfBatch(address[],uint256[])":"4e1273f4","buyTickets(uint256[],uint256[])":"c0585144","checkIn(uint256[],uint256[])":"ec69e314","eventCheckInDeadline()":"217d3653","getBaseURI()":"714c5398","getOwner()":"893d20e8","getTokenURI(uint256)":"3bb3a24d","initialize(string[],uint256[],uint256[],string,uint256,address,uint96)":"474b0002","isApprovedForAll(address,address)":"e985e9c5","maxQuantity(uint256)":"c0b497bb","royaltyInfo(uint256,uint256)":"2a55205a","safeBatchTransferFrom(address,address,uint256[],uint256[],bytes)":"2eb2c2d6","safeTransferFrom(address,address,uint256,uint256,bytes)":"f242432a","setApprovalForAll(address,bool)":"a22cb465","setBaseURI(string)":"55f804b3","setNonFungibleTokenQty(uint256[])":"5261325d","setNonFungibleTokenURI(string[])":"49aa4887","setRoyaltyInfo(address,uint96)":"02fa7c47","supply(uint256)":"35403023","supportsInterface(bytes4)":"01ffc9a7","transferOwnership(address)":"f2fde38b","withdraw()":"3ccfd60b"}}}}}