{"contracts/EventFactory.sol":{"EventFactory":{"abi":[{"inputs":[{"internalType":"address","name":"_baseExampleContract","type":"address"}],"stateMutability":"nonpayable","type":"constructor"},{"anonymous":false,"inputs":[{"indexed":true,"internalType":"address","name":"previousOwner","type":"address"},{"indexed":true,"internalType":"address","name":"newOwner","type":"address"}],"name":"OwnershipTransferred","type":"event"},{"inputs":[{"internalType":"uint256","name":"","type":"uint256"}],"name":"Events","outputs":[{"internalType":"address","name":"","type":"address"}],"stateMutability":"view","type":"function"},{"inputs":[{"internalType":"address","name":"_dev","type":"address"}],"name":"addDev","outputs":[],"stateMutability":"nonpayable","type":"function"},{"inputs":[],"name":"baseExampleContract","outputs":[{"internalType":"address","name":"","type":"address"}],"stateMutability":"view","type":"function"},{"inputs":[{"internalType":"string[]","name":"fungibleTokenURI_","type":"string[]"},{"internalType":"uint256[]","name":"prices_","type":"uint256[]"},{"internalType":"uint256[]","name":"maxQuantity_","type":"uint256[]"},{"internalType":"string","name":"_uri","type":"string"},{"internalType":"uint256","name":"eventCheckInDeadline_","type":"uint256"},{"internalType":"address","name":"_owner","type":"address"},{"internalType":"address","name":"_accounting","type":"address"},{"internalType":"uint96","name":"_royalty","type":"uint96"}],"name":"cloneContract","outputs":[],"stateMutability":"nonpayable","type":"function"},{"inputs":[],"name":"getContracts","outputs":[{"internalType":"address[]","name":"","type":"address[]"}],"stateMutability":"view","type":"function"},{"inputs":[],"name":"owner","outputs":[{"internalType":"address","name":"","type":"address"}],"stateMutability":"view","type":"function"},{"inputs":[],"name":"renounceOwnership","outputs":[],"stateMutability":"nonpayable","type":"function"},{"inputs":[{"internalType":"address[]","name":"payees","type":"address[]"},{"internalType":"uint256[]","name":"shares_","type":"uint256[]"}],"name":"splitter","outputs":[{"internalType":"address","name":"","type":"address"}],"stateMutability":"nonpayable","type":"function"},{"inputs":[{"internalType":"address","name":"newOwner","type":"address"}],"name":"transferOwnership","outputs":[],"stateMutability":"nonpayable","type":"function"}],"evm":{"bytecode":{"linkReferences":{},"object":"608060405234801561001057600080fd5b50604051620025b2380380620025b283398101604081905261003191610115565b61003a33610090565b600380546001600160a01b0319166001600160a01b0383161790556001600260006100623390565b6001600160a01b031681526020810191909152604001600020805460ff19169115159190911790555061013e565b600080546001600160a01b038381166001600160a01b0319831681178455604051919092169283917f8be0079c531659141344cd1fd0a4f28419497f9722a3daafe3b4186f6b6457e09190a35050565b60006001600160a01b0382165b92915050565b6100fc816100e0565b811461010757600080fd5b50565b80516100ed816100f3565b60006020828403121561012a5761012a600080fd5b6000610136848461010a565b949350505050565b612464806200014e6000396000f3fe60806040523480156200001157600080fd5b5060043610620000b05760003560e01c80638da5cb5b116200007f578063c3a2a93a1162000062578063c3a2a93a1462000144578063d8936517146200015d578063f2fde38b146200017457600080fd5b80638da5cb5b146200011b578063b91d3ace146200012d57600080fd5b80630bb57dfd14620000b55780630ef5457914620000e4578063715018a614620000f857806376427cd51462000104575b600080fd5b620000cc620000c63660046200063e565b6200018b565b604051620000db91906200068e565b60405180910390f35b600354620000cc906001600160a01b031681565b62000102620001b6565b005b620001026200011536600462000859565b620001ce565b6000546001600160a01b0316620000cc565b620001026200013e3660046200099f565b620003a3565b6200014e620003ef565b604051620000db919062000a29565b620000cc6200016e36600462000a43565b62000453565b62000102620001853660046200099f565b620004d0565b600181815481106200019c57600080fd5b6000918252602090912001546001600160a01b0316905081565b620001c062000511565b620001cc60006200053e565b565b3360009081526002602052604090205460ff16620002095760405162461bcd60e51b8152600401620002009062000af9565b60405180910390fd5b60035460009062000223906001600160a01b0316620005a6565b6040517f474b00020000000000000000000000000000000000000000000000000000000081529091506001600160a01b0382169063474b0002906200027f908f908f908f908f908f908f908f908f908e908e9060040162000cf7565b600060405180830381600087803b1580156200029a57600080fd5b505af1158015620002af573d6000803e3d6000fd5b50506040517ff2fde38b0000000000000000000000000000000000000000000000000000000081526001600160a01b038416925063f2fde38b9150620002fa9087906004016200068e565b600060405180830381600087803b1580156200031557600080fd5b505af11580156200032a573d6000803e3d6000fd5b50506001805480820182556000919091527fb10e2d527612073b26eecdfd717e6a320cf44b4afac2b0732d9fcbe2b7fa0cf60180547fffffffffffffffffffffffff0000000000000000000000000000000000000000166001600160a01b03949094169390931790925550505050505050505050505050565b620003ad62000511565b6001600160a01b0316600090815260026020526040902080547fffffffffffffffffffffffffffffffffffffffffffffffffffffffffffffff00166001179055565b606060018054806020026020016040519081016040528092919081815260200182805480156200044957602002820191906000526020600020905b81546001600160a01b031681526001909101906020018083116200042a575b5050505050905090565b3360009081526002602052604081205460ff16620004855760405162461bcd60e51b8152600401620002009062000af9565b60008585858560405162000499906200060f565b620004a8949392919062000ded565b604051809103906000f080158015620004c5573d6000803e3d6000fd5b509695505050505050565b620004da62000511565b6001600160a01b038116620005035760405162461bcd60e51b8152600401620002009062000e22565b6200050e816200053e565b50565b6000546001600160a01b03163314620001cc5760405162461bcd60e51b8152600401620002009062000eb5565b600080546001600160a01b038381167fffffffffffffffffffffffff0000000000000000000000000000000000000000831681178455604051919092169283917f8be0079c531659141344cd1fd0a4f28419497f9722a3daafe3b4186f6b6457e09190a35050565b6000808260601b90506040517f3d602d80600a3d3981f3363d3d373d3d3d363d7300000000000000000000000081528160148201527f5af43d82803e903d91602b57fd5bf3000000000000000000000000000000000060288201526037816000f0949350505050565b6115678062000ec883390190565b805b81146200050e57600080fd5b803562000638816200061d565b92915050565b600060208284031215620006555762000655600080fd5b60006200066384846200062b565b949350505050565b60006001600160a01b03821662000638565b62000688816200066b565b82525050565b602081016200063882846200067d565b60008083601f840112620006b557620006b5600080fd5b50813567ffffffffffffffff811115620006d257620006d2600080fd5b602083019150836020820283011115620006ef57620006ef600080fd5b9250929050565b7f4e487b7100000000000000000000000000000000000000000000000000000000600052604160045260246000fd5b601f19601f830116810181811067ffffffffffffffff821117156200074e576200074e620006f6565b6040525050565b60006200076160405190565b90506200076f828262000725565b919050565b600067ffffffffffffffff821115620007915762000791620006f6565b601f19601f83011660200192915050565b82818337506000910152565b6000620007c5620007bf8462000774565b62000755565b905082815260208101848484011115620007e257620007e2600080fd5b620007ef848285620007a2565b509392505050565b600082601f8301126200080d576200080d600080fd5b813562000663848260208601620007ae565b6200061f816200066b565b803562000638816200081f565b6bffffffffffffffffffffffff81166200061f565b8035620006388162000837565b60008060008060008060008060008060006101008c8e031215620008805762000880600080fd5b8b3567ffffffffffffffff8111156200089c576200089c600080fd5b620008aa8e828f016200069e565b9b509b505060208c013567ffffffffffffffff811115620008ce57620008ce600080fd5b620008dc8e828f016200069e565b995099505060408c013567ffffffffffffffff811115620009005762000900600080fd5b6200090e8e828f016200069e565b975097505060608c013567ffffffffffffffff811115620009325762000932600080fd5b620009408e828f01620007f7565b9550506080620009538e828f016200062b565b94505060a0620009668e828f016200082a565b93505060c0620009798e828f016200082a565b92505060e06200098c8e828f016200084c565b9150509295989b509295989b9093969950565b600060208284031215620009b657620009b6600080fd5b60006200066384846200082a565b620009d082826200067d565b5060200190565b60200190565b6000620009e8825190565b808452602093840193830160005b8281101562000a1f57815162000a0d8782620009c4565b965050602082019150600101620009f6565b5093949350505050565b6020808252810162000a3c8184620009dd565b9392505050565b6000806000806040858703121562000a5e5762000a5e600080fd5b843567ffffffffffffffff81111562000a7a5762000a7a600080fd5b62000a88878288016200069e565b9450945050602085013567ffffffffffffffff81111562000aac5762000aac600080fd5b62000aba878288016200069e565b95989497509550505050565b60118152602081017f5065726d697373696f6e2044656e69656400000000000000000000000000000081529050620009d7565b60208082528101620006388162000ac6565b81835260208301925062000b21828483620007a2565b50601f01601f19160190565b60006200066384848462000b0b565b60008083357fffffffffffffffffffffffffffffffffffffffffffffffffffffffffffffffe13685900301811262000b775762000b77600080fd5b830160208101925035905067ffffffffffffffff81111562000b9c5762000b9c600080fd5b36819003831315620006ef57620006ef600080fd5b818352602083019250600083602084028101838060005b8781101562000c1057848403895262000be2828462000b3c565b62000bef86828462000b2d565b9550505062000bfe8260200190565b60209990990198915060010162000bc8565b5091979650505050505050565b81835260208301925060007f07ffffffffffffffffffffffffffffffffffffffffffffffffffffffffffffff83111562000c5a5762000c5a600080fd5b60208302925062000c6d838584620007a2565b50500190565b60005b8381101562000c9057818101518382015260200162000c76565b8381111562000ca0576000848401525b50505050565b600062000cb1825190565b80845260208401935062000cca81856020860162000c73565b601f01601f19169290920192915050565b8062000688565b6bffffffffffffffffffffffff811662000688565b60e0808252810162000d0b818c8e62000bb1565b9050818103602083015262000d22818a8c62000c1d565b9050818103604083015262000d3981888a62000c1d565b9050818103606083015262000d4f818762000ca6565b905062000d60608083018662000cdb565b62000d6f60a08301856200067d565b62000d7e60c083018462000ce2565b9b9a5050505050505050505050565b5060006200063860208301836200082a565b8183526020830192506000818060005b8581101562000de25762000dc4828462000d8d565b62000dd08882620009c4565b97505060208201915060010162000daf565b509495945050505050565b6040808252810162000e0181868862000d9f565b9050818103602083015262000e1881848662000c1d565b9695505050505050565b602080825281016200063881602681527f4f776e61626c653a206e6577206f776e657220697320746865207a65726f206160208201527f6464726573730000000000000000000000000000000000000000000000000000604082015260600190565b60208082527f4f776e61626c653a2063616c6c6572206973206e6f7420746865206f776e65729101908152620009d7565b60208082528101620006388162000e8456fe6080604052604051620015673803806200156783398101604081905262000026916200040c565b8051825114620000535760405162461bcd60e51b81526004016200004a90620004d7565b60405180910390fd5b6000825111620000775760405162461bcd60e51b81526004016200004a906200051d565b60005b8251811015620000e357620000ce8382815181106200009d576200009d6200052f565b6020026020010151838381518110620000ba57620000ba6200052f565b6020026020010151620000ec60201b60201c565b80620000da816200055b565b9150506200007a565b505050620006ca565b6001600160a01b038216620001155760405162461bcd60e51b81526004016200004a90620005c1565b60008111620001385760405162461bcd60e51b81526004016200004a9062000606565b6001600160a01b03821660009081526002602052604090205415620001715760405162461bcd60e51b81526004016200004a906200065f565b60048054600181019091557f8a35acfbc15ff81a39ae7d344fd709f28e8600b4aa8c65c6b64bfe7fe36bd19b0180546001600160a01b0319166001600160a01b038416908117909155600090815260026020526040812082905554620001d990829062000671565b6000556040517f40c340f65e17194d14ddddb073d3c9f888e3cb52b5aae0c6c7706b4fbc905fac90620002109084908490620006a4565b60405180910390a15050565b634e487b7160e01b600052604160045260246000fd5b601f19601f83011681016001600160401b03811182821017156200025a576200025a6200021c565b6040525050565b60006200026d60405190565b90506200027b828262000232565b919050565b60006001600160401b038211156200029c576200029c6200021c565b5060209081020190565b60006001600160a01b0382165b92915050565b620002c481620002a6565b8114620002d057600080fd5b50565b8051620002b381620002b9565b6000620002f7620002f18462000280565b62000261565b83815290506020808201908402830185811115620003185762000318600080fd5b835b818110156200033e576200032f8782620002d3565b8352602092830192016200031a565b5050509392505050565b600082601f8301126200035e576200035e600080fd5b815162000370848260208601620002e0565b949350505050565b80620002c4565b8051620002b38162000378565b60006200039d620002f18462000280565b83815290506020808201908402830185811115620003be57620003be600080fd5b835b818110156200033e57620003d587826200037f565b835260209283019201620003c0565b600082601f830112620003fa57620003fa600080fd5b8151620003708482602086016200038c565b60008060408385031215620004245762000424600080fd5b82516001600160401b038111156200043f576200043f600080fd5b6200044d8582860162000348565b602085015190935090506001600160401b03811115620004705762000470600080fd5b6200047e85828601620003e4565b9150509250929050565b60328152602081017f5061796d656e7453706c69747465723a2070617965657320616e6420736861728152710cae640d8cadccee8d040dad2e6dac2e8c6d60731b602082015290505b60400190565b60208082528101620002b38162000488565b601a8152602081017f5061796d656e7453706c69747465723a206e6f20706179656573000000000000815290505b60200190565b60208082528101620002b381620004e9565b634e487b7160e01b600052603260045260246000fd5b634e487b7160e01b600052601160045260246000fd5b600060001982141562000572576200057262000545565b5060010190565b602c8152602081017f5061796d656e7453706c69747465723a206163636f756e74206973207468652081526b7a65726f206164647265737360a01b60208201529050620004d1565b60208082528101620002b38162000579565b601d8152602081017f5061796d656e7453706c69747465723a207368617265732061726520300000008152905062000517565b60208082528101620002b381620005d3565b602b8152602081017f5061796d656e7453706c69747465723a206163636f756e7420616c726561647981526a206861732073686172657360a81b60208201529050620004d1565b60208082528101620002b38162000618565b6000821982111562000687576200068762000545565b500190565b6200069781620002a6565b82525050565b8062000697565b60408101620006b482856200068c565b620006c360208301846200069d565b9392505050565b610e8d80620006da6000396000f3fe6080604052600436106100c05760003560e01c80639852595c11610074578063ce7c2ac21161004e578063ce7c2ac214610231578063d79779b214610267578063e33b7de31461029d57600080fd5b80639852595c146101bb578063a3f8eace146101f1578063c45ac0501461021157600080fd5b8063406072a9116100a5578063406072a91461014e57806348b750441461016e5780638b83209b1461018e57600080fd5b806319165587146101055780633a98ef391461012757600080fd5b36610100577f6ef95f06320e7a25a04a175ca677b7052bdd97131872c2192525a629f51be77033346040516100f6929190610923565b60405180910390a1005b600080fd5b34801561011157600080fd5b50610125610120366004610960565b6102b2565b005b34801561013357600080fd5b506000545b6040516101459190610981565b60405180910390f35b34801561015a57600080fd5b506101386101693660046109ae565b6103a8565b34801561017a57600080fd5b506101256101893660046109ae565b6103d5565b34801561019a57600080fd5b506101ae6101a93660046109fc565b6104f2565b6040516101459190610a1d565b3480156101c757600080fd5b506101386101d6366004610960565b6001600160a01b031660009081526003602052604090205490565b3480156101fd57600080fd5b5061013861020c366004610960565b610522565b34801561021d57600080fd5b5061013861022c3660046109ae565b61056a565b34801561023d57600080fd5b5061013861024c366004610960565b6001600160a01b031660009081526002602052604090205490565b34801561027357600080fd5b50610138610282366004610a2b565b6001600160a01b031660009081526005602052604090205490565b3480156102a957600080fd5b50600154610138565b6001600160a01b0381166000908152600260205260409020546102f05760405162461bcd60e51b81526004016102e790610aa6565b60405180910390fd5b60006102fb82610522565b90508061031a5760405162461bcd60e51b81526004016102e790610b0e565b6001600160a01b03821660009081526003602052604081208054839290610342908490610b34565b92505081905550806001600082825461035b9190610b34565b9091555061036b90508282610634565b7fdf20fd1e76bc69d672e4814fafb2c449bba3a5369d8359adf9e05e6fde87b056828260405161039c929190610b60565b60405180910390a15050565b6001600160a01b038083166000908152600660209081526040808320938516835292905220545b92915050565b6001600160a01b03811660009081526002602052604090205461040a5760405162461bcd60e51b81526004016102e790610aa6565b6000610416838361056a565b9050806104355760405162461bcd60e51b81526004016102e790610b0e565b6001600160a01b0380841660009081526006602090815260408083209386168352929052908120805483929061046c908490610b34565b90915550506001600160a01b03831660009081526005602052604081208054839290610499908490610b34565b909155506104aa90508383836106cc565b826001600160a01b03167f3be5b7a71e84ed12875d241991c70855ac5817d847039e17a9d895c1ceb0f18a83836040516104e5929190610923565b60405180910390a2505050565b60006004828154811061050757610507610b6e565b6000918252602090912001546001600160a01b031692915050565b60008061052e60015490565b6105389047610b34565b9050610563838261055e866001600160a01b031660009081526003602052604090205490565b61074f565b9392505050565b6001600160a01b0382166000818152600560205260408082205490517f70a08231000000000000000000000000000000000000000000000000000000008152919283926370a08231906105c1903090600401610a1d565b60206040518083038186803b1580156105d957600080fd5b505afa1580156105ed573d6000803e3d6000fd5b505050506040513d601f19601f820116820180604052508101906106119190610b8f565b61061b9190610b34565b905061062c838261055e87876103a8565b949350505050565b804710156106545760405162461bcd60e51b81526004016102e790610be4565b6000826001600160a01b03168260405160006040518083038185875af1925050503d80600081146106a1576040519150601f19603f3d011682016040523d82523d6000602084013e6106a6565b606091505b50509050806106c75760405162461bcd60e51b81526004016102e790610c4c565b505050565b6106c78363a9059cbb60e01b84846040516024016106eb929190610923565b60408051601f198184030181529190526020810180517bffffffffffffffffffffffffffffffffffffffffffffffffffffffff167fffffffff000000000000000000000000000000000000000000000000000000009093169290921790915261078a565b600080546001600160a01b0385168252600260205260408220548391906107769086610c5c565b6107809190610caf565b61062c9190610cc3565b60006107df826040518060400160405280602081526020017f5361666545524332303a206c6f772d6c6576656c2063616c6c206661696c6564815250856001600160a01b03166108199092919063ffffffff16565b8051909150156106c757808060200190518101906107fd9190610ced565b6106c75760405162461bcd60e51b81526004016102e790610d66565b606061062c8484600085856001600160a01b0385163b61084b5760405162461bcd60e51b81526004016102e790610da8565b600080866001600160a01b031685876040516108679190610e0a565b60006040518083038185875af1925050503d80600081146108a4576040519150601f19603f3d011682016040523d82523d6000602084013e6108a9565b606091505b50915091506108b98282866108c4565b979650505050505050565b606083156108d3575081610563565b8251156108e35782518084602001fd5b8160405162461bcd60e51b81526004016102e79190610e46565b60006001600160a01b0382166103cf565b610917816108fd565b82525050565b80610917565b60408101610931828561090e565b610563602083018461091d565b610947816108fd565b811461095257600080fd5b50565b80356103cf8161093e565b60006020828403121561097557610975600080fd5b600061062c8484610955565b602081016103cf828461091d565b60006103cf826108fd565b6109478161098f565b80356103cf8161099a565b600080604083850312156109c4576109c4600080fd5b60006109d085856109a3565b92505060206109e185828601610955565b9150509250929050565b80610947565b80356103cf816109eb565b600060208284031215610a1157610a11600080fd5b600061062c84846109f1565b602081016103cf828461090e565b600060208284031215610a4057610a40600080fd5b600061062c84846109a3565b60268152602081017f5061796d656e7453706c69747465723a206163636f756e7420686173206e6f2081527f7368617265730000000000000000000000000000000000000000000000000000602082015290505b60400190565b602080825281016103cf81610a4c565b602b8152602081017f5061796d656e7453706c69747465723a206163636f756e74206973206e6f742081527f647565207061796d656e7400000000000000000000000000000000000000000060208201529050610aa0565b602080825281016103cf81610ab6565b634e487b7160e01b600052601160045260246000fd5b60008219821115610b4757610b47610b1e565b500190565b60006103cf8261098f565b61091781610b4c565b604081016109318285610b57565b634e487b7160e01b600052603260045260246000fd5b80516103cf816109eb565b600060208284031215610ba457610ba4600080fd5b600061062c8484610b84565b601d8152602081017f416464726573733a20696e73756666696369656e742062616c616e6365000000815290505b60200190565b602080825281016103cf81610bb0565b603a8152602081017f416464726573733a20756e61626c6520746f2073656e642076616c75652c207281527f6563697069656e74206d6179206861766520726576657274656400000000000060208201529050610aa0565b602080825281016103cf81610bf4565b6000817fffffffffffffffffffffffffffffffffffffffffffffffffffffffffffffffff0483118215151615610c9457610c94610b1e565b500290565b634e487b7160e01b600052601260045260246000fd5b600082610cbe57610cbe610c99565b500490565b600082821015610cd557610cd5610b1e565b500390565b801515610947565b80516103cf81610cda565b600060208284031215610d0257610d02600080fd5b600061062c8484610ce2565b602a8152602081017f5361666545524332303a204552433230206f7065726174696f6e20646964206e81527f6f7420737563636565640000000000000000000000000000000000000000000060208201529050610aa0565b602080825281016103cf81610d0e565b601d8152602081017f416464726573733a2063616c6c20746f206e6f6e2d636f6e747261637400000081529050610bde565b602080825281016103cf81610d76565b60005b83811015610dd3578181015183820152602001610dbb565b83811115610de2576000848401525b50505050565b6000610df2825190565b610e00818560208601610db8565b9290920192915050565b6103cf8183610de8565b6000610e1e825190565b808452602084019350610e35818560208601610db8565b601f01601f19169290920192915050565b602080825281016105638184610e1456fea2646970667358221220daf2af8a4697cefc905579bdc79ae69b9fb703aefa1378c273196a55bc7e293664736f6c63430008090033a2646970667358221220f68d9f2f3cbc07bf2f65a37f704e2b2378196fe89fca2fae3ffb987771a5dab364736f6c63430008090033","opcodes":"PUSH1 0x80 PUSH1 0x40 MSTORE CALLVALUE DUP1 ISZERO PUSH2 0x10 JUMPI PUSH1 0x0 DUP1 REVERT JUMPDEST POP PUSH1 0x40 MLOAD PUSH3 0x25B2 CODESIZE SUB DUP1 PUSH3 0x25B2 DUP4 CODECOPY DUP2 ADD PUSH1 0x40 DUP2 SWAP1 MSTORE PUSH2 0x31 SWAP2 PUSH2 0x115 JUMP JUMPDEST PUSH2 0x3A CALLER PUSH2 0x90 JUMP JUMPDEST PUSH1 0x3 DUP1 SLOAD PUSH1 0x1 PUSH1 0x1 PUSH1 0xA0 SHL SUB NOT AND PUSH1 0x1 PUSH1 0x1 PUSH1 0xA0 SHL SUB DUP4 AND OR SWAP1 SSTORE PUSH1 0x1 PUSH1 0x2 PUSH1 0x0 PUSH2 0x62 CALLER SWAP1 JUMP JUMPDEST PUSH1 0x1 PUSH1 0x1 PUSH1 0xA0 SHL SUB AND DUP2 MSTORE PUSH1 0x20 DUP2 ADD SWAP2 SWAP1 SWAP2 MSTORE PUSH1 0x40 ADD PUSH1 0x0 KECCAK256 DUP1 SLOAD PUSH1 0xFF NOT AND SWAP2 ISZERO ISZERO SWAP2 SWAP1 SWAP2 OR SWAP1 SSTORE POP PUSH2 0x13E JUMP JUMPDEST PUSH1 0x0 DUP1 SLOAD PUSH1 0x1 PUSH1 0x1 PUSH1 0xA0 SHL SUB DUP4 DUP2 AND PUSH1 0x1 PUSH1 0x1 PUSH1 0xA0 SHL SUB NOT DUP4 AND DUP2 OR DUP5 SSTORE PUSH1 0x40 MLOAD SWAP2 SWAP1 SWAP3 AND SWAP3 DUP4 SWAP2 PUSH32 0x8BE0079C531659141344CD1FD0A4F28419497F9722A3DAAFE3B4186F6B6457E0 SWAP2 SWAP1 LOG3 POP POP JUMP JUMPDEST PUSH1 0x0 PUSH1 0x1 PUSH1 0x1 PUSH1 0xA0 SHL SUB DUP3 AND JUMPDEST SWAP3 SWAP2 POP POP JUMP JUMPDEST PUSH2 0xFC DUP2 PUSH2 0xE0 JUMP JUMPDEST DUP2 EQ PUSH2 0x107 JUMPI PUSH1 0x0 DUP1 REVERT JUMPDEST POP JUMP JUMPDEST DUP1 MLOAD PUSH2 0xED DUP2 PUSH2 0xF3 JUMP JUMPDEST PUSH1 0x0 PUSH1 0x20 DUP3 DUP5 SUB SLT ISZERO PUSH2 0x12A JUMPI PUSH2 0x12A PUSH1 0x0 DUP1 REVERT JUMPDEST PUSH1 0x0 PUSH2 0x136 DUP5 DUP5 PUSH2 0x10A JUMP JUMPDEST SWAP5 SWAP4 POP POP POP POP JUMP JUMPDEST PUSH2 0x2464 DUP1 PUSH3 0x14E PUSH1 0x0 CODECOPY PUSH1 0x0 RETURN INVALID PUSH1 0x80 PUSH1 0x40 MSTORE CALLVALUE DUP1 ISZERO PUSH3 0x11 JUMPI PUSH1 0x0 DUP1 REVERT JUMPDEST POP PUSH1 0x4 CALLDATASIZE LT PUSH3 0xB0 JUMPI PUSH1 0x0 CALLDATALOAD PUSH1 0xE0 SHR DUP1 PUSH4 0x8DA5CB5B GT PUSH3 0x7F JUMPI DUP1 PUSH4 0xC3A2A93A GT PUSH3 0x62 JUMPI DUP1 PUSH4 0xC3A2A93A EQ PUSH3 0x144 JUMPI DUP1 PUSH4 0xD8936517 EQ PUSH3 0x15D JUMPI DUP1 PUSH4 0xF2FDE38B EQ PUSH3 0x174 JUMPI PUSH1 0x0 DUP1 REVERT JUMPDEST DUP1 PUSH4 0x8DA5CB5B EQ PUSH3 0x11B JUMPI DUP1 PUSH4 0xB91D3ACE EQ PUSH3 0x12D JUMPI PUSH1 0x0 DUP1 REVERT JUMPDEST DUP1 PUSH4 0xBB57DFD EQ PUSH3 0xB5 JUMPI DUP1 PUSH4 0xEF54579 EQ PUSH3 0xE4 JUMPI DUP1 PUSH4 0x715018A6 EQ PUSH3 0xF8 JUMPI DUP1 PUSH4 0x76427CD5 EQ PUSH3 0x104 JUMPI JUMPDEST PUSH1 0x0 DUP1 REVERT JUMPDEST PUSH3 0xCC PUSH3 0xC6 CALLDATASIZE PUSH1 0x4 PUSH3 0x63E JUMP JUMPDEST PUSH3 0x18B JUMP JUMPDEST PUSH1 0x40 MLOAD PUSH3 0xDB SWAP2 SWAP1 PUSH3 0x68E JUMP JUMPDEST PUSH1 0x40 MLOAD DUP1 SWAP2 SUB SWAP1 RETURN JUMPDEST PUSH1 0x3 SLOAD PUSH3 0xCC SWAP1 PUSH1 0x1 PUSH1 0x1 PUSH1 0xA0 SHL SUB AND DUP2 JUMP JUMPDEST PUSH3 0x102 PUSH3 0x1B6 JUMP JUMPDEST STOP JUMPDEST PUSH3 0x102 PUSH3 0x115 CALLDATASIZE PUSH1 0x4 PUSH3 0x859 JUMP JUMPDEST PUSH3 0x1CE JUMP JUMPDEST PUSH1 0x0 SLOAD PUSH1 0x1 PUSH1 0x1 PUSH1 0xA0 SHL SUB AND PUSH3 0xCC JUMP JUMPDEST PUSH3 0x102 PUSH3 0x13E CALLDATASIZE PUSH1 0x4 PUSH3 0x99F JUMP JUMPDEST PUSH3 0x3A3 JUMP JUMPDEST PUSH3 0x14E PUSH3 0x3EF JUMP JUMPDEST PUSH1 0x40 MLOAD PUSH3 0xDB SWAP2 SWAP1 PUSH3 0xA29 JUMP JUMPDEST PUSH3 0xCC PUSH3 0x16E CALLDATASIZE PUSH1 0x4 PUSH3 0xA43 JUMP JUMPDEST PUSH3 0x453 JUMP JUMPDEST PUSH3 0x102 PUSH3 0x185 CALLDATASIZE PUSH1 0x4 PUSH3 0x99F JUMP JUMPDEST PUSH3 0x4D0 JUMP JUMPDEST PUSH1 0x1 DUP2 DUP2 SLOAD DUP2 LT PUSH3 0x19C JUMPI PUSH1 0x0 DUP1 REVERT JUMPDEST PUSH1 0x0 SWAP2 DUP3 MSTORE PUSH1 0x20 SWAP1 SWAP2 KECCAK256 ADD SLOAD PUSH1 0x1 PUSH1 0x1 PUSH1 0xA0 SHL SUB AND SWAP1 POP DUP2 JUMP JUMPDEST PUSH3 0x1C0 PUSH3 0x511 JUMP JUMPDEST PUSH3 0x1CC PUSH1 0x0 PUSH3 0x53E JUMP JUMPDEST JUMP JUMPDEST CALLER PUSH1 0x0 SWAP1 DUP2 MSTORE PUSH1 0x2 PUSH1 0x20 MSTORE PUSH1 0x40 SWAP1 KECCAK256 SLOAD PUSH1 0xFF AND PUSH3 0x209 JUMPI PUSH1 0x40 MLOAD PUSH3 0x461BCD PUSH1 0xE5 SHL DUP2 MSTORE PUSH1 0x4 ADD PUSH3 0x200 SWAP1 PUSH3 0xAF9 JUMP JUMPDEST PUSH1 0x40 MLOAD DUP1 SWAP2 SUB SWAP1 REVERT JUMPDEST PUSH1 0x3 SLOAD PUSH1 0x0 SWAP1 PUSH3 0x223 SWAP1 PUSH1 0x1 PUSH1 0x1 PUSH1 0xA0 SHL SUB AND PUSH3 0x5A6 JUMP JUMPDEST PUSH1 0x40 MLOAD PUSH32 0x474B000200000000000000000000000000000000000000000000000000000000 DUP2 MSTORE SWAP1 SWAP2 POP PUSH1 0x1 PUSH1 0x1 PUSH1 0xA0 SHL SUB DUP3 AND SWAP1 PUSH4 0x474B0002 SWAP1 PUSH3 0x27F SWAP1 DUP16 SWAP1 DUP16 SWAP1 DUP16 SWAP1 DUP16 SWAP1 DUP16 SWAP1 DUP16 SWAP1 DUP16 SWAP1 DUP16 SWAP1 DUP15 SWAP1 DUP15 SWAP1 PUSH1 0x4 ADD PUSH3 0xCF7 JUMP JUMPDEST PUSH1 0x0 PUSH1 0x40 MLOAD DUP1 DUP4 SUB DUP2 PUSH1 0x0 DUP8 DUP1 EXTCODESIZE ISZERO DUP1 ISZERO PUSH3 0x29A JUMPI PUSH1 0x0 DUP1 REVERT JUMPDEST POP GAS CALL ISZERO DUP1 ISZERO PUSH3 0x2AF JUMPI RETURNDATASIZE PUSH1 0x0 DUP1 RETURNDATACOPY RETURNDATASIZE PUSH1 0x0 REVERT JUMPDEST POP POP PUSH1 0x40 MLOAD PUSH32 0xF2FDE38B00000000000000000000000000000000000000000000000000000000 DUP2 MSTORE PUSH1 0x1 PUSH1 0x1 PUSH1 0xA0 SHL SUB DUP5 AND SWAP3 POP PUSH4 0xF2FDE38B SWAP2 POP PUSH3 0x2FA SWAP1 DUP8 SWAP1 PUSH1 0x4 ADD PUSH3 0x68E JUMP JUMPDEST PUSH1 0x0 PUSH1 0x40 MLOAD DUP1 DUP4 SUB DUP2 PUSH1 0x0 DUP8 DUP1 EXTCODESIZE ISZERO DUP1 ISZERO PUSH3 0x315 JUMPI PUSH1 0x0 DUP1 REVERT JUMPDEST POP GAS CALL ISZERO DUP1 ISZERO PUSH3 0x32A JUMPI RETURNDATASIZE PUSH1 0x0 DUP1 RETURNDATACOPY RETURNDATASIZE PUSH1 0x0 REVERT JUMPDEST POP POP PUSH1 0x1 DUP1 SLOAD DUP1 DUP3 ADD DUP3 SSTORE PUSH1 0x0 SWAP2 SWAP1 SWAP2 MSTORE PUSH32 0xB10E2D527612073B26EECDFD717E6A320CF44B4AFAC2B0732D9FCBE2B7FA0CF6 ADD DUP1 SLOAD PUSH32 0xFFFFFFFFFFFFFFFFFFFFFFFF0000000000000000000000000000000000000000 AND PUSH1 0x1 PUSH1 0x1 PUSH1 0xA0 SHL SUB SWAP5 SWAP1 SWAP5 AND SWAP4 SWAP1 SWAP4 OR SWAP1 SWAP3 SSTORE POP POP POP POP POP POP POP POP POP POP POP POP POP JUMP JUMPDEST PUSH3 0x3AD PUSH3 0x511 JUMP JUMPDEST PUSH1 0x1 PUSH1 0x1 PUSH1 0xA0 SHL SUB AND PUSH1 0x0 SWAP1 DUP2 MSTORE PUSH1 0x2 PUSH1 0x20 MSTORE PUSH1 0x40 SWAP1 KECCAK256 DUP1 SLOAD PUSH32 0xFFFFFFFFFFFFFFFFFFFFFFFFFFFFFFFFFFFFFFFFFFFFFFFFFFFFFFFFFFFFFF00 AND PUSH1 0x1 OR SWAP1 SSTORE JUMP JUMPDEST PUSH1 0x60 PUSH1 0x1 DUP1 SLOAD DUP1 PUSH1 0x20 MUL PUSH1 0x20 ADD PUSH1 0x40 MLOAD SWAP1 DUP2 ADD PUSH1 0x40 MSTORE DUP1 SWAP3 SWAP2 SWAP1 DUP2 DUP2 MSTORE PUSH1 0x20 ADD DUP3 DUP1 SLOAD DUP1 ISZERO PUSH3 0x449 JUMPI PUSH1 0x20 MUL DUP3 ADD SWAP2 SWAP1 PUSH1 0x0 MSTORE PUSH1 0x20 PUSH1 0x0 KECCAK256 SWAP1 JUMPDEST DUP2 SLOAD PUSH1 0x1 PUSH1 0x1 PUSH1 0xA0 SHL SUB AND DUP2 MSTORE PUSH1 0x1 SWAP1 SWAP2 ADD SWAP1 PUSH1 0x20 ADD DUP1 DUP4 GT PUSH3 0x42A JUMPI JUMPDEST POP POP POP POP POP SWAP1 POP SWAP1 JUMP JUMPDEST CALLER PUSH1 0x0 SWAP1 DUP2 MSTORE PUSH1 0x2 PUSH1 0x20 MSTORE PUSH1 0x40 DUP2 KECCAK256 SLOAD PUSH1 0xFF AND PUSH3 0x485 JUMPI PUSH1 0x40 MLOAD PUSH3 0x461BCD PUSH1 0xE5 SHL DUP2 MSTORE PUSH1 0x4 ADD PUSH3 0x200 SWAP1 PUSH3 0xAF9 JUMP JUMPDEST PUSH1 0x0 DUP6 DUP6 DUP6 DUP6 PUSH1 0x40 MLOAD PUSH3 0x499 SWAP1 PUSH3 0x60F JUMP JUMPDEST PUSH3 0x4A8 SWAP5 SWAP4 SWAP3 SWAP2 SWAP1 PUSH3 0xDED JUMP JUMPDEST PUSH1 0x40 MLOAD DUP1 SWAP2 SUB SWAP1 PUSH1 0x0 CREATE DUP1 ISZERO DUP1 ISZERO PUSH3 0x4C5 JUMPI RETURNDATASIZE PUSH1 0x0 DUP1 RETURNDATACOPY RETURNDATASIZE PUSH1 0x0 REVERT JUMPDEST POP SWAP7 SWAP6 POP POP POP POP POP POP JUMP JUMPDEST PUSH3 0x4DA PUSH3 0x511 JUMP JUMPDEST PUSH1 0x1 PUSH1 0x1 PUSH1 0xA0 SHL SUB DUP2 AND PUSH3 0x503 JUMPI PUSH1 0x40 MLOAD PUSH3 0x461BCD PUSH1 0xE5 SHL DUP2 MSTORE PUSH1 0x4 ADD PUSH3 0x200 SWAP1 PUSH3 0xE22 JUMP JUMPDEST PUSH3 0x50E DUP2 PUSH3 0x53E JUMP JUMPDEST POP JUMP JUMPDEST PUSH1 0x0 SLOAD PUSH1 0x1 PUSH1 0x1 PUSH1 0xA0 SHL SUB AND CALLER EQ PUSH3 0x1CC JUMPI PUSH1 0x40 MLOAD PUSH3 0x461BCD PUSH1 0xE5 SHL DUP2 MSTORE PUSH1 0x4 ADD PUSH3 0x200 SWAP1 PUSH3 0xEB5 JUMP JUMPDEST PUSH1 0x0 DUP1 SLOAD PUSH1 0x1 PUSH1 0x1 PUSH1 0xA0 SHL SUB DUP4 DUP2 AND PUSH32 0xFFFFFFFFFFFFFFFFFFFFFFFF0000000000000000000000000000000000000000 DUP4 AND DUP2 OR DUP5 SSTORE PUSH1 0x40 MLOAD SWAP2 SWAP1 SWAP3 AND SWAP3 DUP4 SWAP2 PUSH32 0x8BE0079C531659141344CD1FD0A4F28419497F9722A3DAAFE3B4186F6B6457E0 SWAP2 SWAP1 LOG3 POP POP JUMP JUMPDEST PUSH1 0x0 DUP1 DUP3 PUSH1 0x60 SHL SWAP1 POP PUSH1 0x40 MLOAD PUSH32 0x3D602D80600A3D3981F3363D3D373D3D3D363D73000000000000000000000000 DUP2 MSTORE DUP2 PUSH1 0x14 DUP3 ADD MSTORE PUSH32 0x5AF43D82803E903D91602B57FD5BF30000000000000000000000000000000000 PUSH1 0x28 DUP3 ADD MSTORE PUSH1 0x37 DUP2 PUSH1 0x0 CREATE SWAP5 SWAP4 POP POP POP POP JUMP JUMPDEST PUSH2 0x1567 DUP1 PUSH3 0xEC8 DUP4 CODECOPY ADD SWAP1 JUMP JUMPDEST DUP1 JUMPDEST DUP2 EQ PUSH3 0x50E JUMPI PUSH1 0x0 DUP1 REVERT JUMPDEST DUP1 CALLDATALOAD PUSH3 0x638 DUP2 PUSH3 0x61D JUMP JUMPDEST SWAP3 SWAP2 POP POP JUMP JUMPDEST PUSH1 0x0 PUSH1 0x20 DUP3 DUP5 SUB SLT ISZERO PUSH3 0x655 JUMPI PUSH3 0x655 PUSH1 0x0 DUP1 REVERT JUMPDEST PUSH1 0x0 PUSH3 0x663 DUP5 DUP5 PUSH3 0x62B JUMP JUMPDEST SWAP5 SWAP4 POP POP POP POP JUMP JUMPDEST PUSH1 0x0 PUSH1 0x1 PUSH1 0x1 PUSH1 0xA0 SHL SUB DUP3 AND PUSH3 0x638 JUMP JUMPDEST PUSH3 0x688 DUP2 PUSH3 0x66B JUMP JUMPDEST DUP3 MSTORE POP POP JUMP JUMPDEST PUSH1 0x20 DUP2 ADD PUSH3 0x638 DUP3 DUP5 PUSH3 0x67D JUMP JUMPDEST PUSH1 0x0 DUP1 DUP4 PUSH1 0x1F DUP5 ADD SLT PUSH3 0x6B5 JUMPI PUSH3 0x6B5 PUSH1 0x0 DUP1 REVERT JUMPDEST POP DUP2 CALLDATALOAD PUSH8 0xFFFFFFFFFFFFFFFF DUP2 GT ISZERO PUSH3 0x6D2 JUMPI PUSH3 0x6D2 PUSH1 0x0 DUP1 REVERT JUMPDEST PUSH1 0x20 DUP4 ADD SWAP2 POP DUP4 PUSH1 0x20 DUP3 MUL DUP4 ADD GT ISZERO PUSH3 0x6EF JUMPI PUSH3 0x6EF PUSH1 0x0 DUP1 REVERT JUMPDEST SWAP3 POP SWAP3 SWAP1 POP JUMP JUMPDEST PUSH32 0x4E487B7100000000000000000000000000000000000000000000000000000000 PUSH1 0x0 MSTORE PUSH1 0x41 PUSH1 0x4 MSTORE PUSH1 0x24 PUSH1 0x0 REVERT JUMPDEST PUSH1 0x1F NOT PUSH1 0x1F DUP4 ADD AND DUP2 ADD DUP2 DUP2 LT PUSH8 0xFFFFFFFFFFFFFFFF DUP3 GT OR ISZERO PUSH3 0x74E JUMPI PUSH3 0x74E PUSH3 0x6F6 JUMP JUMPDEST PUSH1 0x40 MSTORE POP POP JUMP JUMPDEST PUSH1 0x0 PUSH3 0x761 PUSH1 0x40 MLOAD SWAP1 JUMP JUMPDEST SWAP1 POP PUSH3 0x76F DUP3 DUP3 PUSH3 0x725 JUMP JUMPDEST SWAP2 SWAP1 POP JUMP JUMPDEST PUSH1 0x0 PUSH8 0xFFFFFFFFFFFFFFFF DUP3 GT ISZERO PUSH3 0x791 JUMPI PUSH3 0x791 PUSH3 0x6F6 JUMP JUMPDEST PUSH1 0x1F NOT PUSH1 0x1F DUP4 ADD AND PUSH1 0x20 ADD SWAP3 SWAP2 POP POP JUMP JUMPDEST DUP3 DUP2 DUP4 CALLDATACOPY POP PUSH1 0x0 SWAP2 ADD MSTORE JUMP JUMPDEST PUSH1 0x0 PUSH3 0x7C5 PUSH3 0x7BF DUP5 PUSH3 0x774 JUMP JUMPDEST PUSH3 0x755 JUMP JUMPDEST SWAP1 POP DUP3 DUP2 MSTORE PUSH1 0x20 DUP2 ADD DUP5 DUP5 DUP5 ADD GT ISZERO PUSH3 0x7E2 JUMPI PUSH3 0x7E2 PUSH1 0x0 DUP1 REVERT JUMPDEST PUSH3 0x7EF DUP5 DUP3 DUP6 PUSH3 0x7A2 JUMP JUMPDEST POP SWAP4 SWAP3 POP POP POP JUMP JUMPDEST PUSH1 0x0 DUP3 PUSH1 0x1F DUP4 ADD SLT PUSH3 0x80D JUMPI PUSH3 0x80D PUSH1 0x0 DUP1 REVERT JUMPDEST DUP2 CALLDATALOAD PUSH3 0x663 DUP5 DUP3 PUSH1 0x20 DUP7 ADD PUSH3 0x7AE JUMP JUMPDEST PUSH3 0x61F DUP2 PUSH3 0x66B JUMP JUMPDEST DUP1 CALLDATALOAD PUSH3 0x638 DUP2 PUSH3 0x81F JUMP JUMPDEST PUSH12 0xFFFFFFFFFFFFFFFFFFFFFFFF DUP2 AND PUSH3 0x61F JUMP JUMPDEST DUP1 CALLDATALOAD PUSH3 0x638 DUP2 PUSH3 0x837 JUMP JUMPDEST PUSH1 0x0 DUP1 PUSH1 0x0 DUP1 PUSH1 0x0 DUP1 PUSH1 0x0 DUP1 PUSH1 0x0 DUP1 PUSH1 0x0 PUSH2 0x100 DUP13 DUP15 SUB SLT ISZERO PUSH3 0x880 JUMPI PUSH3 0x880 PUSH1 0x0 DUP1 REVERT JUMPDEST DUP12 CALLDATALOAD PUSH8 0xFFFFFFFFFFFFFFFF DUP2 GT ISZERO PUSH3 0x89C JUMPI PUSH3 0x89C PUSH1 0x0 DUP1 REVERT JUMPDEST PUSH3 0x8AA DUP15 DUP3 DUP16 ADD PUSH3 0x69E JUMP JUMPDEST SWAP12 POP SWAP12 POP POP PUSH1 0x20 DUP13 ADD CALLDATALOAD PUSH8 0xFFFFFFFFFFFFFFFF DUP2 GT ISZERO PUSH3 0x8CE JUMPI PUSH3 0x8CE PUSH1 0x0 DUP1 REVERT JUMPDEST PUSH3 0x8DC DUP15 DUP3 DUP16 ADD PUSH3 0x69E JUMP JUMPDEST SWAP10 POP SWAP10 POP POP PUSH1 0x40 DUP13 ADD CALLDATALOAD PUSH8 0xFFFFFFFFFFFFFFFF DUP2 GT ISZERO PUSH3 0x900 JUMPI PUSH3 0x900 PUSH1 0x0 DUP1 REVERT JUMPDEST PUSH3 0x90E DUP15 DUP3 DUP16 ADD PUSH3 0x69E JUMP JUMPDEST SWAP8 POP SWAP8 POP POP PUSH1 0x60 DUP13 ADD CALLDATALOAD PUSH8 0xFFFFFFFFFFFFFFFF DUP2 GT ISZERO PUSH3 0x932 JUMPI PUSH3 0x932 PUSH1 0x0 DUP1 REVERT JUMPDEST PUSH3 0x940 DUP15 DUP3 DUP16 ADD PUSH3 0x7F7 JUMP JUMPDEST SWAP6 POP POP PUSH1 0x80 PUSH3 0x953 DUP15 DUP3 DUP16 ADD PUSH3 0x62B JUMP JUMPDEST SWAP5 POP POP PUSH1 0xA0 PUSH3 0x966 DUP15 DUP3 DUP16 ADD PUSH3 0x82A JUMP JUMPDEST SWAP4 POP POP PUSH1 0xC0 PUSH3 0x979 DUP15 DUP3 DUP16 ADD PUSH3 0x82A JUMP JUMPDEST SWAP3 POP POP PUSH1 0xE0 PUSH3 0x98C DUP15 DUP3 DUP16 ADD PUSH3 0x84C JUMP JUMPDEST SWAP2 POP POP SWAP3 SWAP6 SWAP9 SWAP12 POP SWAP3 SWAP6 SWAP9 SWAP12 SWAP1 SWAP4 SWAP7 SWAP10 POP JUMP JUMPDEST PUSH1 0x0 PUSH1 0x20 DUP3 DUP5 SUB SLT ISZERO PUSH3 0x9B6 JUMPI PUSH3 0x9B6 PUSH1 0x0 DUP1 REVERT JUMPDEST PUSH1 0x0 PUSH3 0x663 DUP5 DUP5 PUSH3 0x82A JUMP JUMPDEST PUSH3 0x9D0 DUP3 DUP3 PUSH3 0x67D JUMP JUMPDEST POP PUSH1 0x20 ADD SWAP1 JUMP JUMPDEST PUSH1 0x20 ADD SWAP1 JUMP JUMPDEST PUSH1 0x0 PUSH3 0x9E8 DUP3 MLOAD SWAP1 JUMP JUMPDEST DUP1 DUP5 MSTORE PUSH1 0x20 SWAP4 DUP5 ADD SWAP4 DUP4 ADD PUSH1 0x0 JUMPDEST DUP3 DUP2 LT ISZERO PUSH3 0xA1F JUMPI DUP2 MLOAD PUSH3 0xA0D DUP8 DUP3 PUSH3 0x9C4 JUMP JUMPDEST SWAP7 POP POP PUSH1 0x20 DUP3 ADD SWAP2 POP PUSH1 0x1 ADD PUSH3 0x9F6 JUMP JUMPDEST POP SWAP4 SWAP5 SWAP4 POP POP POP POP JUMP JUMPDEST PUSH1 0x20 DUP1 DUP3 MSTORE DUP2 ADD PUSH3 0xA3C DUP2 DUP5 PUSH3 0x9DD JUMP JUMPDEST SWAP4 SWAP3 POP POP POP JUMP JUMPDEST PUSH1 0x0 DUP1 PUSH1 0x0 DUP1 PUSH1 0x40 DUP6 DUP8 SUB SLT ISZERO PUSH3 0xA5E JUMPI PUSH3 0xA5E PUSH1 0x0 DUP1 REVERT JUMPDEST DUP5 CALLDATALOAD PUSH8 0xFFFFFFFFFFFFFFFF DUP2 GT ISZERO PUSH3 0xA7A JUMPI PUSH3 0xA7A PUSH1 0x0 DUP1 REVERT JUMPDEST PUSH3 0xA88 DUP8 DUP3 DUP9 ADD PUSH3 0x69E JUMP JUMPDEST SWAP5 POP SWAP5 POP POP PUSH1 0x20 DUP6 ADD CALLDATALOAD PUSH8 0xFFFFFFFFFFFFFFFF DUP2 GT ISZERO PUSH3 0xAAC JUMPI PUSH3 0xAAC PUSH1 0x0 DUP1 REVERT JUMPDEST PUSH3 0xABA DUP8 DUP3 DUP9 ADD PUSH3 0x69E JUMP JUMPDEST SWAP6 SWAP9 SWAP5 SWAP8 POP SWAP6 POP POP POP POP JUMP JUMPDEST PUSH1 0x11 DUP2 MSTORE PUSH1 0x20 DUP2 ADD PUSH32 0x5065726D697373696F6E2044656E696564000000000000000000000000000000 DUP2 MSTORE SWAP1 POP PUSH3 0x9D7 JUMP JUMPDEST PUSH1 0x20 DUP1 DUP3 MSTORE DUP2 ADD PUSH3 0x638 DUP2 PUSH3 0xAC6 JUMP JUMPDEST DUP2 DUP4 MSTORE PUSH1 0x20 DUP4 ADD SWAP3 POP PUSH3 0xB21 DUP3 DUP5 DUP4 PUSH3 0x7A2 JUMP JUMPDEST POP PUSH1 0x1F ADD PUSH1 0x1F NOT AND ADD SWAP1 JUMP JUMPDEST PUSH1 0x0 PUSH3 0x663 DUP5 DUP5 DUP5 PUSH3 0xB0B JUMP JUMPDEST PUSH1 0x0 DUP1 DUP4 CALLDATALOAD PUSH32 0xFFFFFFFFFFFFFFFFFFFFFFFFFFFFFFFFFFFFFFFFFFFFFFFFFFFFFFFFFFFFFFE1 CALLDATASIZE DUP6 SWAP1 SUB ADD DUP2 SLT PUSH3 0xB77 JUMPI PUSH3 0xB77 PUSH1 0x0 DUP1 REVERT JUMPDEST DUP4 ADD PUSH1 0x20 DUP2 ADD SWAP3 POP CALLDATALOAD SWAP1 POP PUSH8 0xFFFFFFFFFFFFFFFF DUP2 GT ISZERO PUSH3 0xB9C JUMPI PUSH3 0xB9C PUSH1 0x0 DUP1 REVERT JUMPDEST CALLDATASIZE DUP2 SWAP1 SUB DUP4 SGT ISZERO PUSH3 0x6EF JUMPI PUSH3 0x6EF PUSH1 0x0 DUP1 REVERT JUMPDEST DUP2 DUP4 MSTORE PUSH1 0x20 DUP4 ADD SWAP3 POP PUSH1 0x0 DUP4 PUSH1 0x20 DUP5 MUL DUP2 ADD DUP4 DUP1 PUSH1 0x0 JUMPDEST DUP8 DUP2 LT ISZERO PUSH3 0xC10 JUMPI DUP5 DUP5 SUB DUP10 MSTORE PUSH3 0xBE2 DUP3 DUP5 PUSH3 0xB3C JUMP JUMPDEST PUSH3 0xBEF DUP7 DUP3 DUP5 PUSH3 0xB2D JUMP JUMPDEST SWAP6 POP POP POP PUSH3 0xBFE DUP3 PUSH1 0x20 ADD SWAP1 JUMP JUMPDEST PUSH1 0x20 SWAP10 SWAP1 SWAP10 ADD SWAP9 SWAP2 POP PUSH1 0x1 ADD PUSH3 0xBC8 JUMP JUMPDEST POP SWAP2 SWAP8 SWAP7 POP POP POP POP POP POP POP JUMP JUMPDEST DUP2 DUP4 MSTORE PUSH1 0x20 DUP4 ADD SWAP3 POP PUSH1 0x0 PUSH32 0x7FFFFFFFFFFFFFFFFFFFFFFFFFFFFFFFFFFFFFFFFFFFFFFFFFFFFFFFFFFFFFF DUP4 GT ISZERO PUSH3 0xC5A JUMPI PUSH3 0xC5A PUSH1 0x0 DUP1 REVERT JUMPDEST PUSH1 0x20 DUP4 MUL SWAP3 POP PUSH3 0xC6D DUP4 DUP6 DUP5 PUSH3 0x7A2 JUMP JUMPDEST POP POP ADD SWAP1 JUMP JUMPDEST PUSH1 0x0 JUMPDEST DUP4 DUP2 LT ISZERO PUSH3 0xC90 JUMPI DUP2 DUP2 ADD MLOAD DUP4 DUP3 ADD MSTORE PUSH1 0x20 ADD PUSH3 0xC76 JUMP JUMPDEST DUP4 DUP2 GT ISZERO PUSH3 0xCA0 JUMPI PUSH1 0x0 DUP5 DUP5 ADD MSTORE JUMPDEST POP POP POP POP JUMP JUMPDEST PUSH1 0x0 PUSH3 0xCB1 DUP3 MLOAD SWAP1 JUMP JUMPDEST DUP1 DUP5 MSTORE PUSH1 0x20 DUP5 ADD SWAP4 POP PUSH3 0xCCA DUP2 DUP6 PUSH1 0x20 DUP7 ADD PUSH3 0xC73 JUMP JUMPDEST PUSH1 0x1F ADD PUSH1 0x1F NOT AND SWAP3 SWAP1 SWAP3 ADD SWAP3 SWAP2 POP POP JUMP JUMPDEST DUP1 PUSH3 0x688 JUMP JUMPDEST PUSH12 0xFFFFFFFFFFFFFFFFFFFFFFFF DUP2 AND PUSH3 0x688 JUMP JUMPDEST PUSH1 0xE0 DUP1 DUP3 MSTORE DUP2 ADD PUSH3 0xD0B DUP2 DUP13 DUP15 PUSH3 0xBB1 JUMP JUMPDEST SWAP1 POP DUP2 DUP2 SUB PUSH1 0x20 DUP4 ADD MSTORE PUSH3 0xD22 DUP2 DUP11 DUP13 PUSH3 0xC1D JUMP JUMPDEST SWAP1 POP DUP2 DUP2 SUB PUSH1 0x40 DUP4 ADD MSTORE PUSH3 0xD39 DUP2 DUP9 DUP11 PUSH3 0xC1D JUMP JUMPDEST SWAP1 POP DUP2 DUP2 SUB PUSH1 0x60 DUP4 ADD MSTORE PUSH3 0xD4F DUP2 DUP8 PUSH3 0xCA6 JUMP JUMPDEST SWAP1 POP PUSH3 0xD60 PUSH1 0x80 DUP4 ADD DUP7 PUSH3 0xCDB JUMP JUMPDEST PUSH3 0xD6F PUSH1 0xA0 DUP4 ADD DUP6 PUSH3 0x67D JUMP JUMPDEST PUSH3 0xD7E PUSH1 0xC0 DUP4 ADD DUP5 PUSH3 0xCE2 JUMP JUMPDEST SWAP12 SWAP11 POP POP POP POP POP POP POP POP POP POP POP JUMP JUMPDEST POP PUSH1 0x0 PUSH3 0x638 PUSH1 0x20 DUP4 ADD DUP4 PUSH3 0x82A JUMP JUMPDEST DUP2 DUP4 MSTORE PUSH1 0x20 DUP4 ADD SWAP3 POP PUSH1 0x0 DUP2 DUP1 PUSH1 0x0 JUMPDEST DUP6 DUP2 LT ISZERO PUSH3 0xDE2 JUMPI PUSH3 0xDC4 DUP3 DUP5 PUSH3 0xD8D JUMP JUMPDEST PUSH3 0xDD0 DUP9 DUP3 PUSH3 0x9C4 JUMP JUMPDEST SWAP8 POP POP PUSH1 0x20 DUP3 ADD SWAP2 POP PUSH1 0x1 ADD PUSH3 0xDAF JUMP JUMPDEST POP SWAP5 SWAP6 SWAP5 POP POP POP POP POP JUMP JUMPDEST PUSH1 0x40 DUP1 DUP3 MSTORE DUP2 ADD PUSH3 0xE01 DUP2 DUP7 DUP9 PUSH3 0xD9F JUMP JUMPDEST SWAP1 POP DUP2 DUP2 SUB PUSH1 0x20 DUP4 ADD MSTORE PUSH3 0xE18 DUP2 DUP5 DUP7 PUSH3 0xC1D JUMP JUMPDEST SWAP7 SWAP6 POP POP POP POP POP POP JUMP JUMPDEST PUSH1 0x20 DUP1 DUP3 MSTORE DUP2 ADD PUSH3 0x638 DUP2 PUSH1 0x26 DUP2 MSTORE PUSH32 0x4F776E61626C653A206E6577206F776E657220697320746865207A65726F2061 PUSH1 0x20 DUP3 ADD MSTORE PUSH32 0x6464726573730000000000000000000000000000000000000000000000000000 PUSH1 0x40 DUP3 ADD MSTORE PUSH1 0x60 ADD SWAP1 JUMP JUMPDEST PUSH1 0x20 DUP1 DUP3 MSTORE PUSH32 0x4F776E61626C653A2063616C6C6572206973206E6F7420746865206F776E6572 SWAP2 ADD SWAP1 DUP2 MSTORE PUSH3 0x9D7 JUMP JUMPDEST PUSH1 0x20 DUP1 DUP3 MSTORE DUP2 ADD PUSH3 0x638 DUP2 PUSH3 0xE84 JUMP INVALID PUSH1 0x80 PUSH1 0x40 MSTORE PUSH1 0x40 MLOAD PUSH3 0x1567 CODESIZE SUB DUP1 PUSH3 0x1567 DUP4 CODECOPY DUP2 ADD PUSH1 0x40 DUP2 SWAP1 MSTORE PUSH3 0x26 SWAP2 PUSH3 0x40C JUMP JUMPDEST DUP1 MLOAD DUP3 MLOAD EQ PUSH3 0x53 JUMPI PUSH1 0x40 MLOAD PUSH3 0x461BCD PUSH1 0xE5 SHL DUP2 MSTORE PUSH1 0x4 ADD PUSH3 0x4A SWAP1 PUSH3 0x4D7 JUMP JUMPDEST PUSH1 0x40 MLOAD DUP1 SWAP2 SUB SWAP1 REVERT JUMPDEST PUSH1 0x0 DUP3 MLOAD GT PUSH3 0x77 JUMPI PUSH1 0x40 MLOAD PUSH3 0x461BCD PUSH1 0xE5 SHL DUP2 MSTORE PUSH1 0x4 ADD PUSH3 0x4A SWAP1 PUSH3 0x51D JUMP JUMPDEST PUSH1 0x0 JUMPDEST DUP3 MLOAD DUP2 LT ISZERO PUSH3 0xE3 JUMPI PUSH3 0xCE DUP4 DUP3 DUP2 MLOAD DUP2 LT PUSH3 0x9D JUMPI PUSH3 0x9D PUSH3 0x52F JUMP JUMPDEST PUSH1 0x20 MUL PUSH1 0x20 ADD ADD MLOAD DUP4 DUP4 DUP2 MLOAD DUP2 LT PUSH3 0xBA JUMPI PUSH3 0xBA PUSH3 0x52F JUMP JUMPDEST PUSH1 0x20 MUL PUSH1 0x20 ADD ADD MLOAD PUSH3 0xEC PUSH1 0x20 SHL PUSH1 0x20 SHR JUMP JUMPDEST DUP1 PUSH3 0xDA DUP2 PUSH3 0x55B JUMP JUMPDEST SWAP2 POP POP PUSH3 0x7A JUMP JUMPDEST POP POP POP PUSH3 0x6CA JUMP JUMPDEST PUSH1 0x1 PUSH1 0x1 PUSH1 0xA0 SHL SUB DUP3 AND PUSH3 0x115 JUMPI PUSH1 0x40 MLOAD PUSH3 0x461BCD PUSH1 0xE5 SHL DUP2 MSTORE PUSH1 0x4 ADD PUSH3 0x4A SWAP1 PUSH3 0x5C1 JUMP JUMPDEST PUSH1 0x0 DUP2 GT PUSH3 0x138 JUMPI PUSH1 0x40 MLOAD PUSH3 0x461BCD PUSH1 0xE5 SHL DUP2 MSTORE PUSH1 0x4 ADD PUSH3 0x4A SWAP1 PUSH3 0x606 JUMP JUMPDEST PUSH1 0x1 PUSH1 0x1 PUSH1 0xA0 SHL SUB DUP3 AND PUSH1 0x0 SWAP1 DUP2 MSTORE PUSH1 0x2 PUSH1 0x20 MSTORE PUSH1 0x40 SWAP1 KECCAK256 SLOAD ISZERO PUSH3 0x171 JUMPI PUSH1 0x40 MLOAD PUSH3 0x461BCD PUSH1 0xE5 SHL DUP2 MSTORE PUSH1 0x4 ADD PUSH3 0x4A SWAP1 PUSH3 0x65F JUMP JUMPDEST PUSH1 0x4 DUP1 SLOAD PUSH1 0x1 DUP2 ADD SWAP1 SWAP2 SSTORE PUSH32 0x8A35ACFBC15FF81A39AE7D344FD709F28E8600B4AA8C65C6B64BFE7FE36BD19B ADD DUP1 SLOAD PUSH1 0x1 PUSH1 0x1 PUSH1 0xA0 SHL SUB NOT AND PUSH1 0x1 PUSH1 0x1 PUSH1 0xA0 SHL SUB DUP5 AND SWAP1 DUP2 OR SWAP1 SWAP2 SSTORE PUSH1 0x0 SWAP1 DUP2 MSTORE PUSH1 0x2 PUSH1 0x20 MSTORE PUSH1 0x40 DUP2 KECCAK256 DUP3 SWAP1 SSTORE SLOAD PUSH3 0x1D9 SWAP1 DUP3 SWAP1 PUSH3 0x671 JUMP JUMPDEST PUSH1 0x0 SSTORE PUSH1 0x40 MLOAD PUSH32 0x40C340F65E17194D14DDDDB073D3C9F888E3CB52B5AAE0C6C7706B4FBC905FAC SWAP1 PUSH3 0x210 SWAP1 DUP5 SWAP1 DUP5 SWAP1 PUSH3 0x6A4 JUMP JUMPDEST PUSH1 0x40 MLOAD DUP1 SWAP2 SUB SWAP1 LOG1 POP POP JUMP JUMPDEST PUSH4 0x4E487B71 PUSH1 0xE0 SHL PUSH1 0x0 MSTORE PUSH1 0x41 PUSH1 0x4 MSTORE PUSH1 0x24 PUSH1 0x0 REVERT JUMPDEST PUSH1 0x1F NOT PUSH1 0x1F DUP4 ADD AND DUP2 ADD PUSH1 0x1 PUSH1 0x1 PUSH1 0x40 SHL SUB DUP2 GT DUP3 DUP3 LT OR ISZERO PUSH3 0x25A JUMPI PUSH3 0x25A PUSH3 0x21C JUMP JUMPDEST PUSH1 0x40 MSTORE POP POP JUMP JUMPDEST PUSH1 0x0 PUSH3 0x26D PUSH1 0x40 MLOAD SWAP1 JUMP JUMPDEST SWAP1 POP PUSH3 0x27B DUP3 DUP3 PUSH3 0x232 JUMP JUMPDEST SWAP2 SWAP1 POP JUMP JUMPDEST PUSH1 0x0 PUSH1 0x1 PUSH1 0x1 PUSH1 0x40 SHL SUB DUP3 GT ISZERO PUSH3 0x29C JUMPI PUSH3 0x29C PUSH3 0x21C JUMP JUMPDEST POP PUSH1 0x20 SWAP1 DUP2 MUL ADD SWAP1 JUMP JUMPDEST PUSH1 0x0 PUSH1 0x1 PUSH1 0x1 PUSH1 0xA0 SHL SUB DUP3 AND JUMPDEST SWAP3 SWAP2 POP POP JUMP JUMPDEST PUSH3 0x2C4 DUP2 PUSH3 0x2A6 JUMP JUMPDEST DUP2 EQ PUSH3 0x2D0 JUMPI PUSH1 0x0 DUP1 REVERT JUMPDEST POP JUMP JUMPDEST DUP1 MLOAD PUSH3 0x2B3 DUP2 PUSH3 0x2B9 JUMP JUMPDEST PUSH1 0x0 PUSH3 0x2F7 PUSH3 0x2F1 DUP5 PUSH3 0x280 JUMP JUMPDEST PUSH3 0x261 JUMP JUMPDEST DUP4 DUP2 MSTORE SWAP1 POP PUSH1 0x20 DUP1 DUP3 ADD SWAP1 DUP5 MUL DUP4 ADD DUP6 DUP2 GT ISZERO PUSH3 0x318 JUMPI PUSH3 0x318 PUSH1 0x0 DUP1 REVERT JUMPDEST DUP4 JUMPDEST DUP2 DUP2 LT ISZERO PUSH3 0x33E JUMPI PUSH3 0x32F DUP8 DUP3 PUSH3 0x2D3 JUMP JUMPDEST DUP4 MSTORE PUSH1 0x20 SWAP3 DUP4 ADD SWAP3 ADD PUSH3 0x31A JUMP JUMPDEST POP POP POP SWAP4 SWAP3 POP POP POP JUMP JUMPDEST PUSH1 0x0 DUP3 PUSH1 0x1F DUP4 ADD SLT PUSH3 0x35E JUMPI PUSH3 0x35E PUSH1 0x0 DUP1 REVERT JUMPDEST DUP2 MLOAD PUSH3 0x370 DUP5 DUP3 PUSH1 0x20 DUP7 ADD PUSH3 0x2E0 JUMP JUMPDEST SWAP5 SWAP4 POP POP POP POP JUMP JUMPDEST DUP1 PUSH3 0x2C4 JUMP JUMPDEST DUP1 MLOAD PUSH3 0x2B3 DUP2 PUSH3 0x378 JUMP JUMPDEST PUSH1 0x0 PUSH3 0x39D PUSH3 0x2F1 DUP5 PUSH3 0x280 JUMP JUMPDEST DUP4 DUP2 MSTORE SWAP1 POP PUSH1 0x20 DUP1 DUP3 ADD SWAP1 DUP5 MUL DUP4 ADD DUP6 DUP2 GT ISZERO PUSH3 0x3BE JUMPI PUSH3 0x3BE PUSH1 0x0 DUP1 REVERT JUMPDEST DUP4 JUMPDEST DUP2 DUP2 LT ISZERO PUSH3 0x33E JUMPI PUSH3 0x3D5 DUP8 DUP3 PUSH3 0x37F JUMP JUMPDEST DUP4 MSTORE PUSH1 0x20 SWAP3 DUP4 ADD SWAP3 ADD PUSH3 0x3C0 JUMP JUMPDEST PUSH1 0x0 DUP3 PUSH1 0x1F DUP4 ADD SLT PUSH3 0x3FA JUMPI PUSH3 0x3FA PUSH1 0x0 DUP1 REVERT JUMPDEST DUP2 MLOAD PUSH3 0x370 DUP5 DUP3 PUSH1 0x20 DUP7 ADD PUSH3 0x38C JUMP JUMPDEST PUSH1 0x0 DUP1 PUSH1 0x40 DUP4 DUP6 SUB SLT ISZERO PUSH3 0x424 JUMPI PUSH3 0x424 PUSH1 0x0 DUP1 REVERT JUMPDEST DUP3 MLOAD PUSH1 0x1 PUSH1 0x1 PUSH1 0x40 SHL SUB DUP2 GT ISZERO PUSH3 0x43F JUMPI PUSH3 0x43F PUSH1 0x0 DUP1 REVERT JUMPDEST PUSH3 0x44D DUP6 DUP3 DUP7 ADD PUSH3 0x348 JUMP JUMPDEST PUSH1 0x20 DUP6 ADD MLOAD SWAP1 SWAP4 POP SWAP1 POP PUSH1 0x1 PUSH1 0x1 PUSH1 0x40 SHL SUB DUP2 GT ISZERO PUSH3 0x470 JUMPI PUSH3 0x470 PUSH1 0x0 DUP1 REVERT JUMPDEST PUSH3 0x47E DUP6 DUP3 DUP7 ADD PUSH3 0x3E4 JUMP JUMPDEST SWAP2 POP POP SWAP3 POP SWAP3 SWAP1 POP JUMP JUMPDEST PUSH1 0x32 DUP2 MSTORE PUSH1 0x20 DUP2 ADD PUSH32 0x5061796D656E7453706C69747465723A2070617965657320616E642073686172 DUP2 MSTORE PUSH18 0xCAE640D8CADCCEE8D040DAD2E6DAC2E8C6D PUSH1 0x73 SHL PUSH1 0x20 DUP3 ADD MSTORE SWAP1 POP JUMPDEST PUSH1 0x40 ADD SWAP1 JUMP JUMPDEST PUSH1 0x20 DUP1 DUP3 MSTORE DUP2 ADD PUSH3 0x2B3 DUP2 PUSH3 0x488 JUMP JUMPDEST PUSH1 0x1A DUP2 MSTORE PUSH1 0x20 DUP2 ADD PUSH32 0x5061796D656E7453706C69747465723A206E6F20706179656573000000000000 DUP2 MSTORE SWAP1 POP JUMPDEST PUSH1 0x20 ADD SWAP1 JUMP JUMPDEST PUSH1 0x20 DUP1 DUP3 MSTORE DUP2 ADD PUSH3 0x2B3 DUP2 PUSH3 0x4E9 JUMP JUMPDEST PUSH4 0x4E487B71 PUSH1 0xE0 SHL PUSH1 0x0 MSTORE PUSH1 0x32 PUSH1 0x4 MSTORE PUSH1 0x24 PUSH1 0x0 REVERT JUMPDEST PUSH4 0x4E487B71 PUSH1 0xE0 SHL PUSH1 0x0 MSTORE PUSH1 0x11 PUSH1 0x4 MSTORE PUSH1 0x24 PUSH1 0x0 REVERT JUMPDEST PUSH1 0x0 PUSH1 0x0 NOT DUP3 EQ ISZERO PUSH3 0x572 JUMPI PUSH3 0x572 PUSH3 0x545 JUMP JUMPDEST POP PUSH1 0x1 ADD SWAP1 JUMP JUMPDEST PUSH1 0x2C DUP2 MSTORE PUSH1 0x20 DUP2 ADD PUSH32 0x5061796D656E7453706C69747465723A206163636F756E742069732074686520 DUP2 MSTORE PUSH12 0x7A65726F2061646472657373 PUSH1 0xA0 SHL PUSH1 0x20 DUP3 ADD MSTORE SWAP1 POP PUSH3 0x4D1 JUMP JUMPDEST PUSH1 0x20 DUP1 DUP3 MSTORE DUP2 ADD PUSH3 0x2B3 DUP2 PUSH3 0x579 JUMP JUMPDEST PUSH1 0x1D DUP2 MSTORE PUSH1 0x20 DUP2 ADD PUSH32 0x5061796D656E7453706C69747465723A20736861726573206172652030000000 DUP2 MSTORE SWAP1 POP PUSH3 0x517 JUMP JUMPDEST PUSH1 0x20 DUP1 DUP3 MSTORE DUP2 ADD PUSH3 0x2B3 DUP2 PUSH3 0x5D3 JUMP JUMPDEST PUSH1 0x2B DUP2 MSTORE PUSH1 0x20 DUP2 ADD PUSH32 0x5061796D656E7453706C69747465723A206163636F756E7420616C7265616479 DUP2 MSTORE PUSH11 0x2068617320736861726573 PUSH1 0xA8 SHL PUSH1 0x20 DUP3 ADD MSTORE SWAP1 POP PUSH3 0x4D1 JUMP JUMPDEST PUSH1 0x20 DUP1 DUP3 MSTORE DUP2 ADD PUSH3 0x2B3 DUP2 PUSH3 0x618 JUMP JUMPDEST PUSH1 0x0 DUP3 NOT DUP3 GT ISZERO PUSH3 0x687 JUMPI PUSH3 0x687 PUSH3 0x545 JUMP JUMPDEST POP ADD SWAP1 JUMP JUMPDEST PUSH3 0x697 DUP2 PUSH3 0x2A6 JUMP JUMPDEST DUP3 MSTORE POP POP JUMP JUMPDEST DUP1 PUSH3 0x697 JUMP JUMPDEST PUSH1 0x40 DUP2 ADD PUSH3 0x6B4 DUP3 DUP6 PUSH3 0x68C JUMP JUMPDEST PUSH3 0x6C3 PUSH1 0x20 DUP4 ADD DUP5 PUSH3 0x69D JUMP JUMPDEST SWAP4 SWAP3 POP POP POP JUMP JUMPDEST PUSH2 0xE8D DUP1 PUSH3 0x6DA PUSH1 0x0 CODECOPY PUSH1 0x0 RETURN INVALID PUSH1 0x80 PUSH1 0x40 MSTORE PUSH1 0x4 CALLDATASIZE LT PUSH2 0xC0 JUMPI PUSH1 0x0 CALLDATALOAD PUSH1 0xE0 SHR DUP1 PUSH4 0x9852595C GT PUSH2 0x74 JUMPI DUP1 PUSH4 0xCE7C2AC2 GT PUSH2 0x4E JUMPI DUP1 PUSH4 0xCE7C2AC2 EQ PUSH2 0x231 JUMPI DUP1 PUSH4 0xD79779B2 EQ PUSH2 0x267 JUMPI DUP1 PUSH4 0xE33B7DE3 EQ PUSH2 0x29D JUMPI PUSH1 0x0 DUP1 REVERT JUMPDEST DUP1 PUSH4 0x9852595C EQ PUSH2 0x1BB JUMPI DUP1 PUSH4 0xA3F8EACE EQ PUSH2 0x1F1 JUMPI DUP1 PUSH4 0xC45AC050 EQ PUSH2 0x211 JUMPI PUSH1 0x0 DUP1 REVERT JUMPDEST DUP1 PUSH4 0x406072A9 GT PUSH2 0xA5 JUMPI DUP1 PUSH4 0x406072A9 EQ PUSH2 0x14E JUMPI DUP1 PUSH4 0x48B75044 EQ PUSH2 0x16E JUMPI DUP1 PUSH4 0x8B83209B EQ PUSH2 0x18E JUMPI PUSH1 0x0 DUP1 REVERT JUMPDEST DUP1 PUSH4 0x19165587 EQ PUSH2 0x105 JUMPI DUP1 PUSH4 0x3A98EF39 EQ PUSH2 0x127 JUMPI PUSH1 0x0 DUP1 REVERT JUMPDEST CALLDATASIZE PUSH2 0x100 JUMPI PUSH32 0x6EF95F06320E7A25A04A175CA677B7052BDD97131872C2192525A629F51BE770 CALLER CALLVALUE PUSH1 0x40 MLOAD PUSH2 0xF6 SWAP3 SWAP2 SWAP1 PUSH2 0x923 JUMP JUMPDEST PUSH1 0x40 MLOAD DUP1 SWAP2 SUB SWAP1 LOG1 STOP JUMPDEST PUSH1 0x0 DUP1 REVERT JUMPDEST CALLVALUE DUP1 ISZERO PUSH2 0x111 JUMPI PUSH1 0x0 DUP1 REVERT JUMPDEST POP PUSH2 0x125 PUSH2 0x120 CALLDATASIZE PUSH1 0x4 PUSH2 0x960 JUMP JUMPDEST PUSH2 0x2B2 JUMP JUMPDEST STOP JUMPDEST CALLVALUE DUP1 ISZERO PUSH2 0x133 JUMPI PUSH1 0x0 DUP1 REVERT JUMPDEST POP PUSH1 0x0 SLOAD JUMPDEST PUSH1 0x40 MLOAD PUSH2 0x145 SWAP2 SWAP1 PUSH2 0x981 JUMP JUMPDEST PUSH1 0x40 MLOAD DUP1 SWAP2 SUB SWAP1 RETURN JUMPDEST CALLVALUE DUP1 ISZERO PUSH2 0x15A JUMPI PUSH1 0x0 DUP1 REVERT JUMPDEST POP PUSH2 0x138 PUSH2 0x169 CALLDATASIZE PUSH1 0x4 PUSH2 0x9AE JUMP JUMPDEST PUSH2 0x3A8 JUMP JUMPDEST CALLVALUE DUP1 ISZERO PUSH2 0x17A JUMPI PUSH1 0x0 DUP1 REVERT JUMPDEST POP PUSH2 0x125 PUSH2 0x189 CALLDATASIZE PUSH1 0x4 PUSH2 0x9AE JUMP JUMPDEST PUSH2 0x3D5 JUMP JUMPDEST CALLVALUE DUP1 ISZERO PUSH2 0x19A JUMPI PUSH1 0x0 DUP1 REVERT JUMPDEST POP PUSH2 0x1AE PUSH2 0x1A9 CALLDATASIZE PUSH1 0x4 PUSH2 0x9FC JUMP JUMPDEST PUSH2 0x4F2 JUMP JUMPDEST PUSH1 0x40 MLOAD PUSH2 0x145 SWAP2 SWAP1 PUSH2 0xA1D JUMP JUMPDEST CALLVALUE DUP1 ISZERO PUSH2 0x1C7 JUMPI PUSH1 0x0 DUP1 REVERT JUMPDEST POP PUSH2 0x138 PUSH2 0x1D6 CALLDATASIZE PUSH1 0x4 PUSH2 0x960 JUMP JUMPDEST PUSH1 0x1 PUSH1 0x1 PUSH1 0xA0 SHL SUB AND PUSH1 0x0 SWAP1 DUP2 MSTORE PUSH1 0x3 PUSH1 0x20 MSTORE PUSH1 0x40 SWAP1 KECCAK256 SLOAD SWAP1 JUMP JUMPDEST CALLVALUE DUP1 ISZERO PUSH2 0x1FD JUMPI PUSH1 0x0 DUP1 REVERT JUMPDEST POP PUSH2 0x138 PUSH2 0x20C CALLDATASIZE PUSH1 0x4 PUSH2 0x960 JUMP JUMPDEST PUSH2 0x522 JUMP JUMPDEST CALLVALUE DUP1 ISZERO PUSH2 0x21D JUMPI PUSH1 0x0 DUP1 REVERT JUMPDEST POP PUSH2 0x138 PUSH2 0x22C CALLDATASIZE PUSH1 0x4 PUSH2 0x9AE JUMP JUMPDEST PUSH2 0x56A JUMP JUMPDEST CALLVALUE DUP1 ISZERO PUSH2 0x23D JUMPI PUSH1 0x0 DUP1 REVERT JUMPDEST POP PUSH2 0x138 PUSH2 0x24C CALLDATASIZE PUSH1 0x4 PUSH2 0x960 JUMP JUMPDEST PUSH1 0x1 PUSH1 0x1 PUSH1 0xA0 SHL SUB AND PUSH1 0x0 SWAP1 DUP2 MSTORE PUSH1 0x2 PUSH1 0x20 MSTORE PUSH1 0x40 SWAP1 KECCAK256 SLOAD SWAP1 JUMP JUMPDEST CALLVALUE DUP1 ISZERO PUSH2 0x273 JUMPI PUSH1 0x0 DUP1 REVERT JUMPDEST POP PUSH2 0x138 PUSH2 0x282 CALLDATASIZE PUSH1 0x4 PUSH2 0xA2B JUMP JUMPDEST PUSH1 0x1 PUSH1 0x1 PUSH1 0xA0 SHL SUB AND PUSH1 0x0 SWAP1 DUP2 MSTORE PUSH1 0x5 PUSH1 0x20 MSTORE PUSH1 0x40 SWAP1 KECCAK256 SLOAD SWAP1 JUMP JUMPDEST CALLVALUE DUP1 ISZERO PUSH2 0x2A9 JUMPI PUSH1 0x0 DUP1 REVERT JUMPDEST POP PUSH1 0x1 SLOAD PUSH2 0x138 JUMP JUMPDEST PUSH1 0x1 PUSH1 0x1 PUSH1 0xA0 SHL SUB DUP2 AND PUSH1 0x0 SWAP1 DUP2 MSTORE PUSH1 0x2 PUSH1 0x20 MSTORE PUSH1 0x40 SWAP1 KECCAK256 SLOAD PUSH2 0x2F0 JUMPI PUSH1 0x40 MLOAD PUSH3 0x461BCD PUSH1 0xE5 SHL DUP2 MSTORE PUSH1 0x4 ADD PUSH2 0x2E7 SWAP1 PUSH2 0xAA6 JUMP JUMPDEST PUSH1 0x40 MLOAD DUP1 SWAP2 SUB SWAP1 REVERT JUMPDEST PUSH1 0x0 PUSH2 0x2FB DUP3 PUSH2 0x522 JUMP JUMPDEST SWAP1 POP DUP1 PUSH2 0x31A JUMPI PUSH1 0x40 MLOAD PUSH3 0x461BCD PUSH1 0xE5 SHL DUP2 MSTORE PUSH1 0x4 ADD PUSH2 0x2E7 SWAP1 PUSH2 0xB0E JUMP JUMPDEST PUSH1 0x1 PUSH1 0x1 PUSH1 0xA0 SHL SUB DUP3 AND PUSH1 0x0 SWAP1 DUP2 MSTORE PUSH1 0x3 PUSH1 0x20 MSTORE PUSH1 0x40 DUP2 KECCAK256 DUP1 SLOAD DUP4 SWAP3 SWAP1 PUSH2 0x342 SWAP1 DUP5 SWAP1 PUSH2 0xB34 JUMP JUMPDEST SWAP3 POP POP DUP2 SWAP1 SSTORE POP DUP1 PUSH1 0x1 PUSH1 0x0 DUP3 DUP3 SLOAD PUSH2 0x35B SWAP2 SWAP1 PUSH2 0xB34 JUMP JUMPDEST SWAP1 SWAP2 SSTORE POP PUSH2 0x36B SWAP1 POP DUP3 DUP3 PUSH2 0x634 JUMP JUMPDEST PUSH32 0xDF20FD1E76BC69D672E4814FAFB2C449BBA3A5369D8359ADF9E05E6FDE87B056 DUP3 DUP3 PUSH1 0x40 MLOAD PUSH2 0x39C SWAP3 SWAP2 SWAP1 PUSH2 0xB60 JUMP JUMPDEST PUSH1 0x40 MLOAD DUP1 SWAP2 SUB SWAP1 LOG1 POP POP JUMP JUMPDEST PUSH1 0x1 PUSH1 0x1 PUSH1 0xA0 SHL SUB DUP1 DUP4 AND PUSH1 0x0 SWAP1 DUP2 MSTORE PUSH1 0x6 PUSH1 0x20 SWAP1 DUP2 MSTORE PUSH1 0x40 DUP1 DUP4 KECCAK256 SWAP4 DUP6 AND DUP4 MSTORE SWAP3 SWAP1 MSTORE KECCAK256 SLOAD JUMPDEST SWAP3 SWAP2 POP POP JUMP JUMPDEST PUSH1 0x1 PUSH1 0x1 PUSH1 0xA0 SHL SUB DUP2 AND PUSH1 0x0 SWAP1 DUP2 MSTORE PUSH1 0x2 PUSH1 0x20 MSTORE PUSH1 0x40 SWAP1 KECCAK256 SLOAD PUSH2 0x40A JUMPI PUSH1 0x40 MLOAD PUSH3 0x461BCD PUSH1 0xE5 SHL DUP2 MSTORE PUSH1 0x4 ADD PUSH2 0x2E7 SWAP1 PUSH2 0xAA6 JUMP JUMPDEST PUSH1 0x0 PUSH2 0x416 DUP4 DUP4 PUSH2 0x56A JUMP JUMPDEST SWAP1 POP DUP1 PUSH2 0x435 JUMPI PUSH1 0x40 MLOAD PUSH3 0x461BCD PUSH1 0xE5 SHL DUP2 MSTORE PUSH1 0x4 ADD PUSH2 0x2E7 SWAP1 PUSH2 0xB0E JUMP JUMPDEST PUSH1 0x1 PUSH1 0x1 PUSH1 0xA0 SHL SUB DUP1 DUP5 AND PUSH1 0x0 SWAP1 DUP2 MSTORE PUSH1 0x6 PUSH1 0x20 SWAP1 DUP2 MSTORE PUSH1 0x40 DUP1 DUP4 KECCAK256 SWAP4 DUP7 AND DUP4 MSTORE SWAP3 SWAP1 MSTORE SWAP1 DUP2 KECCAK256 DUP1 SLOAD DUP4 SWAP3 SWAP1 PUSH2 0x46C SWAP1 DUP5 SWAP1 PUSH2 0xB34 JUMP JUMPDEST SWAP1 SWAP2 SSTORE POP POP PUSH1 0x1 PUSH1 0x1 PUSH1 0xA0 SHL SUB DUP4 AND PUSH1 0x0 SWAP1 DUP2 MSTORE PUSH1 0x5 PUSH1 0x20 MSTORE PUSH1 0x40 DUP2 KECCAK256 DUP1 SLOAD DUP4 SWAP3 SWAP1 PUSH2 0x499 SWAP1 DUP5 SWAP1 PUSH2 0xB34 JUMP JUMPDEST SWAP1 SWAP2 SSTORE POP PUSH2 0x4AA SWAP1 POP DUP4 DUP4 DUP4 PUSH2 0x6CC JUMP JUMPDEST DUP3 PUSH1 0x1 PUSH1 0x1 PUSH1 0xA0 SHL SUB AND PUSH32 0x3BE5B7A71E84ED12875D241991C70855AC5817D847039E17A9D895C1CEB0F18A DUP4 DUP4 PUSH1 0x40 MLOAD PUSH2 0x4E5 SWAP3 SWAP2 SWAP1 PUSH2 0x923 JUMP JUMPDEST PUSH1 0x40 MLOAD DUP1 SWAP2 SUB SWAP1 LOG2 POP POP POP JUMP JUMPDEST PUSH1 0x0 PUSH1 0x4 DUP3 DUP2 SLOAD DUP2 LT PUSH2 0x507 JUMPI PUSH2 0x507 PUSH2 0xB6E JUMP JUMPDEST PUSH1 0x0 SWAP2 DUP3 MSTORE PUSH1 0x20 SWAP1 SWAP2 KECCAK256 ADD SLOAD PUSH1 0x1 PUSH1 0x1 PUSH1 0xA0 SHL SUB AND SWAP3 SWAP2 POP POP JUMP JUMPDEST PUSH1 0x0 DUP1 PUSH2 0x52E PUSH1 0x1 SLOAD SWAP1 JUMP JUMPDEST PUSH2 0x538 SWAP1 SELFBALANCE PUSH2 0xB34 JUMP JUMPDEST SWAP1 POP PUSH2 0x563 DUP4 DUP3 PUSH2 0x55E DUP7 PUSH1 0x1 PUSH1 0x1 PUSH1 0xA0 SHL SUB AND PUSH1 0x0 SWAP1 DUP2 MSTORE PUSH1 0x3 PUSH1 0x20 MSTORE PUSH1 0x40 SWAP1 KECCAK256 SLOAD SWAP1 JUMP JUMPDEST PUSH2 0x74F JUMP JUMPDEST SWAP4 SWAP3 POP POP POP JUMP JUMPDEST PUSH1 0x1 PUSH1 0x1 PUSH1 0xA0 SHL SUB DUP3 AND PUSH1 0x0 DUP2 DUP2 MSTORE PUSH1 0x5 PUSH1 0x20 MSTORE PUSH1 0x40 DUP1 DUP3 KECCAK256 SLOAD SWAP1 MLOAD PUSH32 0x70A0823100000000000000000000000000000000000000000000000000000000 DUP2 MSTORE SWAP2 SWAP3 DUP4 SWAP3 PUSH4 0x70A08231 SWAP1 PUSH2 0x5C1 SWAP1 ADDRESS SWAP1 PUSH1 0x4 ADD PUSH2 0xA1D JUMP JUMPDEST PUSH1 0x20 PUSH1 0x40 MLOAD DUP1 DUP4 SUB DUP2 DUP7 DUP1 EXTCODESIZE ISZERO DUP1 ISZERO PUSH2 0x5D9 JUMPI PUSH1 0x0 DUP1 REVERT JUMPDEST POP GAS STATICCALL ISZERO DUP1 ISZERO PUSH2 0x5ED JUMPI RETURNDATASIZE PUSH1 0x0 DUP1 RETURNDATACOPY RETURNDATASIZE PUSH1 0x0 REVERT JUMPDEST POP POP POP POP PUSH1 0x40 MLOAD RETURNDATASIZE PUSH1 0x1F NOT PUSH1 0x1F DUP3 ADD AND DUP3 ADD DUP1 PUSH1 0x40 MSTORE POP DUP2 ADD SWAP1 PUSH2 0x611 SWAP2 SWAP1 PUSH2 0xB8F JUMP JUMPDEST PUSH2 0x61B SWAP2 SWAP1 PUSH2 0xB34 JUMP JUMPDEST SWAP1 POP PUSH2 0x62C DUP4 DUP3 PUSH2 0x55E DUP8 DUP8 PUSH2 0x3A8 JUMP JUMPDEST SWAP5 SWAP4 POP POP POP POP JUMP JUMPDEST DUP1 SELFBALANCE LT ISZERO PUSH2 0x654 JUMPI PUSH1 0x40 MLOAD PUSH3 0x461BCD PUSH1 0xE5 SHL DUP2 MSTORE PUSH1 0x4 ADD PUSH2 0x2E7 SWAP1 PUSH2 0xBE4 JUMP JUMPDEST PUSH1 0x0 DUP3 PUSH1 0x1 PUSH1 0x1 PUSH1 0xA0 SHL SUB AND DUP3 PUSH1 0x40 MLOAD PUSH1 0x0 PUSH1 0x40 MLOAD DUP1 DUP4 SUB DUP2 DUP6 DUP8 GAS CALL SWAP3 POP POP POP RETURNDATASIZE DUP1 PUSH1 0x0 DUP2 EQ PUSH2 0x6A1 JUMPI PUSH1 0x40 MLOAD SWAP2 POP PUSH1 0x1F NOT PUSH1 0x3F RETURNDATASIZE ADD AND DUP3 ADD PUSH1 0x40 MSTORE RETURNDATASIZE DUP3 MSTORE RETURNDATASIZE PUSH1 0x0 PUSH1 0x20 DUP5 ADD RETURNDATACOPY PUSH2 0x6A6 JUMP JUMPDEST PUSH1 0x60 SWAP2 POP JUMPDEST POP POP SWAP1 POP DUP1 PUSH2 0x6C7 JUMPI PUSH1 0x40 MLOAD PUSH3 0x461BCD PUSH1 0xE5 SHL DUP2 MSTORE PUSH1 0x4 ADD PUSH2 0x2E7 SWAP1 PUSH2 0xC4C JUMP JUMPDEST POP POP POP JUMP JUMPDEST PUSH2 0x6C7 DUP4 PUSH4 0xA9059CBB PUSH1 0xE0 SHL DUP5 DUP5 PUSH1 0x40 MLOAD PUSH1 0x24 ADD PUSH2 0x6EB SWAP3 SWAP2 SWAP1 PUSH2 0x923 JUMP JUMPDEST PUSH1 0x40 DUP1 MLOAD PUSH1 0x1F NOT DUP2 DUP5 SUB ADD DUP2 MSTORE SWAP2 SWAP1 MSTORE PUSH1 0x20 DUP2 ADD DUP1 MLOAD PUSH28 0xFFFFFFFFFFFFFFFFFFFFFFFFFFFFFFFFFFFFFFFFFFFFFFFFFFFFFFFF AND PUSH32 0xFFFFFFFF00000000000000000000000000000000000000000000000000000000 SWAP1 SWAP4 AND SWAP3 SWAP1 SWAP3 OR SWAP1 SWAP2 MSTORE PUSH2 0x78A JUMP JUMPDEST PUSH1 0x0 DUP1 SLOAD PUSH1 0x1 PUSH1 0x1 PUSH1 0xA0 SHL SUB DUP6 AND DUP3 MSTORE PUSH1 0x2 PUSH1 0x20 MSTORE PUSH1 0x40 DUP3 KECCAK256 SLOAD DUP4 SWAP2 SWAP1 PUSH2 0x776 SWAP1 DUP7 PUSH2 0xC5C JUMP JUMPDEST PUSH2 0x780 SWAP2 SWAP1 PUSH2 0xCAF JUMP JUMPDEST PUSH2 0x62C SWAP2 SWAP1 PUSH2 0xCC3 JUMP JUMPDEST PUSH1 0x0 PUSH2 0x7DF DUP3 PUSH1 0x40 MLOAD DUP1 PUSH1 0x40 ADD PUSH1 0x40 MSTORE DUP1 PUSH1 0x20 DUP2 MSTORE PUSH1 0x20 ADD PUSH32 0x5361666545524332303A206C6F772D6C6576656C2063616C6C206661696C6564 DUP2 MSTORE POP DUP6 PUSH1 0x1 PUSH1 0x1 PUSH1 0xA0 SHL SUB AND PUSH2 0x819 SWAP1 SWAP3 SWAP2 SWAP1 PUSH4 0xFFFFFFFF AND JUMP JUMPDEST DUP1 MLOAD SWAP1 SWAP2 POP ISZERO PUSH2 0x6C7 JUMPI DUP1 DUP1 PUSH1 0x20 ADD SWAP1 MLOAD DUP2 ADD SWAP1 PUSH2 0x7FD SWAP2 SWAP1 PUSH2 0xCED JUMP JUMPDEST PUSH2 0x6C7 JUMPI PUSH1 0x40 MLOAD PUSH3 0x461BCD PUSH1 0xE5 SHL DUP2 MSTORE PUSH1 0x4 ADD PUSH2 0x2E7 SWAP1 PUSH2 0xD66 JUMP JUMPDEST PUSH1 0x60 PUSH2 0x62C DUP5 DUP5 PUSH1 0x0 DUP6 DUP6 PUSH1 0x1 PUSH1 0x1 PUSH1 0xA0 SHL SUB DUP6 AND EXTCODESIZE PUSH2 0x84B JUMPI PUSH1 0x40 MLOAD PUSH3 0x461BCD PUSH1 0xE5 SHL DUP2 MSTORE PUSH1 0x4 ADD PUSH2 0x2E7 SWAP1 PUSH2 0xDA8 JUMP JUMPDEST PUSH1 0x0 DUP1 DUP7 PUSH1 0x1 PUSH1 0x1 PUSH1 0xA0 SHL SUB AND DUP6 DUP8 PUSH1 0x40 MLOAD PUSH2 0x867 SWAP2 SWAP1 PUSH2 0xE0A JUMP JUMPDEST PUSH1 0x0 PUSH1 0x40 MLOAD DUP1 DUP4 SUB DUP2 DUP6 DUP8 GAS CALL SWAP3 POP POP POP RETURNDATASIZE DUP1 PUSH1 0x0 DUP2 EQ PUSH2 0x8A4 JUMPI PUSH1 0x40 MLOAD SWAP2 POP PUSH1 0x1F NOT PUSH1 0x3F RETURNDATASIZE ADD AND DUP3 ADD PUSH1 0x40 MSTORE RETURNDATASIZE DUP3 MSTORE RETURNDATASIZE PUSH1 0x0 PUSH1 0x20 DUP5 ADD RETURNDATACOPY PUSH2 0x8A9 JUMP JUMPDEST PUSH1 0x60 SWAP2 POP JUMPDEST POP SWAP2 POP SWAP2 POP PUSH2 0x8B9 DUP3 DUP3 DUP7 PUSH2 0x8C4 JUMP JUMPDEST SWAP8 SWAP7 POP POP POP POP POP POP POP JUMP JUMPDEST PUSH1 0x60 DUP4 ISZERO PUSH2 0x8D3 JUMPI POP DUP2 PUSH2 0x563 JUMP JUMPDEST DUP3 MLOAD ISZERO PUSH2 0x8E3 JUMPI DUP3 MLOAD DUP1 DUP5 PUSH1 0x20 ADD REVERT JUMPDEST DUP2 PUSH1 0x40 MLOAD PUSH3 0x461BCD PUSH1 0xE5 SHL DUP2 MSTORE PUSH1 0x4 ADD PUSH2 0x2E7 SWAP2 SWAP1 PUSH2 0xE46 JUMP JUMPDEST PUSH1 0x0 PUSH1 0x1 PUSH1 0x1 PUSH1 0xA0 SHL SUB DUP3 AND PUSH2 0x3CF JUMP JUMPDEST PUSH2 0x917 DUP2 PUSH2 0x8FD JUMP JUMPDEST DUP3 MSTORE POP POP JUMP JUMPDEST DUP1 PUSH2 0x917 JUMP JUMPDEST PUSH1 0x40 DUP2 ADD PUSH2 0x931 DUP3 DUP6 PUSH2 0x90E JUMP JUMPDEST PUSH2 0x563 PUSH1 0x20 DUP4 ADD DUP5 PUSH2 0x91D JUMP JUMPDEST PUSH2 0x947 DUP2 PUSH2 0x8FD JUMP JUMPDEST DUP2 EQ PUSH2 0x952 JUMPI PUSH1 0x0 DUP1 REVERT JUMPDEST POP JUMP JUMPDEST DUP1 CALLDATALOAD PUSH2 0x3CF DUP2 PUSH2 0x93E JUMP JUMPDEST PUSH1 0x0 PUSH1 0x20 DUP3 DUP5 SUB SLT ISZERO PUSH2 0x975 JUMPI PUSH2 0x975 PUSH1 0x0 DUP1 REVERT JUMPDEST PUSH1 0x0 PUSH2 0x62C DUP5 DUP5 PUSH2 0x955 JUMP JUMPDEST PUSH1 0x20 DUP2 ADD PUSH2 0x3CF DUP3 DUP5 PUSH2 0x91D JUMP JUMPDEST PUSH1 0x0 PUSH2 0x3CF DUP3 PUSH2 0x8FD JUMP JUMPDEST PUSH2 0x947 DUP2 PUSH2 0x98F JUMP JUMPDEST DUP1 CALLDATALOAD PUSH2 0x3CF DUP2 PUSH2 0x99A JUMP JUMPDEST PUSH1 0x0 DUP1 PUSH1 0x40 DUP4 DUP6 SUB SLT ISZERO PUSH2 0x9C4 JUMPI PUSH2 0x9C4 PUSH1 0x0 DUP1 REVERT JUMPDEST PUSH1 0x0 PUSH2 0x9D0 DUP6 DUP6 PUSH2 0x9A3 JUMP JUMPDEST SWAP3 POP POP PUSH1 0x20 PUSH2 0x9E1 DUP6 DUP3 DUP7 ADD PUSH2 0x955 JUMP JUMPDEST SWAP2 POP POP SWAP3 POP SWAP3 SWAP1 POP JUMP JUMPDEST DUP1 PUSH2 0x947 JUMP JUMPDEST DUP1 CALLDATALOAD PUSH2 0x3CF DUP2 PUSH2 0x9EB JUMP JUMPDEST PUSH1 0x0 PUSH1 0x20 DUP3 DUP5 SUB SLT ISZERO PUSH2 0xA11 JUMPI PUSH2 0xA11 PUSH1 0x0 DUP1 REVERT JUMPDEST PUSH1 0x0 PUSH2 0x62C DUP5 DUP5 PUSH2 0x9F1 JUMP JUMPDEST PUSH1 0x20 DUP2 ADD PUSH2 0x3CF DUP3 DUP5 PUSH2 0x90E JUMP JUMPDEST PUSH1 0x0 PUSH1 0x20 DUP3 DUP5 SUB SLT ISZERO PUSH2 0xA40 JUMPI PUSH2 0xA40 PUSH1 0x0 DUP1 REVERT JUMPDEST PUSH1 0x0 PUSH2 0x62C DUP5 DUP5 PUSH2 0x9A3 JUMP JUMPDEST PUSH1 0x26 DUP2 MSTORE PUSH1 0x20 DUP2 ADD PUSH32 0x5061796D656E7453706C69747465723A206163636F756E7420686173206E6F20 DUP2 MSTORE PUSH32 0x7368617265730000000000000000000000000000000000000000000000000000 PUSH1 0x20 DUP3 ADD MSTORE SWAP1 POP JUMPDEST PUSH1 0x40 ADD SWAP1 JUMP JUMPDEST PUSH1 0x20 DUP1 DUP3 MSTORE DUP2 ADD PUSH2 0x3CF DUP2 PUSH2 0xA4C JUMP JUMPDEST PUSH1 0x2B DUP2 MSTORE PUSH1 0x20 DUP2 ADD PUSH32 0x5061796D656E7453706C69747465723A206163636F756E74206973206E6F7420 DUP2 MSTORE PUSH32 0x647565207061796D656E74000000000000000000000000000000000000000000 PUSH1 0x20 DUP3 ADD MSTORE SWAP1 POP PUSH2 0xAA0 JUMP JUMPDEST PUSH1 0x20 DUP1 DUP3 MSTORE DUP2 ADD PUSH2 0x3CF DUP2 PUSH2 0xAB6 JUMP JUMPDEST PUSH4 0x4E487B71 PUSH1 0xE0 SHL PUSH1 0x0 MSTORE PUSH1 0x11 PUSH1 0x4 MSTORE PUSH1 0x24 PUSH1 0x0 REVERT JUMPDEST PUSH1 0x0 DUP3 NOT DUP3 GT ISZERO PUSH2 0xB47 JUMPI PUSH2 0xB47 PUSH2 0xB1E JUMP JUMPDEST POP ADD SWAP1 JUMP JUMPDEST PUSH1 0x0 PUSH2 0x3CF DUP3 PUSH2 0x98F JUMP JUMPDEST PUSH2 0x917 DUP2 PUSH2 0xB4C JUMP JUMPDEST PUSH1 0x40 DUP2 ADD PUSH2 0x931 DUP3 DUP6 PUSH2 0xB57 JUMP JUMPDEST PUSH4 0x4E487B71 PUSH1 0xE0 SHL PUSH1 0x0 MSTORE PUSH1 0x32 PUSH1 0x4 MSTORE PUSH1 0x24 PUSH1 0x0 REVERT JUMPDEST DUP1 MLOAD PUSH2 0x3CF DUP2 PUSH2 0x9EB JUMP JUMPDEST PUSH1 0x0 PUSH1 0x20 DUP3 DUP5 SUB SLT ISZERO PUSH2 0xBA4 JUMPI PUSH2 0xBA4 PUSH1 0x0 DUP1 REVERT JUMPDEST PUSH1 0x0 PUSH2 0x62C DUP5 DUP5 PUSH2 0xB84 JUMP JUMPDEST PUSH1 0x1D DUP2 MSTORE PUSH1 0x20 DUP2 ADD PUSH32 0x416464726573733A20696E73756666696369656E742062616C616E6365000000 DUP2 MSTORE SWAP1 POP JUMPDEST PUSH1 0x20 ADD SWAP1 JUMP JUMPDEST PUSH1 0x20 DUP1 DUP3 MSTORE DUP2 ADD PUSH2 0x3CF DUP2 PUSH2 0xBB0 JUMP JUMPDEST PUSH1 0x3A DUP2 MSTORE PUSH1 0x20 DUP2 ADD PUSH32 0x416464726573733A20756E61626C6520746F2073656E642076616C75652C2072 DUP2 MSTORE PUSH32 0x6563697069656E74206D61792068617665207265766572746564000000000000 PUSH1 0x20 DUP3 ADD MSTORE SWAP1 POP PUSH2 0xAA0 JUMP JUMPDEST PUSH1 0x20 DUP1 DUP3 MSTORE DUP2 ADD PUSH2 0x3CF DUP2 PUSH2 0xBF4 JUMP JUMPDEST PUSH1 0x0 DUP2 PUSH32 0xFFFFFFFFFFFFFFFFFFFFFFFFFFFFFFFFFFFFFFFFFFFFFFFFFFFFFFFFFFFFFFFF DIV DUP4 GT DUP3 ISZERO ISZERO AND ISZERO PUSH2 0xC94 JUMPI PUSH2 0xC94 PUSH2 0xB1E JUMP JUMPDEST POP MUL SWAP1 JUMP JUMPDEST PUSH4 0x4E487B71 PUSH1 0xE0 SHL PUSH1 0x0 MSTORE PUSH1 0x12 PUSH1 0x4 MSTORE PUSH1 0x24 PUSH1 0x0 REVERT JUMPDEST PUSH1 0x0 DUP3 PUSH2 0xCBE JUMPI PUSH2 0xCBE PUSH2 0xC99 JUMP JUMPDEST POP DIV SWAP1 JUMP JUMPDEST PUSH1 0x0 DUP3 DUP3 LT ISZERO PUSH2 0xCD5 JUMPI PUSH2 0xCD5 PUSH2 0xB1E JUMP JUMPDEST POP SUB SWAP1 JUMP JUMPDEST DUP1 ISZERO ISZERO PUSH2 0x947 JUMP JUMPDEST DUP1 MLOAD PUSH2 0x3CF DUP2 PUSH2 0xCDA JUMP JUMPDEST PUSH1 0x0 PUSH1 0x20 DUP3 DUP5 SUB SLT ISZERO PUSH2 0xD02 JUMPI PUSH2 0xD02 PUSH1 0x0 DUP1 REVERT JUMPDEST PUSH1 0x0 PUSH2 0x62C DUP5 DUP5 PUSH2 0xCE2 JUMP JUMPDEST PUSH1 0x2A DUP2 MSTORE PUSH1 0x20 DUP2 ADD PUSH32 0x5361666545524332303A204552433230206F7065726174696F6E20646964206E DUP2 MSTORE PUSH32 0x6F74207375636365656400000000000000000000000000000000000000000000 PUSH1 0x20 DUP3 ADD MSTORE SWAP1 POP PUSH2 0xAA0 JUMP JUMPDEST PUSH1 0x20 DUP1 DUP3 MSTORE DUP2 ADD PUSH2 0x3CF DUP2 PUSH2 0xD0E JUMP JUMPDEST PUSH1 0x1D DUP2 MSTORE PUSH1 0x20 DUP2 ADD PUSH32 0x416464726573733A2063616C6C20746F206E6F6E2D636F6E7472616374000000 DUP2 MSTORE SWAP1 POP PUSH2 0xBDE JUMP JUMPDEST PUSH1 0x20 DUP1 DUP3 MSTORE DUP2 ADD PUSH2 0x3CF DUP2 PUSH2 0xD76 JUMP JUMPDEST PUSH1 0x0 JUMPDEST DUP4 DUP2 LT ISZERO PUSH2 0xDD3 JUMPI DUP2 DUP2 ADD MLOAD DUP4 DUP3 ADD MSTORE PUSH1 0x20 ADD PUSH2 0xDBB JUMP JUMPDEST DUP4 DUP2 GT ISZERO PUSH2 0xDE2 JUMPI PUSH1 0x0 DUP5 DUP5 ADD MSTORE JUMPDEST POP POP POP POP JUMP JUMPDEST PUSH1 0x0 PUSH2 0xDF2 DUP3 MLOAD SWAP1 JUMP JUMPDEST PUSH2 0xE00 DUP2 DUP6 PUSH1 0x20 DUP7 ADD PUSH2 0xDB8 JUMP JUMPDEST SWAP3 SWAP1 SWAP3 ADD SWAP3 SWAP2 POP POP JUMP JUMPDEST PUSH2 0x3CF DUP2 DUP4 PUSH2 0xDE8 JUMP JUMPDEST PUSH1 0x0 PUSH2 0xE1E DUP3 MLOAD SWAP1 JUMP JUMPDEST DUP1 DUP5 MSTORE PUSH1 0x20 DUP5 ADD SWAP4 POP PUSH2 0xE35 DUP2 DUP6 PUSH1 0x20 DUP7 ADD PUSH2 0xDB8 JUMP JUMPDEST PUSH1 0x1F ADD PUSH1 0x1F NOT AND SWAP3 SWAP1 SWAP3 ADD SWAP3 SWAP2 POP POP JUMP JUMPDEST PUSH1 0x20 DUP1 DUP3 MSTORE DUP2 ADD PUSH2 0x563 DUP2 DUP5 PUSH2 0xE14 JUMP INVALID LOG2 PUSH5 0x6970667358 0x22 SLT KECCAK256 0xDA CALLCODE 0xAF DUP11 CHAINID SWAP8 0xCE 0xFC SWAP1 SSTORE PUSH26 0xBDC79AE69B9FB703AEFA1378C273196A55BC7E293664736F6C63 NUMBER STOP ADDMOD MULMOD STOP CALLER LOG2 PUSH5 0x6970667358 0x22 SLT KECCAK256 0xF6 DUP14 SWAP16 0x2F EXTCODECOPY 0xBC SMOD 0xBF 0x2F PUSH6 0xA37F704E2B23 PUSH25 0x196FE89FCA2FAE3FFB987771A5DAB364736F6C634300080900 CALLER "},"methodIdentifiers":{"Events(uint256)":"0bb57dfd","addDev(address)":"b91d3ace","baseExampleContract()":"0ef54579","cloneContract(string[],uint256[],uint256[],string,uint256,address,address,uint96)":"76427cd5","getContracts()":"c3a2a93a","owner()":"8da5cb5b","renounceOwnership()":"715018a6","splitter(address[],uint256[])":"d8936517","transferOwnership(address)":"f2fde38b"}}}}}