{
  "_format": "hh-sol-artifact-1",
  "contractName": "EventFactory",
  "sourceName": "contracts/EventFactory.sol",
  "abi": [
    {
      "inputs": [
        {
          "internalType": "address",
          "name": "_baseExampleContract",
          "type": "address"
        }
      ],
      "stateMutability": "nonpayable",
      "type": "constructor"
    },
    {
      "anonymous": false,
      "inputs": [
        {
          "indexed": true,
          "internalType": "address",
          "name": "previousOwner",
          "type": "address"
        },
        {
          "indexed": true,
          "internalType": "address",
          "name": "newOwner",
          "type": "address"
        }
      ],
      "name": "OwnershipTransferred",
      "type": "event"
    },
    {
      "inputs": [
        {
          "internalType": "uint256",
          "name": "",
          "type": "uint256"
        }
      ],
      "name": "Events",
      "outputs": [
        {
          "internalType": "address",
          "name": "",
          "type": "address"
        }
      ],
      "stateMutability": "view",
      "type": "function"
    },
    {
      "inputs": [
        {
          "internalType": "address",
          "name": "_dev",
          "type": "address"
        }
      ],
      "name": "addDev",
      "outputs": [],
      "stateMutability": "nonpayable",
      "type": "function"
    },
    {
      "inputs": [],
      "name": "baseExampleContract",
      "outputs": [
        {
          "internalType": "address",
          "name": "",
          "type": "address"
        }
      ],
      "stateMutability": "view",
      "type": "function"
    },
    {
      "inputs": [
        {
          "internalType": "string[]",
          "name": "fungibleTokenURI_",
          "type": "string[]"
        },
        {
          "internalType": "uint256[]",
          "name": "prices_",
          "type": "uint256[]"
        },
        {
          "internalType": "uint256[]",
          "name": "maxQuantity_",
          "type": "uint256[]"
        },
        {
          "internalType": "string",
          "name": "_uri",
          "type": "string"
        },
        {
          "internalType": "uint256",
          "name": "eventCheckInDeadline_",
          "type": "uint256"
        },
        {
          "internalType": "address",
          "name": "_owner",
          "type": "address"
        },
        {
          "internalType": "address",
          "name": "_accounting",
          "type": "address"
        },
        {
          "internalType": "uint96",
          "name": "_royalty",
          "type": "uint96"
        }
      ],
      "name": "cloneContract",
      "outputs": [],
      "stateMutability": "nonpayable",
      "type": "function"
    },
    {
      "inputs": [],
      "name": "getContracts",
      "outputs": [
        {
          "internalType": "address[]",
          "name": "",
          "type": "address[]"
        }
      ],
      "stateMutability": "view",
      "type": "function"
    },
    {
      "inputs": [],
      "name": "owner",
      "outputs": [
        {
          "internalType": "address",
          "name": "",
          "type": "address"
        }
      ],
      "stateMutability": "view",
      "type": "function"
    },
    {
      "inputs": [],
      "name": "renounceOwnership",
      "outputs": [],
      "stateMutability": "nonpayable",
      "type": "function"
    },
    {
      "inputs": [
        {
          "internalType": "address[]",
          "name": "payees",
          "type": "address[]"
        },
        {
          "internalType": "uint256[]",
          "name": "shares_",
          "type": "uint256[]"
        }
      ],
      "name": "splitter",
      "outputs": [
        {
          "internalType": "address",
          "name": "",
          "type": "address"
        }
      ],
      "stateMutability": "nonpayable",
      "type": "function"
    },
    {
      "inputs": [
        {
          "internalType": "address",
          "name": "newOwner",
          "type": "address"
        }
      ],
      "name": "transferOwnership",
      "outputs": [],
      "stateMutability": "nonpayable",
      "type": "function"
    }
  ],
  "bytecode": "0x608060405234801561001057600080fd5b50604051620025b2380380620025b283398101604081905261003191610115565b61003a33610090565b600380546001600160a01b0319166001600160a01b0383161790556001600260006100623390565b6001600160a01b031681526020810191909152604001600020805460ff19169115159190911790555061013e565b600080546001600160a01b038381166001600160a01b0319831681178455604051919092169283917f8be0079c531659141344cd1fd0a4f28419497f9722a3daafe3b4186f6b6457e09190a35050565b60006001600160a01b0382165b92915050565b6100fc816100e0565b811461010757600080fd5b50565b80516100ed816100f3565b60006020828403121561012a5761012a600080fd5b6000610136848461010a565b949350505050565b612464806200014e6000396000f3fe60806040523480156200001157600080fd5b5060043610620000b05760003560e01c80638da5cb5b116200007f578063c3a2a93a1162000062578063c3a2a93a1462000144578063d8936517146200015d578063f2fde38b146200017457600080fd5b80638da5cb5b146200011b578063b91d3ace146200012d57600080fd5b80630bb57dfd14620000b55780630ef5457914620000e4578063715018a614620000f857806376427cd51462000104575b600080fd5b620000cc620000c63660046200063e565b6200018b565b604051620000db91906200068e565b60405180910390f35b600354620000cc906001600160a01b031681565b62000102620001b6565b005b620001026200011536600462000859565b620001ce565b6000546001600160a01b0316620000cc565b620001026200013e3660046200099f565b620003a3565b6200014e620003ef565b604051620000db919062000a29565b620000cc6200016e36600462000a43565b62000453565b62000102620001853660046200099f565b620004d0565b600181815481106200019c57600080fd5b6000918252602090912001546001600160a01b0316905081565b620001c062000511565b620001cc60006200053e565b565b3360009081526002602052604090205460ff16620002095760405162461bcd60e51b8152600401620002009062000af9565b60405180910390fd5b60035460009062000223906001600160a01b0316620005a6565b6040517f474b00020000000000000000000000000000000000000000000000000000000081529091506001600160a01b0382169063474b0002906200027f908f908f908f908f908f908f908f908f908e908e9060040162000cf7565b600060405180830381600087803b1580156200029a57600080fd5b505af1158015620002af573d6000803e3d6000fd5b50506040517ff2fde38b0000000000000000000000000000000000000000000000000000000081526001600160a01b038416925063f2fde38b9150620002fa9087906004016200068e565b600060405180830381600087803b1580156200031557600080fd5b505af11580156200032a573d6000803e3d6000fd5b50506001805480820182556000919091527fb10e2d527612073b26eecdfd717e6a320cf44b4afac2b0732d9fcbe2b7fa0cf60180547fffffffffffffffffffffffff0000000000000000000000000000000000000000166001600160a01b03949094169390931790925550505050505050505050505050565b620003ad62000511565b6001600160a01b0316600090815260026020526040902080547fffffffffffffffffffffffffffffffffffffffffffffffffffffffffffffff00166001179055565b606060018054806020026020016040519081016040528092919081815260200182805480156200044957602002820191906000526020600020905b81546001600160a01b031681526001909101906020018083116200042a575b5050505050905090565b3360009081526002602052604081205460ff16620004855760405162461bcd60e51b8152600401620002009062000af9565b60008585858560405162000499906200060f565b620004a8949392919062000ded565b604051809103906000f080158015620004c5573d6000803e3d6000fd5b509695505050505050565b620004da62000511565b6001600160a01b038116620005035760405162461bcd60e51b8152600401620002009062000e22565b6200050e816200053e565b50565b6000546001600160a01b03163314620001cc5760405162461bcd60e51b8152600401620002009062000eb5565b600080546001600160a01b038381167fffffffffffffffffffffffff0000000000000000000000000000000000000000831681178455604051919092169283917f8be0079c531659141344cd1fd0a4f28419497f9722a3daafe3b4186f6b6457e09190a35050565b6000808260601b90506040517f3d602d80600a3d3981f3363d3d373d3d3d363d7300000000000000000000000081528160148201527f5af43d82803e903d91602b57fd5bf3000000000000000000000000000000000060288201526037816000f0949350505050565b6115678062000ec883390190565b805b81146200050e57600080fd5b803562000638816200061d565b92915050565b600060208284031215620006555762000655600080fd5b60006200066384846200062b565b949350505050565b60006001600160a01b03821662000638565b62000688816200066b565b82525050565b602081016200063882846200067d565b60008083601f840112620006b557620006b5600080fd5b50813567ffffffffffffffff811115620006d257620006d2600080fd5b602083019150836020820283011115620006ef57620006ef600080fd5b9250929050565b7f4e487b7100000000000000000000000000000000000000000000000000000000600052604160045260246000fd5b601f19601f830116810181811067ffffffffffffffff821117156200074e576200074e620006f6565b6040525050565b60006200076160405190565b90506200076f828262000725565b919050565b600067ffffffffffffffff821115620007915762000791620006f6565b601f19601f83011660200192915050565b82818337506000910152565b6000620007c5620007bf8462000774565b62000755565b905082815260208101848484011115620007e257620007e2600080fd5b620007ef848285620007a2565b509392505050565b600082601f8301126200080d576200080d600080fd5b813562000663848260208601620007ae565b6200061f816200066b565b803562000638816200081f565b6bffffffffffffffffffffffff81166200061f565b8035620006388162000837565b60008060008060008060008060008060006101008c8e031215620008805762000880600080fd5b8b3567ffffffffffffffff8111156200089c576200089c600080fd5b620008aa8e828f016200069e565b9b509b505060208c013567ffffffffffffffff811115620008ce57620008ce600080fd5b620008dc8e828f016200069e565b995099505060408c013567ffffffffffffffff811115620009005762000900600080fd5b6200090e8e828f016200069e565b975097505060608c013567ffffffffffffffff811115620009325762000932600080fd5b620009408e828f01620007f7565b9550506080620009538e828f016200062b565b94505060a0620009668e828f016200082a565b93505060c0620009798e828f016200082a565b92505060e06200098c8e828f016200084c565b9150509295989b509295989b9093969950565b600060208284031215620009b657620009b6600080fd5b60006200066384846200082a565b620009d082826200067d565b5060200190565b60200190565b6000620009e8825190565b808452602093840193830160005b8281101562000a1f57815162000a0d8782620009c4565b965050602082019150600101620009f6565b5093949350505050565b6020808252810162000a3c8184620009dd565b9392505050565b6000806000806040858703121562000a5e5762000a5e600080fd5b843567ffffffffffffffff81111562000a7a5762000a7a600080fd5b62000a88878288016200069e565b9450945050602085013567ffffffffffffffff81111562000aac5762000aac600080fd5b62000aba878288016200069e565b95989497509550505050565b60118152602081017f5065726d697373696f6e2044656e69656400000000000000000000000000000081529050620009d7565b60208082528101620006388162000ac6565b81835260208301925062000b21828483620007a2565b50601f01601f19160190565b60006200066384848462000b0b565b60008083357fffffffffffffffffffffffffffffffffffffffffffffffffffffffffffffffe13685900301811262000b775762000b77600080fd5b830160208101925035905067ffffffffffffffff81111562000b9c5762000b9c600080fd5b36819003831315620006ef57620006ef600080fd5b818352602083019250600083602084028101838060005b8781101562000c1057848403895262000be2828462000b3c565b62000bef86828462000b2d565b9550505062000bfe8260200190565b60209990990198915060010162000bc8565b5091979650505050505050565b81835260208301925060007f07ffffffffffffffffffffffffffffffffffffffffffffffffffffffffffffff83111562000c5a5762000c5a600080fd5b60208302925062000c6d838584620007a2565b50500190565b60005b8381101562000c9057818101518382015260200162000c76565b8381111562000ca0576000848401525b50505050565b600062000cb1825190565b80845260208401935062000cca81856020860162000c73565b601f01601f19169290920192915050565b8062000688565b6bffffffffffffffffffffffff811662000688565b60e0808252810162000d0b818c8e62000bb1565b9050818103602083015262000d22818a8c62000c1d565b9050818103604083015262000d3981888a62000c1d565b9050818103606083015262000d4f818762000ca6565b905062000d60608083018662000cdb565b62000d6f60a08301856200067d565b62000d7e60c083018462000ce2565b9b9a5050505050505050505050565b5060006200063860208301836200082a565b8183526020830192506000818060005b8581101562000de25762000dc4828462000d8d565b62000dd08882620009c4565b97505060208201915060010162000daf565b509495945050505050565b6040808252810162000e0181868862000d9f565b9050818103602083015262000e1881848662000c1d565b9695505050505050565b602080825281016200063881602681527f4f776e61626c653a206e6577206f776e657220697320746865207a65726f206160208201527f6464726573730000000000000000000000000000000000000000000000000000604082015260600190565b60208082527f4f776e61626c653a2063616c6c6572206973206e6f7420746865206f776e65729101908152620009d7565b60208082528101620006388162000e8456fe6080604052604051620015673803806200156783398101604081905262000026916200040c565b8051825114620000535760405162461bcd60e51b81526004016200004a90620004d7565b60405180910390fd5b6000825111620000775760405162461bcd60e51b81526004016200004a906200051d565b60005b8251811015620000e357620000ce8382815181106200009d576200009d6200052f565b6020026020010151838381518110620000ba57620000ba6200052f565b6020026020010151620000ec60201b60201c565b80620000da816200055b565b9150506200007a565b505050620006ca565b6001600160a01b038216620001155760405162461bcd60e51b81526004016200004a90620005c1565b60008111620001385760405162461bcd60e51b81526004016200004a9062000606565b6001600160a01b03821660009081526002602052604090205415620001715760405162461bcd60e51b81526004016200004a906200065f565b60048054600181019091557f8a35acfbc15ff81a39ae7d344fd709f28e8600b4aa8c65c6b64bfe7fe36bd19b0180546001600160a01b0319166001600160a01b038416908117909155600090815260026020526040812082905554620001d990829062000671565b6000556040517f40c340f65e17194d14ddddb073d3c9f888e3cb52b5aae0c6c7706b4fbc905fac90620002109084908490620006a4565b60405180910390a15050565b634e487b7160e01b600052604160045260246000fd5b601f19601f83011681016001600160401b03811182821017156200025a576200025a6200021c565b6040525050565b60006200026d60405190565b90506200027b828262000232565b919050565b60006001600160401b038211156200029c576200029c6200021c565b5060209081020190565b60006001600160a01b0382165b92915050565b620002c481620002a6565b8114620002d057600080fd5b50565b8051620002b381620002b9565b6000620002f7620002f18462000280565b62000261565b83815290506020808201908402830185811115620003185762000318600080fd5b835b818110156200033e576200032f8782620002d3565b8352602092830192016200031a565b5050509392505050565b600082601f8301126200035e576200035e600080fd5b815162000370848260208601620002e0565b949350505050565b80620002c4565b8051620002b38162000378565b60006200039d620002f18462000280565b83815290506020808201908402830185811115620003be57620003be600080fd5b835b818110156200033e57620003d587826200037f565b835260209283019201620003c0565b600082601f830112620003fa57620003fa600080fd5b8151620003708482602086016200038c565b60008060408385031215620004245762000424600080fd5b82516001600160401b038111156200043f576200043f600080fd5b6200044d8582860162000348565b602085015190935090506001600160401b03811115620004705762000470600080fd5b6200047e85828601620003e4565b9150509250929050565b60328152602081017f5061796d656e7453706c69747465723a2070617965657320616e6420736861728152710cae640d8cadccee8d040dad2e6dac2e8c6d60731b602082015290505b60400190565b60208082528101620002b38162000488565b601a8152602081017f5061796d656e7453706c69747465723a206e6f20706179656573000000000000815290505b60200190565b60208082528101620002b381620004e9565b634e487b7160e01b600052603260045260246000fd5b634e487b7160e01b600052601160045260246000fd5b600060001982141562000572576200057262000545565b5060010190565b602c8152602081017f5061796d656e7453706c69747465723a206163636f756e74206973207468652081526b7a65726f206164647265737360a01b60208201529050620004d1565b60208082528101620002b38162000579565b601d8152602081017f5061796d656e7453706c69747465723a207368617265732061726520300000008152905062000517565b60208082528101620002b381620005d3565b602b8152602081017f5061796d656e7453706c69747465723a206163636f756e7420616c726561647981526a206861732073686172657360a81b60208201529050620004d1565b60208082528101620002b38162000618565b6000821982111562000687576200068762000545565b500190565b6200069781620002a6565b82525050565b8062000697565b60408101620006b482856200068c565b620006c360208301846200069d565b9392505050565b610e8d80620006da6000396000f3fe6080604052600436106100c05760003560e01c80639852595c11610074578063ce7c2ac21161004e578063ce7c2ac214610231578063d79779b214610267578063e33b7de31461029d57600080fd5b80639852595c146101bb578063a3f8eace146101f1578063c45ac0501461021157600080fd5b8063406072a9116100a5578063406072a91461014e57806348b750441461016e5780638b83209b1461018e57600080fd5b806319165587146101055780633a98ef391461012757600080fd5b36610100577f6ef95f06320e7a25a04a175ca677b7052bdd97131872c2192525a629f51be77033346040516100f6929190610923565b60405180910390a1005b600080fd5b34801561011157600080fd5b50610125610120366004610960565b6102b2565b005b34801561013357600080fd5b506000545b6040516101459190610981565b60405180910390f35b34801561015a57600080fd5b506101386101693660046109ae565b6103a8565b34801561017a57600080fd5b506101256101893660046109ae565b6103d5565b34801561019a57600080fd5b506101ae6101a93660046109fc565b6104f2565b6040516101459190610a1d565b3480156101c757600080fd5b506101386101d6366004610960565b6001600160a01b031660009081526003602052604090205490565b3480156101fd57600080fd5b5061013861020c366004610960565b610522565b34801561021d57600080fd5b5061013861022c3660046109ae565b61056a565b34801561023d57600080fd5b5061013861024c366004610960565b6001600160a01b031660009081526002602052604090205490565b34801561027357600080fd5b50610138610282366004610a2b565b6001600160a01b031660009081526005602052604090205490565b3480156102a957600080fd5b50600154610138565b6001600160a01b0381166000908152600260205260409020546102f05760405162461bcd60e51b81526004016102e790610aa6565b60405180910390fd5b60006102fb82610522565b90508061031a5760405162461bcd60e51b81526004016102e790610b0e565b6001600160a01b03821660009081526003602052604081208054839290610342908490610b34565b92505081905550806001600082825461035b9190610b34565b9091555061036b90508282610634565b7fdf20fd1e76bc69d672e4814fafb2c449bba3a5369d8359adf9e05e6fde87b056828260405161039c929190610b60565b60405180910390a15050565b6001600160a01b038083166000908152600660209081526040808320938516835292905220545b92915050565b6001600160a01b03811660009081526002602052604090205461040a5760405162461bcd60e51b81526004016102e790610aa6565b6000610416838361056a565b9050806104355760405162461bcd60e51b81526004016102e790610b0e565b6001600160a01b0380841660009081526006602090815260408083209386168352929052908120805483929061046c908490610b34565b90915550506001600160a01b03831660009081526005602052604081208054839290610499908490610b34565b909155506104aa90508383836106cc565b826001600160a01b03167f3be5b7a71e84ed12875d241991c70855ac5817d847039e17a9d895c1ceb0f18a83836040516104e5929190610923565b60405180910390a2505050565b60006004828154811061050757610507610b6e565b6000918252602090912001546001600160a01b031692915050565b60008061052e60015490565b6105389047610b34565b9050610563838261055e866001600160a01b031660009081526003602052604090205490565b61074f565b9392505050565b6001600160a01b0382166000818152600560205260408082205490517f70a08231000000000000000000000000000000000000000000000000000000008152919283926370a08231906105c1903090600401610a1d565b60206040518083038186803b1580156105d957600080fd5b505afa1580156105ed573d6000803e3d6000fd5b505050506040513d601f19601f820116820180604052508101906106119190610b8f565b61061b9190610b34565b905061062c838261055e87876103a8565b949350505050565b804710156106545760405162461bcd60e51b81526004016102e790610be4565b6000826001600160a01b03168260405160006040518083038185875af1925050503d80600081146106a1576040519150601f19603f3d011682016040523d82523d6000602084013e6106a6565b606091505b50509050806106c75760405162461bcd60e51b81526004016102e790610c4c565b505050565b6106c78363a9059cbb60e01b84846040516024016106eb929190610923565b60408051601f198184030181529190526020810180517bffffffffffffffffffffffffffffffffffffffffffffffffffffffff167fffffffff000000000000000000000000000000000000000000000000000000009093169290921790915261078a565b600080546001600160a01b0385168252600260205260408220548391906107769086610c5c565b6107809190610caf565b61062c9190610cc3565b60006107df826040518060400160405280602081526020017f5361666545524332303a206c6f772d6c6576656c2063616c6c206661696c6564815250856001600160a01b03166108199092919063ffffffff16565b8051909150156106c757808060200190518101906107fd9190610ced565b6106c75760405162461bcd60e51b81526004016102e790610d66565b606061062c8484600085856001600160a01b0385163b61084b5760405162461bcd60e51b81526004016102e790610da8565b600080866001600160a01b031685876040516108679190610e0a565b60006040518083038185875af1925050503d80600081146108a4576040519150601f19603f3d011682016040523d82523d6000602084013e6108a9565b606091505b50915091506108b98282866108c4565b979650505050505050565b606083156108d3575081610563565b8251156108e35782518084602001fd5b8160405162461bcd60e51b81526004016102e79190610e46565b60006001600160a01b0382166103cf565b610917816108fd565b82525050565b80610917565b60408101610931828561090e565b610563602083018461091d565b610947816108fd565b811461095257600080fd5b50565b80356103cf8161093e565b60006020828403121561097557610975600080fd5b600061062c8484610955565b602081016103cf828461091d565b60006103cf826108fd565b6109478161098f565b80356103cf8161099a565b600080604083850312156109c4576109c4600080fd5b60006109d085856109a3565b92505060206109e185828601610955565b9150509250929050565b80610947565b80356103cf816109eb565b600060208284031215610a1157610a11600080fd5b600061062c84846109f1565b602081016103cf828461090e565b600060208284031215610a4057610a40600080fd5b600061062c84846109a3565b60268152602081017f5061796d656e7453706c69747465723a206163636f756e7420686173206e6f2081527f7368617265730000000000000000000000000000000000000000000000000000602082015290505b60400190565b602080825281016103cf81610a4c565b602b8152602081017f5061796d656e7453706c69747465723a206163636f756e74206973206e6f742081527f647565207061796d656e7400000000000000000000000000000000000000000060208201529050610aa0565b602080825281016103cf81610ab6565b634e487b7160e01b600052601160045260246000fd5b60008219821115610b4757610b47610b1e565b500190565b60006103cf8261098f565b61091781610b4c565b604081016109318285610b57565b634e487b7160e01b600052603260045260246000fd5b80516103cf816109eb565b600060208284031215610ba457610ba4600080fd5b600061062c8484610b84565b601d8152602081017f416464726573733a20696e73756666696369656e742062616c616e6365000000815290505b60200190565b602080825281016103cf81610bb0565b603a8152602081017f416464726573733a20756e61626c6520746f2073656e642076616c75652c207281527f6563697069656e74206d6179206861766520726576657274656400000000000060208201529050610aa0565b602080825281016103cf81610bf4565b6000817fffffffffffffffffffffffffffffffffffffffffffffffffffffffffffffffff0483118215151615610c9457610c94610b1e565b500290565b634e487b7160e01b600052601260045260246000fd5b600082610cbe57610cbe610c99565b500490565b600082821015610cd557610cd5610b1e565b500390565b801515610947565b80516103cf81610cda565b600060208284031215610d0257610d02600080fd5b600061062c8484610ce2565b602a8152602081017f5361666545524332303a204552433230206f7065726174696f6e20646964206e81527f6f7420737563636565640000000000000000000000000000000000000000000060208201529050610aa0565b602080825281016103cf81610d0e565b601d8152602081017f416464726573733a2063616c6c20746f206e6f6e2d636f6e747261637400000081529050610bde565b602080825281016103cf81610d76565b60005b83811015610dd3578181015183820152602001610dbb565b83811115610de2576000848401525b50505050565b6000610df2825190565b610e00818560208601610db8565b9290920192915050565b6103cf8183610de8565b6000610e1e825190565b808452602084019350610e35818560208601610db8565b601f01601f19169290920192915050565b602080825281016105638184610e1456fea2646970667358221220daf2af8a4697cefc905579bdc79ae69b9fb703aefa1378c273196a55bc7e293664736f6c63430008090033a2646970667358221220f68d9f2f3cbc07bf2f65a37f704e2b2378196fe89fca2fae3ffb987771a5dab364736f6c63430008090033",
  "linkReferences": {},
  "deployedLinkReferences": {}
}