{
  "_format": "hh-sol-artifact-1",
  "contractName": "TicketEx",
  "sourceName": "contracts/TicketEx.sol",
  "abi": [
    {
      "anonymous": false,
      "inputs": [
        {
          "indexed": true,
          "internalType": "address",
          "name": "account",
          "type": "address"
        },
        {
          "indexed": true,
          "internalType": "address",
          "name": "operator",
          "type": "address"
        },
        {
          "indexed": false,
          "internalType": "bool",
          "name": "approved",
          "type": "bool"
        }
      ],
      "name": "ApprovalForAll",
      "type": "event"
    },
    {
      "anonymous": false,
      "inputs": [
        {
          "indexed": false,
          "internalType": "address",
          "name": "attendee",
          "type": "address"
        },
        {
          "indexed": false,
          "internalType": "uint256[]",
          "name": "_tokenIds",
          "type": "uint256[]"
        },
        {
          "indexed": false,
          "internalType": "uint256[]",
          "name": "_qty",
          "type": "uint256[]"
        }
      ],
      "name": "CheckedIn",
      "type": "event"
    },
    {
      "anonymous": false,
      "inputs": [
        {
          "indexed": false,
          "internalType": "uint8",
          "name": "version",
          "type": "uint8"
        }
      ],
      "name": "Initialized",
      "type": "event"
    },
    {
      "anonymous": false,
      "inputs": [
        {
          "indexed": true,
          "internalType": "address",
          "name": "operator",
          "type": "address"
        },
        {
          "indexed": true,
          "internalType": "address",
          "name": "from",
          "type": "address"
        },
        {
          "indexed": true,
          "internalType": "address",
          "name": "to",
          "type": "address"
        },
        {
          "indexed": false,
          "internalType": "uint256[]",
          "name": "ids",
          "type": "uint256[]"
        },
        {
          "indexed": false,
          "internalType": "uint256[]",
          "name": "values",
          "type": "uint256[]"
        }
      ],
      "name": "TransferBatch",
      "type": "event"
    },
    {
      "anonymous": false,
      "inputs": [
        {
          "indexed": true,
          "internalType": "address",
          "name": "operator",
          "type": "address"
        },
        {
          "indexed": true,
          "internalType": "address",
          "name": "from",
          "type": "address"
        },
        {
          "indexed": true,
          "internalType": "address",
          "name": "to",
          "type": "address"
        },
        {
          "indexed": false,
          "internalType": "uint256",
          "name": "id",
          "type": "uint256"
        },
        {
          "indexed": false,
          "internalType": "uint256",
          "name": "value",
          "type": "uint256"
        }
      ],
      "name": "TransferSingle",
      "type": "event"
    },
    {
      "anonymous": false,
      "inputs": [
        {
          "indexed": false,
          "internalType": "string",
          "name": "value",
          "type": "string"
        },
        {
          "indexed": true,
          "internalType": "uint256",
          "name": "id",
          "type": "uint256"
        }
      ],
      "name": "URI",
      "type": "event"
    },
    {
      "inputs": [],
      "name": "accounting",
      "outputs": [
        {
          "internalType": "address",
          "name": "",
          "type": "address"
        }
      ],
      "stateMutability": "view",
      "type": "function"
    },
    {
      "inputs": [
        {
          "internalType": "uint256",
          "name": "",
          "type": "uint256"
        }
      ],
      "name": "attendees",
      "outputs": [
        {
          "internalType": "address",
          "name": "",
          "type": "address"
        }
      ],
      "stateMutability": "view",
      "type": "function"
    },
    {
      "inputs": [
        {
          "internalType": "address",
          "name": "account",
          "type": "address"
        },
        {
          "internalType": "uint256",
          "name": "id",
          "type": "uint256"
        }
      ],
      "name": "balanceOf",
      "outputs": [
        {
          "internalType": "uint256",
          "name": "",
          "type": "uint256"
        }
      ],
      "stateMutability": "view",
      "type": "function"
    },
    {
      "inputs": [
        {
          "internalType": "address[]",
          "name": "accounts",
          "type": "address[]"
        },
        {
          "internalType": "uint256[]",
          "name": "ids",
          "type": "uint256[]"
        }
      ],
      "name": "balanceOfBatch",
      "outputs": [
        {
          "internalType": "uint256[]",
          "name": "",
          "type": "uint256[]"
        }
      ],
      "stateMutability": "view",
      "type": "function"
    },
    {
      "inputs": [
        {
          "internalType": "uint256[]",
          "name": "_ticketIds",
          "type": "uint256[]"
        },
        {
          "internalType": "uint256[]",
          "name": "_qty",
          "type": "uint256[]"
        }
      ],
      "name": "buyTickets",
      "outputs": [],
      "stateMutability": "payable",
      "type": "function"
    },
    {
      "inputs": [
        {
          "internalType": "uint256[]",
          "name": "_ticketId",
          "type": "uint256[]"
        },
        {
          "internalType": "uint256[]",
          "name": "_qty",
          "type": "uint256[]"
        }
      ],
      "name": "checkIn",
      "outputs": [],
      "stateMutability": "nonpayable",
      "type": "function"
    },
    {
      "inputs": [],
      "name": "eventCheckInDeadline",
      "outputs": [
        {
          "internalType": "uint256",
          "name": "",
          "type": "uint256"
        }
      ],
      "stateMutability": "view",
      "type": "function"
    },
    {
      "inputs": [],
      "name": "getBaseURI",
      "outputs": [
        {
          "internalType": "string",
          "name": "",
          "type": "string"
        }
      ],
      "stateMutability": "view",
      "type": "function"
    },
    {
      "inputs": [],
      "name": "getOwner",
      "outputs": [
        {
          "internalType": "address",
          "name": "",
          "type": "address"
        }
      ],
      "stateMutability": "view",
      "type": "function"
    },
    {
      "inputs": [
        {
          "internalType": "uint256",
          "name": "tokenId",
          "type": "uint256"
        }
      ],
      "name": "getTokenURI",
      "outputs": [
        {
          "internalType": "string",
          "name": "",
          "type": "string"
        }
      ],
      "stateMutability": "view",
      "type": "function"
    },
    {
      "inputs": [
        {
          "internalType": "string[]",
          "name": "fungibleTokenURI_",
          "type": "string[]"
        },
        {
          "internalType": "uint256[]",
          "name": "prices_",
          "type": "uint256[]"
        },
        {
          "internalType": "uint256[]",
          "name": "maxQuantity_",
          "type": "uint256[]"
        },
        {
          "internalType": "string",
          "name": "uri_",
          "type": "string"
        },
        {
          "internalType": "uint256",
          "name": "eventCheckInDeadline_",
          "type": "uint256"
        },
        {
          "internalType": "address",
          "name": "_accounting",
          "type": "address"
        },
        {
          "internalType": "uint96",
          "name": "_royalty",
          "type": "uint96"
        }
      ],
      "name": "initialize",
      "outputs": [],
      "stateMutability": "nonpayable",
      "type": "function"
    },
    {
      "inputs": [
        {
          "internalType": "address",
          "name": "account",
          "type": "address"
        },
        {
          "internalType": "address",
          "name": "operator",
          "type": "address"
        }
      ],
      "name": "isApprovedForAll",
      "outputs": [
        {
          "internalType": "bool",
          "name": "",
          "type": "bool"
        }
      ],
      "stateMutability": "view",
      "type": "function"
    },
    {
      "inputs": [
        {
          "internalType": "uint256",
          "name": "",
          "type": "uint256"
        }
      ],
      "name": "maxQuantity",
      "outputs": [
        {
          "internalType": "uint256",
          "name": "",
          "type": "uint256"
        }
      ],
      "stateMutability": "view",
      "type": "function"
    },
    {
      "inputs": [
        {
          "internalType": "uint256",
          "name": "_tokenId",
          "type": "uint256"
        },
        {
          "internalType": "uint256",
          "name": "_salePrice",
          "type": "uint256"
        }
      ],
      "name": "royaltyInfo",
      "outputs": [
        {
          "internalType": "address",
          "name": "",
          "type": "address"
        },
        {
          "internalType": "uint256",
          "name": "",
          "type": "uint256"
        }
      ],
      "stateMutability": "view",
      "type": "function"
    },
    {
      "inputs": [
        {
          "internalType": "address",
          "name": "from",
          "type": "address"
        },
        {
          "internalType": "address",
          "name": "to",
          "type": "address"
        },
        {
          "internalType": "uint256[]",
          "name": "ids",
          "type": "uint256[]"
        },
        {
          "internalType": "uint256[]",
          "name": "amounts",
          "type": "uint256[]"
        },
        {
          "internalType": "bytes",
          "name": "data",
          "type": "bytes"
        }
      ],
      "name": "safeBatchTransferFrom",
      "outputs": [],
      "stateMutability": "nonpayable",
      "type": "function"
    },
    {
      "inputs": [
        {
          "internalType": "address",
          "name": "from",
          "type": "address"
        },
        {
          "internalType": "address",
          "name": "to",
          "type": "address"
        },
        {
          "internalType": "uint256",
          "name": "id",
          "type": "uint256"
        },
        {
          "internalType": "uint256",
          "name": "amount",
          "type": "uint256"
        },
        {
          "internalType": "bytes",
          "name": "data",
          "type": "bytes"
        }
      ],
      "name": "safeTransferFrom",
      "outputs": [],
      "stateMutability": "nonpayable",
      "type": "function"
    },
    {
      "inputs": [
        {
          "internalType": "address",
          "name": "operator",
          "type": "address"
        },
        {
          "internalType": "bool",
          "name": "approved",
          "type": "bool"
        }
      ],
      "name": "setApprovalForAll",
      "outputs": [],
      "stateMutability": "nonpayable",
      "type": "function"
    },
    {
      "inputs": [
        {
          "internalType": "string",
          "name": "newuri",
          "type": "string"
        }
      ],
      "name": "setBaseURI",
      "outputs": [],
      "stateMutability": "nonpayable",
      "type": "function"
    },
    {
      "inputs": [
        {
          "internalType": "uint256[]",
          "name": "newqty",
          "type": "uint256[]"
        }
      ],
      "name": "setNonFungibleTokenQty",
      "outputs": [],
      "stateMutability": "nonpayable",
      "type": "function"
    },
    {
      "inputs": [
        {
          "internalType": "string[]",
          "name": "newuri",
          "type": "string[]"
        }
      ],
      "name": "setNonFungibleTokenURI",
      "outputs": [],
      "stateMutability": "nonpayable",
      "type": "function"
    },
    {
      "inputs": [
        {
          "internalType": "address",
          "name": "receiver",
          "type": "address"
        },
        {
          "internalType": "uint96",
          "name": "feeBasisPoints",
          "type": "uint96"
        }
      ],
      "name": "setRoyaltyInfo",
      "outputs": [],
      "stateMutability": "nonpayable",
      "type": "function"
    },
    {
      "inputs": [
        {
          "internalType": "uint256",
          "name": "",
          "type": "uint256"
        }
      ],
      "name": "supply",
      "outputs": [
        {
          "internalType": "uint256",
          "name": "",
          "type": "uint256"
        }
      ],
      "stateMutability": "view",
      "type": "function"
    },
    {
      "inputs": [
        {
          "internalType": "bytes4",
          "name": "interfaceId",
          "type": "bytes4"
        }
      ],
      "name": "supportsInterface",
      "outputs": [
        {
          "internalType": "bool",
          "name": "",
          "type": "bool"
        }
      ],
      "stateMutability": "view",
      "type": "function"
    },
    {
      "inputs": [
        {
          "internalType": "address",
          "name": "_newOwner",
          "type": "address"
        }
      ],
      "name": "transferOwnership",
      "outputs": [],
      "stateMutability": "nonpayable",
      "type": "function"
    },
    {
      "inputs": [],
      "name": "withdraw",
      "outputs": [],
      "stateMutability": "nonpayable",
      "type": "function"
    }
  ],
  "bytecode": "0x6080604052600060125534801561001557600080fd5b50613463806100256000396000f3fe6080604052600436106101955760003560e01c80634e1273f4116100e1578063a22cb4651161008a578063e985e9c511610064578063e985e9c514610465578063ec69e314146104ae578063f242432a146104ce578063f2fde38b146104ee57600080fd5b8063a22cb46514610412578063c058514414610432578063c0b497bb1461044557600080fd5b8063714c5398116100bb578063714c5398146103bf578063893d20e8146103d45780639624e83e146103f257600080fd5b80634e1273f4146103525780635261325d1461037f57806355f804b31461039f57600080fd5b80632eb2c2d6116101435780633ccfd60b1161011d5780633ccfd60b146102fd578063474b00021461031257806349aa48871461033257600080fd5b80632eb2c2d61461029057806335403023146102b05780633bb3a24d146102d057600080fd5b80630e0c353d116101745780630e0c353d1461021f578063217d36531461024c5780632a55205a1461026257600080fd5b8062fdd58e1461019a57806301ffc9a7146101d057806302fa7c47146101fd575b600080fd5b3480156101a657600080fd5b506101ba6101b5366004611f01565b61050e565b6040516101c79190611f46565b60405180910390f35b3480156101dc57600080fd5b506101f06101eb366004611f87565b61056a565b6040516101c79190611fb8565b34801561020957600080fd5b5061021d610218366004611fe5565b6105c0565b005b34801561022b57600080fd5b5061023f61023a366004612018565b610601565b6040516101c79190612042565b34801561025857600080fd5b506101ba600f5481565b34801561026e57600080fd5b5061028261027d366004612050565b61062b565b6040516101c7929190612072565b34801561029c57600080fd5b5061021d6102ab366004612223565b61070a565b3480156102bc57600080fd5b506101ba6102cb366004612018565b610756565b3480156102dc57600080fd5b506102f06102eb366004612018565b610777565b6040516101c7919061234a565b34801561030957600080fd5b5061021d610881565b34801561031e57600080fd5b5061021d61032d3660046123eb565b6108f7565b34801561033e57600080fd5b5061021d61034d366004612540565b610acb565b34801561035e57600080fd5b5061037261036d3660046125fb565b610b2b565b6040516101c791906126c1565b34801561038b57600080fd5b5061021d61039a366004612540565b610c13565b3480156103ab57600080fd5b5061021d6103ba3660046126d2565b610c68565b3480156103cb57600080fd5b506102f0610c7b565b3480156103e057600080fd5b506011546001600160a01b031661023f565b3480156103fe57600080fd5b5060105461023f906001600160a01b031681565b34801561041e57600080fd5b5061021d61042d366004612720565b610d0d565b61021d610440366004612753565b610d18565b34801561045157600080fd5b506101ba610460366004612018565b610f6f565b34801561047157600080fd5b506101f06104803660046127cc565b6001600160a01b039182166000908152600b6020908152604080832093909416825291909152205460ff1690565b3480156104ba57600080fd5b5061021d6104c9366004612753565b610f7f565b3480156104da57600080fd5b5061021d6104e93660046127ff565b6111a6565b3480156104fa57600080fd5b5061021d610509366004612859565b6111eb565b60006001600160a01b03831661053f5760405162461bcd60e51b8152600401610536906128d4565b60405180910390fd5b5060008181526003602090815260408083206001600160a01b03861684529091529020545b92915050565b60007fffffffff0000000000000000000000000000000000000000000000000000000082167fd9b67a2600000000000000000000000000000000000000000000000000000000148061056457506105648261124d565b6011546001600160a01b0316336001600160a01b0316146105f35760405162461bcd60e51b815260040161053690612916565b6105fd82826112e4565b5050565b6004818154811061061157600080fd5b6000918252602090912001546001600160a01b0316905081565b60008281526001602090815260408083208151808301909252546001600160a01b038116808352740100000000000000000000000000000000000000009091046bffffffffffffffffffffffff169282019290925282916106cc5750604080518082019091526000546001600160a01b03811682527401000000000000000000000000000000000000000090046bffffffffffffffffffffffff1660208201525b6020810151600090612710906106f0906bffffffffffffffffffffffff168761293c565b6106fa9190612971565b91519350909150505b9250929050565b6001600160a01b03851633148061072657506107268533610480565b6107425760405162461bcd60e51b8152600401610536906129dd565b61074f8585858585611389565b5050505050565b6009818154811061076657600080fd5b600091825260209091200154905081565b6060600f5442111561084357600d60006005848154811061079a5761079a6129ed565b9060005260206000200154815260200190815260200160002080546107be90612a19565b80601f01602080910402602001604051908101604052809291908181526020018280546107ea90612a19565b80156108375780601f1061080c57610100808354040283529160200191610837565b820191906000526020600020905b81548152906001019060200180831161081a57829003601f168201915b50505050509050919050565b505060408051808201909152601681527f546f6b656e73206e6f742064726f707065642079657400000000000000000000602082015290565b919050565b6010546040516000916001600160a01b03169047908381818185875af1925050503d80600081146108ce576040519150601f19603f3d011682016040523d82523d6000602084013e6108d3565b606091505b50509050806108f45760405162461bcd60e51b815260040161053690612a78565b50565b600254610100900460ff16158080156109175750600254600160ff909116105b806109315750303b158015610931575060025460ff166001145b61094d5760405162461bcd60e51b815260040161053690612ae0565b6002805460ff191660011790558015610970576002805461ff0019166101001790555b60005b88518110156109cf5788818151811061098e5761098e6129ed565b6020026020010151600c600083815260200190815260200160002090805190602001906109bc929190611d7d565b50806109c781612af0565b915050610973565b5084516109e390600e906020880190611d7d565b506011805473ffffffffffffffffffffffffffffffffffffffff1916331790558651610a1690600a9060208a0190611dfd565b508551610a2a906008906020890190611dfd565b508551610a3e906009906020890190611dfd565b506010805473ffffffffffffffffffffffffffffffffffffffff19166001600160a01b038516179055600f849055610a7683836112e4565b8015610ac1576002805461ff00191690556040517f7f26b83ff96e1f2b6a682f133852f6798a09c465da95921460cefb384740249890610ab890600190612b28565b60405180910390a15b5050505050505050565b60005b81811015610b2657828282818110610ae857610ae86129ed565b9050602002810190610afa9190612b36565b6000838152600d60205260409020610b13929091611e37565b5080610b1e81612af0565b915050610ace565b505050565b60608151835114610b4e5760405162461bcd60e51b815260040161053690612c01565b6000835167ffffffffffffffff811115610b6a57610b6a612094565b604051908082528060200260200182016040528015610b93578160200160208202803683370190505b50905060005b8451811015610c0b57610bde858281518110610bb757610bb76129ed565b6020026020010151858381518110610bd157610bd16129ed565b602002602001015161050e565b828281518110610bf057610bf06129ed565b6020908102919091010152610c0481612af0565b9050610b99565b509392505050565b60005b81811015610b2657828282818110610c3057610c306129ed565b9050602002013560068281548110610c4a57610c4a6129ed565b60009182526020909120015580610c6081612af0565b915050610c16565b80516105fd90600e906020840190611d7d565b6060600e8054610c8a90612a19565b80601f0160208091040260200160405190810160405280929190818152602001828054610cb690612a19565b8015610d035780601f10610cd857610100808354040283529160200191610d03565b820191906000526020600020905b815481529060010190602001808311610ce657829003601f168201915b5050505050905090565b6105fd338383611520565b828114610d375760405162461bcd60e51b815260040161053690612c43565b6000805b84811015610e33576000848483818110610d5757610d576129ed565b905060200201356009888885818110610d7257610d726129ed565b9050602002013581548110610d8957610d896129ed565b9060005260206000200154610d9e9190612c53565b1015610dbc5760405162461bcd60e51b815260040161053690612c9c565b838382818110610dce57610dce6129ed565b90506020020135600a878784818110610de957610de96129ed565b9050602002013581548110610e0057610e006129ed565b9060005260206000200154610e15919061293c565b610e1f9083612cac565b915080610e2b81612af0565b915050610d3b565b50803414610e535760405162461bcd60e51b815260040161053690612cf6565b610ecf3386868080602002602001604051908101604052809392919081815260200183836020028082843760009201919091525050604080516020808a028281018201909352898252909350899250889182918501908490808284376000920182905250604080516020810190915290815292506115c3915050565b60005b84811015610f67578383878784818110610eee57610eee6129ed565b90506020020135818110610f0457610f046129ed565b905060200201356009878784818110610f1f57610f1f6129ed565b9050602002013581548110610f3657610f366129ed565b906000526020600020016000828254610f4f9190612cac565b90915550819050610f5f81612af0565b915050610ed2565b505050505050565b6008818154811061076657600080fd5b600f544210610fa05760405162461bcd60e51b815260040161053690612d38565b828114610fbf5760405162461bcd60e51b815260040161053690612c43565b600654610fde5760405162461bcd60e51b815260040161053690612d7a565b60005b8381101561108d576000838383818110610ffd57610ffd6129ed565b905060200201356003600088888681811061101a5761101a6129ed565b9050602002013581526020019081526020016000206000336001600160a01b03166001600160a01b031681526020019081526020016000205461105d9190612c53565b101561107b5760405162461bcd60e51b815260040161053690612dbc565b8061108581612af0565b915050610fe1565b506110fc338585808060200260200160405190810160405280939291908181526020018383602002808284376000920191909152505060408051602080890282810182019093528882529093508892508791829185019084908082843760009201919091525061170f92505050565b60005b8381101561074f5760005b8282101561119357600480546001810182556000919091527f8a35acfbc15ff81a39ae7d344fd709f28e8600b4aa8c65c6b64bfe7fe36bd19b01805473ffffffffffffffffffffffffffffffffffffffff191633179055600561116b61189e565b815460018101835560009283526020909220909101558061118b81612af0565b91505061110a565b508061119e81612af0565b9150506110ff565b6001600160a01b0385163314806111c257506111c28533610480565b6111de5760405162461bcd60e51b8152600401610536906129dd565b61074f8585858585611922565b6011546001600160a01b0316336001600160a01b03161461121e5760405162461bcd60e51b815260040161053690612916565b6011805473ffffffffffffffffffffffffffffffffffffffff19166001600160a01b0392909216919091179055565b60007fffffffff0000000000000000000000000000000000000000000000000000000082167f2a55205a00000000000000000000000000000000000000000000000000000000148061056457507f01ffc9a7000000000000000000000000000000000000000000000000000000007fffffffff00000000000000000000000000000000000000000000000000000000831614610564565b6127106bffffffffffffffffffffffff821611156113145760405162461bcd60e51b815260040161053690612e24565b6001600160a01b03821661133a5760405162461bcd60e51b815260040161053690612e66565b604080518082019091526001600160a01b039092168083526bffffffffffffffffffffffff90911660209092018290527401000000000000000000000000000000000000000090910217600055565b81518351146113aa5760405162461bcd60e51b815260040161053690612ece565b6001600160a01b0384166113d05760405162461bcd60e51b815260040161053690612f36565b3360005b84518110156114ba5760008582815181106113f1576113f16129ed565b60200260200101519050600085838151811061140f5761140f6129ed565b60209081029190910181015160008481526003835260408082206001600160a01b038e1683529093529190912054909150818110156114605760405162461bcd60e51b815260040161053690612f9e565b60008381526003602090815260408083206001600160a01b038e8116855292528083208585039055908b1682528120805484929061149f908490612cac565b92505081905550505050806114b390612af0565b90506113d4565b50846001600160a01b0316866001600160a01b0316826001600160a01b03167f4a39dc06d4c0dbc64b70af90fd698a233a518aa5d07e595d983b8c0526c8f7fb878760405161150a929190612fae565b60405180910390a4610f67818787878787611a5c565b816001600160a01b0316836001600160a01b031614156115525760405162461bcd60e51b81526004016105369061302b565b6001600160a01b038381166000818152600b602090815260408083209487168084529490915290819020805460ff1916851515179055517f17307eab39ab6107e8899845ad3d59bd9653f200f220920489ca2b5937696c31906115b6908590611fb8565b60405180910390a3505050565b6001600160a01b0384166115e95760405162461bcd60e51b815260040161053690613093565b815183511461160a5760405162461bcd60e51b815260040161053690612ece565b3360005b84518110156116a757838181518110611629576116296129ed565b602002602001015160036000878481518110611647576116476129ed565b602002602001015181526020019081526020016000206000886001600160a01b03166001600160a01b03168152602001908152602001600020600082825461168f9190612cac565b9091555081905061169f81612af0565b91505061160e565b50846001600160a01b031660006001600160a01b0316826001600160a01b03167f4a39dc06d4c0dbc64b70af90fd698a233a518aa5d07e595d983b8c0526c8f7fb87876040516116f8929190612fae565b60405180910390a461074f81600087878787611a5c565b6001600160a01b0383166117355760405162461bcd60e51b8152600401610536906130fb565b80518251146117565760405162461bcd60e51b815260040161053690612ece565b604080516020810190915260009081905233905b835181101561182f576000848281518110611787576117876129ed565b6020026020010151905060008483815181106117a5576117a56129ed565b60209081029190910181015160008481526003835260408082206001600160a01b038c1683529093529190912054909150818110156117f65760405162461bcd60e51b815260040161053690613163565b60009283526003602090815260408085206001600160a01b038b168652909152909220910390558061182781612af0565b91505061176a565b5060006001600160a01b0316846001600160a01b0316826001600160a01b03167f4a39dc06d4c0dbc64b70af90fd698a233a518aa5d07e595d983b8c0526c8f7fb8686604051611880929190612fae565b60405180910390a46040805160208101909152600090525b50505050565b6000806118af600680549050611bcd565b90506000600682815481106118c6576118c66129ed565b90600052602060002001541115611910576001600682815481106118ec576118ec6129ed565b9060005260206000200160008282546119059190612c53565b909155509092915050565b61191861189e565b91505090565b5090565b6001600160a01b0384166119485760405162461bcd60e51b815260040161053690612f36565b33600061195485611c1e565b9050600061196185611c1e565b905060008681526003602090815260408083206001600160a01b038c168452909152902054858110156119a65760405162461bcd60e51b815260040161053690612f9e565b60008781526003602090815260408083206001600160a01b038d8116855292528083208985039055908a168252812080548892906119e5908490612cac565b92505081905550876001600160a01b0316896001600160a01b0316856001600160a01b03167fc3d58168c5ae7397731d063d5bbf3d657854427343f4c083240f7aacaa2d0f628a8a604051611a3b929190613173565b60405180910390a4611a51848a8a8a8a8a611c69565b505050505050505050565b6001600160a01b0384163b15610f67576040517fbc197c810000000000000000000000000000000000000000000000000000000081526001600160a01b0385169063bc197c8190611ab99089908990889088908890600401613181565b602060405180830381600087803b158015611ad357600080fd5b505af1925050508015611b03575060408051601f3d908101601f19168201909252611b00918101906131ec565b60015b611b6357611b0f61320d565b806308c379a01415611b495750611b24613228565b80611b2f5750611b4b565b8060405162461bcd60e51b8152600401610536919061234a565b505b60405162461bcd60e51b8152600401610536906132fe565b7fffffffff0000000000000000000000000000000000000000000000000000000081167fbc197c810000000000000000000000000000000000000000000000000000000014611bc45760405162461bcd60e51b815260040161053690613366565b50505050505050565b6012805460009182611bde83612af0565b9190505550814233601254604051602001611bfb939291906133a4565b6040516020818303038152906040528051906020012060001c61056491906133d2565b60408051600180825281830190925260609160009190602080830190803683370190505090508281600081518110611c5857611c586129ed565b602090810291909101015292915050565b6001600160a01b0384163b15610f67576040517ff23a6e610000000000000000000000000000000000000000000000000000000081526001600160a01b0385169063f23a6e6190611cc690899089908890889088906004016133e6565b602060405180830381600087803b158015611ce057600080fd5b505af1925050508015611d10575060408051601f3d908101601f19168201909252611d0d918101906131ec565b60015b611d1c57611b0f61320d565b7fffffffff0000000000000000000000000000000000000000000000000000000081167ff23a6e610000000000000000000000000000000000000000000000000000000014611bc45760405162461bcd60e51b815260040161053690613366565b828054611d8990612a19565b90600052602060002090601f016020900481019282611dab5760008555611df1565b82601f10611dc457805160ff1916838001178555611df1565b82800160010185558215611df1579182015b82811115611df1578251825591602001919060010190611dd6565b5061191e929150611eab565b828054828255906000526020600020908101928215611df15791602002820182811115611df1578251825591602001919060010190611dd6565b828054611e4390612a19565b90600052602060002090601f016020900481019282611e655760008555611df1565b82601f10611e7e5782800160ff19823516178555611df1565b82800160010185558215611df1579182015b82811115611df1578235825591602001919060010190611e90565b5b8082111561191e5760008155600101611eac565b60006001600160a01b038216610564565b611eda81611ec0565b81146108f457600080fd5b803561056481611ed1565b80611eda565b803561056481611ef0565b60008060408385031215611f1757611f17600080fd5b6000611f238585611ee5565b9250506020611f3485828601611ef6565b9150509250929050565b805b82525050565b602081016105648284611f3e565b7fffffffff000000000000000000000000000000000000000000000000000000008116611eda565b803561056481611f54565b600060208284031215611f9c57611f9c600080fd5b6000611fa88484611f7c565b949350505050565b801515611f40565b602081016105648284611fb0565b6bffffffffffffffffffffffff8116611eda565b803561056481611fc6565b60008060408385031215611ffb57611ffb600080fd5b60006120078585611ee5565b9250506020611f3485828601611fda565b60006020828403121561202d5761202d600080fd5b6000611fa88484611ef6565b611f4081611ec0565b602081016105648284612039565b6000806040838503121561206657612066600080fd5b6000611f238585611ef6565b604081016120808285612039565b61208d6020830184611f3e565b9392505050565b634e487b7160e01b600052604160045260246000fd5b601f19601f830116810181811067ffffffffffffffff821117156120d0576120d0612094565b6040525050565b60006120e260405190565b905061087c82826120aa565b600067ffffffffffffffff82111561210857612108612094565b5060209081020190565b6000612125612120846120ee565b6120d7565b8381529050602080820190840283018581111561214457612144600080fd5b835b81811015612166576121588782611ef6565b835260209283019201612146565b5050509392505050565b600082601f83011261218457612184600080fd5b8135611fa8848260208601612112565b600067ffffffffffffffff8211156121ae576121ae612094565b601f19601f83011660200192915050565b82818337506000910152565b60006121d961212084612194565b9050828152602081018484840111156121f4576121f4600080fd5b610c0b8482856121bf565b600082601f83011261221357612213600080fd5b8135611fa88482602086016121cb565b600080600080600060a0868803121561223e5761223e600080fd5b600061224a8888611ee5565b955050602061225b88828901611ee5565b945050604086013567ffffffffffffffff81111561227b5761227b600080fd5b61228788828901612170565b935050606086013567ffffffffffffffff8111156122a7576122a7600080fd5b6122b388828901612170565b925050608086013567ffffffffffffffff8111156122d3576122d3600080fd5b6122df888289016121ff565b9150509295509295909350565b60005b838110156123075781810151838201526020016122ef565b838111156118985750506000910152565b6000612322825190565b8084526020840193506123398185602086016122ec565b601f01601f19169290920192915050565b6020808252810161208d8184612318565b6000612369612120846120ee565b8381529050602080820190840283018581111561238857612388600080fd5b835b8181101561216657803567ffffffffffffffff8111156123ac576123ac600080fd5b85016123b888826121ff565b8452506020928301920161238a565b600082601f8301126123db576123db600080fd5b8135611fa884826020860161235b565b600080600080600080600060e0888a03121561240957612409600080fd5b873567ffffffffffffffff81111561242357612423600080fd5b61242f8a828b016123c7565b975050602088013567ffffffffffffffff81111561244f5761244f600080fd5b61245b8a828b01612170565b965050604088013567ffffffffffffffff81111561247b5761247b600080fd5b6124878a828b01612170565b955050606088013567ffffffffffffffff8111156124a7576124a7600080fd5b6124b38a828b016121ff565b94505060806124c48a828b01611ef6565b93505060a06124d58a828b01611ee5565b92505060c06124e68a828b01611fda565b91505092959891949750929550565b60008083601f84011261250a5761250a600080fd5b50813567ffffffffffffffff81111561252557612525600080fd5b60208301915083602082028301111561070357610703600080fd5b6000806020838503121561255657612556600080fd5b823567ffffffffffffffff81111561257057612570600080fd5b61257c858286016124f5565b92509250509250929050565b6000612596612120846120ee565b838152905060208082019084028301858111156125b5576125b5600080fd5b835b81811015612166576125c98782611ee5565b8352602092830192016125b7565b600082601f8301126125eb576125eb600080fd5b8135611fa8848260208601612588565b6000806040838503121561261157612611600080fd5b823567ffffffffffffffff81111561262b5761262b600080fd5b612637858286016125d7565b925050602083013567ffffffffffffffff81111561265757612657600080fd5b611f3485828601612170565b61266d8282611f3e565b5060200190565b60200190565b6000612684825190565b808452602093840193830160005b828110156126b75781516126a68782612663565b965050602082019150600101612692565b5093949350505050565b6020808252810161208d818461267a565b6000602082840312156126e7576126e7600080fd5b813567ffffffffffffffff81111561270157612701600080fd5b611fa8848285016121ff565b801515611eda565b80356105648161270d565b6000806040838503121561273657612736600080fd5b60006127428585611ee5565b9250506020611f3485828601612715565b6000806000806040858703121561276c5761276c600080fd5b843567ffffffffffffffff81111561278657612786600080fd5b612792878288016124f5565b9450945050602085013567ffffffffffffffff8111156127b4576127b4600080fd5b6127c0878288016124f5565b95989497509550505050565b600080604083850312156127e2576127e2600080fd5b60006127ee8585611ee5565b9250506020611f3485828601611ee5565b600080600080600060a0868803121561281a5761281a600080fd5b60006128268888611ee5565b955050602061283788828901611ee5565b945050604061284888828901611ef6565b93505060606122b388828901611ef6565b60006020828403121561286e5761286e600080fd5b6000611fa88484611ee5565b602a8152602081017f455243313135353a2061646472657373207a65726f206973206e6f742061207681527f616c6964206f776e657200000000000000000000000000000000000000000000602082015290505b60400190565b602080825281016105648161287a565b60098152602081017f4e6f74206f776e6572000000000000000000000000000000000000000000000081529050612674565b60208082528101610564816128e4565b634e487b7160e01b600052601160045260246000fd5b600081600019048311821515161561295657612956612926565b500290565b634e487b7160e01b600052601260045260246000fd5b6000826129805761298061295b565b500490565b602e8152602081017f455243313135353a2063616c6c6572206973206e6f7420746f6b656e206f776e81527f6572206f7220617070726f766564000000000000000000000000000000000000602082015290506128ce565b6020808252810161056481612985565b634e487b7160e01b600052603260045260246000fd5b634e487b7160e01b600052602260045260246000fd5b600281046001821680612a2d57607f821691505b60208210811415612a4057612a40612a03565b50919050565b60198152602081017f4661696c656420746f2073656e6420746f2053696d6f6e6f2e0000000000000081529050612674565b6020808252810161056481612a46565b602e8152602081017f496e697469616c697a61626c653a20636f6e747261637420697320616c72656181527f647920696e697469616c697a6564000000000000000000000000000000000000602082015290506128ce565b6020808252810161056481612a88565b6000600019821415612b0457612b04612926565b5060010190565b600061056482612b19565b90565b60ff1690565b611f4081612b0b565b602081016105648284612b1f565b60008083357fffffffffffffffffffffffffffffffffffffffffffffffffffffffffffffffe136859003018112612b6f57612b6f600080fd5b8301915050803567ffffffffffffffff811115612b8e57612b8e600080fd5b60208201915060018102360382131561070357610703600080fd5b60298152602081017f455243313135353a206163636f756e747320616e6420696473206c656e67746881527f206d69736d617463680000000000000000000000000000000000000000000000602082015290506128ce565b6020808252810161056481612ba9565b600d8152602081017f496e76616c696420696e7075740000000000000000000000000000000000000081529050612674565b6020808252810161056481612c11565b600082821015612c6557612c65612926565b500390565b60178152602081017f4e6f7420656e6f756768207469636b657473206c65667400000000000000000081529050612674565b6020808252810161056481612c6a565b60008219821115612cbf57612cbf612926565b500190565b600e8152602081017f496e76616c696420616d6f756e7400000000000000000000000000000000000081529050612674565b6020808252810161056481612cc4565b601c8152602081017f436865636b20696e20646561646c696e6520686173207061737365640000000081529050612674565b6020808252810161056481612d06565b60188152602081017f436865636b696e206e6f7420737461727465642079657421000000000000000081529050612674565b6020808252810161056481612d48565b601d8152602081017f596f7520646f6e2774206861766520656e6f756768207469636b65747300000081529050612674565b6020808252810161056481612d8a565b602a8152602081017f455243323938313a20726f79616c7479206665652077696c6c2065786365656481527f2073616c65507269636500000000000000000000000000000000000000000000602082015290506128ce565b6020808252810161056481612dcc565b60198152602081017f455243323938313a20696e76616c69642072656365697665720000000000000081529050612674565b6020808252810161056481612e34565b60288152602081017f455243313135353a2069647320616e6420616d6f756e7473206c656e6774682081527f6d69736d61746368000000000000000000000000000000000000000000000000602082015290506128ce565b6020808252810161056481612e76565b60258152602081017f455243313135353a207472616e7366657220746f20746865207a65726f20616481527f6472657373000000000000000000000000000000000000000000000000000000602082015290506128ce565b6020808252810161056481612ede565b602a8152602081017f455243313135353a20696e73756666696369656e742062616c616e636520666f81527f72207472616e7366657200000000000000000000000000000000000000000000602082015290506128ce565b6020808252810161056481612f46565b60408082528101612fbf818561267a565b90508181036020830152611fa8818461267a565b60298152602081017f455243313135353a2073657474696e6720617070726f76616c2073746174757381527f20666f722073656c660000000000000000000000000000000000000000000000602082015290506128ce565b6020808252810161056481612fd3565b60218152602081017f455243313135353a206d696e7420746f20746865207a65726f2061646472657381527f7300000000000000000000000000000000000000000000000000000000000000602082015290506128ce565b602080825281016105648161303b565b60238152602081017f455243313135353a206275726e2066726f6d20746865207a65726f206164647281527f6573730000000000000000000000000000000000000000000000000000000000602082015290506128ce565b60208082528101610564816130a3565b60248152602081017f455243313135353a206275726e20616d6f756e7420657863656564732062616c81527f616e636500000000000000000000000000000000000000000000000000000000602082015290506128ce565b602080825281016105648161310b565b604081016120808285611f3e565b60a0810161318f8288612039565b61319c6020830187612039565b81810360408301526131ae818661267a565b905081810360608301526131c2818561267a565b905081810360808301526131d68184612318565b979650505050505050565b805161056481611f54565b60006020828403121561320157613201600080fd5b6000611fa884846131e1565b600060033d1115612b165760046000803e5060005160e01c90565b600060443d10156132365790565b60405160043d036004823e80513d602482011167ffffffffffffffff8211171561325f57505090565b808201805167ffffffffffffffff81111561327b575050505090565b80602083010160043d03850181111561329657505050505090565b50610c0b816020018401856120aa565b60348152602081017f455243313135353a207472616e7366657220746f206e6f6e2d4552433131353581527f526563656976657220696d706c656d656e746572000000000000000000000000602082015290506128ce565b60208082528101610564816132a6565b60288152602081017f455243313135353a204552433131353552656365697665722072656a6563746581527f6420746f6b656e73000000000000000000000000000000000000000000000000602082015290506128ce565b602080825281016105648161330e565b80611f40565b60006105648260601b90565b60006105648261337c565b611f4061339f82611ec0565b613388565b6133ae8185613376565b6020016133bb8184613393565b6014016133c88183613376565b6020019392505050565b6000826133e1576133e161295b565b500690565b60a081016133f48288612039565b6134016020830187612039565b61340e6040830186611f3e565b61341b6060830185611f3e565b81810360808301526131d6818461231856fea26469706673582212209306a0ee918b3b7d2b9b7d9933dad5d1ec78a1a30749d1e5c8752affa956e29264736f6c63430008090033",
  "linkReferences": {},
  "deployedLinkReferences": {}
}